{
  "contractName": "AnyswapV5ERC20",
  "abi": [
    {
      "inputs": [
        {
          "internalType": "string",
          "name": "_name",
          "type": "string"
        },
        {
          "internalType": "string",
          "name": "_symbol",
          "type": "string"
        },
        {
          "internalType": "uint8",
          "name": "_decimals",
          "type": "uint8"
        },
        {
          "internalType": "address",
          "name": "_underlying",
          "type": "address"
        },
        {
          "internalType": "address",
          "name": "_vault",
          "type": "address"
        }
      ],
      "stateMutability": "nonpayable",
      "type": "constructor"
    },
    {
      "anonymous": false,
      "inputs": [
        {
          "indexed": true,
          "internalType": "address",
          "name": "owner",
          "type": "address"
        },
        {
          "indexed": true,
          "internalType": "address",
          "name": "spender",
          "type": "address"
        },
        {
          "indexed": false,
          "internalType": "uint256",
          "name": "value",
          "type": "uint256"
        }
      ],
      "name": "Approval",
      "type": "event"
    },
    {
      "anonymous": false,
      "inputs": [
        {
          "indexed": true,
          "internalType": "address",
          "name": "auth",
          "type": "address"
        },
        {
          "indexed": false,
          "internalType": "uint256",
          "name": "timestamp",
          "type": "uint256"
        }
      ],
      "name": "LogAddAuth",
      "type": "event"
    },
    {
      "anonymous": false,
      "inputs": [
        {
          "indexed": true,
          "internalType": "address",
          "name": "oldOwner",
          "type": "address"
        },
        {
          "indexed": true,
          "internalType": "address",
          "name": "newOwner",
          "type": "address"
        },
        {
          "indexed": true,
          "internalType": "uint256",
          "name": "effectiveHeight",
          "type": "uint256"
        }
      ],
      "name": "LogChangeMPCOwner",
      "type": "event"
    },
    {
      "anonymous": false,
      "inputs": [
        {
          "indexed": true,
          "internalType": "address",
          "name": "oldVault",
          "type": "address"
        },
        {
          "indexed": true,
          "internalType": "address",
          "name": "newVault",
          "type": "address"
        },
        {
          "indexed": true,
          "internalType": "uint256",
          "name": "effectiveTime",
          "type": "uint256"
        }
      ],
      "name": "LogChangeVault",
      "type": "event"
    },
    {
      "anonymous": false,
      "inputs": [
        {
          "indexed": true,
          "internalType": "bytes32",
          "name": "txhash",
          "type": "bytes32"
        },
        {
          "indexed": true,
          "internalType": "address",
          "name": "account",
          "type": "address"
        },
        {
          "indexed": false,
          "internalType": "uint256",
          "name": "amount",
          "type": "uint256"
        }
      ],
      "name": "LogSwapin",
      "type": "event"
    },
    {
      "anonymous": false,
      "inputs": [
        {
          "indexed": true,
          "internalType": "address",
          "name": "account",
          "type": "address"
        },
        {
          "indexed": true,
          "internalType": "address",
          "name": "bindaddr",
          "type": "address"
        },
        {
          "indexed": false,
          "internalType": "uint256",
          "name": "amount",
          "type": "uint256"
        }
      ],
      "name": "LogSwapout",
      "type": "event"
    },
    {
      "anonymous": false,
      "inputs": [
        {
          "indexed": true,
          "internalType": "address",
          "name": "from",
          "type": "address"
        },
        {
          "indexed": true,
          "internalType": "address",
          "name": "to",
          "type": "address"
        },
        {
          "indexed": false,
          "internalType": "uint256",
          "name": "value",
          "type": "uint256"
        }
      ],
      "name": "Transfer",
      "type": "event"
    },
    {
      "inputs": [],
      "name": "DOMAIN_SEPARATOR",
      "outputs": [
        {
          "internalType": "bytes32",
          "name": "",
          "type": "bytes32"
        }
      ],
      "stateMutability": "view",
      "type": "function",
      "constant": true
    },
    {
      "inputs": [],
      "name": "PERMIT_TYPEHASH",
      "outputs": [
        {
          "internalType": "bytes32",
          "name": "",
          "type": "bytes32"
        }
      ],
      "stateMutability": "view",
      "type": "function",
      "constant": true
    },
    {
      "inputs": [],
      "name": "TRANSFER_TYPEHASH",
      "outputs": [
        {
          "internalType": "bytes32",
          "name": "",
          "type": "bytes32"
        }
      ],
      "stateMutability": "view",
      "type": "function",
      "constant": true
    },
    {
      "inputs": [
        {
          "internalType": "address",
          "name": "",
          "type": "address"
        },
        {
          "internalType": "address",
          "name": "",
          "type": "address"
        }
      ],
      "name": "allowance",
      "outputs": [
        {
          "internalType": "uint256",
          "name": "",
          "type": "uint256"
        }
      ],
      "stateMutability": "view",
      "type": "function",
      "constant": true
    },
    {
      "inputs": [
        {
          "internalType": "address",
          "name": "",
          "type": "address"
        }
      ],
      "name": "balanceOf",
      "outputs": [
        {
          "internalType": "uint256",
          "name": "",
          "type": "uint256"
        }
      ],
      "stateMutability": "view",
      "type": "function",
      "constant": true
    },
    {
      "inputs": [],
      "name": "decimals",
      "outputs": [
        {
          "internalType": "uint8",
          "name": "",
          "type": "uint8"
        }
      ],
      "stateMutability": "view",
      "type": "function",
      "constant": true
    },
    {
      "inputs": [],
      "name": "delay",
      "outputs": [
        {
          "internalType": "uint256",
          "name": "",
          "type": "uint256"
        }
      ],
      "stateMutability": "view",
      "type": "function",
      "constant": true
    },
    {
      "inputs": [],
      "name": "delayDelay",
      "outputs": [
        {
          "internalType": "uint256",
          "name": "",
          "type": "uint256"
        }
      ],
      "stateMutability": "view",
      "type": "function",
      "constant": true
    },
    {
      "inputs": [],
      "name": "delayMinter",
      "outputs": [
        {
          "internalType": "uint256",
          "name": "",
          "type": "uint256"
        }
      ],
      "stateMutability": "view",
      "type": "function",
      "constant": true
    },
    {
      "inputs": [],
      "name": "delayVault",
      "outputs": [
        {
          "internalType": "uint256",
          "name": "",
          "type": "uint256"
        }
      ],
      "stateMutability": "view",
      "type": "function",
      "constant": true
    },
    {
      "inputs": [
        {
          "internalType": "address",
          "name": "",
          "type": "address"
        }
      ],
      "name": "isMinter",
      "outputs": [
        {
          "internalType": "bool",
          "name": "",
          "type": "bool"
        }
      ],
      "stateMutability": "view",
      "type": "function",
      "constant": true
    },
    {
      "inputs": [
        {
          "internalType": "uint256",
          "name": "",
          "type": "uint256"
        }
      ],
      "name": "minters",
      "outputs": [
        {
          "internalType": "address",
          "name": "",
          "type": "address"
        }
      ],
      "stateMutability": "view",
      "type": "function",
      "constant": true
    },
    {
      "inputs": [],
      "name": "name",
      "outputs": [
        {
          "internalType": "string",
          "name": "",
          "type": "string"
        }
      ],
      "stateMutability": "view",
      "type": "function",
      "constant": true
    },
    {
      "inputs": [
        {
          "internalType": "address",
          "name": "",
          "type": "address"
        }
      ],
      "name": "nonces",
      "outputs": [
        {
          "internalType": "uint256",
          "name": "",
          "type": "uint256"
        }
      ],
      "stateMutability": "view",
      "type": "function",
      "constant": true
    },
    {
      "inputs": [],
      "name": "pendingDelay",
      "outputs": [
        {
          "internalType": "uint256",
          "name": "",
          "type": "uint256"
        }
      ],
      "stateMutability": "view",
      "type": "function",
      "constant": true
    },
    {
      "inputs": [],
      "name": "pendingMinter",
      "outputs": [
        {
          "internalType": "address",
          "name": "",
          "type": "address"
        }
      ],
      "stateMutability": "view",
      "type": "function",
      "constant": true
    },
    {
      "inputs": [],
      "name": "pendingVault",
      "outputs": [
        {
          "internalType": "address",
          "name": "",
          "type": "address"
        }
      ],
      "stateMutability": "view",
      "type": "function",
      "constant": true
    },
    {
      "inputs": [],
      "name": "symbol",
      "outputs": [
        {
          "internalType": "string",
          "name": "",
          "type": "string"
        }
      ],
      "stateMutability": "view",
      "type": "function",
      "constant": true
    },
    {
      "inputs": [],
      "name": "underlying",
      "outputs": [
        {
          "internalType": "address",
          "name": "",
          "type": "address"
        }
      ],
      "stateMutability": "view",
      "type": "function",
      "constant": true
    },
    {
      "inputs": [],
      "name": "vault",
      "outputs": [
        {
          "internalType": "address",
          "name": "",
          "type": "address"
        }
      ],
      "stateMutability": "view",
      "type": "function",
      "constant": true
    },
    {
      "inputs": [],
      "name": "owner",
      "outputs": [
        {
          "internalType": "address",
          "name": "",
          "type": "address"
        }
      ],
      "stateMutability": "view",
      "type": "function",
      "constant": true
    },
    {
      "inputs": [],
      "name": "mpc",
      "outputs": [
        {
          "internalType": "address",
          "name": "",
          "type": "address"
        }
      ],
      "stateMutability": "view",
      "type": "function",
      "constant": true
    },
    {
      "inputs": [
        {
          "internalType": "bool",
          "name": "enabled",
          "type": "bool"
        }
      ],
      "name": "setVaultOnly",
      "outputs": [],
      "stateMutability": "nonpayable",
      "type": "function"
    },
    {
      "inputs": [
        {
          "internalType": "address",
          "name": "_vault",
          "type": "address"
        }
      ],
      "name": "initVault",
      "outputs": [],
      "stateMutability": "nonpayable",
      "type": "function"
    },
    {
      "inputs": [
        {
          "internalType": "address",
          "name": "_auth",
          "type": "address"
        }
      ],
      "name": "setMinter",
      "outputs": [],
      "stateMutability": "nonpayable",
      "type": "function"
    },
    {
      "inputs": [
        {
          "internalType": "address",
          "name": "_vault",
          "type": "address"
        }
      ],
      "name": "setVault",
      "outputs": [],
      "stateMutability": "nonpayable",
      "type": "function"
    },
    {
      "inputs": [],
      "name": "applyVault",
      "outputs": [],
      "stateMutability": "nonpayable",
      "type": "function"
    },
    {
      "inputs": [],
      "name": "applyMinter",
      "outputs": [],
      "stateMutability": "nonpayable",
      "type": "function"
    },
    {
      "inputs": [
        {
          "internalType": "address",
          "name": "_auth",
          "type": "address"
        }
      ],
      "name": "revokeMinter",
      "outputs": [],
      "stateMutability": "nonpayable",
      "type": "function"
    },
    {
      "inputs": [],
      "name": "getAllMinters",
      "outputs": [
        {
          "internalType": "address[]",
          "name": "",
          "type": "address[]"
        }
      ],
      "stateMutability": "view",
      "type": "function",
      "constant": true
    },
    {
      "inputs": [
        {
          "internalType": "address",
          "name": "newVault",
          "type": "address"
        }
      ],
      "name": "changeVault",
      "outputs": [
        {
          "internalType": "bool",
          "name": "",
          "type": "bool"
        }
      ],
      "stateMutability": "nonpayable",
      "type": "function"
    },
    {
      "inputs": [
        {
          "internalType": "address",
          "name": "newVault",
          "type": "address"
        }
      ],
      "name": "changeMPCOwner",
      "outputs": [
        {
          "internalType": "bool",
          "name": "",
          "type": "bool"
        }
      ],
      "stateMutability": "nonpayable",
      "type": "function"
    },
    {
      "inputs": [
        {
          "internalType": "address",
          "name": "to",
          "type": "address"
        },
        {
          "internalType": "uint256",
          "name": "amount",
          "type": "uint256"
        }
      ],
      "name": "mint",
      "outputs": [
        {
          "internalType": "bool",
          "name": "",
          "type": "bool"
        }
      ],
      "stateMutability": "nonpayable",
      "type": "function"
    },
    {
      "inputs": [
        {
          "internalType": "address",
          "name": "from",
          "type": "address"
        },
        {
          "internalType": "uint256",
          "name": "amount",
          "type": "uint256"
        }
      ],
      "name": "burn",
      "outputs": [
        {
          "internalType": "bool",
          "name": "",
          "type": "bool"
        }
      ],
      "stateMutability": "nonpayable",
      "type": "function"
    },
    {
      "inputs": [
        {
          "internalType": "bytes32",
          "name": "txhash",
          "type": "bytes32"
        },
        {
          "internalType": "address",
          "name": "account",
          "type": "address"
        },
        {
          "internalType": "uint256",
          "name": "amount",
          "type": "uint256"
        }
      ],
      "name": "Swapin",
      "outputs": [
        {
          "internalType": "bool",
          "name": "",
          "type": "bool"
        }
      ],
      "stateMutability": "nonpayable",
      "type": "function"
    },
    {
      "inputs": [
        {
          "internalType": "uint256",
          "name": "amount",
          "type": "uint256"
        },
        {
          "internalType": "address",
          "name": "bindaddr",
          "type": "address"
        }
      ],
      "name": "Swapout",
      "outputs": [
        {
          "internalType": "bool",
          "name": "",
          "type": "bool"
        }
      ],
      "stateMutability": "nonpayable",
      "type": "function"
    },
    {
      "inputs": [],
      "name": "totalSupply",
      "outputs": [
        {
          "internalType": "uint256",
          "name": "",
          "type": "uint256"
        }
      ],
      "stateMutability": "view",
      "type": "function",
      "constant": true
    },
    {
      "inputs": [
        {
          "internalType": "address",
          "name": "target",
          "type": "address"
        },
        {
          "internalType": "uint256",
          "name": "value",
          "type": "uint256"
        },
        {
          "internalType": "uint256",
          "name": "deadline",
          "type": "uint256"
        },
        {
          "internalType": "uint8",
          "name": "v",
          "type": "uint8"
        },
        {
          "internalType": "bytes32",
          "name": "r",
          "type": "bytes32"
        },
        {
          "internalType": "bytes32",
          "name": "s",
          "type": "bytes32"
        },
        {
          "internalType": "address",
          "name": "to",
          "type": "address"
        }
      ],
      "name": "depositWithPermit",
      "outputs": [
        {
          "internalType": "uint256",
          "name": "",
          "type": "uint256"
        }
      ],
      "stateMutability": "nonpayable",
      "type": "function"
    },
    {
      "inputs": [
        {
          "internalType": "address",
          "name": "target",
          "type": "address"
        },
        {
          "internalType": "uint256",
          "name": "value",
          "type": "uint256"
        },
        {
          "internalType": "uint256",
          "name": "deadline",
          "type": "uint256"
        },
        {
          "internalType": "uint8",
          "name": "v",
          "type": "uint8"
        },
        {
          "internalType": "bytes32",
          "name": "r",
          "type": "bytes32"
        },
        {
          "internalType": "bytes32",
          "name": "s",
          "type": "bytes32"
        },
        {
          "internalType": "address",
          "name": "to",
          "type": "address"
        }
      ],
      "name": "depositWithTransferPermit",
      "outputs": [
        {
          "internalType": "uint256",
          "name": "",
          "type": "uint256"
        }
      ],
      "stateMutability": "nonpayable",
      "type": "function"
    },
    {
      "inputs": [
        {
          "internalType": "uint256",
          "name": "amount",
          "type": "uint256"
        },
        {
          "internalType": "address",
          "name": "to",
          "type": "address"
        }
      ],
      "name": "deposit",
      "outputs": [
        {
          "internalType": "uint256",
          "name": "",
          "type": "uint256"
        }
      ],
      "stateMutability": "nonpayable",
      "type": "function"
    },
    {
      "inputs": [
        {
          "internalType": "uint256",
          "name": "amount",
          "type": "uint256"
        }
      ],
      "name": "deposit",
      "outputs": [
        {
          "internalType": "uint256",
          "name": "",
          "type": "uint256"
        }
      ],
      "stateMutability": "nonpayable",
      "type": "function"
    },
    {
      "inputs": [],
      "name": "deposit",
      "outputs": [
        {
          "internalType": "uint256",
          "name": "",
          "type": "uint256"
        }
      ],
      "stateMutability": "nonpayable",
      "type": "function"
    },
    {
      "inputs": [
        {
          "internalType": "uint256",
          "name": "amount",
          "type": "uint256"
        },
        {
          "internalType": "address",
          "name": "to",
          "type": "address"
        }
      ],
      "name": "depositVault",
      "outputs": [
        {
          "internalType": "uint256",
          "name": "",
          "type": "uint256"
        }
      ],
      "stateMutability": "nonpayable",
      "type": "function"
    },
    {
      "inputs": [
        {
          "internalType": "uint256",
          "name": "amount",
          "type": "uint256"
        },
        {
          "internalType": "address",
          "name": "to",
          "type": "address"
        }
      ],
      "name": "withdraw",
      "outputs": [
        {
          "internalType": "uint256",
          "name": "",
          "type": "uint256"
        }
      ],
      "stateMutability": "nonpayable",
      "type": "function"
    },
    {
      "inputs": [
        {
          "internalType": "uint256",
          "name": "amount",
          "type": "uint256"
        }
      ],
      "name": "withdraw",
      "outputs": [
        {
          "internalType": "uint256",
          "name": "",
          "type": "uint256"
        }
      ],
      "stateMutability": "nonpayable",
      "type": "function"
    },
    {
      "inputs": [],
      "name": "withdraw",
      "outputs": [
        {
          "internalType": "uint256",
          "name": "",
          "type": "uint256"
        }
      ],
      "stateMutability": "nonpayable",
      "type": "function"
    },
    {
      "inputs": [
        {
          "internalType": "address",
          "name": "from",
          "type": "address"
        },
        {
          "internalType": "uint256",
          "name": "amount",
          "type": "uint256"
        },
        {
          "internalType": "address",
          "name": "to",
          "type": "address"
        }
      ],
      "name": "withdrawVault",
      "outputs": [
        {
          "internalType": "uint256",
          "name": "",
          "type": "uint256"
        }
      ],
      "stateMutability": "nonpayable",
      "type": "function"
    },
    {
      "inputs": [
        {
          "internalType": "address",
          "name": "spender",
          "type": "address"
        },
        {
          "internalType": "uint256",
          "name": "value",
          "type": "uint256"
        }
      ],
      "name": "approve",
      "outputs": [
        {
          "internalType": "bool",
          "name": "",
          "type": "bool"
        }
      ],
      "stateMutability": "nonpayable",
      "type": "function"
    },
    {
      "inputs": [
        {
          "internalType": "address",
          "name": "spender",
          "type": "address"
        },
        {
          "internalType": "uint256",
          "name": "value",
          "type": "uint256"
        },
        {
          "internalType": "bytes",
          "name": "data",
          "type": "bytes"
        }
      ],
      "name": "approveAndCall",
      "outputs": [
        {
          "internalType": "bool",
          "name": "",
          "type": "bool"
        }
      ],
      "stateMutability": "nonpayable",
      "type": "function"
    },
    {
      "inputs": [
        {
          "internalType": "address",
          "name": "target",
          "type": "address"
        },
        {
          "internalType": "address",
          "name": "spender",
          "type": "address"
        },
        {
          "internalType": "uint256",
          "name": "value",
          "type": "uint256"
        },
        {
          "internalType": "uint256",
          "name": "deadline",
          "type": "uint256"
        },
        {
          "internalType": "uint8",
          "name": "v",
          "type": "uint8"
        },
        {
          "internalType": "bytes32",
          "name": "r",
          "type": "bytes32"
        },
        {
          "internalType": "bytes32",
          "name": "s",
          "type": "bytes32"
        }
      ],
      "name": "permit",
      "outputs": [],
      "stateMutability": "nonpayable",
      "type": "function"
    },
    {
      "inputs": [
        {
          "internalType": "address",
          "name": "target",
          "type": "address"
        },
        {
          "internalType": "address",
          "name": "to",
          "type": "address"
        },
        {
          "internalType": "uint256",
          "name": "value",
          "type": "uint256"
        },
        {
          "internalType": "uint256",
          "name": "deadline",
          "type": "uint256"
        },
        {
          "internalType": "uint8",
          "name": "v",
          "type": "uint8"
        },
        {
          "internalType": "bytes32",
          "name": "r",
          "type": "bytes32"
        },
        {
          "internalType": "bytes32",
          "name": "s",
          "type": "bytes32"
        }
      ],
      "name": "transferWithPermit",
      "outputs": [
        {
          "internalType": "bool",
          "name": "",
          "type": "bool"
        }
      ],
      "stateMutability": "nonpayable",
      "type": "function"
    },
    {
      "inputs": [
        {
          "internalType": "address",
          "name": "to",
          "type": "address"
        },
        {
          "internalType": "uint256",
          "name": "value",
          "type": "uint256"
        }
      ],
      "name": "transfer",
      "outputs": [
        {
          "internalType": "bool",
          "name": "",
          "type": "bool"
        }
      ],
      "stateMutability": "nonpayable",
      "type": "function"
    },
    {
      "inputs": [
        {
          "internalType": "address",
          "name": "from",
          "type": "address"
        },
        {
          "internalType": "address",
          "name": "to",
          "type": "address"
        },
        {
          "internalType": "uint256",
          "name": "value",
          "type": "uint256"
        }
      ],
      "name": "transferFrom",
      "outputs": [
        {
          "internalType": "bool",
          "name": "",
          "type": "bool"
        }
      ],
      "stateMutability": "nonpayable",
      "type": "function"
    },
    {
      "inputs": [
        {
          "internalType": "address",
          "name": "to",
          "type": "address"
        },
        {
          "internalType": "uint256",
          "name": "value",
          "type": "uint256"
        },
        {
          "internalType": "bytes",
          "name": "data",
          "type": "bytes"
        }
      ],
      "name": "transferAndCall",
      "outputs": [
        {
          "internalType": "bool",
          "name": "",
          "type": "bool"
        }
      ],
      "stateMutability": "nonpayable",
      "type": "function"
    }
  ],
  "bytecode": "0x60e06040526202a3006005553480156200001857600080fd5b50604051620034cf380380620034cf8339810160408190526200003b91620003c5565b8451620000509060009060208801906200023d565b508351620000669060019060208701906200023d565b507fff0000000000000000000000000000000000000000000000000000000000000060f884901b166080526001600160601b0319606083901b1660a0526001600160a01b038216156200013a57816001600160a01b031663313ce5676040518163ffffffff1660e01b815260040160206040518083038186803b158015620000ed57600080fd5b505afa15801562000102573d6000803e3d6000fd5b505050506040513d601f19601f8201168201806040525081019062000128919062000464565b60ff168360ff16146200013a57600080fd5b6004805461ff001960ff19909116600117169055600880546001600160a01b0383166001600160a01b03199182168117909255600b8054909116909117905542600c5560405146907f8b73c3c69bb8fe3d512ecc4cf759cc79239f7b179b0ffacaa9a75d522b39400f90620001b29060009062000488565b60408051918290038220828201825260018352603160f81b6020938401528151928301939093528101919091527fc89efdaa54c0f20c7adf612882df0950f5a951637e0307cdcb4c672f298b8bc66060820152608081018290523060a082015260c00160408051601f19818403018152919052805160209091012060c052506200057e945050505050565b8280546200024b906200052b565b90600052602060002090601f0160209004810192826200026f5760008555620002ba565b82601f106200028a57805160ff1916838001178555620002ba565b82800160010185558215620002ba579182015b82811115620002ba5782518255916020019190600101906200029d565b50620002c8929150620002cc565b5090565b5b80821115620002c85760008155600101620002cd565b80516001600160a01b0381168114620002fb57600080fd5b919050565b600082601f83011262000311578081fd5b81516001600160401b03808211156200032e576200032e62000568565b604051601f8301601f19908116603f0116810190828211818310171562000359576200035962000568565b8160405283815260209250868385880101111562000375578485fd5b8491505b8382101562000398578582018301518183018401529082019062000379565b83821115620003a957848385830101525b9695505050505050565b805160ff81168114620002fb57600080fd5b600080600080600060a08688031215620003dd578081fd5b85516001600160401b0380821115620003f4578283fd5b6200040289838a0162000300565b9650602088015191508082111562000418578283fd5b50620004278882890162000300565b9450506200043860408701620003b3565b92506200044860608701620002e3565b91506200045860808701620002e3565b90509295509295909350565b60006020828403121562000476578081fd5b6200048182620003b3565b9392505050565b8154600090819060028104600180831680620004a557607f831692505b6020808410821415620004c657634e487b7160e01b87526022600452602487fd5b818015620004dd5760018114620004ef576200051d565b60ff198616895284890196506200051d565b60008a815260209020885b86811015620005155781548b820152908501908301620004fa565b505084890196505b509498975050505050505050565b6002810460018216806200054057607f821691505b602082108114156200056257634e487b7160e01b600052602260045260246000fd5b50919050565b634e487b7160e01b600052604160045260246000fd5b60805160f81c60a05160601c60c051612ec762000608600039600081816104ac015281816123d401526124e60152600081816105b0015281816116950152818161172d0152818161179801528181611a7901528181611d5601528181611ddf015281816121660152818161229a0152818161272a015261275d015260006104730152612ec76000f3fe608060405234801561001057600080fd5b506004361061035f5760003560e01c80637ecebe00116101c8578063bebbf4d011610104578063d93f2445116100a2578063f75c26641161007c578063f75c266414610794578063f954734e1461079c578063fbfa77cf146107af578063fca3b5aa146107c25761035f565b8063d93f24451461074e578063dd62ed3e14610756578063ec126c77146107815761035f565b8063cae9ca51116100de578063cae9ca511461070d578063cfbd488514610720578063d0e30db014610733578063d505accf1461073b5761035f565b8063bebbf4d0146106de578063c3081240146106f1578063c4b740f5146106fa5761035f565b806395d89b4111610171578063a29dff721161014b578063a29dff721461068c578063a9059cbb14610695578063aa271e1a146106a8578063b6b55f25146106cb5761035f565b806395d89b411461065c5780639dc29fac14610664578063a045442c146106775761035f565b806387689e28116101a257806387689e28146106385780638da5cb5b1461064157806391c5df49146106495761035f565b80637ecebe00146105f257806381a37c18146106125780638623ec7b146106255761035f565b80633ccfd60b116102a257806360e232a9116102405780636a42b8f81161021a5780636a42b8f81461058f5780636e553f65146105985780636f307dc3146105ab57806370a08231146105d25761035f565b806360e232a914610556578063628d6cba146105695780636817031b1461057c5761035f565b80634ca8f0ed1161027c5780634ca8f0ed146104fc57806352113ba7146105055780635f9b105d14610530578063605629d6146105435761035f565b80633ccfd60b146104ce5780634000aea0146104d657806340c10f19146104e95761035f565b806318160ddd1161030f5780632ebe3fbb116102e95780632ebe3fbb1461043457806330adf81f14610447578063313ce5671461046e5780633644e515146104a75761035f565b806318160ddd1461040657806323b872dd1461040e5780632e1a7d4d146104215761035f565b806306fdde031161034057806306fdde03146103c4578063095ea7b3146103d95780630d707df8146103fc5761035f565b806239d6ec14610364578062bf26f41461038a578062f714ce146103b1575b600080fd5b610377610372366004612b03565b6107d5565b6040519081526020015b60405180910390f35b6103777f42ce63790c28229c123925d83266e77c04d28784552ab68b350a9003226cbd5981565b6103776103bf366004612cb5565b610853565b6103cc610867565b6040516103819190612d86565b6103ec6103e7366004612ada565b6108f5565b6040519015158152602001610381565b610404610961565b005b610377610a49565b6103ec61041c366004612a36565b610a50565b61037761042f366004612c85565b610cbb565b6104046104423660046129ea565b610cd0565b6103777f6e71edae12b1b97f4d1f60370fef10105fa2faae0126114a169c64845d6126c981565b6104957f000000000000000000000000000000000000000000000000000000000000000081565b60405160ff9091168152602001610381565b6103777f000000000000000000000000000000000000000000000000000000000000000081565b610377610dd3565b6103ec6104e4366004612b3e565b610df4565b6103ec6104f7366004612ada565b610fc0565b610377600d5481565b600b54610518906001600160a01b031681565b6040516001600160a01b039091168152602001610381565b6103ec61053e3660046129ea565b611032565b6103ec610551366004612a71565b611162565b6103ec6105643660046129ea565b6113cc565b6103ec610577366004612cb5565b6114fc565b61040461058a3660046129ea565b6115f4565b61037760055481565b6103776105a6366004612cb5565b611686565b6105187f000000000000000000000000000000000000000000000000000000000000000081565b6103776105e03660046129ea565b60026020526000908152604090205481565b6103776106003660046129ea565b600f6020526000908152604090205481565b610377610620366004612bc0565b6116c7565b610518610633366004612c85565b6117d8565b610377600c5481565b610518611802565b600954610518906001600160a01b031681565b6103cc61180c565b6103ec610672366004612ada565b611819565b61067f6118d8565b6040516103819190612d39565b610377600e5481565b6103ec6106a3366004612ada565b61193a565b6103ec6106b63660046129ea565b60066020526000908152604090205460ff1681565b6103776106d9366004612c85565b611a6a565b6103776106ec366004612cb5565b611aab565b610377600a5481565b610404610708366004612c29565b611b11565b6103ec61071b366004612b3e565b611b8f565b61040461072e3660046129ea565b611c96565b610377611d1b565b610404610749366004612a71565b611e17565b610404611f97565b610377610764366004612a04565b601060209081526000928352604080842090915290825290205481565b6103ec61078f366004612c61565b61202e565b6105186120d3565b6103776107aa366004612bc0565b612100565b600854610518906001600160a01b031681565b6104046107d03660046129ea565b6121ef565b60006107df6120d3565b6001600160a01b0316336001600160a01b0316146108405760405162461bcd60e51b815260206004820152601960248201527820b73cb9bbb0b82b19a2a92199181d102327a92124a22222a760391b60448201526064015b60405180910390fd5b61084b848484612281565b949350505050565b6000610860338484612281565b9392505050565b6000805461087490612e14565b80601f01602080910402602001604051908101604052809291908181526020018280546108a090612e14565b80156108ed5780601f106108c2576101008083540402835291602001916108ed565b820191906000526020600020905b8154815290600101906020018083116108d057829003601f168201915b505050505081565b3360008181526010602090815260408083206001600160a01b038716808552925280832085905551919290917f8c5be1e5ebec7d5bd14f71427d1e84f3dd0314c0f7b2291e5b200ac8c7c3b925906109509086815260200190565b60405180910390a350600192915050565b6109696120d3565b6001600160a01b0316336001600160a01b0316146109c55760405162461bcd60e51b815260206004820152601960248201527820b73cb9bbb0b82b19a2a92199181d102327a92124a22222a760391b6044820152606401610837565b600a544210156109d457600080fd5b600980546001600160a01b039081166000908152600660205260408120805460ff1916600190811790915592546007805494850181559091527fa66cc928b5edb82af9bd49922954155ab7b0942694bea4ce44661d9a8736c68890920180546001600160a01b03191692909116919091179055565b6003545b90565b60006001600160a01b038316151580610a7257506001600160a01b0383163014155b610a7b57600080fd5b6001600160a01b0384163314610b9b576001600160a01b03841660009081526010602090815260408083203384529091529020546000198114610b995782811015610b2e5760405162461bcd60e51b815260206004820152602960248201527f416e7973776170563345524332303a207265717565737420657863656564732060448201527f616c6c6f77616e636500000000000000000000000000000000000000000000006064820152608401610837565b6000610b3a8483612dd1565b6001600160a01b038716600081815260106020908152604080832033808552908352928190208590555184815293945090927f8c5be1e5ebec7d5bd14f71427d1e84f3dd0314c0f7b2291e5b200ac8c7c3b925910160405180910390a3505b505b6001600160a01b03841660009081526002602052604090205482811015610c1c5760405162461bcd60e51b815260206004820152602f60248201527f416e7973776170563345524332303a207472616e7366657220616d6f756e742060448201526e657863656564732062616c616e636560881b6064820152608401610837565b610c268382612dd1565b6001600160a01b038087166000908152600260205260408082209390935590861681529081208054859290610c5c908490612db9565b92505081905550836001600160a01b0316856001600160a01b03167fddf252ad1be2c89b69c2b068fc378daa952ba7f163c4a11628f55a4df523b3ef85604051610ca891815260200190565b60405180910390a3506001949350505050565b6000610cc8338333612281565b90505b919050565b610cd86120d3565b6001600160a01b0316336001600160a01b031614610d345760405162461bcd60e51b815260206004820152601960248201527820b73cb9bbb0b82b19a2a92199181d102327a92124a22222a760391b6044820152606401610837565b60045460ff16610d4357600080fd5b600880546001600160a01b039092166001600160a01b03199283168117909155600b80548316821790556000818152600660205260408120805460ff1990811660019081179092556007805492830181559092527fa66cc928b5edb82af9bd49922954155ab7b0942694bea4ce44661d9a8736c68801805490931690911790915542600c55600480549091169055565b336000818152600260205260408120549091610def9181612281565b905090565b60006001600160a01b038516151580610e1657506001600160a01b0385163014155b610e1f57600080fd5b3360009081526002602052604090205484811015610e975760405162461bcd60e51b815260206004820152602f60248201527f416e7973776170563345524332303a207472616e7366657220616d6f756e742060448201526e657863656564732062616c616e636560881b6064820152608401610837565b610ea18582612dd1565b33600090815260026020526040808220929092556001600160a01b03881681529081208054879290610ed4908490612db9565b90915550506040518581526001600160a01b0387169033907fddf252ad1be2c89b69c2b068fc378daa952ba7f163c4a11628f55a4df523b3ef9060200160405180910390a36040517fa4c0ed360000000000000000000000000000000000000000000000000000000081526001600160a01b0387169063a4c0ed3690610f64903390899089908990600401612cf3565b602060405180830381600087803b158015610f7e57600080fd5b505af1158015610f92573d6000803e3d6000fd5b505050506040513d601f19601f82011682018060405250810190610fb69190612c45565b9695505050505050565b3360009081526006602052604081205460ff1661101f5760405162461bcd60e51b815260206004820152601960248201527f416e7973776170563445524332303a20464f5242494444454e000000000000006044820152606401610837565b61102983836122c9565b50600192915050565b600061103c6120d3565b6001600160a01b0316336001600160a01b0316146110985760405162461bcd60e51b815260206004820152601960248201527820b73cb9bbb0b82b19a2a92199181d102327a92124a22222a760391b6044820152606401610837565b6001600160a01b0382166110ee5760405162461bcd60e51b815260206004820152601c60248201527f416e7973776170563345524332303a20616464726573732830783029000000006044820152606401610837565b600b80546001600160a01b0319166001600160a01b0384161790556005546111169042612db9565b600c819055600b546008546040516001600160a01b0392831692909116907f1d065115f314fb9bad9557bd5460b9e3c66f7223b1dd04e73e828f0bb5afe89f90600090a4506001919050565b6000844211156111b45760405162461bcd60e51b815260206004820152601e60248201527f416e7973776170563345524332303a2045787069726564207065726d697400006044820152606401610837565b6001600160a01b0388166000908152600f6020526040812080547f42ce63790c28229c123925d83266e77c04d28784552ab68b350a9003226cbd59918b918b918b91908661120183612e4f565b909155506040805160208101969096526001600160a01b0394851690860152929091166060840152608083015260a082015260c0810187905260e00160405160208183030381529060405280519060200120905061126289828787876123a9565b80611275575061127589828787876124b4565b61127e57600080fd5b6001600160a01b03881615158061129e57506001600160a01b0388163014155b6112a757600080fd5b6001600160a01b038916600090815260026020526040902054878110156113285760405162461bcd60e51b815260206004820152602f60248201527f416e7973776170563345524332303a207472616e7366657220616d6f756e742060448201526e657863656564732062616c616e636560881b6064820152608401610837565b6113328882612dd1565b6001600160a01b03808c1660009081526002602052604080822093909355908b16815290812080548a9290611368908490612db9565b92505081905550886001600160a01b03168a6001600160a01b03167fddf252ad1be2c89b69c2b068fc378daa952ba7f163c4a11628f55a4df523b3ef8a6040516113b491815260200190565b60405180910390a35060019998505050505050505050565b60006113d66120d3565b6001600160a01b0316336001600160a01b0316146114325760405162461bcd60e51b815260206004820152601960248201527820b73cb9bbb0b82b19a2a92199181d102327a92124a22222a760391b6044820152606401610837565b6001600160a01b0382166114885760405162461bcd60e51b815260206004820152601c60248201527f416e7973776170563345524332303a20616464726573732830783029000000006044820152606401610837565b600b80546001600160a01b0319166001600160a01b0384161790556005546114b09042612db9565b600c819055600b546008546040516001600160a01b0392831692909116907f5c364079e7102c27c608f9b237c735a1b7bfa0b67f27c2ad26bad447bf965cac90600090a4506001919050565b600454600090610100900460ff16156115575760405162461bcd60e51b815260206004820152601860248201527f416e7973776170563445524332303a206f6e6c794175746800000000000000006044820152606401610837565b6001600160a01b0382166115ad5760405162461bcd60e51b815260206004820152601c60248201527f416e7973776170563345524332303a20616464726573732830783029000000006044820152606401610837565b6115b7338461256f565b6040518381526001600160a01b0383169033907f6b616089d04950dc06c45c6dd787d657980543f89651aec47924752c7d16c88890602001610950565b6115fc6120d3565b6001600160a01b0316336001600160a01b0316146116585760405162461bcd60e51b815260206004820152601960248201527820b73cb9bbb0b82b19a2a92199181d102327a92124a22222a760391b6044820152606401610837565b600b80546001600160a01b0319166001600160a01b0383161790556005546116809042612db9565b600c5550565b60006116bd6001600160a01b037f00000000000000000000000000000000000000000000000000000000000000001633308661266f565b6108608383612726565b6040517fd505accf0000000000000000000000000000000000000000000000000000000081526001600160a01b038881166004830152306024830152604482018890526064820187905260ff8616608483015260a4820185905260c482018490526000917f00000000000000000000000000000000000000000000000000000000000000009091169063d505accf9060e401600060405180830381600087803b15801561177357600080fd5b505af1158015611787573d6000803e3d6000fd5b506117c29250506001600160a01b037f000000000000000000000000000000000000000000000000000000000000000016905089308a61266f565b6117cc8783612726565b98975050505050505050565b600781815481106117e857600080fd5b6000918252602090912001546001600160a01b0316905081565b6000610def6120d3565b6001805461087490612e14565b3360009081526006602052604081205460ff166118785760405162461bcd60e51b815260206004820152601960248201527f416e7973776170563445524332303a20464f5242494444454e000000000000006044820152606401610837565b6001600160a01b0383166118ce5760405162461bcd60e51b815260206004820152601c60248201527f416e7973776170563345524332303a20616464726573732830783029000000006044820152606401610837565b611029838361256f565b6060600780548060200260200160405190810160405280929190818152602001828054801561193057602002820191906000526020600020905b81546001600160a01b03168152600190910190602001808311611912575b5050505050905090565b60006001600160a01b03831615158061195c57506001600160a01b0383163014155b61196557600080fd5b33600090815260026020526040902054828110156119dd5760405162461bcd60e51b815260206004820152602f60248201527f416e7973776170563345524332303a207472616e7366657220616d6f756e742060448201526e657863656564732062616c616e636560881b6064820152608401610837565b6119e78382612dd1565b33600090815260026020526040808220929092556001600160a01b03861681529081208054859290611a1a908490612db9565b90915550506040518381526001600160a01b0385169033907fddf252ad1be2c89b69c2b068fc378daa952ba7f163c4a11628f55a4df523b3ef906020015b60405180910390a35060019392505050565b6000611aa16001600160a01b037f00000000000000000000000000000000000000000000000000000000000000001633308561266f565b610cc88233612726565b6000611ab56120d3565b6001600160a01b0316336001600160a01b0316146116bd5760405162461bcd60e51b815260206004820152601960248201527820b73cb9bbb0b82b19a2a92199181d102327a92124a22222a760391b6044820152606401610837565b611b196120d3565b6001600160a01b0316336001600160a01b031614611b755760405162461bcd60e51b815260206004820152601960248201527820b73cb9bbb0b82b19a2a92199181d102327a92124a22222a760391b6044820152606401610837565b600480549115156101000261ff0019909216919091179055565b3360008181526010602090815260408083206001600160a01b038916808552925280832087905551919290917f8c5be1e5ebec7d5bd14f71427d1e84f3dd0314c0f7b2291e5b200ac8c7c3b92590611bea9088815260200190565b60405180910390a36040517eba451f0000000000000000000000000000000000000000000000000000000081526001600160a01b0386169062ba451f90611c3b903390889088908890600401612cf3565b602060405180830381600087803b158015611c5557600080fd5b505af1158015611c69573d6000803e3d6000fd5b505050506040513d601f19601f82011682018060405250810190611c8d9190612c45565b95945050505050565b611c9e6120d3565b6001600160a01b0316336001600160a01b031614611cfa5760405162461bcd60e51b815260206004820152601960248201527820b73cb9bbb0b82b19a2a92199181d102327a92124a22222a760391b6044820152606401610837565b6001600160a01b03166000908152600660205260409020805460ff19169055565b6040517f70a0823100000000000000000000000000000000000000000000000000000000815233600482015260009081906001600160a01b037f000000000000000000000000000000000000000000000000000000000000000016906370a082319060240160206040518083038186803b158015611d9857600080fd5b505afa158015611dac573d6000803e3d6000fd5b505050506040513d601f19601f82011682018060405250810190611dd09190612c9d565b9050611e076001600160a01b037f00000000000000000000000000000000000000000000000000000000000000001633308461266f565b611e118133612726565b91505090565b83421115611e675760405162461bcd60e51b815260206004820152601e60248201527f416e7973776170563345524332303a2045787069726564207065726d697400006044820152606401610837565b6001600160a01b0387166000908152600f6020526040812080547f6e71edae12b1b97f4d1f60370fef10105fa2faae0126114a169c64845d6126c9918a918a918a919086611eb483612e4f565b909155506040805160208101969096526001600160a01b0394851690860152929091166060840152608083015260a082015260c0810186905260e001604051602081830303815290604052805190602001209050611f1588828686866123a9565b80611f285750611f2888828686866124b4565b611f3157600080fd5b6001600160a01b038881166000818152601060209081526040808320948c16808452948252918290208a905590518981527f8c5be1e5ebec7d5bd14f71427d1e84f3dd0314c0f7b2291e5b200ac8c7c3b925910160405180910390a35050505050505050565b611f9f6120d3565b6001600160a01b0316336001600160a01b031614611ffb5760405162461bcd60e51b815260206004820152601960248201527820b73cb9bbb0b82b19a2a92199181d102327a92124a22222a760391b6044820152606401610837565b600c5442101561200a57600080fd5b600b54600880546001600160a01b0319166001600160a01b03909216919091179055565b3360009081526006602052604081205460ff1661208d5760405162461bcd60e51b815260206004820152601960248201527f416e7973776170563445524332303a20464f5242494444454e000000000000006044820152606401610837565b61209783836122c9565b826001600160a01b0316847f05d0634fe981be85c22e2942a880821b70095d84e152c3ea3c17a4e4250d9d6184604051611a5891815260200190565b6000600c5442106120f05750600b546001600160a01b0316610a4d565b506008546001600160a01b031690565b6040517f605629d60000000000000000000000000000000000000000000000000000000081526001600160a01b038881166004830152306024830152604482018890526064820187905260ff8616608483015260a4820185905260c482018490526000917f00000000000000000000000000000000000000000000000000000000000000009091169063605629d69060e401602060405180830381600087803b1580156121ac57600080fd5b505af11580156121c0573d6000803e3d6000fd5b505050506040513d601f19601f820116820180604052508101906121e49190612c45565b506117cc8783612726565b6121f76120d3565b6001600160a01b0316336001600160a01b0316146122535760405162461bcd60e51b815260206004820152601960248201527820b73cb9bbb0b82b19a2a92199181d102327a92124a22222a760391b6044820152606401610837565b600980546001600160a01b0319166001600160a01b03831617905560055461227b9042612db9565b600a5550565b600061228d848461256f565b6122c16001600160a01b037f00000000000000000000000000000000000000000000000000000000000000001683856127a3565b509092915050565b6001600160a01b03821661231f5760405162461bcd60e51b815260206004820152601f60248201527f45524332303a206d696e7420746f20746865207a65726f2061646472657373006044820152606401610837565b80600360008282546123319190612db9565b90915550506001600160a01b0382166000908152600260205260408120805483929061235e908490612db9565b90915550506040518181526001600160a01b038316906000907fddf252ad1be2c89b69c2b068fc378daa952ba7f163c4a11628f55a4df523b3ef906020015b60405180910390a35050565b6040517f190100000000000000000000000000000000000000000000000000000000000060208201527f0000000000000000000000000000000000000000000000000000000000000000602282015260428101859052600090819060620160408051601f198184030181528282528051602091820120600080855291840180845281905260ff89169284019290925260608301879052608083018690529092509060019060a0015b6020604051602081039080840390855afa158015612473573d6000803e3d6000fd5b5050604051601f1901519150506001600160a01b038116158015906117cc5750876001600160a01b0316816001600160a01b03161498975050505050505050565b600080612534866040517f19457468657265756d205369676e6564204d6573736167653a0a33320000000060208201527f0000000000000000000000000000000000000000000000000000000000000000603c820152605c8101829052600090607c01604051602081830303815290604052805190602001209050919050565b6040805160008082526020820180845284905260ff89169282019290925260608101879052608081018690529192509060019060a001612451565b6001600160a01b0382166125eb5760405162461bcd60e51b815260206004820152602160248201527f45524332303a206275726e2066726f6d20746865207a65726f2061646472657360448201527f73000000000000000000000000000000000000000000000000000000000000006064820152608401610837565b6001600160a01b03821660009081526002602052604081208054839290612613908490612dd1565b92505081905550806003600082825461262c9190612dd1565b90915550506040518181526000906001600160a01b038416907fddf252ad1be2c89b69c2b068fc378daa952ba7f163c4a11628f55a4df523b3ef9060200161239d565b6040516001600160a01b03808516602483015283166044820152606481018290526127209085907f23b872dd00000000000000000000000000000000000000000000000000000000906084015b60408051601f198184030181529190526020810180517bffffffffffffffffffffffffffffffffffffffffffffffffffffffff167fffffffff00000000000000000000000000000000000000000000000000000000909316929092179091526127f1565b50505050565b60007f00000000000000000000000000000000000000000000000000000000000000006001600160a01b03161580159061278957507f00000000000000000000000000000000000000000000000000000000000000006001600160a01b03163014155b61279257600080fd5b61279c82846122c9565b5090919050565b6040516001600160a01b0383166024820152604481018290526127ec9084907fa9059cbb00000000000000000000000000000000000000000000000000000000906064016126bc565b505050565b612803826001600160a01b031661298b565b61284f5760405162461bcd60e51b815260206004820152601f60248201527f5361666545524332303a2063616c6c20746f206e6f6e2d636f6e7472616374006044820152606401610837565b600080836001600160a01b03168360405161286a9190612cd7565b6000604051808303816000865af19150503d80600081146128a7576040519150601f19603f3d011682016040523d82523d6000602084013e6128ac565b606091505b5091509150816128fe5760405162461bcd60e51b815260206004820181905260248201527f5361666545524332303a206c6f772d6c6576656c2063616c6c206661696c65646044820152606401610837565b80511561272057808060200190518101906129199190612c45565b6127205760405162461bcd60e51b815260206004820152602a60248201527f5361666545524332303a204552433230206f7065726174696f6e20646964206e60448201527f6f742073756363656564000000000000000000000000000000000000000000006064820152608401610837565b6000813f7fc5d2460186f7233c927e7db2dcc703c0e500b653ca82273b7bfad8045d85a470811580159061084b5750141592915050565b80356001600160a01b0381168114610ccb57600080fd5b803560ff81168114610ccb57600080fd5b6000602082840312156129fb578081fd5b610860826129c2565b60008060408385031215612a16578081fd5b612a1f836129c2565b9150612a2d602084016129c2565b90509250929050565b600080600060608486031215612a4a578081fd5b612a53846129c2565b9250612a61602085016129c2565b9150604084013590509250925092565b600080600080600080600060e0888a031215612a8b578283fd5b612a94886129c2565b9650612aa2602089016129c2565b95506040880135945060608801359350612abe608089016129d9565b925060a0880135915060c0880135905092959891949750929550565b60008060408385031215612aec578182fd5b612af5836129c2565b946020939093013593505050565b600080600060608486031215612b17578283fd5b612b20846129c2565b925060208401359150612b35604085016129c2565b90509250925092565b60008060008060608587031215612b53578384fd5b612b5c856129c2565b935060208501359250604085013567ffffffffffffffff80821115612b7f578384fd5b818701915087601f830112612b92578384fd5b813581811115612ba0578485fd5b886020828501011115612bb1578485fd5b95989497505060200194505050565b600080600080600080600060e0888a031215612bda578283fd5b612be3886129c2565b96506020880135955060408801359450612bff606089016129d9565b93506080880135925060a08801359150612c1b60c089016129c2565b905092959891949750929550565b600060208284031215612c3a578081fd5b813561086081612e80565b600060208284031215612c56578081fd5b815161086081612e80565b600080600060608486031215612c75578283fd5b83359250612a61602085016129c2565b600060208284031215612c96578081fd5b5035919050565b600060208284031215612cae578081fd5b5051919050565b60008060408385031215612cc7578182fd5b82359150612a2d602084016129c2565b60008251612ce9818460208701612de8565b9190910192915050565b60006001600160a01b03861682528460208301526060604083015282606083015282846080840137818301608090810191909152601f909201601f191601019392505050565b6020808252825182820181905260009190848201906040850190845b81811015612d7a5783516001600160a01b031683529284019291840191600101612d55565b50909695505050505050565b6000602082528251806020840152612da5816040850160208701612de8565b601f01601f19169190910160400192915050565b60008219821115612dcc57612dcc612e6a565b500190565b600082821015612de357612de3612e6a565b500390565b60005b83811015612e03578181015183820152602001612deb565b838111156127205750506000910152565b600281046001821680612e2857607f821691505b60208210811415612e4957634e487b7160e01b600052602260045260246000fd5b50919050565b6000600019821415612e6357612e63612e6a565b5060010190565b634e487b7160e01b600052601160045260246000fd5b8015158114612e8e57600080fd5b5056fea264697066735822122039b831801db36afcce56deb39bf29574aeb532d50f1f0298b39c29fe8b3bf16864736f6c63430008020033",
  "immutableReferences": {
    "362": [
      {
        "length": 32,
        "start": 1139
      }
    ],
    "364": [
      {
        "length": 32,
        "start": 1456
      },
      {
        "length": 32,
        "start": 5781
      },
      {
        "length": 32,
        "start": 5933
      },
      {
        "length": 32,
        "start": 6040
      },
      {
        "length": 32,
        "start": 6777
      },
      {
        "length": 32,
        "start": 7510
      },
      {
        "length": 32,
        "start": 7647
      },
      {
        "length": 32,
        "start": 8550
      },
      {
        "length": 32,
        "start": 8858
      },
      {
        "length": 32,
        "start": 10026
      },
      {
        "length": 32,
        "start": 10077
      }
    ],
    "376": [
      {
        "length": 32,
        "start": 1196
      },
      {
        "length": 32,
        "start": 9172
      },
      {
        "length": 32,
        "start": 9446
      }
    ]
  },
  "source": "/**\r\n *Submitted for verification at snowtrace.io on 2021-11-05\r\n*/\r\n\r\n// SPDX-License-Identifier: GPL-3.0-or-later\r\n\r\npragma solidity 0.8.2;\r\n\r\n/**\r\n * @dev Interface of the ERC20 standard as defined in the EIP.\r\n */\r\ninterface IERC20 {\r\n    function totalSupply() external view returns (uint256);\r\n    function decimals() external view returns (uint8);\r\n    function balanceOf(address account) external view returns (uint256);\r\n    function transfer(address recipient, uint256 amount) external returns (bool);\r\n    function allowance(address owner, address spender) external view returns (uint256);\r\n    function approve(address spender, uint256 amount) external returns (bool);\r\n    function transferFrom(address sender, address recipient, uint256 amount) external returns (bool);\r\n    function permit(address target, address spender, uint256 value, uint256 deadline, uint8 v, bytes32 r, bytes32 s) external;\r\n    function transferWithPermit(address target, address to, uint256 value, uint256 deadline, uint8 v, bytes32 r, bytes32 s) external returns (bool);\r\n    event Transfer(address indexed from, address indexed to, uint256 value);\r\n    event Approval(address indexed owner, address indexed spender, uint256 value);\r\n}\r\n\r\n/**\r\n * @dev Interface of the ERC2612 standard as defined in the EIP.\r\n *\r\n * Adds the {permit} method, which can be used to change one's\r\n * {IERC20-allowance} without having to send a transaction, by signing a\r\n * message. This allows users to spend tokens without having to hold Ether.\r\n *\r\n * See https://eips.ethereum.org/EIPS/eip-2612.\r\n */\r\ninterface IERC2612 {\r\n\r\n    /**\r\n     * @dev Returns the current ERC2612 nonce for `owner`. This value must be\r\n     * included whenever a signature is generated for {permit}.\r\n     *\r\n     * Every successful call to {permit} increases ``owner``'s nonce by one. This\r\n     * prevents a signature from being used multiple times.\r\n     */\r\n    function nonces(address owner) external view returns (uint256);\r\n}\r\n\r\n/// @dev Wrapped ERC-20 v10 (AnyswapV3ERC20) is an ERC-20 ERC-20 wrapper. You can `deposit` ERC-20 and obtain an AnyswapV3ERC20 balance which can then be operated as an ERC-20 token. You can\r\n/// `withdraw` ERC-20 from AnyswapV3ERC20, which will then burn AnyswapV3ERC20 token in your wallet. The amount of AnyswapV3ERC20 token in any wallet is always identical to the\r\n/// balance of ERC-20 deposited minus the ERC-20 withdrawn with that specific wallet.\r\ninterface IAnyswapV3ERC20 is IERC20, IERC2612 {\r\n\r\n    /// @dev Sets `value` as allowance of `spender` account over caller account's AnyswapV3ERC20 token,\r\n    /// after which a call is executed to an ERC677-compliant contract with the `data` parameter.\r\n    /// Emits {Approval} event.\r\n    /// Returns boolean value indicating whether operation succeeded.\r\n    /// For more information on approveAndCall format, see https://github.com/ethereum/EIPs/issues/677.\r\n    function approveAndCall(address spender, uint256 value, bytes calldata data) external returns (bool);\r\n\r\n    /// @dev Moves `value` AnyswapV3ERC20 token from caller's account to account (`to`),\r\n    /// after which a call is executed to an ERC677-compliant contract with the `data` parameter.\r\n    /// A transfer to `address(0)` triggers an ERC-20 withdraw matching the sent AnyswapV3ERC20 token in favor of caller.\r\n    /// Emits {Transfer} event.\r\n    /// Returns boolean value indicating whether operation succeeded.\r\n    /// Requirements:\r\n    ///   - caller account must have at least `value` AnyswapV3ERC20 token.\r\n    /// For more information on transferAndCall format, see https://github.com/ethereum/EIPs/issues/677.\r\n    function transferAndCall(address to, uint value, bytes calldata data) external returns (bool);\r\n}\r\n\r\ninterface ITransferReceiver {\r\n    function onTokenTransfer(address, uint, bytes calldata) external returns (bool);\r\n}\r\n\r\ninterface IApprovalReceiver {\r\n    function onTokenApproval(address, uint, bytes calldata) external returns (bool);\r\n}\r\n\r\nlibrary Address {\r\n    function isContract(address account) internal view returns (bool) {\r\n        bytes32 codehash;\r\n        bytes32 accountHash = 0xc5d2460186f7233c927e7db2dcc703c0e500b653ca82273b7bfad8045d85a470;\r\n        // solhint-disable-next-line no-inline-assembly\r\n        assembly { codehash := extcodehash(account) }\r\n        return (codehash != 0x0 && codehash != accountHash);\r\n    }\r\n}\r\n\r\nlibrary SafeERC20 {\r\n    using Address for address;\r\n\r\n    function safeTransfer(IERC20 token, address to, uint value) internal {\r\n        callOptionalReturn(token, abi.encodeWithSelector(token.transfer.selector, to, value));\r\n    }\r\n\r\n    function safeTransferFrom(IERC20 token, address from, address to, uint value) internal {\r\n        callOptionalReturn(token, abi.encodeWithSelector(token.transferFrom.selector, from, to, value));\r\n    }\r\n\r\n    function safeApprove(IERC20 token, address spender, uint value) internal {\r\n        require((value == 0) || (token.allowance(address(this), spender) == 0),\r\n            \"SafeERC20: approve from non-zero to non-zero allowance\"\r\n        );\r\n        callOptionalReturn(token, abi.encodeWithSelector(token.approve.selector, spender, value));\r\n    }\r\n    function callOptionalReturn(IERC20 token, bytes memory data) private {\r\n        require(address(token).isContract(), \"SafeERC20: call to non-contract\");\r\n\r\n        // solhint-disable-next-line avoid-low-level-calls\r\n        (bool success, bytes memory returndata) = address(token).call(data);\r\n        require(success, \"SafeERC20: low-level call failed\");\r\n\r\n        if (returndata.length > 0) { // Return data is optional\r\n            // solhint-disable-next-line max-line-length\r\n            require(abi.decode(returndata, (bool)), \"SafeERC20: ERC20 operation did not succeed\");\r\n        }\r\n    }\r\n}\r\n\r\ncontract AnyswapV5ERC20 is IAnyswapV3ERC20 {\r\n    using SafeERC20 for IERC20;\r\n    string public name;\r\n    string public symbol;\r\n    uint8  public immutable override decimals;\r\n\r\n    address public immutable underlying;\r\n\r\n    bytes32 public constant PERMIT_TYPEHASH = keccak256(\"Permit(address owner,address spender,uint256 value,uint256 nonce,uint256 deadline)\");\r\n    bytes32 public constant TRANSFER_TYPEHASH = keccak256(\"Transfer(address owner,address to,uint256 value,uint256 nonce,uint256 deadline)\");\r\n    bytes32 public immutable DOMAIN_SEPARATOR;\r\n\r\n    /// @dev Records amount of AnyswapV3ERC20 token owned by account.\r\n    mapping (address => uint256) public override balanceOf;\r\n    uint256 private _totalSupply;\r\n\r\n    // init flag for setting immediate vault, needed for CREATE2 support\r\n    bool private _init;\r\n\r\n    // flag to enable/disable swapout vs vault.burn so multiple events are triggered\r\n    bool private _vaultOnly;\r\n\r\n    // configurable delay for timelock functions\r\n    uint public delay = 2*24*3600;\r\n\r\n\r\n    // set of minters, can be this bridge or other bridges\r\n    mapping(address => bool) public isMinter;\r\n    address[] public minters;\r\n\r\n    // primary controller of the token contract\r\n    address public vault;\r\n\r\n    address public pendingMinter;\r\n    uint public delayMinter;\r\n\r\n    address public pendingVault;\r\n    uint public delayVault;\r\n\r\n    uint public pendingDelay;\r\n    uint public delayDelay;\r\n\r\n\r\n    modifier onlyAuth() {\r\n        require(isMinter[msg.sender], \"AnyswapV4ERC20: FORBIDDEN\");\r\n        _;\r\n    }\r\n\r\n    modifier onlyVault() {\r\n        require(msg.sender == mpc(), \"AnyswapV3ERC20: FORBIDDEN\");\r\n        _;\r\n    }\r\n\r\n    function owner() public view returns (address) {\r\n        return mpc();\r\n    }\r\n\r\n    function mpc() public view returns (address) {\r\n        if (block.timestamp >= delayVault) {\r\n            return pendingVault;\r\n        }\r\n        return vault;\r\n    }\r\n\r\n    function setVaultOnly(bool enabled) external onlyVault {\r\n        _vaultOnly = enabled;\r\n    }\r\n\r\n    function initVault(address _vault) external onlyVault {\r\n        require(_init);\r\n        vault = _vault;\r\n        pendingVault = _vault;\r\n        isMinter[_vault] = true;\r\n        minters.push(_vault);\r\n        delayVault = block.timestamp;\r\n        _init = false;\r\n    }\r\n\r\n    function setMinter(address _auth) external onlyVault {\r\n        pendingMinter = _auth;\r\n        delayMinter = block.timestamp + delay;\r\n    }\r\n\r\n    function setVault(address _vault) external onlyVault {\r\n        pendingVault = _vault;\r\n        delayVault = block.timestamp + delay;\r\n    }\r\n\r\n    function applyVault() external onlyVault {\r\n        require(block.timestamp >= delayVault);\r\n        vault = pendingVault;\r\n    }\r\n\r\n    function applyMinter() external onlyVault {\r\n        require(block.timestamp >= delayMinter);\r\n        isMinter[pendingMinter] = true;\r\n        minters.push(pendingMinter);\r\n    }\r\n\r\n    // No time delay revoke minter emergency function\r\n    function revokeMinter(address _auth) external onlyVault {\r\n        isMinter[_auth] = false;\r\n    }\r\n\r\n    function getAllMinters() external view returns (address[] memory) {\r\n        return minters;\r\n    }\r\n\r\n\r\n    function changeVault(address newVault) external onlyVault returns (bool) {\r\n        require(newVault != address(0), \"AnyswapV3ERC20: address(0x0)\");\r\n        pendingVault = newVault;\r\n        delayVault = block.timestamp + delay;\r\n        emit LogChangeVault(vault, pendingVault, delayVault);\r\n        return true;\r\n    }\r\n\r\n    function changeMPCOwner(address newVault) public onlyVault returns (bool) {\r\n        require(newVault != address(0), \"AnyswapV3ERC20: address(0x0)\");\r\n        pendingVault = newVault;\r\n        delayVault = block.timestamp + delay;\r\n        emit LogChangeMPCOwner(vault, pendingVault, delayVault);\r\n        return true;\r\n    }\r\n\r\n    function mint(address to, uint256 amount) external onlyAuth returns (bool) {\r\n        _mint(to, amount);\r\n        return true;\r\n    }\r\n\r\n    function burn(address from, uint256 amount) external onlyAuth returns (bool) {\r\n        require(from != address(0), \"AnyswapV3ERC20: address(0x0)\");\r\n        _burn(from, amount);\r\n        return true;\r\n    }\r\n\r\n    function Swapin(bytes32 txhash, address account, uint256 amount) public onlyAuth returns (bool) {\r\n        _mint(account, amount);\r\n        emit LogSwapin(txhash, account, amount);\r\n        return true;\r\n    }\r\n\r\n    function Swapout(uint256 amount, address bindaddr) public returns (bool) {\r\n        require(!_vaultOnly, \"AnyswapV4ERC20: onlyAuth\");\r\n        require(bindaddr != address(0), \"AnyswapV3ERC20: address(0x0)\");\r\n        _burn(msg.sender, amount);\r\n        emit LogSwapout(msg.sender, bindaddr, amount);\r\n        return true;\r\n    }\r\n\r\n    /// @dev Records current ERC2612 nonce for account. This value must be included whenever signature is generated for {permit}.\r\n    /// Every successful call to {permit} increases account's nonce by one. This prevents signature from being used multiple times.\r\n    mapping (address => uint256) public override nonces;\r\n\r\n    /// @dev Records number of AnyswapV3ERC20 token that account (second) will be allowed to spend on behalf of another account (first) through {transferFrom}.\r\n    mapping (address => mapping (address => uint256)) public override allowance;\r\n\r\n    event LogChangeVault(address indexed oldVault, address indexed newVault, uint indexed effectiveTime);\r\n    event LogChangeMPCOwner(address indexed oldOwner, address indexed newOwner, uint indexed effectiveHeight);\r\n    event LogSwapin(bytes32 indexed txhash, address indexed account, uint amount);\r\n    event LogSwapout(address indexed account, address indexed bindaddr, uint amount);\r\n    event LogAddAuth(address indexed auth, uint timestamp);\r\n\r\n    constructor(string memory _name, string memory _symbol, uint8 _decimals, address _underlying, address _vault) {\r\n        name = _name;\r\n        symbol = _symbol;\r\n        decimals = _decimals;\r\n        underlying = _underlying;\r\n        if (_underlying != address(0x0)) {\r\n            require(_decimals == IERC20(_underlying).decimals());\r\n        }\r\n\r\n        // Use init to allow for CREATE2 accross all chains\r\n        _init = true;\r\n\r\n        // Disable/Enable swapout for v1 tokens vs mint/burn for v3 tokens\r\n        _vaultOnly = false;\r\n\r\n        vault = _vault;\r\n        pendingVault = _vault;\r\n        delayVault = block.timestamp;\r\n\r\n        uint256 chainId;\r\n        assembly {chainId := chainid()}\r\n        DOMAIN_SEPARATOR = keccak256(\r\n            abi.encode(\r\n                keccak256(\"EIP712Domain(string name,string version,uint256 chainId,address verifyingContract)\"),\r\n                keccak256(bytes(name)),\r\n                keccak256(bytes(\"1\")),\r\n                chainId,\r\n                address(this)));\r\n    }\r\n\r\n    /// @dev Returns the total supply of AnyswapV3ERC20 token as the ETH held in this contract.\r\n    function totalSupply() external view override returns (uint256) {\r\n        return _totalSupply;\r\n    }\r\n\r\n    function depositWithPermit(address target, uint256 value, uint256 deadline, uint8 v, bytes32 r, bytes32 s, address to) external returns (uint) {\r\n        IERC20(underlying).permit(target, address(this), value, deadline, v, r, s);\r\n        IERC20(underlying).safeTransferFrom(target, address(this), value);\r\n        return _deposit(value, to);\r\n    }\r\n\r\n    function depositWithTransferPermit(address target, uint256 value, uint256 deadline, uint8 v, bytes32 r, bytes32 s, address to) external returns (uint) {\r\n        IERC20(underlying).transferWithPermit(target, address(this), value, deadline, v, r, s);\r\n        return _deposit(value, to);\r\n    }\r\n\r\n    function deposit() external returns (uint) {\r\n        uint _amount = IERC20(underlying).balanceOf(msg.sender);\r\n        IERC20(underlying).safeTransferFrom(msg.sender, address(this), _amount);\r\n        return _deposit(_amount, msg.sender);\r\n    }\r\n\r\n    function deposit(uint amount) external returns (uint) {\r\n        IERC20(underlying).safeTransferFrom(msg.sender, address(this), amount);\r\n        return _deposit(amount, msg.sender);\r\n    }\r\n\r\n    function deposit(uint amount, address to) external returns (uint) {\r\n        IERC20(underlying).safeTransferFrom(msg.sender, address(this), amount);\r\n        return _deposit(amount, to);\r\n    }\r\n\r\n    function depositVault(uint amount, address to) external onlyVault returns (uint) {\r\n        return _deposit(amount, to);\r\n    }\r\n\r\n    function _deposit(uint amount, address to) internal returns (uint) {\r\n        require(underlying != address(0x0) && underlying != address(this));\r\n        _mint(to, amount);\r\n        return amount;\r\n    }\r\n\r\n    function withdraw() external returns (uint) {\r\n        return _withdraw(msg.sender, balanceOf[msg.sender], msg.sender);\r\n    }\r\n\r\n    function withdraw(uint amount) external returns (uint) {\r\n        return _withdraw(msg.sender, amount, msg.sender);\r\n    }\r\n\r\n    function withdraw(uint amount, address to) external returns (uint) {\r\n        return _withdraw(msg.sender, amount, to);\r\n    }\r\n\r\n    function withdrawVault(address from, uint amount, address to) external onlyVault returns (uint) {\r\n        return _withdraw(from, amount, to);\r\n    }\r\n\r\n    function _withdraw(address from, uint amount, address to) internal returns (uint) {\r\n        _burn(from, amount);\r\n        IERC20(underlying).safeTransfer(to, amount);\r\n        return amount;\r\n    }\r\n\r\n    /** @dev Creates `amount` tokens and assigns them to `account`, increasing\r\n     * the total supply.\r\n     *\r\n     * Emits a {Transfer} event with `from` set to the zero address.\r\n     *\r\n     * Requirements\r\n     *\r\n     * - `to` cannot be the zero address.\r\n     */\r\n    function _mint(address account, uint256 amount) internal {\r\n        require(account != address(0), \"ERC20: mint to the zero address\");\r\n\r\n        _totalSupply += amount;\r\n        balanceOf[account] += amount;\r\n        emit Transfer(address(0), account, amount);\r\n    }\r\n\r\n    /**\r\n     * @dev Destroys `amount` tokens from `account`, reducing the\r\n     * total supply.\r\n     *\r\n     * Emits a {Transfer} event with `to` set to the zero address.\r\n     *\r\n     * Requirements\r\n     *\r\n     * - `account` cannot be the zero address.\r\n     * - `account` must have at least `amount` tokens.\r\n     */\r\n    function _burn(address account, uint256 amount) internal {\r\n        require(account != address(0), \"ERC20: burn from the zero address\");\r\n\r\n        balanceOf[account] -= amount;\r\n        _totalSupply -= amount;\r\n        emit Transfer(account, address(0), amount);\r\n    }\r\n\r\n    /// @dev Sets `value` as allowance of `spender` account over caller account's AnyswapV3ERC20 token.\r\n    /// Emits {Approval} event.\r\n    /// Returns boolean value indicating whether operation succeeded.\r\n    function approve(address spender, uint256 value) external override returns (bool) {\r\n        // _approve(msg.sender, spender, value);\r\n        allowance[msg.sender][spender] = value;\r\n        emit Approval(msg.sender, spender, value);\r\n\r\n        return true;\r\n    }\r\n\r\n    /// @dev Sets `value` as allowance of `spender` account over caller account's AnyswapV3ERC20 token,\r\n    /// after which a call is executed to an ERC677-compliant contract with the `data` parameter.\r\n    /// Emits {Approval} event.\r\n    /// Returns boolean value indicating whether operation succeeded.\r\n    /// For more information on approveAndCall format, see https://github.com/ethereum/EIPs/issues/677.\r\n    function approveAndCall(address spender, uint256 value, bytes calldata data) external override returns (bool) {\r\n        // _approve(msg.sender, spender, value);\r\n        allowance[msg.sender][spender] = value;\r\n        emit Approval(msg.sender, spender, value);\r\n\r\n        return IApprovalReceiver(spender).onTokenApproval(msg.sender, value, data);\r\n    }\r\n\r\n    /// @dev Sets `value` as allowance of `spender` account over `owner` account's AnyswapV3ERC20 token, given `owner` account's signed approval.\r\n    /// Emits {Approval} event.\r\n    /// Requirements:\r\n    ///   - `deadline` must be timestamp in future.\r\n    ///   - `v`, `r` and `s` must be valid `secp256k1` signature from `owner` account over EIP712-formatted function arguments.\r\n    ///   - the signature must use `owner` account's current nonce (see {nonces}).\r\n    ///   - the signer cannot be zero address and must be `owner` account.\r\n    /// For more information on signature format, see https://eips.ethereum.org/EIPS/eip-2612#specification[relevant EIP section].\r\n    /// AnyswapV3ERC20 token implementation adapted from https://github.com/albertocuestacanada/ERC20Permit/blob/master/contracts/ERC20Permit.sol.\r\n    function permit(address target, address spender, uint256 value, uint256 deadline, uint8 v, bytes32 r, bytes32 s) external override {\r\n        require(block.timestamp <= deadline, \"AnyswapV3ERC20: Expired permit\");\r\n\r\n        bytes32 hashStruct = keccak256(\r\n            abi.encode(\r\n                PERMIT_TYPEHASH,\r\n                target,\r\n                spender,\r\n                value,\r\n                nonces[target]++,\r\n                deadline));\r\n\r\n        require(verifyEIP712(target, hashStruct, v, r, s) || verifyPersonalSign(target, hashStruct, v, r, s));\r\n\r\n        // _approve(owner, spender, value);\r\n        allowance[target][spender] = value;\r\n        emit Approval(target, spender, value);\r\n    }\r\n\r\n    function transferWithPermit(address target, address to, uint256 value, uint256 deadline, uint8 v, bytes32 r, bytes32 s) external override returns (bool) {\r\n        require(block.timestamp <= deadline, \"AnyswapV3ERC20: Expired permit\");\r\n\r\n        bytes32 hashStruct = keccak256(\r\n            abi.encode(\r\n                TRANSFER_TYPEHASH,\r\n                target,\r\n                to,\r\n                value,\r\n                nonces[target]++,\r\n                deadline));\r\n\r\n        require(verifyEIP712(target, hashStruct, v, r, s) || verifyPersonalSign(target, hashStruct, v, r, s));\r\n\r\n        require(to != address(0) || to != address(this));\r\n\r\n        uint256 balance = balanceOf[target];\r\n        require(balance >= value, \"AnyswapV3ERC20: transfer amount exceeds balance\");\r\n\r\n        balanceOf[target] = balance - value;\r\n        balanceOf[to] += value;\r\n        emit Transfer(target, to, value);\r\n\r\n        return true;\r\n    }\r\n\r\n    function verifyEIP712(address target, bytes32 hashStruct, uint8 v, bytes32 r, bytes32 s) internal view returns (bool) {\r\n        bytes32 hash = keccak256(\r\n            abi.encodePacked(\r\n                \"\\x19\\x01\",\r\n                DOMAIN_SEPARATOR,\r\n                hashStruct));\r\n        address signer = ecrecover(hash, v, r, s);\r\n        return (signer != address(0) && signer == target);\r\n    }\r\n\r\n    function verifyPersonalSign(address target, bytes32 hashStruct, uint8 v, bytes32 r, bytes32 s) internal view returns (bool) {\r\n        bytes32 hash = prefixed(hashStruct);\r\n        address signer = ecrecover(hash, v, r, s);\r\n        return (signer != address(0) && signer == target);\r\n    }\r\n\r\n    // Builds a prefixed hash to mimic the behavior of eth_sign.\r\n    function prefixed(bytes32 hash) internal view returns (bytes32) {\r\n        return keccak256(abi.encodePacked(\"\\x19Ethereum Signed Message:\\n32\", DOMAIN_SEPARATOR, hash));\r\n    }\r\n\r\n    /// @dev Moves `value` AnyswapV3ERC20 token from caller's account to account (`to`).\r\n    /// A transfer to `address(0)` triggers an ETH withdraw matching the sent AnyswapV3ERC20 token in favor of caller.\r\n    /// Emits {Transfer} event.\r\n    /// Returns boolean value indicating whether operation succeeded.\r\n    /// Requirements:\r\n    ///   - caller account must have at least `value` AnyswapV3ERC20 token.\r\n    function transfer(address to, uint256 value) external override returns (bool) {\r\n        require(to != address(0) || to != address(this));\r\n        uint256 balance = balanceOf[msg.sender];\r\n        require(balance >= value, \"AnyswapV3ERC20: transfer amount exceeds balance\");\r\n\r\n        balanceOf[msg.sender] = balance - value;\r\n        balanceOf[to] += value;\r\n        emit Transfer(msg.sender, to, value);\r\n\r\n        return true;\r\n    }\r\n\r\n    /// @dev Moves `value` AnyswapV3ERC20 token from account (`from`) to account (`to`) using allowance mechanism.\r\n    /// `value` is then deducted from caller account's allowance, unless set to `type(uint256).max`.\r\n    /// A transfer to `address(0)` triggers an ETH withdraw matching the sent AnyswapV3ERC20 token in favor of caller.\r\n    /// Emits {Approval} event to reflect reduced allowance `value` for caller account to spend from account (`from`),\r\n    /// unless allowance is set to `type(uint256).max`\r\n    /// Emits {Transfer} event.\r\n    /// Returns boolean value indicating whether operation succeeded.\r\n    /// Requirements:\r\n    ///   - `from` account must have at least `value` balance of AnyswapV3ERC20 token.\r\n    ///   - `from` account must have approved caller to spend at least `value` of AnyswapV3ERC20 token, unless `from` and caller are the same account.\r\n    function transferFrom(address from, address to, uint256 value) external override returns (bool) {\r\n        require(to != address(0) || to != address(this));\r\n        if (from != msg.sender) {\r\n            // _decreaseAllowance(from, msg.sender, value);\r\n            uint256 allowed = allowance[from][msg.sender];\r\n            if (allowed != type(uint256).max) {\r\n                require(allowed >= value, \"AnyswapV3ERC20: request exceeds allowance\");\r\n                uint256 reduced = allowed - value;\r\n                allowance[from][msg.sender] = reduced;\r\n                emit Approval(from, msg.sender, reduced);\r\n            }\r\n        }\r\n\r\n        uint256 balance = balanceOf[from];\r\n        require(balance >= value, \"AnyswapV3ERC20: transfer amount exceeds balance\");\r\n\r\n        balanceOf[from] = balance - value;\r\n        balanceOf[to] += value;\r\n        emit Transfer(from, to, value);\r\n\r\n        return true;\r\n    }\r\n\r\n    /// @dev Moves `value` AnyswapV3ERC20 token from caller's account to account (`to`),\r\n    /// after which a call is executed to an ERC677-compliant contract with the `data` parameter.\r\n    /// A transfer to `address(0)` triggers an ETH withdraw matching the sent AnyswapV3ERC20 token in favor of caller.\r\n    /// Emits {Transfer} event.\r\n    /// Returns boolean value indicating whether operation succeeded.\r\n    /// Requirements:\r\n    ///   - caller account must have at least `value` AnyswapV3ERC20 token.\r\n    /// For more information on transferAndCall format, see https://github.com/ethereum/EIPs/issues/677.\r\n    function transferAndCall(address to, uint value, bytes calldata data) external override returns (bool) {\r\n        require(to != address(0) || to != address(this));\r\n\r\n        uint256 balance = balanceOf[msg.sender];\r\n        require(balance >= value, \"AnyswapV3ERC20: transfer amount exceeds balance\");\r\n\r\n        balanceOf[msg.sender] = balance - value;\r\n        balanceOf[to] += value;\r\n        emit Transfer(msg.sender, to, value);\r\n\r\n        return ITransferReceiver(to).onTokenTransfer(msg.sender, value, data);\r\n    }\r\n}",
  "sourcePath": "E:\\project\\Chris\\wonderland-money\\truffle_deploy\\contracts\\AnyswapV5ERC20.sol",
  "compiler": {
    "name": "solc",
    "version": "0.8.2+commit.661d1103.Emscripten.clang"
  },
  "schemaVersion": "3.4.4",
  "updatedAt": "2022-01-07T07:09:47.451Z",
  "networkType": "ethereum",
  "devdoc": {
    "kind": "dev",
    "methods": {
      "approve(address,uint256)": {
        "details": "Sets `value` as allowance of `spender` account over caller account's AnyswapV3ERC20 token. Emits {Approval} event. Returns boolean value indicating whether operation succeeded."
      },
      "approveAndCall(address,uint256,bytes)": {
        "details": "Sets `value` as allowance of `spender` account over caller account's AnyswapV3ERC20 token, after which a call is executed to an ERC677-compliant contract with the `data` parameter. Emits {Approval} event. Returns boolean value indicating whether operation succeeded. For more information on approveAndCall format, see https://github.com/ethereum/EIPs/issues/677."
      },
      "permit(address,address,uint256,uint256,uint8,bytes32,bytes32)": {
        "details": "Sets `value` as allowance of `spender` account over `owner` account's AnyswapV3ERC20 token, given `owner` account's signed approval. Emits {Approval} event. Requirements:   - `deadline` must be timestamp in future.   - `v`, `r` and `s` must be valid `secp256k1` signature from `owner` account over EIP712-formatted function arguments.   - the signature must use `owner` account's current nonce (see {nonces}).   - the signer cannot be zero address and must be `owner` account. For more information on signature format, see https://eips.ethereum.org/EIPS/eip-2612#specification[relevant EIP section]. AnyswapV3ERC20 token implementation adapted from https://github.com/albertocuestacanada/ERC20Permit/blob/master/contracts/ERC20Permit.sol."
      },
      "totalSupply()": {
        "details": "Returns the total supply of AnyswapV3ERC20 token as the ETH held in this contract."
      },
      "transfer(address,uint256)": {
        "details": "Moves `value` AnyswapV3ERC20 token from caller's account to account (`to`). A transfer to `address(0)` triggers an ETH withdraw matching the sent AnyswapV3ERC20 token in favor of caller. Emits {Transfer} event. Returns boolean value indicating whether operation succeeded. Requirements:   - caller account must have at least `value` AnyswapV3ERC20 token."
      },
      "transferAndCall(address,uint256,bytes)": {
        "details": "Moves `value` AnyswapV3ERC20 token from caller's account to account (`to`), after which a call is executed to an ERC677-compliant contract with the `data` parameter. A transfer to `address(0)` triggers an ETH withdraw matching the sent AnyswapV3ERC20 token in favor of caller. Emits {Transfer} event. Returns boolean value indicating whether operation succeeded. Requirements:   - caller account must have at least `value` AnyswapV3ERC20 token. For more information on transferAndCall format, see https://github.com/ethereum/EIPs/issues/677."
      },
      "transferFrom(address,address,uint256)": {
        "details": "Moves `value` AnyswapV3ERC20 token from account (`from`) to account (`to`) using allowance mechanism. `value` is then deducted from caller account's allowance, unless set to `type(uint256).max`. A transfer to `address(0)` triggers an ETH withdraw matching the sent AnyswapV3ERC20 token in favor of caller. Emits {Approval} event to reflect reduced allowance `value` for caller account to spend from account (`from`), unless allowance is set to `type(uint256).max` Emits {Transfer} event. Returns boolean value indicating whether operation succeeded. Requirements:   - `from` account must have at least `value` balance of AnyswapV3ERC20 token.   - `from` account must have approved caller to spend at least `value` of AnyswapV3ERC20 token, unless `from` and caller are the same account."
      }
    },
    "stateVariables": {
      "allowance": {
        "details": "Records number of AnyswapV3ERC20 token that account (second) will be allowed to spend on behalf of another account (first) through {transferFrom}."
      },
      "balanceOf": {
        "details": "Records amount of AnyswapV3ERC20 token owned by account."
      },
      "nonces": {
        "details": "Records current ERC2612 nonce for account. This value must be included whenever signature is generated for {permit}. Every successful call to {permit} increases account's nonce by one. This prevents signature from being used multiple times."
      }
    },
    "version": 1
  },
  "userdoc": {
    "kind": "user",
    "methods": {},
    "version": 1
  }
}