{
  "contractName": "TimeBondDepository",
  "abi": [
    {
      "inputs": [
        {
          "internalType": "address",
          "name": "_Time",
          "type": "address"
        },
        {
          "internalType": "address",
          "name": "_principle",
          "type": "address"
        },
        {
          "internalType": "address",
          "name": "_treasury",
          "type": "address"
        },
        {
          "internalType": "address",
          "name": "_DAO",
          "type": "address"
        },
        {
          "internalType": "address",
          "name": "_feed",
          "type": "address"
        }
      ],
      "stateMutability": "nonpayable",
      "type": "constructor"
    },
    {
      "anonymous": false,
      "inputs": [
        {
          "indexed": false,
          "internalType": "uint256",
          "name": "deposit",
          "type": "uint256"
        },
        {
          "indexed": true,
          "internalType": "uint256",
          "name": "payout",
          "type": "uint256"
        },
        {
          "indexed": true,
          "internalType": "uint256",
          "name": "expires",
          "type": "uint256"
        },
        {
          "indexed": true,
          "internalType": "uint256",
          "name": "priceInUSD",
          "type": "uint256"
        }
      ],
      "name": "BondCreated",
      "type": "event"
    },
    {
      "anonymous": false,
      "inputs": [
        {
          "indexed": true,
          "internalType": "uint256",
          "name": "priceInUSD",
          "type": "uint256"
        },
        {
          "indexed": true,
          "internalType": "uint256",
          "name": "internalPrice",
          "type": "uint256"
        },
        {
          "indexed": true,
          "internalType": "uint256",
          "name": "debtRatio",
          "type": "uint256"
        }
      ],
      "name": "BondPriceChanged",
      "type": "event"
    },
    {
      "anonymous": false,
      "inputs": [
        {
          "indexed": true,
          "internalType": "address",
          "name": "recipient",
          "type": "address"
        },
        {
          "indexed": false,
          "internalType": "uint256",
          "name": "payout",
          "type": "uint256"
        },
        {
          "indexed": false,
          "internalType": "uint256",
          "name": "remaining",
          "type": "uint256"
        }
      ],
      "name": "BondRedeemed",
      "type": "event"
    },
    {
      "anonymous": false,
      "inputs": [
        {
          "indexed": false,
          "internalType": "uint256",
          "name": "initialBCV",
          "type": "uint256"
        },
        {
          "indexed": false,
          "internalType": "uint256",
          "name": "newBCV",
          "type": "uint256"
        },
        {
          "indexed": false,
          "internalType": "uint256",
          "name": "adjustment",
          "type": "uint256"
        },
        {
          "indexed": false,
          "internalType": "bool",
          "name": "addition",
          "type": "bool"
        }
      ],
      "name": "ControlVariableAdjustment",
      "type": "event"
    },
    {
      "anonymous": false,
      "inputs": [
        {
          "indexed": true,
          "internalType": "address",
          "name": "previousOwner",
          "type": "address"
        },
        {
          "indexed": true,
          "internalType": "address",
          "name": "newOwner",
          "type": "address"
        }
      ],
      "name": "OwnershipPulled",
      "type": "event"
    },
    {
      "anonymous": false,
      "inputs": [
        {
          "indexed": true,
          "internalType": "address",
          "name": "previousOwner",
          "type": "address"
        },
        {
          "indexed": true,
          "internalType": "address",
          "name": "newOwner",
          "type": "address"
        }
      ],
      "name": "OwnershipPushed",
      "type": "event"
    },
    {
      "inputs": [],
      "name": "DAO",
      "outputs": [
        {
          "internalType": "address",
          "name": "",
          "type": "address"
        }
      ],
      "stateMutability": "view",
      "type": "function"
    },
    {
      "inputs": [],
      "name": "Time",
      "outputs": [
        {
          "internalType": "contract IERC20",
          "name": "",
          "type": "address"
        }
      ],
      "stateMutability": "view",
      "type": "function"
    },
    {
      "inputs": [],
      "name": "adjustment",
      "outputs": [
        {
          "internalType": "bool",
          "name": "add",
          "type": "bool"
        },
        {
          "internalType": "uint256",
          "name": "rate",
          "type": "uint256"
        },
        {
          "internalType": "uint256",
          "name": "target",
          "type": "uint256"
        },
        {
          "internalType": "uint32",
          "name": "buffer",
          "type": "uint32"
        },
        {
          "internalType": "uint32",
          "name": "lastTime",
          "type": "uint32"
        }
      ],
      "stateMutability": "view",
      "type": "function"
    },
    {
      "inputs": [
        {
          "internalType": "address",
          "name": "",
          "type": "address"
        }
      ],
      "name": "allowedZappers",
      "outputs": [
        {
          "internalType": "bool",
          "name": "",
          "type": "bool"
        }
      ],
      "stateMutability": "view",
      "type": "function"
    },
    {
      "inputs": [
        {
          "internalType": "address",
          "name": "",
          "type": "address"
        }
      ],
      "name": "bondInfo",
      "outputs": [
        {
          "internalType": "uint256",
          "name": "payout",
          "type": "uint256"
        },
        {
          "internalType": "uint256",
          "name": "pricePaid",
          "type": "uint256"
        },
        {
          "internalType": "uint32",
          "name": "vesting",
          "type": "uint32"
        },
        {
          "internalType": "uint32",
          "name": "lastTime",
          "type": "uint32"
        }
      ],
      "stateMutability": "view",
      "type": "function"
    },
    {
      "inputs": [],
      "name": "lastDecay",
      "outputs": [
        {
          "internalType": "uint32",
          "name": "",
          "type": "uint32"
        }
      ],
      "stateMutability": "view",
      "type": "function"
    },
    {
      "inputs": [],
      "name": "policy",
      "outputs": [
        {
          "internalType": "address",
          "name": "",
          "type": "address"
        }
      ],
      "stateMutability": "view",
      "type": "function"
    },
    {
      "inputs": [],
      "name": "priceFeed",
      "outputs": [
        {
          "internalType": "contract AggregatorV3Interface",
          "name": "",
          "type": "address"
        }
      ],
      "stateMutability": "view",
      "type": "function"
    },
    {
      "inputs": [],
      "name": "principle",
      "outputs": [
        {
          "internalType": "contract IWAVAX9",
          "name": "",
          "type": "address"
        }
      ],
      "stateMutability": "view",
      "type": "function"
    },
    {
      "inputs": [],
      "name": "pullManagement",
      "outputs": [],
      "stateMutability": "nonpayable",
      "type": "function"
    },
    {
      "inputs": [
        {
          "internalType": "address",
          "name": "newOwner_",
          "type": "address"
        }
      ],
      "name": "pushManagement",
      "outputs": [],
      "stateMutability": "nonpayable",
      "type": "function"
    },
    {
      "inputs": [],
      "name": "renounceManagement",
      "outputs": [],
      "stateMutability": "nonpayable",
      "type": "function"
    },
    {
      "inputs": [],
      "name": "staking",
      "outputs": [
        {
          "internalType": "contract IStaking",
          "name": "",
          "type": "address"
        }
      ],
      "stateMutability": "view",
      "type": "function"
    },
    {
      "inputs": [],
      "name": "stakingHelper",
      "outputs": [
        {
          "internalType": "contract IStakingHelper",
          "name": "",
          "type": "address"
        }
      ],
      "stateMutability": "view",
      "type": "function"
    },
    {
      "inputs": [],
      "name": "terms",
      "outputs": [
        {
          "internalType": "uint256",
          "name": "controlVariable",
          "type": "uint256"
        },
        {
          "internalType": "uint256",
          "name": "minimumPrice",
          "type": "uint256"
        },
        {
          "internalType": "uint256",
          "name": "maxPayout",
          "type": "uint256"
        },
        {
          "internalType": "uint256",
          "name": "maxDebt",
          "type": "uint256"
        },
        {
          "internalType": "uint32",
          "name": "vestingTerm",
          "type": "uint32"
        }
      ],
      "stateMutability": "view",
      "type": "function"
    },
    {
      "inputs": [],
      "name": "totalDebt",
      "outputs": [
        {
          "internalType": "uint256",
          "name": "",
          "type": "uint256"
        }
      ],
      "stateMutability": "view",
      "type": "function"
    },
    {
      "inputs": [],
      "name": "treasury",
      "outputs": [
        {
          "internalType": "contract ITreasury",
          "name": "",
          "type": "address"
        }
      ],
      "stateMutability": "view",
      "type": "function"
    },
    {
      "inputs": [],
      "name": "useHelper",
      "outputs": [
        {
          "internalType": "bool",
          "name": "",
          "type": "bool"
        }
      ],
      "stateMutability": "view",
      "type": "function"
    },
    {
      "inputs": [
        {
          "internalType": "uint256",
          "name": "_controlVariable",
          "type": "uint256"
        },
        {
          "internalType": "uint256",
          "name": "_minimumPrice",
          "type": "uint256"
        },
        {
          "internalType": "uint256",
          "name": "_maxPayout",
          "type": "uint256"
        },
        {
          "internalType": "uint256",
          "name": "_maxDebt",
          "type": "uint256"
        },
        {
          "internalType": "uint32",
          "name": "_vestingTerm",
          "type": "uint32"
        }
      ],
      "name": "initializeBondTerms",
      "outputs": [],
      "stateMutability": "nonpayable",
      "type": "function"
    },
    {
      "inputs": [
        {
          "internalType": "enum TimeBondDepository.PARAMETER",
          "name": "_parameter",
          "type": "uint8"
        },
        {
          "internalType": "uint256",
          "name": "_input",
          "type": "uint256"
        }
      ],
      "name": "setBondTerms",
      "outputs": [],
      "stateMutability": "nonpayable",
      "type": "function"
    },
    {
      "inputs": [
        {
          "internalType": "bool",
          "name": "_addition",
          "type": "bool"
        },
        {
          "internalType": "uint256",
          "name": "_increment",
          "type": "uint256"
        },
        {
          "internalType": "uint256",
          "name": "_target",
          "type": "uint256"
        },
        {
          "internalType": "uint32",
          "name": "_buffer",
          "type": "uint32"
        }
      ],
      "name": "setAdjustment",
      "outputs": [],
      "stateMutability": "nonpayable",
      "type": "function"
    },
    {
      "inputs": [
        {
          "internalType": "address",
          "name": "_staking",
          "type": "address"
        },
        {
          "internalType": "bool",
          "name": "_helper",
          "type": "bool"
        }
      ],
      "name": "setStaking",
      "outputs": [],
      "stateMutability": "nonpayable",
      "type": "function"
    },
    {
      "inputs": [
        {
          "internalType": "address",
          "name": "zapper",
          "type": "address"
        }
      ],
      "name": "allowZapper",
      "outputs": [],
      "stateMutability": "nonpayable",
      "type": "function"
    },
    {
      "inputs": [
        {
          "internalType": "address",
          "name": "zapper",
          "type": "address"
        }
      ],
      "name": "removeZapper",
      "outputs": [],
      "stateMutability": "nonpayable",
      "type": "function"
    },
    {
      "inputs": [
        {
          "internalType": "uint256",
          "name": "_amount",
          "type": "uint256"
        },
        {
          "internalType": "uint256",
          "name": "_maxPrice",
          "type": "uint256"
        },
        {
          "internalType": "address",
          "name": "_depositor",
          "type": "address"
        }
      ],
      "name": "deposit",
      "outputs": [
        {
          "internalType": "uint256",
          "name": "",
          "type": "uint256"
        }
      ],
      "stateMutability": "payable",
      "type": "function"
    },
    {
      "inputs": [
        {
          "internalType": "address",
          "name": "_recipient",
          "type": "address"
        },
        {
          "internalType": "bool",
          "name": "_stake",
          "type": "bool"
        }
      ],
      "name": "redeem",
      "outputs": [
        {
          "internalType": "uint256",
          "name": "",
          "type": "uint256"
        }
      ],
      "stateMutability": "nonpayable",
      "type": "function"
    },
    {
      "inputs": [],
      "name": "maxPayout",
      "outputs": [
        {
          "internalType": "uint256",
          "name": "",
          "type": "uint256"
        }
      ],
      "stateMutability": "view",
      "type": "function"
    },
    {
      "inputs": [
        {
          "internalType": "uint256",
          "name": "_value",
          "type": "uint256"
        }
      ],
      "name": "payoutFor",
      "outputs": [
        {
          "internalType": "uint256",
          "name": "",
          "type": "uint256"
        }
      ],
      "stateMutability": "view",
      "type": "function"
    },
    {
      "inputs": [],
      "name": "bondPrice",
      "outputs": [
        {
          "internalType": "uint256",
          "name": "price_",
          "type": "uint256"
        }
      ],
      "stateMutability": "view",
      "type": "function"
    },
    {
      "inputs": [],
      "name": "assetPrice",
      "outputs": [
        {
          "internalType": "int256",
          "name": "",
          "type": "int256"
        }
      ],
      "stateMutability": "view",
      "type": "function"
    },
    {
      "inputs": [],
      "name": "bondPriceInUSD",
      "outputs": [
        {
          "internalType": "uint256",
          "name": "price_",
          "type": "uint256"
        }
      ],
      "stateMutability": "view",
      "type": "function"
    },
    {
      "inputs": [],
      "name": "debtRatio",
      "outputs": [
        {
          "internalType": "uint256",
          "name": "debtRatio_",
          "type": "uint256"
        }
      ],
      "stateMutability": "view",
      "type": "function"
    },
    {
      "inputs": [],
      "name": "standardizedDebtRatio",
      "outputs": [
        {
          "internalType": "uint256",
          "name": "",
          "type": "uint256"
        }
      ],
      "stateMutability": "view",
      "type": "function"
    },
    {
      "inputs": [],
      "name": "currentDebt",
      "outputs": [
        {
          "internalType": "uint256",
          "name": "",
          "type": "uint256"
        }
      ],
      "stateMutability": "view",
      "type": "function"
    },
    {
      "inputs": [],
      "name": "debtDecay",
      "outputs": [
        {
          "internalType": "uint256",
          "name": "decay_",
          "type": "uint256"
        }
      ],
      "stateMutability": "view",
      "type": "function"
    },
    {
      "inputs": [
        {
          "internalType": "address",
          "name": "_depositor",
          "type": "address"
        }
      ],
      "name": "percentVestedFor",
      "outputs": [
        {
          "internalType": "uint256",
          "name": "percentVested_",
          "type": "uint256"
        }
      ],
      "stateMutability": "view",
      "type": "function"
    },
    {
      "inputs": [
        {
          "internalType": "address",
          "name": "_depositor",
          "type": "address"
        }
      ],
      "name": "pendingPayoutFor",
      "outputs": [
        {
          "internalType": "uint256",
          "name": "pendingPayout_",
          "type": "uint256"
        }
      ],
      "stateMutability": "view",
      "type": "function"
    },
    {
      "inputs": [
        {
          "internalType": "contract IERC20",
          "name": "_token",
          "type": "address"
        }
      ],
      "name": "recoverLostToken",
      "outputs": [
        {
          "internalType": "bool",
          "name": "",
          "type": "bool"
        }
      ],
      "stateMutability": "nonpayable",
      "type": "function"
    }
  ],
  "bytecode": "0x6101006040523480156200001257600080fd5b5060405162004e7738038062004e77833981810160405260a08110156200003857600080fd5b810190808051906020019092919080519060200190929190805190602001909291908051906020019092919080519060200190929190505050336000806101000a81548173ffffffffffffffffffffffffffffffffffffffff021916908373ffffffffffffffffffffffffffffffffffffffff16021790555060008054906101000a900473ffffffffffffffffffffffffffffffffffffffff1673ffffffffffffffffffffffffffffffffffffffff16600073ffffffffffffffffffffffffffffffffffffffff167fea8258f2d9ddb679928cf34b78cf645b7feda9acc828e4dd82d014eaae270eba60405160405180910390a3600073ffffffffffffffffffffffffffffffffffffffff168573ffffffffffffffffffffffffffffffffffffffff1614156200016757600080fd5b8473ffffffffffffffffffffffffffffffffffffffff1660808173ffffffffffffffffffffffffffffffffffffffff1660601b81525050600073ffffffffffffffffffffffffffffffffffffffff168473ffffffffffffffffffffffffffffffffffffffff161415620001d957600080fd5b8373ffffffffffffffffffffffffffffffffffffffff1660a08173ffffffffffffffffffffffffffffffffffffffff1660601b81525050600073ffffffffffffffffffffffffffffffffffffffff168373ffffffffffffffffffffffffffffffffffffffff1614156200024b57600080fd5b8273ffffffffffffffffffffffffffffffffffffffff1660c08173ffffffffffffffffffffffffffffffffffffffff1660601b81525050600073ffffffffffffffffffffffffffffffffffffffff168273ffffffffffffffffffffffffffffffffffffffff161415620002bd57600080fd5b8173ffffffffffffffffffffffffffffffffffffffff1660e08173ffffffffffffffffffffffffffffffffffffffff1660601b81525050600073ffffffffffffffffffffffffffffffffffffffff168173ffffffffffffffffffffffffffffffffffffffff1614156200032f57600080fd5b80600260006101000a81548173ffffffffffffffffffffffffffffffffffffffff021916908373ffffffffffffffffffffffffffffffffffffffff160217905550505050505060805160601c60a05160601c60c05160601c60e05160601c614a706200040760003980612c7452806130b4525080611f3f528061249052806127b8528061287252806128dc525080610c9152806124cc52806126fb528061277c52806128945280612fef525080612f2d52806131f9528061369452806137eb5280613848528061392f5280613ace5250614a706000f3fe6080604052600436106102255760003560e01c80637927ebf811610123578063d24378eb116100ab578063e0176de81161006f578063e0176de814610b9c578063e392a26214610bc7578063f5c2ab5b14610bf2578063f8e157ea14610c23578063fc7b9c1814610c6457610225565b8063d24378eb14610a35578063d4d863ce14610a60578063d502562514610abd578063d7ccfb0b14610b0a578063dc6549fb14610b3557610225565b806398fabd3a116100f257806398fabd3a1461087b578063ae9832cf146108bc578063b4abccba1461091d578063cd1234b314610984578063cea55f5714610a0a57610225565b80637927ebf81461076a578063844b5c7c146107b95780638dbdbe6d146107e4578063904b3ece1461085057610225565b8063451ee4a1116101b157806361d027b31161017557806361d027b31461062b57806363b3256b1461066c578063741bef1a146106bd578063759076e5146106fe57806377b818951461072957610225565b8063451ee4a1146104c857806346f68ee91461051d5780634cf088d91461056e578063507930ec146105af5780635a96ac0a1461061457610225565b80630ab69367116101f85780630ab69367146103285780631e321a0f146103915780631ed2d71a146103d95780631feed31f1461042a5780632f3f470a1461049b57610225565b8063016a42841461022a57806301b88ee81461026b5780630505c8c9146102d0578063089208d814610311575b600080fd5b34801561023657600080fd5b5061023f610c8f565b604051808273ffffffffffffffffffffffffffffffffffffffff16815260200191505060405180910390f35b34801561027757600080fd5b506102ba6004803603602081101561028e57600080fd5b81019080803573ffffffffffffffffffffffffffffffffffffffff169060200190929190505050610cb3565b6040518082815260200191505060405180910390f35b3480156102dc57600080fd5b506102e5610d41565b604051808273ffffffffffffffffffffffffffffffffffffffff16815260200191505060405180910390f35b34801561031d57600080fd5b50610326610d6a565b005b34801561033457600080fd5b5061038f600480360360a081101561034b57600080fd5b8101908080359060200190929190803590602001909291908035906020019092919080359060200190929190803563ffffffff169060200190929190505050610ee9565b005b34801561039d57600080fd5b506103d7600480360360408110156103b457600080fd5b81019080803560ff16906020019092919080359060200190929190505050611204565b005b3480156103e557600080fd5b50610428600480360360208110156103fc57600080fd5b81019080803573ffffffffffffffffffffffffffffffffffffffff16906020019092919050505061146d565b005b34801561043657600080fd5b506104856004803603604081101561044d57600080fd5b81019080803573ffffffffffffffffffffffffffffffffffffffff169060200190929190803515159060200190929190505050611589565b6040518082815260200191505060405180910390f35b3480156104a757600080fd5b506104b06119e1565b60405180821515815260200191505060405180910390f35b3480156104d457600080fd5b506104dd6119f4565b6040518086151581526020018581526020018481526020018363ffffffff1681526020018263ffffffff1681526020019550505050505060405180910390f35b34801561052957600080fd5b5061056c6004803603602081101561054057600080fd5b81019080803573ffffffffffffffffffffffffffffffffffffffff169060200190929190505050611a45565b005b34801561057a57600080fd5b50610583611c4a565b604051808273ffffffffffffffffffffffffffffffffffffffff16815260200191505060405180910390f35b3480156105bb57600080fd5b506105fe600480360360208110156105d257600080fd5b81019080803573ffffffffffffffffffffffffffffffffffffffff169060200190929190505050611c70565b6040518082815260200191505060405180910390f35b34801561062057600080fd5b50610629611d97565b005b34801561063757600080fd5b50610640611f3d565b604051808273ffffffffffffffffffffffffffffffffffffffff16815260200191505060405180910390f35b34801561067857600080fd5b506106bb6004803603602081101561068f57600080fd5b81019080803573ffffffffffffffffffffffffffffffffffffffff169060200190929190505050611f61565b005b3480156106c957600080fd5b506106d2612120565b604051808273ffffffffffffffffffffffffffffffffffffffff16815260200191505060405180910390f35b34801561070a57600080fd5b50610713612146565b6040518082815260200191505060405180910390f35b34801561073557600080fd5b5061073e612169565b604051808273ffffffffffffffffffffffffffffffffffffffff16815260200191505060405180910390f35b34801561077657600080fd5b506107a36004803603602081101561078d57600080fd5b810190808035906020019092919050505061218f565b6040518082815260200191505060405180910390f35b3480156107c557600080fd5b506107ce6121c0565b6040518082815260200191505060405180910390f35b61083a600480360360608110156107fa57600080fd5b810190808035906020019092919080359060200190929190803573ffffffffffffffffffffffffffffffffffffffff1690602001909291905050506121fd565b6040518082815260200191505060405180910390f35b34801561085c57600080fd5b50610865612b99565b6040518082815260200191505060405180910390f35b34801561088757600080fd5b50610890612c72565b604051808273ffffffffffffffffffffffffffffffffffffffff16815260200191505060405180910390f35b3480156108c857600080fd5b5061091b600480360360808110156108df57600080fd5b810190808035151590602001909291908035906020019092919080359060200190929190803563ffffffff169060200190929190505050612c96565b005b34801561092957600080fd5b5061096c6004803603602081101561094057600080fd5b81019080803573ffffffffffffffffffffffffffffffffffffffff169060200190929190505050612f29565b60405180821515815260200191505060405180910390f35b34801561099057600080fd5b506109d3600480360360208110156109a757600080fd5b81019080803573ffffffffffffffffffffffffffffffffffffffff1690602001909291905050506131a4565b604051808581526020018481526020018363ffffffff1681526020018263ffffffff16815260200194505050505060405180910390f35b348015610a1657600080fd5b50610a1f6131f4565b6040518082815260200191505060405180910390f35b348015610a4157600080fd5b50610a4a6132e0565b6040518082815260200191505060405180910390f35b348015610a6c57600080fd5b50610abb60048036036040811015610a8357600080fd5b81019080803573ffffffffffffffffffffffffffffffffffffffff1690602001909291908035151590602001909291905050506133bb565b005b348015610ac957600080fd5b50610ad26135e7565b604051808681526020018581526020018481526020018381526020018263ffffffff1681526020019550505050505060405180910390f35b348015610b1657600080fd5b50610b1f61361b565b6040518082815260200191505060405180910390f35b348015610b4157600080fd5b50610b8460048036036020811015610b5857600080fd5b81019080803573ffffffffffffffffffffffffffffffffffffffff169060200190929190505050613663565b60405180821515815260200191505060405180910390f35b348015610ba857600080fd5b50610bb1613683565b6040518082815260200191505060405180910390f35b348015610bd357600080fd5b50610bdc61374e565b6040518082815260200191505060405180910390f35b348015610bfe57600080fd5b50610c076137d3565b604051808263ffffffff16815260200191505060405180910390f35b348015610c2f57600080fd5b50610c386137e9565b604051808273ffffffffffffffffffffffffffffffffffffffff16815260200191505060405180910390f35b348015610c7057600080fd5b50610c7961380d565b6040518082815260200191505060405180910390f35b7f000000000000000000000000000000000000000000000000000000000000000081565b600080610cbf83611c70565b90506000600e60008573ffffffffffffffffffffffffffffffffffffffff1673ffffffffffffffffffffffffffffffffffffffff1681526020019081526020016000206000015490506127108210610d1957809250610d3a565b612710610d2f838361381390919063ffffffff16565b81610d3657fe5b0492505b5050919050565b60008060009054906101000a900473ffffffffffffffffffffffffffffffffffffffff16905090565b3373ffffffffffffffffffffffffffffffffffffffff1660008054906101000a900473ffffffffffffffffffffffffffffffffffffffff1673ffffffffffffffffffffffffffffffffffffffff1614610e2b576040517f08c379a00000000000000000000000000000000000000000000000000000000081526004018080602001828103825260208152602001807f4f776e61626c653a2063616c6c6572206973206e6f7420746865206f776e657281525060200191505060405180910390fd5b600073ffffffffffffffffffffffffffffffffffffffff1660008054906101000a900473ffffffffffffffffffffffffffffffffffffffff1673ffffffffffffffffffffffffffffffffffffffff167fea8258f2d9ddb679928cf34b78cf645b7feda9acc828e4dd82d014eaae270eba60405160405180910390a360008060006101000a81548173ffffffffffffffffffffffffffffffffffffffff021916908373ffffffffffffffffffffffffffffffffffffffff160217905550565b3373ffffffffffffffffffffffffffffffffffffffff1660008054906101000a900473ffffffffffffffffffffffffffffffffffffffff1673ffffffffffffffffffffffffffffffffffffffff1614610faa576040517f08c379a00000000000000000000000000000000000000000000000000000000081526004018080602001828103825260208152602001807f4f776e61626c653a2063616c6c6572206973206e6f7420746865206f776e657281525060200191505060405180910390fd5b6000610fb4612146565b1461100a576040517f08c379a00000000000000000000000000000000000000000000000000000000081526004018080602001828103825260218152602001806149a96021913960400191505060405180910390fd5b6028851015611081576040517f08c379a00000000000000000000000000000000000000000000000000000000081526004018080602001828103825260138152602001807f43616e206c6f636b2061646a7573746d656e740000000000000000000000000081525060200191505060405180910390fd5b6103e88311156110f9576040517f08c379a00000000000000000000000000000000000000000000000000000000081526004018080602001828103825260208152602001807f5061796f75742063616e6e6f742062652061626f766520312070657263656e7481525060200191505060405180910390fd5b6201fa408163ffffffff16101561115b576040517f08c379a00000000000000000000000000000000000000000000000000000000081526004018080602001828103825260248152602001806149ed6024913960400191505060405180910390fd5b6040518060a001604052808681526020018581526020018481526020018381526020018263ffffffff1681525060056000820151816000015560208201518160010155604082015181600201556060820151816003015560808201518160040160006101000a81548163ffffffff021916908363ffffffff16021790555090505042601060006101000a81548163ffffffff021916908363ffffffff1602179055505050505050565b3373ffffffffffffffffffffffffffffffffffffffff1660008054906101000a900473ffffffffffffffffffffffffffffffffffffffff1673ffffffffffffffffffffffffffffffffffffffff16146112c5576040517f08c379a00000000000000000000000000000000000000000000000000000000081526004018080602001828103825260208152602001807f4f776e61626c653a2063616c6c6572206973206e6f7420746865206f776e657281525060200191505060405180910390fd5b600060038111156112d257fe5b8260038111156112de57fe5b1415611369576201fa40811015611340576040517f08c379a00000000000000000000000000000000000000000000000000000000081526004018080602001828103825260248152602001806149ed6024913960400191505060405180910390fd5b80600560040160006101000a81548163ffffffff021916908363ffffffff160217905550611469565b6001600381111561137657fe5b82600381111561138257fe5b141561140f576103e8811115611400576040517f08c379a00000000000000000000000000000000000000000000000000000000081526004018080602001828103825260208152602001807f5061796f75742063616e6e6f742062652061626f766520312070657263656e7481525060200191505060405180910390fd5b80600560020181905550611468565b6002600381111561141c57fe5b82600381111561142857fe5b141561143d5780600560030181905550611467565b60038081111561144957fe5b82600381111561145557fe5b141561146657806005600101819055505b5b5b5b5050565b3373ffffffffffffffffffffffffffffffffffffffff1660008054906101000a900473ffffffffffffffffffffffffffffffffffffffff1673ffffffffffffffffffffffffffffffffffffffff161461152e576040517f08c379a00000000000000000000000000000000000000000000000000000000081526004018080602001828103825260208152602001807f4f776e61626c653a2063616c6c6572206973206e6f7420746865206f776e657281525060200191505060405180910390fd5b6000601160008373ffffffffffffffffffffffffffffffffffffffff1673ffffffffffffffffffffffffffffffffffffffff16815260200190815260200160002060006101000a81548160ff02191690831515021790555050565b60008273ffffffffffffffffffffffffffffffffffffffff163373ffffffffffffffffffffffffffffffffffffffff161461162c576040517f08c379a00000000000000000000000000000000000000000000000000000000081526004018080602001828103825260028152602001807f4e4100000000000000000000000000000000000000000000000000000000000081525060200191505060405180910390fd5b6116346148d5565b600e60008573ffffffffffffffffffffffffffffffffffffffff1673ffffffffffffffffffffffffffffffffffffffff16815260200190815260200160002060405180608001604052908160008201548152602001600182015481526020016002820160009054906101000a900463ffffffff1663ffffffff1663ffffffff1681526020016002820160049054906101000a900463ffffffff1663ffffffff1663ffffffff1681525050905060006116eb85611c70565b905061271081106117e957600e60008673ffffffffffffffffffffffffffffffffffffffff1673ffffffffffffffffffffffffffffffffffffffff16815260200190815260200160002060008082016000905560018201600090556002820160006101000a81549063ffffffff02191690556002820160046101000a81549063ffffffff021916905550508473ffffffffffffffffffffffffffffffffffffffff167f51c99f515c87b0d95ba97f616edd182e8f161c4932eac17c6fefe9dab58b77b183600001516000604051808381526020018281526020019250505060405180910390a26117e08585846000015161383f565b925050506119db565b600061271061180583856000015161381390919063ffffffff16565b8161180c57fe5b0490506040518060800160405280611831838660000151613c9690919063ffffffff16565b81526020018460200151815260200161187961186086606001514263ffffffff16613cb090919063ffffffff16565b866040015163ffffffff16613cb090919063ffffffff16565b63ffffffff1681526020014263ffffffff16815250600e60008873ffffffffffffffffffffffffffffffffffffffff1673ffffffffffffffffffffffffffffffffffffffff168152602001908152602001600020600082015181600001556020820151816001015560408201518160020160006101000a81548163ffffffff021916908363ffffffff16021790555060608201518160020160046101000a81548163ffffffff021916908363ffffffff1602179055509050508573ffffffffffffffffffffffffffffffffffffffff167f51c99f515c87b0d95ba97f616edd182e8f161c4932eac17c6fefe9dab58b77b182600e60008a73ffffffffffffffffffffffffffffffffffffffff1673ffffffffffffffffffffffffffffffffffffffff16815260200190815260200160002060000154604051808381526020018281526020019250505060405180910390a26119d586868361383f565b93505050505b92915050565b600460149054906101000a900460ff1681565b600a8060000160009054906101000a900460ff16908060010154908060020154908060030160009054906101000a900463ffffffff16908060030160049054906101000a900463ffffffff16905085565b3373ffffffffffffffffffffffffffffffffffffffff1660008054906101000a900473ffffffffffffffffffffffffffffffffffffffff1673ffffffffffffffffffffffffffffffffffffffff1614611b06576040517f08c379a00000000000000000000000000000000000000000000000000000000081526004018080602001828103825260208152602001807f4f776e61626c653a2063616c6c6572206973206e6f7420746865206f776e657281525060200191505060405180910390fd5b600073ffffffffffffffffffffffffffffffffffffffff168173ffffffffffffffffffffffffffffffffffffffff161415611b8c576040517f08c379a000000000000000000000000000000000000000000000000000000000815260040180806020018281038252602681526020018061493b6026913960400191505060405180910390fd5b8073ffffffffffffffffffffffffffffffffffffffff1660008054906101000a900473ffffffffffffffffffffffffffffffffffffffff1673ffffffffffffffffffffffffffffffffffffffff167fea8258f2d9ddb679928cf34b78cf645b7feda9acc828e4dd82d014eaae270eba60405160405180910390a380600160006101000a81548173ffffffffffffffffffffffffffffffffffffffff021916908373ffffffffffffffffffffffffffffffffffffffff16021790555050565b600360009054906101000a900473ffffffffffffffffffffffffffffffffffffffff1681565b6000611c7a6148d5565b600e60008473ffffffffffffffffffffffffffffffffffffffff1673ffffffffffffffffffffffffffffffffffffffff16815260200190815260200160002060405180608001604052908160008201548152602001600182015481526020016002820160009054906101000a900463ffffffff1663ffffffff1663ffffffff1681526020016002820160049054906101000a900463ffffffff1663ffffffff1663ffffffff168152505090506000611d4582606001514263ffffffff16613cb090919063ffffffff16565b63ffffffff1690506000826040015163ffffffff1690506000811115611d8a5780611d7b6127108461381390919063ffffffff16565b81611d8257fe5b049350611d8f565b600093505b505050919050565b600160009054906101000a900473ffffffffffffffffffffffffffffffffffffffff1673ffffffffffffffffffffffffffffffffffffffff163373ffffffffffffffffffffffffffffffffffffffff1614611e3d576040517f08c379a00000000000000000000000000000000000000000000000000000000081526004018080602001828103825260228152602001806149616022913960400191505060405180910390fd5b600160009054906101000a900473ffffffffffffffffffffffffffffffffffffffff1673ffffffffffffffffffffffffffffffffffffffff1660008054906101000a900473ffffffffffffffffffffffffffffffffffffffff1673ffffffffffffffffffffffffffffffffffffffff167faa151555690c956fc3ea32f106bb9f119b5237a061eaa8557cff3e51e3792c8d60405160405180910390a3600160009054906101000a900473ffffffffffffffffffffffffffffffffffffffff166000806101000a81548173ffffffffffffffffffffffffffffffffffffffff021916908373ffffffffffffffffffffffffffffffffffffffff160217905550565b7f000000000000000000000000000000000000000000000000000000000000000081565b3373ffffffffffffffffffffffffffffffffffffffff1660008054906101000a900473ffffffffffffffffffffffffffffffffffffffff1673ffffffffffffffffffffffffffffffffffffffff1614612022576040517f08c379a00000000000000000000000000000000000000000000000000000000081526004018080602001828103825260208152602001807f4f776e61626c653a2063616c6c6572206973206e6f7420746865206f776e657281525060200191505060405180910390fd5b600073ffffffffffffffffffffffffffffffffffffffff168173ffffffffffffffffffffffffffffffffffffffff1614156120c5576040517f08c379a00000000000000000000000000000000000000000000000000000000081526004018080602001828103825260038152602001807f5a4e41000000000000000000000000000000000000000000000000000000000081525060200191505060405180910390fd5b6001601160008373ffffffffffffffffffffffffffffffffffffffff1673ffffffffffffffffffffffffffffffffffffffff16815260200190815260200160002060006101000a81548160ff02191690831515021790555050565b600260009054906101000a900473ffffffffffffffffffffffffffffffffffffffff1681565b600061216461215361374e565b600f54613c9690919063ffffffff16565b905090565b600460009054906101000a900473ffffffffffffffffffffffffffffffffffffffff1681565b6000655af3107a40006121b16121ac846121a761361b565b613cd6565b613fb7565b816121b857fe5b049050919050565b60006121f8620f42406121ea6121d46132e0565b6121dc61361b565b61381390919063ffffffff16565b61381390919063ffffffff16565b905090565b60008073ffffffffffffffffffffffffffffffffffffffff168273ffffffffffffffffffffffffffffffffffffffff1614156122a1576040517f08c379a000000000000000000000000000000000000000000000000000000000815260040180806020018281038252600f8152602001807f496e76616c69642061646472657373000000000000000000000000000000000081525060200191505060405180910390fd5b8173ffffffffffffffffffffffffffffffffffffffff163373ffffffffffffffffffffffffffffffffffffffff1614806123245750601160003373ffffffffffffffffffffffffffffffffffffffff1673ffffffffffffffffffffffffffffffffffffffff16815260200190815260200160002060009054906101000a900460ff165b612396576040517f08c379a00000000000000000000000000000000000000000000000000000000081526004018080602001828103825260048152602001807f4c464e410000000000000000000000000000000000000000000000000000000081525060200191505060405180910390fd5b61239e613ff3565b600560030154600f54111561241b576040517f08c379a00000000000000000000000000000000000000000000000000000000081526004018080602001828103825260148152602001807f4d6178206361706163697479207265616368656400000000000000000000000081525060200191505060405180910390fd5b60006124256121c0565b90506000612431614038565b90508085101561248c576040517f08c379a00000000000000000000000000000000000000000000000000000000081526004018080602001828103825260238152602001806149ca6023913960400191505060405180910390fd5b60007f000000000000000000000000000000000000000000000000000000000000000073ffffffffffffffffffffffffffffffffffffffff16631eec5a9a7f0000000000000000000000000000000000000000000000000000000000000000896040518363ffffffff1660e01b8152600401808373ffffffffffffffffffffffffffffffffffffffff1681526020018281526020019250505060206040518083038186803b15801561253d57600080fd5b505afa158015612551573d6000803e3d6000fd5b505050506040513d602081101561256757600080fd5b8101908080519060200190929190505050905060006125858261218f565b905062989680811015612600576040517f08c379a000000000000000000000000000000000000000000000000000000000815260040180806020018281038252600e8152602001807f426f6e6420746f6f20736d616c6c00000000000000000000000000000000000081525060200191505060405180910390fd5b612608613683565b81111561267d576040517f08c379a000000000000000000000000000000000000000000000000000000000815260040180806020018281038252600e8152602001807f426f6e6420746f6f206c6172676500000000000000000000000000000000000081525060200191505060405180910390fd5b87471061286c578734146126f9576040517f08c379a00000000000000000000000000000000000000000000000000000000081526004018080602001828103825260028152602001807f554100000000000000000000000000000000000000000000000000000000000081525060200191505060405180910390fd5b7f000000000000000000000000000000000000000000000000000000000000000073ffffffffffffffffffffffffffffffffffffffff1663d0e30db0896040518263ffffffff1660e01b81526004016000604051808303818588803b15801561276157600080fd5b505af1158015612775573d6000803e3d6000fd5b50505050507f000000000000000000000000000000000000000000000000000000000000000073ffffffffffffffffffffffffffffffffffffffff1663a9059cbb7f00000000000000000000000000000000000000000000000000000000000000008a6040518363ffffffff1660e01b8152600401808373ffffffffffffffffffffffffffffffffffffffff16815260200182815260200192505050602060405180830381600087803b15801561282b57600080fd5b505af115801561283f573d6000803e3d6000fd5b505050506040513d602081101561285557600080fd5b8101908080519060200190929190505050506128da565b6128d9337f00000000000000000000000000000000000000000000000000000000000000008a7f000000000000000000000000000000000000000000000000000000000000000073ffffffffffffffffffffffffffffffffffffffff166140b4909392919063ffffffff16565b5b7f000000000000000000000000000000000000000000000000000000000000000073ffffffffffffffffffffffffffffffffffffffff16636a20de9230836040518363ffffffff1660e01b8152600401808373ffffffffffffffffffffffffffffffffffffffff16815260200182815260200192505050600060405180830381600087803b15801561296b57600080fd5b505af115801561297f573d6000803e3d6000fd5b5050505061299882600f5461417590919063ffffffff16565b600f8190555060405180608001604052806129fe83600e60008b73ffffffffffffffffffffffffffffffffffffffff1673ffffffffffffffffffffffffffffffffffffffff1681526020019081526020016000206000015461417590919063ffffffff16565b8152602001858152602001600560040160009054906101000a900463ffffffff1663ffffffff1681526020014263ffffffff16815250600e60008873ffffffffffffffffffffffffffffffffffffffff1673ffffffffffffffffffffffffffffffffffffffff168152602001908152602001600020600082015181600001556020820151816001015560408201518160020160006101000a81548163ffffffff021916908363ffffffff16021790555060608201518160020160046101000a81548163ffffffff021916908363ffffffff16021790555090505083612b07600560040160009054906101000a900463ffffffff1663ffffffff164261417590919063ffffffff16565b827f1fec6dc81f140574bf43f6b1e420ae1dd47928b9d57db8cbd7b8611063b85ae58b6040518082815260200191505060405180910390a4612b476131f4565b612b4f614038565b612b576121c0565b7f375b221f40939bfd8f49723a17cf7bc6d576ebf72efe2cc3e991826f5b3f390a60405160405180910390a4612b8b61418f565b809450505050509392505050565b6000600260009054906101000a900473ffffffffffffffffffffffffffffffffffffffff1673ffffffffffffffffffffffffffffffffffffffff1663313ce5676040518163ffffffff1660e01b815260040160206040518083038186803b158015612c0357600080fd5b505afa158015612c17573d6000803e3d6000fd5b505050506040513d6020811015612c2d57600080fd5b810190808051906020019092919050505060ff16600a0a612c65612c4f6132e0565b612c576131f4565b61381390919063ffffffff16565b81612c6c57fe5b04905090565b7f000000000000000000000000000000000000000000000000000000000000000081565b3373ffffffffffffffffffffffffffffffffffffffff1660008054906101000a900473ffffffffffffffffffffffffffffffffffffffff1673ffffffffffffffffffffffffffffffffffffffff1614612d57576040517f08c379a00000000000000000000000000000000000000000000000000000000081526004018080602001828103825260208152602001807f4f776e61626c653a2063616c6c6572206973206e6f7420746865206f776e657281525060200191505060405180910390fd5b6103e8612d73601960056000015461381390919063ffffffff16565b81612d7a57fe5b04831115612df0576040517f08c379a00000000000000000000000000000000000000000000000000000000081526004018080602001828103825260138152602001807f496e6372656d656e7420746f6f206c617267650000000000000000000000000081525060200191505060405180910390fd5b6028821015612e67576040517f08c379a000000000000000000000000000000000000000000000000000000000815260040180806020018281038252601f8152602001807f4e6578742041646a7573746d656e7420636f756c64206265206c6f636b65640081525060200191505060405180910390fd5b6040518060a0016040528085151581526020018481526020018381526020018263ffffffff1681526020014263ffffffff16815250600a60008201518160000160006101000a81548160ff021916908315150217905550602082015181600101556040820151816002015560608201518160030160006101000a81548163ffffffff021916908363ffffffff16021790555060808201518160030160046101000a81548163ffffffff021916908363ffffffff16021790555090505050505050565b60007f000000000000000000000000000000000000000000000000000000000000000073ffffffffffffffffffffffffffffffffffffffff168273ffffffffffffffffffffffffffffffffffffffff161415612fed576040517f08c379a00000000000000000000000000000000000000000000000000000000081526004018080602001828103825260038152602001807f4e4154000000000000000000000000000000000000000000000000000000000081525060200191505060405180910390fd5b7f000000000000000000000000000000000000000000000000000000000000000073ffffffffffffffffffffffffffffffffffffffff168273ffffffffffffffffffffffffffffffffffffffff1614156130af576040517f08c379a00000000000000000000000000000000000000000000000000000000081526004018080602001828103825260038152602001807f4e4150000000000000000000000000000000000000000000000000000000000081525060200191505060405180910390fd5b61319b7f00000000000000000000000000000000000000000000000000000000000000008373ffffffffffffffffffffffffffffffffffffffff166370a08231306040518263ffffffff1660e01b8152600401808273ffffffffffffffffffffffffffffffffffffffff16815260200191505060206040518083038186803b15801561313a57600080fd5b505afa15801561314e573d6000803e3d6000fd5b505050506040513d602081101561316457600080fd5b81019080805190602001909291905050508473ffffffffffffffffffffffffffffffffffffffff1661433b9092919063ffffffff16565b60019050919050565b600e6020528060005260406000206000915090508060000154908060010154908060020160009054906101000a900463ffffffff16908060020160049054906101000a900463ffffffff16905084565b6000807f000000000000000000000000000000000000000000000000000000000000000073ffffffffffffffffffffffffffffffffffffffff166318160ddd6040518163ffffffff1660e01b815260040160206040518083038186803b15801561325d57600080fd5b505afa158015613271573d6000803e3d6000fd5b505050506040513d602081101561328757600080fd5b81019080805190602001909291905050509050670de0b6b3a76400006132d26132cd6132c7633b9aca006132b9612146565b61381390919063ffffffff16565b84613cd6565b613fb7565b816132d957fe5b0491505090565b600080600260009054906101000a900473ffffffffffffffffffffffffffffffffffffffff1673ffffffffffffffffffffffffffffffffffffffff1663feaf968c6040518163ffffffff1660e01b815260040160a06040518083038186803b15801561334b57600080fd5b505afa15801561335f573d6000803e3d6000fd5b505050506040513d60a081101561337557600080fd5b8101908080519060200190929190805190602001909291908051906020019092919080519060200190929190805190602001909291905050505050509150508091505090565b3373ffffffffffffffffffffffffffffffffffffffff1660008054906101000a900473ffffffffffffffffffffffffffffffffffffffff1673ffffffffffffffffffffffffffffffffffffffff161461347c576040517f08c379a00000000000000000000000000000000000000000000000000000000081526004018080602001828103825260208152602001807f4f776e61626c653a2063616c6c6572206973206e6f7420746865206f776e657281525060200191505060405180910390fd5b600073ffffffffffffffffffffffffffffffffffffffff168273ffffffffffffffffffffffffffffffffffffffff16141561351f576040517f08c379a00000000000000000000000000000000000000000000000000000000081526004018080602001828103825260028152602001807f494100000000000000000000000000000000000000000000000000000000000081525060200191505060405180910390fd5b8015613586576001600460146101000a81548160ff02191690831515021790555081600460006101000a81548173ffffffffffffffffffffffffffffffffffffffff021916908373ffffffffffffffffffffffffffffffffffffffff1602179055506135e3565b6000600460146101000a81548160ff02191690831515021790555081600360006101000a81548173ffffffffffffffffffffffffffffffffffffffff021916908373ffffffffffffffffffffffffffffffffffffffff1602179055505b5050565b60058060000154908060010154908060020154908060030154908060040160009054906101000a900463ffffffff16905085565b6000620186a061364061362c6131f4565b60056000015461381390919063ffffffff16565b8161364757fe5b0490506005600101548110156136605760056001015490505b90565b60116020528060005260406000206000915054906101000a900460ff1681565b6000620186a06137416005600201547f000000000000000000000000000000000000000000000000000000000000000073ffffffffffffffffffffffffffffffffffffffff166318160ddd6040518163ffffffff1660e01b815260040160206040518083038186803b1580156136f857600080fd5b505afa15801561370c573d6000803e3d6000fd5b505050506040513d602081101561372257600080fd5b810190808051906020019092919050505061381390919063ffffffff16565b8161374857fe5b04905090565b60008061377c601060009054906101000a900463ffffffff164263ffffffff16613cb090919063ffffffff16565b9050600560040160009054906101000a900463ffffffff1663ffffffff166137b58263ffffffff16600f5461381390919063ffffffff16565b816137bc57fe5b049150600f548211156137cf57600f5491505b5090565b601060009054906101000a900463ffffffff1681565b7f000000000000000000000000000000000000000000000000000000000000000081565b600f5481565b600080831480613830575081838385029250828161382d57fe5b04145b61383957600080fd5b92915050565b600082613918577f000000000000000000000000000000000000000000000000000000000000000073ffffffffffffffffffffffffffffffffffffffff1663a9059cbb85846040518363ffffffff1660e01b8152600401808373ffffffffffffffffffffffffffffffffffffffff16815260200182815260200192505050602060405180830381600087803b1580156138d757600080fd5b505af11580156138eb573d6000803e3d6000fd5b505050506040513d602081101561390157600080fd5b810190808051906020019092919050505050613c8c565b600460149054906101000a900460ff1615613acc577f000000000000000000000000000000000000000000000000000000000000000073ffffffffffffffffffffffffffffffffffffffff1663095ea7b3600460009054906101000a900473ffffffffffffffffffffffffffffffffffffffff16846040518363ffffffff1660e01b8152600401808373ffffffffffffffffffffffffffffffffffffffff16815260200182815260200192505050602060405180830381600087803b1580156139e057600080fd5b505af11580156139f4573d6000803e3d6000fd5b505050506040513d6020811015613a0a57600080fd5b810190808051906020019092919050505050600460009054906101000a900473ffffffffffffffffffffffffffffffffffffffff1673ffffffffffffffffffffffffffffffffffffffff16637acb775783866040518363ffffffff1660e01b8152600401808381526020018273ffffffffffffffffffffffffffffffffffffffff16815260200192505050600060405180830381600087803b158015613aaf57600080fd5b505af1158015613ac3573d6000803e3d6000fd5b50505050613c8b565b7f000000000000000000000000000000000000000000000000000000000000000073ffffffffffffffffffffffffffffffffffffffff1663095ea7b3600360009054906101000a900473ffffffffffffffffffffffffffffffffffffffff16846040518363ffffffff1660e01b8152600401808373ffffffffffffffffffffffffffffffffffffffff16815260200182815260200192505050602060405180830381600087803b158015613b7f57600080fd5b505af1158015613b93573d6000803e3d6000fd5b505050506040513d6020811015613ba957600080fd5b810190808051906020019092919050505050600360009054906101000a900473ffffffffffffffffffffffffffffffffffffffff1673ffffffffffffffffffffffffffffffffffffffff16637acb775783866040518363ffffffff1660e01b8152600401808381526020018273ffffffffffffffffffffffffffffffffffffffff16815260200192505050602060405180830381600087803b158015613c4e57600080fd5b505af1158015613c62573d6000803e3d6000fd5b505050506040513d6020811015613c7857600080fd5b8101908080519060200190929190505050505b5b8190509392505050565b6000828284039150811115613caa57600080fd5b92915050565b60008263ffffffff1682840391508163ffffffff161115613cd057600080fd5b92915050565b613cde614909565b60008211613d37576040517f08c379a00000000000000000000000000000000000000000000000000000000081526004018080602001828103825260268152602001806149836026913960400191505060405180910390fd5b6000831415613d7557604051806020016040528060007bffffffffffffffffffffffffffffffffffffffffffffffffffffffff168152509050613fb1565b7fffffffffffffffffffffffffffffffffffffffffffffffffffffffffffffffff71ffffffffffffffffffffffffffffffffffff168311613eae57600082607060ff1685901b81613dc257fe5b0490507fffffffffffffffffffffffffffffffffffffffffffffffffffffffffffffffff7bffffffffffffffffffffffffffffffffffffffffffffffffffffffff16811115613e79576040517f08c379a000000000000000000000000000000000000000000000000000000000815260040180806020018281038252601e8152602001807f4669786564506f696e743a3a6672616374696f6e3a206f766572666c6f77000081525060200191505060405180910390fd5b6040518060200160405280827bffffffffffffffffffffffffffffffffffffffffffffffffffffffff16815250915050613fb1565b6000613eca846e010000000000000000000000000000856143dd565b90507fffffffffffffffffffffffffffffffffffffffffffffffffffffffffffffffff7bffffffffffffffffffffffffffffffffffffffffffffffffffffffff16811115613f80576040517f08c379a000000000000000000000000000000000000000000000000000000000815260040180806020018281038252601e8152602001807f4669786564506f696e743a3a6672616374696f6e3a206f766572666c6f77000081525060200191505060405180910390fd5b6040518060200160405280827bffffffffffffffffffffffffffffffffffffffffffffffffffffffff168152509150505b92915050565b60006612725dd1d243ab82600001517bffffffffffffffffffffffffffffffffffffffffffffffffffffffff1681613feb57fe5b049050919050565b61400f613ffe61374e565b600f54613c9690919063ffffffff16565b600f8190555042601060006101000a81548163ffffffff021916908363ffffffff160217905550565b600062989680614073633b9aca006140656140516131f4565b60056000015461381390919063ffffffff16565b61417590919063ffffffff16565b8161407a57fe5b0490506005600101548110156140975760056001015490506140b1565b6000600560010154146140b05760006005600101819055505b5b90565b61416f846323b872dd60e01b858585604051602401808473ffffffffffffffffffffffffffffffffffffffff1681526020018373ffffffffffffffffffffffffffffffffffffffff1681526020018281526020019350505050604051602081830303815290604052907bffffffffffffffffffffffffffffffffffffffffffffffffffffffff19166020820180517bffffffffffffffffffffffffffffffffffffffffffffffffffffffff838183161783525050505061449f565b50505050565b600082828401915081101561418957600080fd5b92915050565b60006141d4600a60030160009054906101000a900463ffffffff16600a60030160049054906101000a900463ffffffff1663ffffffff1661458e90919063ffffffff16565b63ffffffff1690506000600a60010154141580156141f25750804210155b156143385760006005600001549050600a60000160009054906101000a900460ff161561426157614236600a6001015460056000015461417590919063ffffffff16565b600560000181905550600a600201546005600001541061425c576000600a600101819055505b6142a5565b61427e600a60010154600560000154613c9690919063ffffffff16565b600560000181905550600a60020154600560000154116142a4576000600a600101819055505b5b42600a60030160046101000a81548163ffffffff021916908363ffffffff1602179055507fb923e581a0f83128e9e1d8297aa52b18d6744310476e0b54509c054cd7a93b2a81600560000154600a60010154600a60000160009054906101000a900460ff1660405180858152602001848152602001838152602001821515815260200194505050505060405180910390a1505b50565b6143d88363a9059cbb60e01b8484604051602401808373ffffffffffffffffffffffffffffffffffffffff16815260200182815260200192505050604051602081830303815290604052907bffffffffffffffffffffffffffffffffffffffffffffffffffffffff19166020820180517bffffffffffffffffffffffffffffffffffffffffffffffffffffffff838183161783525050505061449f565b505050565b60008060006143ec86866145b4565b91509150600084806143fa57fe5b86880990508281111561440e576001820391505b8083039250848210614488576040517f08c379a000000000000000000000000000000000000000000000000000000000815260040180806020018281038252601a8152602001807f46756c6c4d6174683a3a6d756c4469763a206f766572666c6f7700000000000081525060200191505060405180910390fd5b614493838387614607565b93505050509392505050565b6060614501826040518060400160405280602081526020017f5361666545524332303a206c6f772d6c6576656c2063616c6c206661696c65648152508573ffffffffffffffffffffffffffffffffffffffff166146a49092919063ffffffff16565b90506000815111156145895780806020019051602081101561452257600080fd5b8101908080519060200190929190505050614588576040517f08c379a000000000000000000000000000000000000000000000000000000000815260040180806020018281038252602a815260200180614a11602a913960400191505060405180910390fd5b5b505050565b60008263ffffffff1682840191508163ffffffff1610156145ae57600080fd5b92915050565b60008060007fffffffffffffffffffffffffffffffffffffffffffffffffffffffffffffffff806145e157fe5b848609905083850292508281039150828110156145ff576001820391505b509250929050565b600080826000038316905080838161461b57fe5b04925080858161462757fe5b049450600181826000038161463857fe5b04018402850194506000600190508084026002038102905080840260020381029050808402600203810290508084026002038102905080840260020381029050808402600203810290508084026002038102905080840260020381029050808602925050509392505050565b60606146b384846000856146bc565b90509392505050565b60606146c7856148c2565b614739576040517f08c379a000000000000000000000000000000000000000000000000000000000815260040180806020018281038252601d8152602001807f416464726573733a2063616c6c20746f206e6f6e2d636f6e747261637400000081525060200191505060405180910390fd5b600060608673ffffffffffffffffffffffffffffffffffffffff1685876040518082805190602001908083835b602083106147895780518252602082019150602081019050602083039250614766565b6001836020036101000a03801982511681845116808217855250505050505090500191505060006040518083038185875af1925050503d80600081146147eb576040519150601f19603f3d011682016040523d82523d6000602084013e6147f0565b606091505b509150915081156148055780925050506148ba565b6000815111156148185780518082602001fd5b836040517f08c379a00000000000000000000000000000000000000000000000000000000081526004018080602001828103825283818151815260200191508051906020019080838360005b8381101561487f578082015181840152602081019050614864565b50505050905090810190601f1680156148ac5780820380516001836020036101000a031916815260200191505b509250505060405180910390fd5b949350505050565b600080823b905060008111915050919050565b60405180608001604052806000815260200160008152602001600063ffffffff168152602001600063ffffffff1681525090565b604051806020016040528060007bffffffffffffffffffffffffffffffffffffffffffffffffffffffff168152509056fe4f776e61626c653a206e6577206f776e657220697320746865207a65726f20616464726573734f776e61626c653a206d757374206265206e6577206f776e657220746f2070756c6c4669786564506f696e743a3a6672616374696f6e3a206469766973696f6e206279207a65726f44656274206d757374206265203020666f7220696e697469616c697a6174696f6e536c697070616765206c696d69743a206d6f7265207468616e206d617820707269636556657374696e67206d757374206265206c6f6e676572207468616e20333620686f7572735361666545524332303a204552433230206f7065726174696f6e20646964206e6f742073756363656564a2646970667358221220ac4978b426626220e997db9916c0eed6c2745eedf875dbf8ee56aea6602eeca364736f6c63430007050033",
  "immutableReferences": {
    "1528": [
      {
        "length": 32,
        "start": 12077
      },
      {
        "length": 32,
        "start": 12793
      },
      {
        "length": 32,
        "start": 13972
      },
      {
        "length": 32,
        "start": 14315
      },
      {
        "length": 32,
        "start": 14408
      },
      {
        "length": 32,
        "start": 14639
      },
      {
        "length": 32,
        "start": 15054
      }
    ],
    "1530": [
      {
        "length": 32,
        "start": 3217
      },
      {
        "length": 32,
        "start": 9420
      },
      {
        "length": 32,
        "start": 9979
      },
      {
        "length": 32,
        "start": 10108
      },
      {
        "length": 32,
        "start": 10388
      },
      {
        "length": 32,
        "start": 12271
      }
    ],
    "1532": [
      {
        "length": 32,
        "start": 7999
      },
      {
        "length": 32,
        "start": 9360
      },
      {
        "length": 32,
        "start": 10168
      },
      {
        "length": 32,
        "start": 10354
      },
      {
        "length": 32,
        "start": 10460
      }
    ],
    "1534": [
      {
        "length": 32,
        "start": 11380
      },
      {
        "length": 32,
        "start": 12468
      }
    ]
  },
  "source": "// SPDX-License-Identifier: AGPL-3.0-or-later\r\npragma solidity 0.7.5;\r\n\r\ninterface IOwnable {\r\n  function policy() external view returns (address);\r\n\r\n  function renounceManagement() external;\r\n  \r\n  function pushManagement( address newOwner_ ) external;\r\n  \r\n  function pullManagement() external;\r\n}\r\n\r\ncontract Ownable is IOwnable {\r\n\r\n    address internal _owner;\r\n    address internal _newOwner;\r\n\r\n    event OwnershipPushed(address indexed previousOwner, address indexed newOwner);\r\n    event OwnershipPulled(address indexed previousOwner, address indexed newOwner);\r\n\r\n    constructor () {\r\n        _owner = msg.sender;\r\n        emit OwnershipPushed( address(0), _owner );\r\n    }\r\n\r\n    function policy() public view override returns (address) {\r\n        return _owner;\r\n    }\r\n\r\n    modifier onlyPolicy() {\r\n        require( _owner == msg.sender, \"Ownable: caller is not the owner\" );\r\n        _;\r\n    }\r\n\r\n    function renounceManagement() public virtual override onlyPolicy() {\r\n        emit OwnershipPushed( _owner, address(0) );\r\n        _owner = address(0);\r\n    }\r\n\r\n    function pushManagement( address newOwner_ ) public virtual override onlyPolicy() {\r\n        require( newOwner_ != address(0), \"Ownable: new owner is the zero address\");\r\n        emit OwnershipPushed( _owner, newOwner_ );\r\n        _newOwner = newOwner_;\r\n    }\r\n    \r\n    function pullManagement() public virtual override {\r\n        require( msg.sender == _newOwner, \"Ownable: must be new owner to pull\");\r\n        emit OwnershipPulled( _owner, _newOwner );\r\n        _owner = _newOwner;\r\n    }\r\n}\r\n\r\nlibrary LowGasSafeMath {\r\n    /// @notice Returns x + y, reverts if sum overflows uint256\r\n    /// @param x The augend\r\n    /// @param y The addend\r\n    /// @return z The sum of x and y\r\n    function add(uint256 x, uint256 y) internal pure returns (uint256 z) {\r\n        require((z = x + y) >= x);\r\n    }\r\n\r\n    function add32(uint32 x, uint32 y) internal pure returns (uint32 z) {\r\n        require((z = x + y) >= x);\r\n    }\r\n\r\n    /// @notice Returns x - y, reverts if underflows\r\n    /// @param x The minuend\r\n    /// @param y The subtrahend\r\n    /// @return z The difference of x and y\r\n    function sub(uint256 x, uint256 y) internal pure returns (uint256 z) {\r\n        require((z = x - y) <= x);\r\n    }\r\n\r\n    function sub32(uint32 x, uint32 y) internal pure returns (uint32 z) {\r\n        require((z = x - y) <= x);\r\n    }\r\n\r\n    /// @notice Returns x * y, reverts if overflows\r\n    /// @param x The multiplicand\r\n    /// @param y The multiplier\r\n    /// @return z The product of x and y\r\n    function mul(uint256 x, uint256 y) internal pure returns (uint256 z) {\r\n        require(x == 0 || (z = x * y) / x == y);\r\n    }\r\n\r\n    /// @notice Returns x + y, reverts if overflows or underflows\r\n    /// @param x The augend\r\n    /// @param y The addend\r\n    /// @return z The sum of x and y\r\n    function add(int256 x, int256 y) internal pure returns (int256 z) {\r\n        require((z = x + y) >= x == (y >= 0));\r\n    }\r\n\r\n    /// @notice Returns x - y, reverts if overflows or underflows\r\n    /// @param x The minuend\r\n    /// @param y The subtrahend\r\n    /// @return z The difference of x and y\r\n    function sub(int256 x, int256 y) internal pure returns (int256 z) {\r\n        require((z = x - y) <= x == (y >= 0));\r\n    }\r\n}\r\n\r\nlibrary Address {\r\n\r\n    function isContract(address account) internal view returns (bool) {\r\n\r\n        uint256 size;\r\n        // solhint-disable-next-line no-inline-assembly\r\n        assembly { size := extcodesize(account) }\r\n        return size > 0;\r\n    }\r\n\r\n    function sendValue(address payable recipient, uint256 amount) internal {\r\n        require(address(this).balance >= amount, \"Address: insufficient balance\");\r\n\r\n        // solhint-disable-next-line avoid-low-level-calls, avoid-call-value\r\n        (bool success, ) = recipient.call{ value: amount }(\"\");\r\n        require(success, \"Address: unable to send value, recipient may have reverted\");\r\n    }\r\n\r\n    function functionCall(address target, bytes memory data) internal returns (bytes memory) {\r\n      return functionCall(target, data, \"Address: low-level call failed\");\r\n    }\r\n\r\n    function functionCall(\r\n        address target, \r\n        bytes memory data, \r\n        string memory errorMessage\r\n    ) internal returns (bytes memory) {\r\n        return _functionCallWithValue(target, data, 0, errorMessage);\r\n    }\r\n\r\n    function functionCallWithValue(address target, bytes memory data, uint256 value) internal returns (bytes memory) {\r\n        return functionCallWithValue(target, data, value, \"Address: low-level call with value failed\");\r\n    }\r\n\r\n    function functionCallWithValue(\r\n        address target, \r\n        bytes memory data, \r\n        uint256 value, \r\n        string memory errorMessage\r\n    ) internal returns (bytes memory) {\r\n        require(address(this).balance >= value, \"Address: insufficient balance for call\");\r\n        require(isContract(target), \"Address: call to non-contract\");\r\n\r\n        // solhint-disable-next-line avoid-low-level-calls\r\n        (bool success, bytes memory returndata) = target.call{ value: value }(data);\r\n        return _verifyCallResult(success, returndata, errorMessage);\r\n    }\r\n\r\n    function _functionCallWithValue(\r\n        address target, \r\n        bytes memory data, \r\n        uint256 weiValue, \r\n        string memory errorMessage\r\n    ) private returns (bytes memory) {\r\n        require(isContract(target), \"Address: call to non-contract\");\r\n\r\n        // solhint-disable-next-line avoid-low-level-calls\r\n        (bool success, bytes memory returndata) = target.call{ value: weiValue }(data);\r\n        if (success) {\r\n            return returndata;\r\n        } else {\r\n            // Look for revert reason and bubble it up if present\r\n            if (returndata.length > 0) {\r\n                // The easiest way to bubble the revert reason is using memory via assembly\r\n\r\n                // solhint-disable-next-line no-inline-assembly\r\n                assembly {\r\n                    let returndata_size := mload(returndata)\r\n                    revert(add(32, returndata), returndata_size)\r\n                }\r\n            } else {\r\n                revert(errorMessage);\r\n            }\r\n        }\r\n    }\r\n\r\n    function functionStaticCall(address target, bytes memory data) internal view returns (bytes memory) {\r\n        return functionStaticCall(target, data, \"Address: low-level static call failed\");\r\n    }\r\n\r\n    function functionStaticCall(\r\n        address target, \r\n        bytes memory data, \r\n        string memory errorMessage\r\n    ) internal view returns (bytes memory) {\r\n        require(isContract(target), \"Address: static call to non-contract\");\r\n\r\n        // solhint-disable-next-line avoid-low-level-calls\r\n        (bool success, bytes memory returndata) = target.staticcall(data);\r\n        return _verifyCallResult(success, returndata, errorMessage);\r\n    }\r\n\r\n    function functionDelegateCall(address target, bytes memory data) internal returns (bytes memory) {\r\n        return functionDelegateCall(target, data, \"Address: low-level delegate call failed\");\r\n    }\r\n\r\n    function functionDelegateCall(\r\n        address target, \r\n        bytes memory data, \r\n        string memory errorMessage\r\n    ) internal returns (bytes memory) {\r\n        require(isContract(target), \"Address: delegate call to non-contract\");\r\n\r\n        // solhint-disable-next-line avoid-low-level-calls\r\n        (bool success, bytes memory returndata) = target.delegatecall(data);\r\n        return _verifyCallResult(success, returndata, errorMessage);\r\n    }\r\n\r\n    function _verifyCallResult(\r\n        bool success, \r\n        bytes memory returndata, \r\n        string memory errorMessage\r\n    ) private pure returns(bytes memory) {\r\n        if (success) {\r\n            return returndata;\r\n        } else {\r\n            if (returndata.length > 0) {\r\n\r\n                assembly {\r\n                    let returndata_size := mload(returndata)\r\n                    revert(add(32, returndata), returndata_size)\r\n                }\r\n            } else {\r\n                revert(errorMessage);\r\n            }\r\n        }\r\n    }\r\n\r\n    function addressToString(address _address) internal pure returns(string memory) {\r\n        bytes32 _bytes = bytes32(uint256(_address));\r\n        bytes memory HEX = \"0123456789abcdef\";\r\n        bytes memory _addr = new bytes(42);\r\n\r\n        _addr[0] = '0';\r\n        _addr[1] = 'x';\r\n\r\n        for(uint256 i = 0; i < 20; i++) {\r\n            _addr[2+i*2] = HEX[uint8(_bytes[i + 12] >> 4)];\r\n            _addr[3+i*2] = HEX[uint8(_bytes[i + 12] & 0x0f)];\r\n        }\r\n\r\n        return string(_addr);\r\n\r\n    }\r\n}\r\n\r\ninterface IERC20 {\r\n    function decimals() external view returns (uint8);\r\n\r\n    function totalSupply() external view returns (uint256);\r\n\r\n    function balanceOf(address account) external view returns (uint256);\r\n\r\n    function transfer(address recipient, uint256 amount) external returns (bool);\r\n\r\n    function allowance(address owner, address spender) external view returns (uint256);\r\n\r\n    function approve(address spender, uint256 amount) external returns (bool);\r\n\r\n    function transferFrom(address sender, address recipient, uint256 amount) external returns (bool);\r\n\r\n    event Transfer(address indexed from, address indexed to, uint256 value);\r\n\r\n    event Approval(address indexed owner, address indexed spender, uint256 value);\r\n}\r\n\r\nlibrary SafeERC20 {\r\n    using LowGasSafeMath for uint256;\r\n    using Address for address;\r\n\r\n    function safeTransfer(IERC20 token, address to, uint256 value) internal {\r\n        _callOptionalReturn(token, abi.encodeWithSelector(token.transfer.selector, to, value));\r\n    }\r\n\r\n    function safeTransferFrom(IERC20 token, address from, address to, uint256 value) internal {\r\n        _callOptionalReturn(token, abi.encodeWithSelector(token.transferFrom.selector, from, to, value));\r\n    }\r\n\r\n    function safeApprove(IERC20 token, address spender, uint256 value) internal {\r\n\r\n        require((value == 0) || (token.allowance(address(this), spender) == 0),\r\n            \"SafeERC20: approve from non-zero to non-zero allowance\"\r\n        );\r\n        _callOptionalReturn(token, abi.encodeWithSelector(token.approve.selector, spender, value));\r\n    }\r\n\r\n    function safeIncreaseAllowance(IERC20 token, address spender, uint256 value) internal {\r\n        uint256 newAllowance = token.allowance(address(this), spender).add(value);\r\n        _callOptionalReturn(token, abi.encodeWithSelector(token.approve.selector, spender, newAllowance));\r\n    }\r\n\r\n    function safeDecreaseAllowance(IERC20 token, address spender, uint256 value) internal {\r\n        uint256 newAllowance = token.allowance(address(this), spender)\r\n            .sub(value);\r\n        _callOptionalReturn(token, abi.encodeWithSelector(token.approve.selector, spender, newAllowance));\r\n    }\r\n\r\n    function _callOptionalReturn(IERC20 token, bytes memory data) private {\r\n\r\n        bytes memory returndata = address(token).functionCall(data, \"SafeERC20: low-level call failed\");\r\n        if (returndata.length > 0) { // Return data is optional\r\n            // solhint-disable-next-line max-line-length\r\n            require(abi.decode(returndata, (bool)), \"SafeERC20: ERC20 operation did not succeed\");\r\n        }\r\n    }\r\n}\r\n\r\nlibrary FullMath {\r\n    function fullMul(uint256 x, uint256 y) private pure returns (uint256 l, uint256 h) {\r\n        uint256 mm = mulmod(x, y, uint256(-1));\r\n        l = x * y;\r\n        h = mm - l;\r\n        if (mm < l) h -= 1;\r\n    }\r\n\r\n    function fullDiv(\r\n        uint256 l,\r\n        uint256 h,\r\n        uint256 d\r\n    ) private pure returns (uint256) {\r\n        uint256 pow2 = d & -d;\r\n        d /= pow2;\r\n        l /= pow2;\r\n        l += h * ((-pow2) / pow2 + 1);\r\n        uint256 r = 1;\r\n        r *= 2 - d * r;\r\n        r *= 2 - d * r;\r\n        r *= 2 - d * r;\r\n        r *= 2 - d * r;\r\n        r *= 2 - d * r;\r\n        r *= 2 - d * r;\r\n        r *= 2 - d * r;\r\n        r *= 2 - d * r;\r\n        return l * r;\r\n    }\r\n\r\n    function mulDiv(\r\n        uint256 x,\r\n        uint256 y,\r\n        uint256 d\r\n    ) internal pure returns (uint256) {\r\n        (uint256 l, uint256 h) = fullMul(x, y);\r\n        uint256 mm = mulmod(x, y, d);\r\n        if (mm > l) h -= 1;\r\n        l -= mm;\r\n        require(h < d, 'FullMath::mulDiv: overflow');\r\n        return fullDiv(l, h, d);\r\n    }\r\n}\r\n\r\nlibrary FixedPoint {\r\n\r\n    struct uq112x112 {\r\n        uint224 _x;\r\n    }\r\n\r\n    struct uq144x112 {\r\n        uint256 _x;\r\n    }\r\n\r\n    uint8 private constant RESOLUTION = 112;\r\n    uint256 private constant Q112 = 0x10000000000000000000000000000;\r\n    uint256 private constant Q224 = 0x100000000000000000000000000000000000000000000000000000000;\r\n    uint256 private constant LOWER_MASK = 0xffffffffffffffffffffffffffff; // decimal of UQ*x112 (lower 112 bits)\r\n\r\n    function decode(uq112x112 memory self) internal pure returns (uint112) {\r\n        return uint112(self._x >> RESOLUTION);\r\n    }\r\n\r\n    function decode112with18(uq112x112 memory self) internal pure returns (uint) {\r\n\r\n        return uint(self._x) / 5192296858534827;\r\n    }\r\n\r\n    function fraction(uint256 numerator, uint256 denominator) internal pure returns (uq112x112 memory) {\r\n        require(denominator > 0, 'FixedPoint::fraction: division by zero');\r\n        if (numerator == 0) return FixedPoint.uq112x112(0);\r\n\r\n        if (numerator <= uint144(-1)) {\r\n            uint256 result = (numerator << RESOLUTION) / denominator;\r\n            require(result <= uint224(-1), 'FixedPoint::fraction: overflow');\r\n            return uq112x112(uint224(result));\r\n        } else {\r\n            uint256 result = FullMath.mulDiv(numerator, Q112, denominator);\r\n            require(result <= uint224(-1), 'FixedPoint::fraction: overflow');\r\n            return uq112x112(uint224(result));\r\n        }\r\n    }\r\n}\r\n\r\ninterface AggregatorV3Interface {\r\n\r\n  function decimals() external view returns (uint8);\r\n  function description() external view returns (string memory);\r\n  function version() external view returns (uint256);\r\n\r\n  // getRoundData and latestRoundData should both raise \"No data present\"\r\n  // if they do not have data to report, instead of returning unset values\r\n  // which could be misinterpreted as actual reported values.\r\n  function getRoundData(uint80 _roundId)\r\n    external\r\n    view\r\n    returns (\r\n      uint80 roundId,\r\n      int256 answer,\r\n      uint256 startedAt,\r\n      uint256 updatedAt,\r\n      uint80 answeredInRound\r\n    );\r\n  function latestRoundData()\r\n    external\r\n    view\r\n    returns (\r\n      uint80 roundId,\r\n      int256 answer,\r\n      uint256 startedAt,\r\n      uint256 updatedAt,\r\n      uint80 answeredInRound\r\n    );\r\n}\r\n\r\ninterface ITreasury {\r\n    function deposit( uint _amount, address _token, uint _profit ) external returns ( bool );\r\n    function valueOf( address _token, uint _amount ) external view returns ( uint value_ );\r\n    function mintRewards( address _recipient, uint _amount ) external;\r\n}\r\n\r\ninterface IStaking {\r\n    function stake( uint _amount, address _recipient ) external returns ( bool );\r\n}\r\n\r\ninterface IStakingHelper {\r\n    function stake( uint _amount, address _recipient ) external;\r\n}\r\n\r\ninterface IWAVAX9 is IERC20 {\r\n    /// @notice Deposit ether to get wrapped ether\r\n    function deposit() external payable;\r\n}\r\n\r\ncontract TimeBondDepository is Ownable {\r\n\r\n    using FixedPoint for *;\r\n    using SafeERC20 for IERC20;\r\n    using SafeERC20 for IWAVAX9;\r\n    using LowGasSafeMath for uint;\r\n    using LowGasSafeMath for uint32;\r\n\r\n\r\n\r\n\r\n    /* ======== EVENTS ======== */\r\n\r\n    event BondCreated( uint deposit, uint indexed payout, uint indexed expires, uint indexed priceInUSD );\r\n    event BondRedeemed( address indexed recipient, uint payout, uint remaining );\r\n    event BondPriceChanged( uint indexed priceInUSD, uint indexed internalPrice, uint indexed debtRatio );\r\n    event ControlVariableAdjustment( uint initialBCV, uint newBCV, uint adjustment, bool addition );\r\n\r\n\r\n\r\n\r\n    /* ======== STATE VARIABLES ======== */\r\n    IERC20 public immutable Time; // token given as payment for bond\r\n    IWAVAX9 public immutable principle; // token used to create bond\r\n    ITreasury public immutable treasury; // mints Time when receives principle\r\n    address public immutable DAO; // receives profit share from bond\r\n\r\n    AggregatorV3Interface public priceFeed;\r\n\r\n    IStaking public staking; // to auto-stake payout\r\n    IStakingHelper public stakingHelper; // to stake and claim if no staking warmup\r\n    bool public useHelper;\r\n\r\n    Terms public terms; // stores terms for new bonds\r\n    Adjust public adjustment; // stores adjustment to BCV data\r\n\r\n    mapping( address => Bond ) public bondInfo; // stores bond information for depositors\r\n\r\n    uint public totalDebt; // total value of outstanding bonds; used for pricing\r\n    uint32 public lastDecay; // reference time for debt decay\r\n\r\n\r\n    mapping (address => bool) public allowedZappers;\r\n\r\n\r\n    /* ======== STRUCTS ======== */\r\n\r\n    // Info for creating new bonds\r\n    struct Terms {\r\n        uint controlVariable; // scaling variable for price\r\n        uint minimumPrice; // vs principle value. 4 decimals (1500 = 0.15)\r\n        uint maxPayout; // in thousandths of a %. i.e. 500 = 0.5%\r\n        uint maxDebt; // 9 decimal debt ratio, max % total supply created as debt\r\n        uint32 vestingTerm; // in seconds\r\n    }\r\n\r\n    // Info for bond holder\r\n    struct Bond {\r\n        uint payout; // Time remaining to be paid\r\n        uint pricePaid; // In DAI, for front end viewing\r\n        uint32 vesting; // Seconds left to vest\r\n        uint32 lastTime; // Last interaction\r\n    }\r\n\r\n    // Info for incremental adjustments to control variable \r\n    struct Adjust {\r\n        bool add; // addition or subtraction\r\n        uint rate; // increment\r\n        uint target; // BCV when adjustment finished\r\n        uint32 buffer; // minimum length (in seconds) between adjustments\r\n        uint32 lastTime; // time when last adjustment made\r\n    }\r\n\r\n\r\n\r\n\r\n    /* ======== INITIALIZATION ======== */\r\n\r\n    constructor ( \r\n        address _Time,\r\n        address _principle,\r\n        address _treasury, \r\n        address _DAO,\r\n        address _feed\r\n    ) {\r\n        require( _Time != address(0) );\r\n        Time = IERC20(_Time);\r\n        require( _principle != address(0) );\r\n        principle = IWAVAX9(_principle);\r\n        require( _treasury != address(0) );\r\n        treasury = ITreasury(_treasury);\r\n        require( _DAO != address(0) );\r\n        DAO = _DAO;\r\n        require( _feed != address(0) );\r\n        priceFeed = AggregatorV3Interface( _feed );\r\n    }\r\n\r\n    /**\r\n     *  @notice initializes bond parameters\r\n     *  @param _controlVariable uint\r\n     *  @param _vestingTerm uint\r\n     *  @param _minimumPrice uint\r\n     *  @param _maxPayout uint\r\n     *  @param _maxDebt uint\r\n     */\r\n    function initializeBondTerms( \r\n        uint _controlVariable, \r\n        uint _minimumPrice,\r\n        uint _maxPayout,\r\n        uint _maxDebt,\r\n        uint32 _vestingTerm\r\n    ) external onlyPolicy() {\r\n        require( currentDebt() == 0, \"Debt must be 0 for initialization\" );\r\n        require( _controlVariable >= 40, \"Can lock adjustment\" );\r\n        require( _maxPayout <= 1000, \"Payout cannot be above 1 percent\" );\r\n        require( _vestingTerm >= 129600, \"Vesting must be longer than 36 hours\" );\r\n        terms = Terms ({\r\n            controlVariable: _controlVariable,\r\n            vestingTerm: _vestingTerm,\r\n            minimumPrice: _minimumPrice,\r\n            maxPayout: _maxPayout,\r\n            maxDebt: _maxDebt\r\n        });\r\n        lastDecay = uint32(block.timestamp);\r\n    }\r\n\r\n\r\n\r\n    \r\n    /* ======== POLICY FUNCTIONS ======== */\r\n\r\n    enum PARAMETER { VESTING, PAYOUT, DEBT, MINPRICE }\r\n    /**\r\n     *  @notice set parameters for new bonds\r\n     *  @param _parameter PARAMETER\r\n     *  @param _input uint\r\n     */\r\n    function setBondTerms ( PARAMETER _parameter, uint _input ) external onlyPolicy() {\r\n        if ( _parameter == PARAMETER.VESTING ) { // 0\r\n            require( _input >= 129600, \"Vesting must be longer than 36 hours\" );\r\n            terms.vestingTerm = uint32(_input);\r\n        } else if ( _parameter == PARAMETER.PAYOUT ) { // 1\r\n            require( _input <= 1000, \"Payout cannot be above 1 percent\" );\r\n            terms.maxPayout = _input;\r\n        } else if ( _parameter == PARAMETER.DEBT ) { // 2\r\n            terms.maxDebt = _input;\r\n        } else if ( _parameter == PARAMETER.MINPRICE ) { // 3\r\n            terms.minimumPrice = _input;\r\n        }\r\n    }\r\n\r\n    /**\r\n     *  @notice set control variable adjustment\r\n     *  @param _addition bool\r\n     *  @param _increment uint\r\n     *  @param _target uint\r\n     *  @param _buffer uint\r\n     */\r\n    function setAdjustment ( \r\n        bool _addition,\r\n        uint _increment, \r\n        uint _target,\r\n        uint32 _buffer \r\n    ) external onlyPolicy() {\r\n        require( _increment <= terms.controlVariable.mul( 25 )/ 1000, \"Increment too large\" );\r\n        require(_target >= 40, \"Next Adjustment could be locked\");\r\n        adjustment = Adjust({\r\n            add: _addition,\r\n            rate: _increment,\r\n            target: _target,\r\n            buffer: _buffer,\r\n            lastTime: uint32(block.timestamp)\r\n        });\r\n    }\r\n\r\n    /**\r\n     *  @notice set contract for auto stake\r\n     *  @param _staking address\r\n     *  @param _helper bool\r\n     */\r\n    function setStaking( address _staking, bool _helper ) external onlyPolicy() {\r\n        require( _staking != address(0) , \"IA\");\r\n        if ( _helper ) {\r\n            useHelper = true;\r\n            stakingHelper = IStakingHelper(_staking);\r\n        } else {\r\n            useHelper = false;\r\n            staking = IStaking(_staking);\r\n        }\r\n    }\r\n\r\n    function allowZapper(address zapper) external onlyPolicy {\r\n        require(zapper != address(0), \"ZNA\");\r\n        \r\n        allowedZappers[zapper] = true;\r\n    }\r\n\r\n    function removeZapper(address zapper) external onlyPolicy {\r\n       \r\n        allowedZappers[zapper] = false;\r\n    }\r\n\r\n\r\n    \r\n\r\n    /* ======== USER FUNCTIONS ======== */\r\n\r\n    /**\r\n     *  @notice deposit bond\r\n     *  @param _amount uint\r\n     *  @param _maxPrice uint\r\n     *  @param _depositor address\r\n     *  @return uint\r\n     */\r\n    function deposit( \r\n        uint _amount, \r\n        uint _maxPrice,\r\n        address _depositor\r\n    ) external payable returns ( uint ) {\r\n        require( _depositor != address(0), \"Invalid address\" );\r\n        require(msg.sender == _depositor || allowedZappers[msg.sender], \"LFNA\");\r\n        decayDebt();\r\n        require( totalDebt <= terms.maxDebt, \"Max capacity reached\" );\r\n        \r\n        uint priceInUSD = bondPriceInUSD(); // Stored in bond info\r\n        uint nativePrice = _bondPrice();\r\n\r\n        require( _maxPrice >= nativePrice, \"Slippage limit: more than max price\" ); // slippage protection\r\n\r\n        uint value = treasury.valueOf( address(principle), _amount );\r\n        uint payout = payoutFor( value ); // payout to bonder is computed\r\n\r\n        require( payout >= 10000000, \"Bond too small\" ); // must be > 0.01 Time ( underflow protection )\r\n        require( payout <= maxPayout(), \"Bond too large\"); // size protection because there is no slippage\r\n\r\n        /**\r\n            asset carries risk and is not minted against\r\n            asset transfered to treasury and rewards minted as payout\r\n         */\r\n        if (address(this).balance >= _amount) {\r\n            // pay with WETH9\r\n            require(msg.value == _amount, \"UA\");\r\n            principle.deposit{value: _amount}(); // wrap only what is needed to pay\r\n            principle.transfer(address(treasury), _amount);\r\n        } else {\r\n            principle.safeTransferFrom( msg.sender, address(treasury), _amount );\r\n        }\r\n        \r\n        treasury.mintRewards( address(this), payout );\r\n        \r\n        // total debt is increased\r\n        totalDebt = totalDebt.add( value ); \r\n                \r\n        // depositor info is stored\r\n        bondInfo[ _depositor ] = Bond({ \r\n            payout: bondInfo[ _depositor ].payout.add( payout ),\r\n            vesting: terms.vestingTerm,\r\n            lastTime: uint32(block.timestamp),\r\n            pricePaid: priceInUSD\r\n        });\r\n\r\n        // indexed events are emitted\r\n        emit BondCreated( _amount, payout, block.timestamp.add( terms.vestingTerm ), priceInUSD );\r\n        emit BondPriceChanged( bondPriceInUSD(), _bondPrice(), debtRatio() );\r\n\r\n        adjust(); // control variable is adjusted\r\n        return payout; \r\n    }\r\n\r\n    /** \r\n     *  @notice redeem bond for user\r\n     *  @param _recipient address\r\n     *  @param _stake bool\r\n     *  @return uint\r\n     */ \r\n    function redeem( address _recipient, bool _stake ) external returns ( uint ) { \r\n        require(msg.sender == _recipient, \"NA\");       \r\n        Bond memory info = bondInfo[ _recipient ];\r\n        uint percentVested = percentVestedFor( _recipient ); // (seconds since last interaction / vesting term remaining)\r\n\r\n        if ( percentVested >= 10000 ) { // if fully vested\r\n            delete bondInfo[ _recipient ]; // delete user info\r\n            emit BondRedeemed( _recipient, info.payout, 0 ); // emit bond data\r\n            return stakeOrSend( _recipient, _stake, info.payout ); // pay user everything due\r\n\r\n        } else { // if unfinished\r\n            // calculate payout vested\r\n            uint payout = info.payout.mul( percentVested )/ 10000;\r\n\r\n            // store updated deposit info\r\n            bondInfo[ _recipient ] = Bond({\r\n                payout: info.payout.sub( payout ),\r\n                vesting: info.vesting.sub32( uint32( block.timestamp ).sub32( info.lastTime ) ),\r\n                lastTime: uint32( block.timestamp ),\r\n                pricePaid: info.pricePaid\r\n            });\r\n\r\n            emit BondRedeemed( _recipient, payout, bondInfo[ _recipient ].payout );\r\n            return stakeOrSend( _recipient, _stake, payout );\r\n        }\r\n    }\r\n\r\n\r\n\r\n    \r\n    /* ======== INTERNAL HELPER FUNCTIONS ======== */\r\n\r\n    /**\r\n     *  @notice allow user to stake payout automatically\r\n     *  @param _stake bool\r\n     *  @param _amount uint\r\n     *  @return uint\r\n     */\r\n    function stakeOrSend( address _recipient, bool _stake, uint _amount ) internal returns ( uint ) {\r\n        if ( !_stake ) { // if user does not want to stake\r\n            Time.transfer( _recipient, _amount ); // send payout\r\n        } else { // if user wants to stake\r\n            if ( useHelper ) { // use if staking warmup is 0\r\n                Time.approve( address(stakingHelper), _amount );\r\n                stakingHelper.stake( _amount, _recipient );\r\n            } else {\r\n                Time.approve( address(staking), _amount );\r\n                staking.stake( _amount, _recipient );\r\n            }\r\n        }\r\n        return _amount;\r\n    }\r\n\r\n    /**\r\n     *  @notice makes incremental adjustment to control variable\r\n     */\r\n    function adjust() internal {\r\n         uint timeCanAdjust = adjustment.lastTime.add32( adjustment.buffer );\r\n         if( adjustment.rate != 0 && block.timestamp >= timeCanAdjust ) {\r\n            uint initial = terms.controlVariable;\r\n            if ( adjustment.add ) {\r\n                terms.controlVariable = terms.controlVariable.add( adjustment.rate );\r\n                if ( terms.controlVariable >= adjustment.target ) {\r\n                    adjustment.rate = 0;\r\n                }\r\n            } else {\r\n                terms.controlVariable = terms.controlVariable.sub( adjustment.rate );\r\n                if ( terms.controlVariable <= adjustment.target ) {\r\n                    adjustment.rate = 0;\r\n                }\r\n            }\r\n            adjustment.lastTime = uint32(block.timestamp);\r\n            emit ControlVariableAdjustment( initial, terms.controlVariable, adjustment.rate, adjustment.add );\r\n        }\r\n    }\r\n\r\n    /**\r\n     *  @notice reduce total debt\r\n     */\r\n    function decayDebt() internal {\r\n        totalDebt = totalDebt.sub( debtDecay() );\r\n        lastDecay = uint32(block.timestamp);\r\n    }\r\n\r\n\r\n\r\n\r\n    /* ======== VIEW FUNCTIONS ======== */\r\n\r\n    /**\r\n     *  @notice determine maximum bond size\r\n     *  @return uint\r\n     */\r\n    function maxPayout() public view returns ( uint ) {\r\n        return Time.totalSupply().mul( terms.maxPayout )/ 100000;\r\n    }\r\n\r\n    /**\r\n     *  @notice calculate interest due for new bond\r\n     *  @param _value uint\r\n     *  @return uint\r\n     */\r\n    function payoutFor( uint _value ) public view returns ( uint ) {\r\n        return FixedPoint.fraction( _value, bondPrice() ).decode112with18()/ 1e14;\r\n    }\r\n\r\n\r\n    /**\r\n     *  @notice calculate current bond premium\r\n     *  @return price_ uint\r\n     */\r\n    function bondPrice() public view returns ( uint price_ ) {        \r\n        price_ = terms.controlVariable.mul( debtRatio() )/ 1e5;\r\n        if ( price_ < terms.minimumPrice ) {\r\n            price_ = terms.minimumPrice;\r\n        }\r\n    }\r\n\r\n    /**\r\n     *  @notice calculate current bond price and remove floor if above\r\n     *  @return price_ uint\r\n     */\r\n    function _bondPrice() internal returns ( uint price_ ) {\r\n        price_ = terms.controlVariable.mul( debtRatio() ).add( 1000000000 ) / 1e7;\r\n        if ( price_ < terms.minimumPrice ) {\r\n            price_ = terms.minimumPrice;        \r\n        } else if ( terms.minimumPrice != 0 ) {\r\n            terms.minimumPrice = 0;\r\n        }\r\n    }\r\n\r\n    /**\r\n     *  @notice get asset price from chainlink\r\n     */\r\n    function assetPrice() public view returns (int) {\r\n        ( , int price, , , ) = priceFeed.latestRoundData();\r\n        return price;\r\n    }\r\n\r\n    /**\r\n     *  @notice converts bond price to DAI value\r\n     *  @return price_ uint\r\n     */\r\n    function bondPriceInUSD() public view returns ( uint price_ ) {\r\n        price_ = bondPrice().mul( uint( assetPrice() ) ).mul( 1e6 );\r\n    }\r\n\r\n\r\n    /**\r\n     *  @notice calculate current ratio of debt to Time supply\r\n     *  @return debtRatio_ uint\r\n     */\r\n    function debtRatio() public view returns ( uint debtRatio_ ) {   \r\n        uint supply = Time.totalSupply();\r\n        debtRatio_ = FixedPoint.fraction( \r\n            currentDebt().mul( 1e9 ), \r\n            supply\r\n        ).decode112with18()/ 1e18;\r\n    }\r\n\r\n    /**\r\n     *  @notice debt ratio in same terms as reserve bonds\r\n     *  @return uint\r\n     */\r\n    function standardizedDebtRatio() external view returns ( uint ) {\r\n        return debtRatio().mul( uint( assetPrice() ) )/ 10**priceFeed.decimals(); // ETH feed is 8 decimals\r\n    }\r\n\r\n    /**\r\n     *  @notice calculate debt factoring in decay\r\n     *  @return uint\r\n     */\r\n    function currentDebt() public view returns ( uint ) {\r\n        return totalDebt.sub( debtDecay() );\r\n    }\r\n\r\n    /**\r\n     *  @notice amount to decay total debt by\r\n     *  @return decay_ uint\r\n     */\r\n    function debtDecay() public view returns ( uint decay_ ) {\r\n        uint32 timeSinceLast = uint32(block.timestamp).sub32( lastDecay );\r\n        decay_ = totalDebt.mul( timeSinceLast )/ terms.vestingTerm;\r\n        if ( decay_ > totalDebt ) {\r\n            decay_ = totalDebt;\r\n        }\r\n    }\r\n\r\n\r\n    /**\r\n     *  @notice calculate how far into vesting a depositor is\r\n     *  @param _depositor address\r\n     *  @return percentVested_ uint\r\n     */\r\n    function percentVestedFor( address _depositor ) public view returns ( uint percentVested_ ) {\r\n        Bond memory bond = bondInfo[ _depositor ];\r\n        uint secondsSinceLast = uint32(block.timestamp).sub32( bond.lastTime );\r\n        uint vesting = bond.vesting;\r\n\r\n        if ( vesting > 0 ) {\r\n            percentVested_ = secondsSinceLast.mul( 10000 )/vesting;\r\n        } else {\r\n            percentVested_ = 0;\r\n        }\r\n    }\r\n\r\n    /**\r\n     *  @notice calculate amount of Time available for claim by depositor\r\n     *  @param _depositor address\r\n     *  @return pendingPayout_ uint\r\n     */\r\n    function pendingPayoutFor( address _depositor ) external view returns ( uint pendingPayout_ ) {\r\n        uint percentVested = percentVestedFor( _depositor );\r\n        uint payout = bondInfo[ _depositor ].payout;\r\n\r\n        if ( percentVested >= 10000 ) {\r\n            pendingPayout_ = payout;\r\n        } else {\r\n            pendingPayout_ = payout.mul( percentVested )/ 10000;\r\n        }\r\n    }\r\n\r\n\r\n\r\n\r\n    /* ======= AUXILLIARY ======= */\r\n\r\n    /**\r\n     *  @notice allow anyone to send lost tokens (excluding principle or Time) to the DAO\r\n     *  @return bool\r\n     */\r\n    function recoverLostToken( IERC20 _token ) external returns ( bool ) {\r\n        require( _token != Time, \"NAT\" );\r\n        require( _token != principle, \"NAP\" );\r\n        _token.safeTransfer( DAO, _token.balanceOf( address(this) ) );\r\n        return true;\r\n    }\r\n\r\n    function recoverLostETH() internal {\r\n        if (address(this).balance > 0) safeTransferETH(DAO, address(this).balance);\r\n    }\r\n\r\n    /// @notice Transfers ETH to the recipient address\r\n    /// @dev Fails with `STE`\r\n    /// @param to The destination of the transfer\r\n    /// @param value The value to be transferred\r\n    function safeTransferETH(address to, uint256 value) internal {\r\n        (bool success, ) = to.call{value: value}(new bytes(0));\r\n        require(success, 'STE');\r\n    }\r\n}",
  "sourcePath": "E:\\project\\Chris\\wonderland-money\\truffle_deploy\\contracts\\EthBondDepository.sol",
  "compiler": {
    "name": "solc",
    "version": "0.7.5+commit.eb77ed08.Emscripten.clang"
  },
  "schemaVersion": "3.4.4",
  "updatedAt": "2022-01-07T09:40:54.414Z",
  "devdoc": {
    "kind": "dev",
    "methods": {
      "bondPrice()": {
        "returns": {
          "price_": "uint"
        }
      },
      "bondPriceInUSD()": {
        "returns": {
          "price_": "uint"
        }
      },
      "currentDebt()": {
        "returns": {
          "_0": "uint"
        }
      },
      "debtDecay()": {
        "returns": {
          "decay_": "uint"
        }
      },
      "debtRatio()": {
        "returns": {
          "debtRatio_": "uint"
        }
      },
      "deposit(uint256,uint256,address)": {
        "params": {
          "_amount": "uint",
          "_depositor": "address",
          "_maxPrice": "uint"
        },
        "returns": {
          "_0": "uint"
        }
      },
      "initializeBondTerms(uint256,uint256,uint256,uint256,uint32)": {
        "params": {
          "_controlVariable": "uint",
          "_maxDebt": "uint",
          "_maxPayout": "uint",
          "_minimumPrice": "uint",
          "_vestingTerm": "uint"
        }
      },
      "maxPayout()": {
        "returns": {
          "_0": "uint"
        }
      },
      "payoutFor(uint256)": {
        "params": {
          "_value": "uint"
        },
        "returns": {
          "_0": "uint"
        }
      },
      "pendingPayoutFor(address)": {
        "params": {
          "_depositor": "address"
        },
        "returns": {
          "pendingPayout_": "uint"
        }
      },
      "percentVestedFor(address)": {
        "params": {
          "_depositor": "address"
        },
        "returns": {
          "percentVested_": "uint"
        }
      },
      "recoverLostToken(address)": {
        "returns": {
          "_0": "bool"
        }
      },
      "redeem(address,bool)": {
        "params": {
          "_recipient": "address",
          "_stake": "bool"
        },
        "returns": {
          "_0": "uint"
        }
      },
      "setAdjustment(bool,uint256,uint256,uint32)": {
        "params": {
          "_addition": "bool",
          "_buffer": "uint",
          "_increment": "uint",
          "_target": "uint"
        }
      },
      "setBondTerms(uint8,uint256)": {
        "params": {
          "_input": "uint",
          "_parameter": "PARAMETER"
        }
      },
      "setStaking(address,bool)": {
        "params": {
          "_helper": "bool",
          "_staking": "address"
        }
      },
      "standardizedDebtRatio()": {
        "returns": {
          "_0": "uint"
        }
      }
    },
    "version": 1
  },
  "userdoc": {
    "kind": "user",
    "methods": {
      "assetPrice()": {
        "notice": "get asset price from chainlink"
      },
      "bondPrice()": {
        "notice": "calculate current bond premium"
      },
      "bondPriceInUSD()": {
        "notice": "converts bond price to DAI value"
      },
      "currentDebt()": {
        "notice": "calculate debt factoring in decay"
      },
      "debtDecay()": {
        "notice": "amount to decay total debt by"
      },
      "debtRatio()": {
        "notice": "calculate current ratio of debt to Time supply"
      },
      "deposit(uint256,uint256,address)": {
        "notice": "deposit bond"
      },
      "initializeBondTerms(uint256,uint256,uint256,uint256,uint32)": {
        "notice": "initializes bond parameters"
      },
      "maxPayout()": {
        "notice": "determine maximum bond size"
      },
      "payoutFor(uint256)": {
        "notice": "calculate interest due for new bond"
      },
      "pendingPayoutFor(address)": {
        "notice": "calculate amount of Time available for claim by depositor"
      },
      "percentVestedFor(address)": {
        "notice": "calculate how far into vesting a depositor is"
      },
      "recoverLostToken(address)": {
        "notice": "allow anyone to send lost tokens (excluding principle or Time) to the DAO"
      },
      "redeem(address,bool)": {
        "notice": "redeem bond for user"
      },
      "setAdjustment(bool,uint256,uint256,uint32)": {
        "notice": "set control variable adjustment"
      },
      "setBondTerms(uint8,uint256)": {
        "notice": "set parameters for new bonds"
      },
      "setStaking(address,bool)": {
        "notice": "set contract for auto stake"
      },
      "standardizedDebtRatio()": {
        "notice": "debt ratio in same terms as reserve bonds"
      }
    },
    "version": 1
  }
}