{
  "contractName": "TimeBondingCalculator",
  "abi": [
    {
      "inputs": [
        {
          "internalType": "address",
          "name": "_Time",
          "type": "address"
        }
      ],
      "stateMutability": "nonpayable",
      "type": "constructor"
    },
    {
      "inputs": [],
      "name": "Time",
      "outputs": [
        {
          "internalType": "contract IERC20",
          "name": "",
          "type": "address"
        }
      ],
      "stateMutability": "view",
      "type": "function",
      "constant": true
    },
    {
      "inputs": [
        {
          "internalType": "address",
          "name": "_pair",
          "type": "address"
        }
      ],
      "name": "getKValue",
      "outputs": [
        {
          "internalType": "uint256",
          "name": "k_",
          "type": "uint256"
        }
      ],
      "stateMutability": "view",
      "type": "function",
      "constant": true
    },
    {
      "inputs": [
        {
          "internalType": "address",
          "name": "_pair",
          "type": "address"
        }
      ],
      "name": "getTotalValue",
      "outputs": [
        {
          "internalType": "uint256",
          "name": "_value",
          "type": "uint256"
        }
      ],
      "stateMutability": "view",
      "type": "function",
      "constant": true
    },
    {
      "inputs": [
        {
          "internalType": "address",
          "name": "_pair",
          "type": "address"
        },
        {
          "internalType": "uint256",
          "name": "amount_",
          "type": "uint256"
        }
      ],
      "name": "valuation",
      "outputs": [
        {
          "internalType": "uint256",
          "name": "_value",
          "type": "uint256"
        }
      ],
      "stateMutability": "view",
      "type": "function",
      "constant": true
    },
    {
      "inputs": [
        {
          "internalType": "address",
          "name": "_pair",
          "type": "address"
        }
      ],
      "name": "markdown",
      "outputs": [
        {
          "internalType": "uint256",
          "name": "",
          "type": "uint256"
        }
      ],
      "stateMutability": "view",
      "type": "function",
      "constant": true
    }
  ],
  "bytecode": "0x60a060405234801561001057600080fd5b5060405161123e38038061123e8339818101604052602081101561003357600080fd5b8101908080519060200190929190505050600073ffffffffffffffffffffffffffffffffffffffff168173ffffffffffffffffffffffffffffffffffffffff16141561007e57600080fd5b8073ffffffffffffffffffffffffffffffffffffffff1660808173ffffffffffffffffffffffffffffffffffffffff1660601b815250505060805160601c61115c6100e2600039806102bd528061039952806104ed5280610aee525061115c6000f3fe608060405234801561001057600080fd5b50600436106100575760003560e01c806332da80a31461005c5780634249719f146100b4578063490084ef14610116578063686375491461016e578063f8e157ea146101c6575b600080fd5b61009e6004803603602081101561007257600080fd5b81019080803573ffffffffffffffffffffffffffffffffffffffff1690602001909291905050506101fa565b6040518082815260200191505060405180910390f35b610100600480360360408110156100ca57600080fd5b81019080803573ffffffffffffffffffffffffffffffffffffffff169060200190929190803590602001909291905050506105bc565b6040518082815260200191505060405180910390f35b6101586004803603602081101561012c57600080fd5b81019080803573ffffffffffffffffffffffffffffffffffffffff169060200190929190505050610697565b6040518082815260200191505060405180910390f35b6101b06004803603602081101561018457600080fd5b81019080803573ffffffffffffffffffffffffffffffffffffffff169060200190929190505050610abf565b6040518082815260200191505060405180910390f35b6101ce610aec565b604051808273ffffffffffffffffffffffffffffffffffffffff16815260200191505060405180910390f35b60008060008373ffffffffffffffffffffffffffffffffffffffff16630902f1ac6040518163ffffffff1660e01b815260040160606040518083038186803b15801561024557600080fd5b505afa158015610259573d6000803e3d6000fd5b505050506040513d606081101561026f57600080fd5b81019080805190602001909291908051906020019092919080519060200190929190505050506dffffffffffffffffffffffffffff1691506dffffffffffffffffffffffffffff16915060007f000000000000000000000000000000000000000000000000000000000000000073ffffffffffffffffffffffffffffffffffffffff168573ffffffffffffffffffffffffffffffffffffffff16630dfe16816040518163ffffffff1660e01b815260040160206040518083038186803b15801561033857600080fd5b505afa15801561034c573d6000803e3d6000fd5b505050506040513d602081101561036257600080fd5b810190808051906020019092919050505073ffffffffffffffffffffffffffffffffffffffff161415610397578190506104dc565b7f000000000000000000000000000000000000000000000000000000000000000073ffffffffffffffffffffffffffffffffffffffff168573ffffffffffffffffffffffffffffffffffffffff1663d21220a76040518163ffffffff1660e01b815260040160206040518083038186803b15801561041457600080fd5b505afa158015610428573d6000803e3d6000fd5b505050506040513d602081101561043e57600080fd5b810190808051906020019092919050505073ffffffffffffffffffffffffffffffffffffffff16146104d8576040517f08c379a00000000000000000000000000000000000000000000000000000000081526004018080602001828103825260128152602001807f6e6f7420612054696d65206c702070616972000000000000000000000000000081525060200191505060405180910390fd5b8290505b6105b26104e886610abf565b6105a47f000000000000000000000000000000000000000000000000000000000000000073ffffffffffffffffffffffffffffffffffffffff1663313ce5676040518163ffffffff1660e01b815260040160206040518083038186803b15801561055157600080fd5b505afa158015610565573d6000803e3d6000fd5b505050506040513d602081101561057b57600080fd5b810190808051906020019092919050505060ff16600a0a60020284610b1090919063ffffffff16565b610b3c90919063ffffffff16565b9350505050919050565b6000806105c884610abf565b905060008473ffffffffffffffffffffffffffffffffffffffff166318160ddd6040518163ffffffff1660e01b815260040160206040518083038186803b15801561061257600080fd5b505afa158015610626573d6000803e3d6000fd5b505050506040513d602081101561063c57600080fd5b8101908080519060200190929190505050905061068d670de0b6b3a764000061067f61067061066b8886610b5c565b610e3d565b85610b1090919063ffffffff16565b610b3c90919063ffffffff16565b9250505092915050565b6000808273ffffffffffffffffffffffffffffffffffffffff16630dfe16816040518163ffffffff1660e01b815260040160206040518083038186803b1580156106e057600080fd5b505afa1580156106f4573d6000803e3d6000fd5b505050506040513d602081101561070a57600080fd5b810190808051906020019092919050505073ffffffffffffffffffffffffffffffffffffffff1663313ce5676040518163ffffffff1660e01b815260040160206040518083038186803b15801561076057600080fd5b505afa158015610774573d6000803e3d6000fd5b505050506040513d602081101561078a57600080fd5b810190808051906020019092919050505060ff16905060008373ffffffffffffffffffffffffffffffffffffffff1663d21220a76040518163ffffffff1660e01b815260040160206040518083038186803b1580156107e857600080fd5b505afa1580156107fc573d6000803e3d6000fd5b505050506040513d602081101561081257600080fd5b810190808051906020019092919050505073ffffffffffffffffffffffffffffffffffffffff1663313ce5676040518163ffffffff1660e01b815260040160206040518083038186803b15801561086857600080fd5b505afa15801561087c573d6000803e3d6000fd5b505050506040513d602081101561089257600080fd5b810190808051906020019092919050505060ff16905060008473ffffffffffffffffffffffffffffffffffffffff1663313ce5676040518163ffffffff1660e01b815260040160206040518083038186803b1580156108f057600080fd5b505afa158015610904573d6000803e3d6000fd5b505050506040513d602081101561091a57600080fd5b810190808051906020019092919050505060ff1690506000808673ffffffffffffffffffffffffffffffffffffffff16630902f1ac6040518163ffffffff1660e01b815260040160606040518083038186803b15801561097957600080fd5b505afa15801561098d573d6000803e3d6000fd5b505050506040513d60608110156109a357600080fd5b81019080805190602001909291908051906020019092919080519060200190929190505050506dffffffffffffffffffffffffffff1691506dffffffffffffffffffffffffffff16915082610a018587610e7990919063ffffffff16565b1015610a60576000610a2e610a1f8688610e7990919063ffffffff16565b85610e9390919063ffffffff16565b9050610a5881600a0a610a4a8486610b1090919063ffffffff16565b610b1090919063ffffffff16565b965050610ab5565b6000610a8784610a798789610e7990919063ffffffff16565b610e9390919063ffffffff16565b9050610ab181600a0a610aa38486610b1090919063ffffffff16565b610b3c90919063ffffffff16565b9650505b5050505050919050565b6000610ae56002610ad7610ad285610697565b610ead565b610b1090919063ffffffff16565b9050919050565b7f000000000000000000000000000000000000000000000000000000000000000081565b600080831480610b2d5750818383850292508281610b2a57fe5b04145b610b3657600080fd5b92915050565b6000808211610b4a57600080fd5b818381610b5357fe5b04905092915050565b610b646110cf565b60008211610bbd576040517f08c379a00000000000000000000000000000000000000000000000000000000081526004018080602001828103825260268152602001806111016026913960400191505060405180910390fd5b6000831415610bfb57604051806020016040528060007bffffffffffffffffffffffffffffffffffffffffffffffffffffffff168152509050610e37565b7fffffffffffffffffffffffffffffffffffffffffffffffffffffffffffffffff71ffffffffffffffffffffffffffffffffffff168311610d3457600082607060ff1685901b81610c4857fe5b0490507fffffffffffffffffffffffffffffffffffffffffffffffffffffffffffffffff7bffffffffffffffffffffffffffffffffffffffffffffffffffffffff16811115610cff576040517f08c379a000000000000000000000000000000000000000000000000000000000815260040180806020018281038252601e8152602001807f4669786564506f696e743a3a6672616374696f6e3a206f766572666c6f77000081525060200191505060405180910390fd5b6040518060200160405280827bffffffffffffffffffffffffffffffffffffffffffffffffffffffff16815250915050610e37565b6000610d50846e01000000000000000000000000000085610f1d565b90507fffffffffffffffffffffffffffffffffffffffffffffffffffffffffffffffff7bffffffffffffffffffffffffffffffffffffffffffffffffffffffff16811115610e06576040517f08c379a000000000000000000000000000000000000000000000000000000000815260040180806020018281038252601e8152602001807f4669786564506f696e743a3a6672616374696f6e3a206f766572666c6f77000081525060200191505060405180910390fd5b6040518060200160405280827bffffffffffffffffffffffffffffffffffffffffffffffffffffffff168152509150505b92915050565b60006612725dd1d243ab82600001517bffffffffffffffffffffffffffffffffffffffffffffffffffffffff1681610e7157fe5b049050919050565b6000828284019150811015610e8d57600080fd5b92915050565b6000828284039150811115610ea757600080fd5b92915050565b60006003821115610f0a578190506000610ed2610ecb846002610b3c565b6001610e79565b90505b81811015610f0457809150610efd610ef6610ef08584610b3c565b83610e79565b6002610b3c565b9050610ed5565b50610f18565b60008214610f1757600190505b5b919050565b6000806000610f2c8686610fdf565b9150915060008480610f3a57fe5b868809905082811115610f4e576001820391505b8083039250848210610fc8576040517f08c379a000000000000000000000000000000000000000000000000000000000815260040180806020018281038252601a8152602001807f46756c6c4d6174683a3a6d756c4469763a206f766572666c6f7700000000000081525060200191505060405180910390fd5b610fd3838387611032565b93505050509392505050565b60008060007fffffffffffffffffffffffffffffffffffffffffffffffffffffffffffffffff8061100c57fe5b8486099050838502925082810391508281101561102a576001820391505b509250929050565b600080826000038316905080838161104657fe5b04925080858161105257fe5b049450600181826000038161106357fe5b04018402850194506000600190508084026002038102905080840260020381029050808402600203810290508084026002038102905080840260020381029050808402600203810290508084026002038102905080840260020381029050808602925050509392505050565b604051806020016040528060007bffffffffffffffffffffffffffffffffffffffffffffffffffffffff168152509056fe4669786564506f696e743a3a6672616374696f6e3a206469766973696f6e206279207a65726fa2646970667358221220768ae215fcc4c325ac42f3be503db92668026b9b9e622eccc98bee8510422d7d64736f6c63430007050033",
  "immutableReferences": {
    "1048": [
      {
        "length": 32,
        "start": 701
      },
      {
        "length": 32,
        "start": 921
      },
      {
        "length": 32,
        "start": 1261
      },
      {
        "length": 32,
        "start": 2798
      }
    ]
  },
  "source": "// SPDX-License-Identifier: AGPL-3.0-or-later\r\npragma solidity 0.7.5;\r\n\r\nlibrary FullMath {\r\n    function fullMul(uint256 x, uint256 y) private pure returns (uint256 l, uint256 h) {\r\n        uint256 mm = mulmod(x, y, uint256(-1));\r\n        l = x * y;\r\n        h = mm - l;\r\n        if (mm < l) h -= 1;\r\n    }\r\n\r\n    function fullDiv(\r\n        uint256 l,\r\n        uint256 h,\r\n        uint256 d\r\n    ) private pure returns (uint256) {\r\n        uint256 pow2 = d & -d;\r\n        d /= pow2;\r\n        l /= pow2;\r\n        l += h * ((-pow2) / pow2 + 1);\r\n        uint256 r = 1;\r\n        r *= 2 - d * r;\r\n        r *= 2 - d * r;\r\n        r *= 2 - d * r;\r\n        r *= 2 - d * r;\r\n        r *= 2 - d * r;\r\n        r *= 2 - d * r;\r\n        r *= 2 - d * r;\r\n        r *= 2 - d * r;\r\n        return l * r;\r\n    }\r\n\r\n    function mulDiv(\r\n        uint256 x,\r\n        uint256 y,\r\n        uint256 d\r\n    ) internal pure returns (uint256) {\r\n        (uint256 l, uint256 h) = fullMul(x, y);\r\n        uint256 mm = mulmod(x, y, d);\r\n        if (mm > l) h -= 1;\r\n        l -= mm;\r\n        require(h < d, 'FullMath::mulDiv: overflow');\r\n        return fullDiv(l, h, d);\r\n    }\r\n}\r\n\r\nlibrary Babylonian {\r\n\r\n    function sqrt(uint256 x) internal pure returns (uint256) {\r\n        if (x == 0) return 0;\r\n\r\n        uint256 xx = x;\r\n        uint256 r = 1;\r\n        if (xx >= 0x100000000000000000000000000000000) {\r\n            xx >>= 128;\r\n            r <<= 64;\r\n        }\r\n        if (xx >= 0x10000000000000000) {\r\n            xx >>= 64;\r\n            r <<= 32;\r\n        }\r\n        if (xx >= 0x100000000) {\r\n            xx >>= 32;\r\n            r <<= 16;\r\n        }\r\n        if (xx >= 0x10000) {\r\n            xx >>= 16;\r\n            r <<= 8;\r\n        }\r\n        if (xx >= 0x100) {\r\n            xx >>= 8;\r\n            r <<= 4;\r\n        }\r\n        if (xx >= 0x10) {\r\n            xx >>= 4;\r\n            r <<= 2;\r\n        }\r\n        if (xx >= 0x8) {\r\n            r <<= 1;\r\n        }\r\n        r = (r + x / r) >> 1;\r\n        r = (r + x / r) >> 1;\r\n        r = (r + x / r) >> 1;\r\n        r = (r + x / r) >> 1;\r\n        r = (r + x / r) >> 1;\r\n        r = (r + x / r) >> 1;\r\n        r = (r + x / r) >> 1; // Seven iterations should be enough\r\n        uint256 r1 = x / r;\r\n        return (r < r1 ? r : r1);\r\n    }\r\n}\r\n\r\nlibrary BitMath {\r\n\r\n    function mostSignificantBit(uint256 x) internal pure returns (uint8 r) {\r\n        require(x > 0, 'BitMath::mostSignificantBit: zero');\r\n\r\n        if (x >= 0x100000000000000000000000000000000) {\r\n            x >>= 128;\r\n            r += 128;\r\n        }\r\n        if (x >= 0x10000000000000000) {\r\n            x >>= 64;\r\n            r += 64;\r\n        }\r\n        if (x >= 0x100000000) {\r\n            x >>= 32;\r\n            r += 32;\r\n        }\r\n        if (x >= 0x10000) {\r\n            x >>= 16;\r\n            r += 16;\r\n        }\r\n        if (x >= 0x100) {\r\n            x >>= 8;\r\n            r += 8;\r\n        }\r\n        if (x >= 0x10) {\r\n            x >>= 4;\r\n            r += 4;\r\n        }\r\n        if (x >= 0x4) {\r\n            x >>= 2;\r\n            r += 2;\r\n        }\r\n        if (x >= 0x2) r += 1;\r\n    }\r\n}\r\n\r\nlibrary FixedPoint {\r\n    // range: [0, 2**112 - 1]\r\n    // resolution: 1 / 2**112\r\n    struct uq112x112 {\r\n        uint224 _x;\r\n    }\r\n\r\n    // range: [0, 2**144 - 1]\r\n    // resolution: 1 / 2**112\r\n    struct uq144x112 {\r\n        uint256 _x;\r\n    }\r\n\r\n    uint8 private constant RESOLUTION = 112;\r\n    uint256 private constant Q112 = 0x10000000000000000000000000000;\r\n    uint256 private constant Q224 = 0x100000000000000000000000000000000000000000000000000000000;\r\n    uint256 private constant LOWER_MASK = 0xffffffffffffffffffffffffffff; // decimal of UQ*x112 (lower 112 bits)\r\n\r\n    // decode a UQ112x112 into a uint112 by truncating after the radix point\r\n    function decode(uq112x112 memory self) internal pure returns (uint112) {\r\n        return uint112(self._x >> RESOLUTION);\r\n    }\r\n\r\n    // decode a uq112x112 into a uint with 18 decimals of precision\r\n    function decode112with18(uq112x112 memory self) internal pure returns (uint) {\r\n        return uint(self._x) / 5192296858534827;\r\n    }\r\n\r\n    function fraction(uint256 numerator, uint256 denominator) internal pure returns (uq112x112 memory) {\r\n        require(denominator > 0, 'FixedPoint::fraction: division by zero');\r\n        if (numerator == 0) return FixedPoint.uq112x112(0);\r\n\r\n        if (numerator <= uint144(-1)) {\r\n            uint256 result = (numerator << RESOLUTION) / denominator;\r\n            require(result <= uint224(-1), 'FixedPoint::fraction: overflow');\r\n            return uq112x112(uint224(result));\r\n        } else {\r\n            uint256 result = FullMath.mulDiv(numerator, Q112, denominator);\r\n            require(result <= uint224(-1), 'FixedPoint::fraction: overflow');\r\n            return uq112x112(uint224(result));\r\n        }\r\n    }\r\n\r\n    // square root of a UQ112x112\r\n    // lossy between 0/1 and 40 bits\r\n    function sqrt(uq112x112 memory self) internal pure returns (uq112x112 memory) {\r\n        if (self._x <= uint144(-1)) {\r\n            return uq112x112(uint224(Babylonian.sqrt(uint256(self._x) << 112)));\r\n        }\r\n\r\n        uint8 safeShiftBits = 255 - BitMath.mostSignificantBit(self._x);\r\n        safeShiftBits -= safeShiftBits % 2;\r\n        return uq112x112(uint224(Babylonian.sqrt(uint256(self._x) << safeShiftBits) << ((112 - safeShiftBits) / 2)));\r\n    }\r\n}\r\n\r\nlibrary LowGasSafeMath {\r\n    /// @notice Returns x + y, reverts if sum overflows uint256\r\n    /// @param x The augend\r\n    /// @param y The addend\r\n    /// @return z The sum of x and y\r\n    function add(uint256 x, uint256 y) internal pure returns (uint256 z) {\r\n        require((z = x + y) >= x);\r\n    }\r\n\r\n    function add32(uint32 x, uint32 y) internal pure returns (uint32 z) {\r\n        require((z = x + y) >= x);\r\n    }\r\n\r\n    /// @notice Returns x - y, reverts if underflows\r\n    /// @param x The minuend\r\n    /// @param y The subtrahend\r\n    /// @return z The difference of x and y\r\n    function sub(uint256 x, uint256 y) internal pure returns (uint256 z) {\r\n        require((z = x - y) <= x);\r\n    }\r\n\r\n    function sub32(uint32 x, uint32 y) internal pure returns (uint32 z) {\r\n        require((z = x - y) <= x);\r\n    }\r\n\r\n    /// @notice Returns x * y, reverts if overflows\r\n    /// @param x The multiplicand\r\n    /// @param y The multiplier\r\n    /// @return z The product of x and y\r\n    function mul(uint256 x, uint256 y) internal pure returns (uint256 z) {\r\n        require(x == 0 || (z = x * y) / x == y);\r\n    }\r\n\r\n    /// @notice Returns x + y, reverts if overflows or underflows\r\n    /// @param x The augend\r\n    /// @param y The addend\r\n    /// @return z The sum of x and y\r\n    function add(int256 x, int256 y) internal pure returns (int256 z) {\r\n        require((z = x + y) >= x == (y >= 0));\r\n    }\r\n\r\n    /// @notice Returns x - y, reverts if overflows or underflows\r\n    /// @param x The minuend\r\n    /// @param y The subtrahend\r\n    /// @return z The difference of x and y\r\n    function sub(int256 x, int256 y) internal pure returns (int256 z) {\r\n        require((z = x - y) <= x == (y >= 0));\r\n    }\r\n\r\n    function div(uint256 x, uint256 y) internal pure returns(uint256 z){\r\n        require(y > 0);\r\n        z=x/y;\r\n    }\r\n\r\n    function sqrrt(uint256 a) internal pure returns (uint c) {\r\n        if (a > 3) {\r\n            c = a;\r\n            uint b = add( div( a, 2), 1 );\r\n            while (b < c) {\r\n                c = b;\r\n                b = div( add( div( a, b ), b), 2 );\r\n            }\r\n        } else if (a != 0) {\r\n            c = 1;\r\n        }\r\n    }\r\n}\r\n\r\ninterface IERC20 {\r\n    function decimals() external view returns (uint8);\r\n}\r\n\r\ninterface IUniswapV2ERC20 {\r\n    function totalSupply() external view returns (uint);\r\n}\r\n\r\ninterface IUniswapV2Pair is IUniswapV2ERC20 {\r\n    function getReserves() external view returns (uint112 reserve0, uint112 reserve1, uint32 blockTimestampLast);\r\n    function token0() external view returns ( address );\r\n    function token1() external view returns ( address );\r\n}\r\n\r\ninterface IBondingCalculator {\r\n  function valuation( address pair_, uint amount_ ) external view returns ( uint _value );\r\n}\r\n\r\ncontract TimeBondingCalculator is IBondingCalculator {\r\n\r\n    using FixedPoint for *;\r\n    using LowGasSafeMath for uint;\r\n    using LowGasSafeMath for uint112;\r\n\r\n    IERC20 public immutable Time;\r\n\r\n    constructor( address _Time ) {\r\n        require( _Time != address(0) );\r\n        Time = IERC20(_Time);\r\n    }\r\n\r\n    function getKValue( address _pair ) public view returns( uint k_ ) {\r\n        uint token0 = IERC20( IUniswapV2Pair( _pair ).token0() ).decimals();\r\n        uint token1 = IERC20( IUniswapV2Pair( _pair ).token1() ).decimals();\r\n        uint pairDecimals = IERC20( _pair ).decimals();\r\n\r\n        (uint reserve0, uint reserve1, ) = IUniswapV2Pair( _pair ).getReserves();\r\n        if (token0.add(token1) <  pairDecimals)\r\n        {\r\n            uint decimals = pairDecimals.sub(token0.add(token1));\r\n            k_ = reserve0.mul(reserve1).mul( 10 ** decimals );\r\n        }\r\n        else {\r\n            uint decimals = token0.add(token1).sub(pairDecimals);\r\n            k_ = reserve0.mul(reserve1).div( 10 ** decimals );\r\n        }\r\n        \r\n    }\r\n\r\n    function getTotalValue( address _pair ) public view returns ( uint _value ) {\r\n        _value = getKValue( _pair ).sqrrt().mul(2);\r\n    }\r\n\r\n    function valuation( address _pair, uint amount_ ) external view override returns ( uint _value ) {\r\n        uint totalValue = getTotalValue( _pair );\r\n        uint totalSupply = IUniswapV2Pair( _pair ).totalSupply();\r\n\r\n        _value = totalValue.mul( FixedPoint.fraction( amount_, totalSupply ).decode112with18() ).div( 1e18 );\r\n    }\r\n\r\n    function markdown( address _pair ) external view returns ( uint ) {\r\n        ( uint reserve0, uint reserve1, ) = IUniswapV2Pair( _pair ).getReserves();\r\n\r\n        uint reserve;\r\n        if ( IUniswapV2Pair( _pair ).token0() == address(Time) ) {\r\n            reserve = reserve1;\r\n        } else {\r\n            require(IUniswapV2Pair( _pair ).token1() == address(Time), \"not a Time lp pair\");\r\n            reserve = reserve0;\r\n        }\r\n        return reserve.mul( 2 * ( 10 ** Time.decimals() ) ).div( getTotalValue( _pair ) );\r\n    }\r\n}\r\n",
  "sourcePath": "E:\\project\\Chris\\wonderland-money\\truffle_deploy\\contracts\\StandardBondingCalculator.sol",
  "compiler": {
    "name": "solc",
    "version": "0.7.5+commit.eb77ed08.Emscripten.clang"
  },
  "schemaVersion": "3.4.4",
  "updatedAt": "2022-01-04T22:54:47.129Z",
  "networkType": "ethereum",
  "devdoc": {
    "kind": "dev",
    "methods": {},
    "version": 1
  },
  "userdoc": {
    "kind": "user",
    "methods": {},
    "version": 1
  }
}