{
  "contractName": "TimeStaking",
  "abi": [
    {
      "inputs": [
        {
          "internalType": "address",
          "name": "_Time",
          "type": "address"
        },
        {
          "internalType": "address",
          "name": "_Memories",
          "type": "address"
        },
        {
          "internalType": "uint32",
          "name": "_epochLength",
          "type": "uint32"
        },
        {
          "internalType": "uint256",
          "name": "_firstEpochNumber",
          "type": "uint256"
        },
        {
          "internalType": "uint32",
          "name": "_firstEpochTime",
          "type": "uint32"
        }
      ],
      "stateMutability": "nonpayable",
      "type": "constructor"
    },
    {
      "anonymous": false,
      "inputs": [
        {
          "indexed": true,
          "internalType": "address",
          "name": "recipient",
          "type": "address"
        },
        {
          "indexed": false,
          "internalType": "uint256",
          "name": "amount",
          "type": "uint256"
        }
      ],
      "name": "LogClaim",
      "type": "event"
    },
    {
      "anonymous": false,
      "inputs": [
        {
          "indexed": true,
          "internalType": "address",
          "name": "user",
          "type": "address"
        },
        {
          "indexed": false,
          "internalType": "bool",
          "name": "locked",
          "type": "bool"
        }
      ],
      "name": "LogDepositLock",
      "type": "event"
    },
    {
      "anonymous": false,
      "inputs": [
        {
          "indexed": true,
          "internalType": "address",
          "name": "recipient",
          "type": "address"
        },
        {
          "indexed": false,
          "internalType": "uint256",
          "name": "memoAmount",
          "type": "uint256"
        },
        {
          "indexed": false,
          "internalType": "uint256",
          "name": "timeAmount",
          "type": "uint256"
        }
      ],
      "name": "LogForfeit",
      "type": "event"
    },
    {
      "anonymous": false,
      "inputs": [
        {
          "indexed": false,
          "internalType": "uint256",
          "name": "distribute",
          "type": "uint256"
        }
      ],
      "name": "LogRebase",
      "type": "event"
    },
    {
      "anonymous": false,
      "inputs": [
        {
          "indexed": false,
          "internalType": "enum TimeStaking.CONTRACTS",
          "name": "contractType",
          "type": "uint8"
        },
        {
          "indexed": true,
          "internalType": "address",
          "name": "_contract",
          "type": "address"
        }
      ],
      "name": "LogSetContract",
      "type": "event"
    },
    {
      "anonymous": false,
      "inputs": [
        {
          "indexed": true,
          "internalType": "address",
          "name": "recipient",
          "type": "address"
        },
        {
          "indexed": false,
          "internalType": "uint256",
          "name": "amount",
          "type": "uint256"
        }
      ],
      "name": "LogStake",
      "type": "event"
    },
    {
      "anonymous": false,
      "inputs": [
        {
          "indexed": true,
          "internalType": "address",
          "name": "recipient",
          "type": "address"
        },
        {
          "indexed": false,
          "internalType": "uint256",
          "name": "amount",
          "type": "uint256"
        }
      ],
      "name": "LogUnstake",
      "type": "event"
    },
    {
      "anonymous": false,
      "inputs": [
        {
          "indexed": false,
          "internalType": "uint256",
          "name": "period",
          "type": "uint256"
        }
      ],
      "name": "LogWarmupPeriod",
      "type": "event"
    },
    {
      "anonymous": false,
      "inputs": [
        {
          "indexed": true,
          "internalType": "address",
          "name": "previousOwner",
          "type": "address"
        },
        {
          "indexed": true,
          "internalType": "address",
          "name": "newOwner",
          "type": "address"
        }
      ],
      "name": "OwnershipTransferred",
      "type": "event"
    },
    {
      "inputs": [],
      "name": "Memories",
      "outputs": [
        {
          "internalType": "contract IMemo",
          "name": "",
          "type": "address"
        }
      ],
      "stateMutability": "view",
      "type": "function",
      "constant": true
    },
    {
      "inputs": [],
      "name": "Time",
      "outputs": [
        {
          "internalType": "contract IERC20",
          "name": "",
          "type": "address"
        }
      ],
      "stateMutability": "view",
      "type": "function",
      "constant": true
    },
    {
      "inputs": [],
      "name": "claimOwnership",
      "outputs": [],
      "stateMutability": "nonpayable",
      "type": "function"
    },
    {
      "inputs": [],
      "name": "distributor",
      "outputs": [
        {
          "internalType": "contract IDistributor",
          "name": "",
          "type": "address"
        }
      ],
      "stateMutability": "view",
      "type": "function",
      "constant": true
    },
    {
      "inputs": [],
      "name": "epoch",
      "outputs": [
        {
          "internalType": "uint256",
          "name": "number",
          "type": "uint256"
        },
        {
          "internalType": "uint256",
          "name": "distribute",
          "type": "uint256"
        },
        {
          "internalType": "uint32",
          "name": "length",
          "type": "uint32"
        },
        {
          "internalType": "uint32",
          "name": "endTime",
          "type": "uint32"
        }
      ],
      "stateMutability": "view",
      "type": "function",
      "constant": true
    },
    {
      "inputs": [],
      "name": "owner",
      "outputs": [
        {
          "internalType": "address",
          "name": "",
          "type": "address"
        }
      ],
      "stateMutability": "view",
      "type": "function",
      "constant": true
    },
    {
      "inputs": [],
      "name": "pendingOwner",
      "outputs": [
        {
          "internalType": "address",
          "name": "",
          "type": "address"
        }
      ],
      "stateMutability": "view",
      "type": "function",
      "constant": true
    },
    {
      "inputs": [],
      "name": "totalBonus",
      "outputs": [
        {
          "internalType": "uint256",
          "name": "",
          "type": "uint256"
        }
      ],
      "stateMutability": "view",
      "type": "function",
      "constant": true
    },
    {
      "inputs": [
        {
          "internalType": "address",
          "name": "newOwner",
          "type": "address"
        },
        {
          "internalType": "bool",
          "name": "direct",
          "type": "bool"
        },
        {
          "internalType": "bool",
          "name": "renounce",
          "type": "bool"
        }
      ],
      "name": "transferOwnership",
      "outputs": [],
      "stateMutability": "nonpayable",
      "type": "function"
    },
    {
      "inputs": [],
      "name": "warmupContract",
      "outputs": [
        {
          "internalType": "contract IWarmup",
          "name": "",
          "type": "address"
        }
      ],
      "stateMutability": "view",
      "type": "function",
      "constant": true
    },
    {
      "inputs": [
        {
          "internalType": "address",
          "name": "",
          "type": "address"
        }
      ],
      "name": "warmupInfo",
      "outputs": [
        {
          "internalType": "uint256",
          "name": "deposit",
          "type": "uint256"
        },
        {
          "internalType": "uint256",
          "name": "gons",
          "type": "uint256"
        },
        {
          "internalType": "uint256",
          "name": "expiry",
          "type": "uint256"
        },
        {
          "internalType": "bool",
          "name": "lock",
          "type": "bool"
        }
      ],
      "stateMutability": "view",
      "type": "function",
      "constant": true
    },
    {
      "inputs": [],
      "name": "warmupPeriod",
      "outputs": [
        {
          "internalType": "uint256",
          "name": "",
          "type": "uint256"
        }
      ],
      "stateMutability": "view",
      "type": "function",
      "constant": true
    },
    {
      "inputs": [
        {
          "internalType": "uint256",
          "name": "_amount",
          "type": "uint256"
        },
        {
          "internalType": "address",
          "name": "_recipient",
          "type": "address"
        }
      ],
      "name": "stake",
      "outputs": [
        {
          "internalType": "bool",
          "name": "",
          "type": "bool"
        }
      ],
      "stateMutability": "nonpayable",
      "type": "function"
    },
    {
      "inputs": [
        {
          "internalType": "address",
          "name": "_recipient",
          "type": "address"
        }
      ],
      "name": "claim",
      "outputs": [],
      "stateMutability": "nonpayable",
      "type": "function"
    },
    {
      "inputs": [],
      "name": "forfeit",
      "outputs": [],
      "stateMutability": "nonpayable",
      "type": "function"
    },
    {
      "inputs": [],
      "name": "toggleDepositLock",
      "outputs": [],
      "stateMutability": "nonpayable",
      "type": "function"
    },
    {
      "inputs": [
        {
          "internalType": "uint256",
          "name": "_amount",
          "type": "uint256"
        },
        {
          "internalType": "bool",
          "name": "_trigger",
          "type": "bool"
        }
      ],
      "name": "unstake",
      "outputs": [],
      "stateMutability": "nonpayable",
      "type": "function"
    },
    {
      "inputs": [],
      "name": "index",
      "outputs": [
        {
          "internalType": "uint256",
          "name": "",
          "type": "uint256"
        }
      ],
      "stateMutability": "view",
      "type": "function",
      "constant": true
    },
    {
      "inputs": [],
      "name": "rebase",
      "outputs": [],
      "stateMutability": "nonpayable",
      "type": "function"
    },
    {
      "inputs": [],
      "name": "contractBalance",
      "outputs": [
        {
          "internalType": "uint256",
          "name": "",
          "type": "uint256"
        }
      ],
      "stateMutability": "view",
      "type": "function",
      "constant": true
    },
    {
      "inputs": [
        {
          "internalType": "enum TimeStaking.CONTRACTS",
          "name": "_contract",
          "type": "uint8"
        },
        {
          "internalType": "address",
          "name": "_address",
          "type": "address"
        }
      ],
      "name": "setContract",
      "outputs": [],
      "stateMutability": "nonpayable",
      "type": "function"
    },
    {
      "inputs": [
        {
          "internalType": "uint256",
          "name": "_warmupPeriod",
          "type": "uint256"
        }
      ],
      "name": "setWarmup",
      "outputs": [],
      "stateMutability": "nonpayable",
      "type": "function"
    }
  ],
  "bytecode": "0x60c060405234801561001057600080fd5b50604051612849380380612849833981810160405260a081101561003357600080fd5b810190808051906020019092919080519060200190929190805190602001909291908051906020019092919080519060200190929190505050336000806101000a81548173ffffffffffffffffffffffffffffffffffffffff021916908373ffffffffffffffffffffffffffffffffffffffff1602179055503373ffffffffffffffffffffffffffffffffffffffff16600073ffffffffffffffffffffffffffffffffffffffff167f8be0079c531659141344cd1fd0a4f28419497f9722a3daafe3b4186f6b6457e060405160405180910390a3600073ffffffffffffffffffffffffffffffffffffffff168573ffffffffffffffffffffffffffffffffffffffff16141561014157600080fd5b8473ffffffffffffffffffffffffffffffffffffffff1660808173ffffffffffffffffffffffffffffffffffffffff1660601b81525050600073ffffffffffffffffffffffffffffffffffffffff168473ffffffffffffffffffffffffffffffffffffffff1614156101b257600080fd5b8373ffffffffffffffffffffffffffffffffffffffff1660a08173ffffffffffffffffffffffffffffffffffffffff1660601b815250506040518060800160405280838152602001600081526020018463ffffffff1681526020018263ffffffff168152506002600082015181600001556020820151816001015560408201518160020160006101000a81548163ffffffff021916908363ffffffff16021790555060608201518160020160046101000a81548163ffffffff021916908363ffffffff160217905550905050505050505060805160601c60a05160601c6125616102e8600039806109665280610b195280610bbf5280610f6d52806110fe52806116c752806117d85280611a1c5280611dab525080610df7528061143052806117135280611f115280611fb552506125616000f3fe608060405234801561001057600080fd5b50600436106101425760003560e01c8063900cf0cf116100b8578063c9f464ff1161007c578063c9f464ff14610498578063deac361a146104c6578063e30c3978146104e4578063ed4acaa814610518578063f3d86e4a1461054c578063f8e157ea1461055657610142565b8063900cf0cf146103c35780639ebea88c14610402578063a8dd07dc1461043c578063af14052c1461045a578063bfe109281461046457610142565b80636746f4c21161010a5780636746f4c2146102435780637acb7757146102b2578063865e6fd3146103165780638b7afe2e146103675780638da5cb5b146103855780638f077b83146103b957610142565b8063078dfbe7146101475780631e83409a146101a35780632986c0e5146101e7578063367efb62146102055780634e71e0c814610239575b600080fd5b6101a16004803603606081101561015d57600080fd5b81019080803573ffffffffffffffffffffffffffffffffffffffff16906020019092919080351515906020019092919080351515906020019092919050505061058a565b005b6101e5600480360360208110156101b957600080fd5b81019080803573ffffffffffffffffffffffffffffffffffffffff169060200190929190505050610844565b005b6101ef610b15565b6040518082815260200191505060405180910390f35b61020d610bbd565b604051808273ffffffffffffffffffffffffffffffffffffffff16815260200191505060405180910390f35b610241610be1565b005b6102856004803603602081101561025957600080fd5b81019080803573ffffffffffffffffffffffffffffffffffffffff169060200190929190505050610da8565b60405180858152602001848152602001838152602001821515815260200194505050505060405180910390f35b6102fe600480360360408110156102c857600080fd5b8101908080359060200190929190803573ffffffffffffffffffffffffffffffffffffffff169060200190929190505050610de5565b60405180821515815260200191505060405180910390f35b6103656004803603604081101561032c57600080fd5b81019080803560ff169060200190929190803573ffffffffffffffffffffffffffffffffffffffff16906020019092919050505061119b565b005b61036f611426565b6040518082815260200191505060405180910390f35b61038d611503565b604051808273ffffffffffffffffffffffffffffffffffffffff16815260200191505060405180910390f35b6103c1611527565b005b6103cb611672565b604051808581526020018481526020018363ffffffff1681526020018263ffffffff16815260200194505050505060405180910390f35b61043a6004803603604081101561041857600080fd5b81019080803590602001909291908035151590602001909291905050506116b0565b005b6104446117a9565b6040518082815260200191505060405180910390f35b6104626117af565b005b61046c611b32565b604051808273ffffffffffffffffffffffffffffffffffffffff16815260200191505060405180910390f35b6104c4600480360360208110156104ae57600080fd5b8101908080359060200190929190505050611b58565b005b6104ce611c5a565b6040518082815260200191505060405180910390f35b6104ec611c60565b604051808273ffffffffffffffffffffffffffffffffffffffff16815260200191505060405180910390f35b610520611c86565b604051808273ffffffffffffffffffffffffffffffffffffffff16815260200191505060405180910390f35b610554611cac565b005b61055e611fb3565b604051808273ffffffffffffffffffffffffffffffffffffffff16815260200191505060405180910390f35b60008054906101000a900473ffffffffffffffffffffffffffffffffffffffff1673ffffffffffffffffffffffffffffffffffffffff163373ffffffffffffffffffffffffffffffffffffffff161461064b576040517f08c379a00000000000000000000000000000000000000000000000000000000081526004018080602001828103825260208152602001807f4f776e61626c653a2063616c6c6572206973206e6f7420746865206f776e657281525060200191505060405180910390fd5b81156107fd57600073ffffffffffffffffffffffffffffffffffffffff168373ffffffffffffffffffffffffffffffffffffffff1614158061068a5750805b6106fc576040517f08c379a00000000000000000000000000000000000000000000000000000000081526004018080602001828103825260158152602001807f4f776e61626c653a207a65726f2061646472657373000000000000000000000081525060200191505060405180910390fd5b8273ffffffffffffffffffffffffffffffffffffffff1660008054906101000a900473ffffffffffffffffffffffffffffffffffffffff1673ffffffffffffffffffffffffffffffffffffffff167f8be0079c531659141344cd1fd0a4f28419497f9722a3daafe3b4186f6b6457e060405160405180910390a3826000806101000a81548173ffffffffffffffffffffffffffffffffffffffff021916908373ffffffffffffffffffffffffffffffffffffffff1602179055506000600160006101000a81548173ffffffffffffffffffffffffffffffffffffffff021916908373ffffffffffffffffffffffffffffffffffffffff16021790555061083f565b82600160006101000a81548173ffffffffffffffffffffffffffffffffffffffff021916908373ffffffffffffffffffffffffffffffffffffffff1602179055505b505050565b61084c6124b4565b600960008373ffffffffffffffffffffffffffffffffffffffff1673ffffffffffffffffffffffffffffffffffffffff1681526020019081526020016000206040518060800160405290816000820154815260200160018201548152602001600282015481526020016003820160009054906101000a900460ff16151515158152505090508060400151600260000154101580156108ef57506000816040015114155b15610b1157600960008373ffffffffffffffffffffffffffffffffffffffff1673ffffffffffffffffffffffffffffffffffffffff168152602001908152602001600020600080820160009055600182016000905560028201600090556003820160006101000a81549060ff0219169055505060007f000000000000000000000000000000000000000000000000000000000000000073ffffffffffffffffffffffffffffffffffffffff16637965d56d83602001516040518263ffffffff1660e01b81526004018082815260200191505060206040518083038186803b1580156109d957600080fd5b505afa1580156109ed573d6000803e3d6000fd5b505050506040513d6020811015610a0357600080fd5b81019080805190602001909291905050509050600760009054906101000a900473ffffffffffffffffffffffffffffffffffffffff1673ffffffffffffffffffffffffffffffffffffffff1663c3a2a66584836040518363ffffffff1660e01b8152600401808373ffffffffffffffffffffffffffffffffffffffff16815260200182815260200192505050600060405180830381600087803b158015610aa957600080fd5b505af1158015610abd573d6000803e3d6000fd5b505050508273ffffffffffffffffffffffffffffffffffffffff167ffce6d5860f911bc27ece1365300332d2ddbe20c1adc46ee2eddd8f72c48053b2826040518082815260200191505060405180910390a2505b5050565b60007f000000000000000000000000000000000000000000000000000000000000000073ffffffffffffffffffffffffffffffffffffffff16632986c0e56040518163ffffffff1660e01b815260040160206040518083038186803b158015610b7d57600080fd5b505afa158015610b91573d6000803e3d6000fd5b505050506040513d6020811015610ba757600080fd5b8101908080519060200190929190505050905090565b7f000000000000000000000000000000000000000000000000000000000000000081565b6000600160009054906101000a900473ffffffffffffffffffffffffffffffffffffffff1690508073ffffffffffffffffffffffffffffffffffffffff163373ffffffffffffffffffffffffffffffffffffffff1614610ca9576040517f08c379a00000000000000000000000000000000000000000000000000000000081526004018080602001828103825260208152602001807f4f776e61626c653a2063616c6c657220213d2070656e64696e67206f776e657281525060200191505060405180910390fd5b8073ffffffffffffffffffffffffffffffffffffffff1660008054906101000a900473ffffffffffffffffffffffffffffffffffffffff1673ffffffffffffffffffffffffffffffffffffffff167f8be0079c531659141344cd1fd0a4f28419497f9722a3daafe3b4186f6b6457e060405160405180910390a3806000806101000a81548173ffffffffffffffffffffffffffffffffffffffff021916908373ffffffffffffffffffffffffffffffffffffffff1602179055506000600160006101000a81548173ffffffffffffffffffffffffffffffffffffffff021916908373ffffffffffffffffffffffffffffffffffffffff16021790555050565b60096020528060005260406000206000915090508060000154908060010154908060020154908060030160009054906101000a900460ff16905084565b6000610def6117af565b610e3c3330857f000000000000000000000000000000000000000000000000000000000000000073ffffffffffffffffffffffffffffffffffffffff16611fd7909392919063ffffffff16565b610e446124b4565b600960008473ffffffffffffffffffffffffffffffffffffffff1673ffffffffffffffffffffffffffffffffffffffff1681526020019081526020016000206040518060800160405290816000820154815260200160018201548152602001600282015481526020016003820160009054906101000a900460ff1615151515815250509050806060015115610f41576040517f08c379a000000000000000000000000000000000000000000000000000000000815260040180806020018281038252601f8152602001807f4465706f7369747320666f72206163636f756e7420617265206c6f636b65640081525060200191505060405180910390fd5b6040518060800160405280610f6386846000015161209890919063ffffffff16565b815260200161102a7f000000000000000000000000000000000000000000000000000000000000000073ffffffffffffffffffffffffffffffffffffffff16631bd39674886040518263ffffffff1660e01b81526004018082815260200191505060206040518083038186803b158015610fdc57600080fd5b505afa158015610ff0573d6000803e3d6000fd5b505050506040513d602081101561100657600080fd5b8101908080519060200190929190505050846020015161209890919063ffffffff16565b815260200161104960085460026000015461209890919063ffffffff16565b815260200160001515815250600960008573ffffffffffffffffffffffffffffffffffffffff1673ffffffffffffffffffffffffffffffffffffffff16815260200190815260200160002060008201518160000155602082015181600101556040820151816002015560608201518160030160006101000a81548160ff021916908315150217905550905050611142600760009054906101000a900473ffffffffffffffffffffffffffffffffffffffff16857f000000000000000000000000000000000000000000000000000000000000000073ffffffffffffffffffffffffffffffffffffffff166120b29092919063ffffffff16565b8273ffffffffffffffffffffffffffffffffffffffff167f3dbdcfd4c1f2e08931aae3d544e149a1e643143f5234d166fe3debb783388495856040518082815260200191505060405180910390a2600191505092915050565b60008054906101000a900473ffffffffffffffffffffffffffffffffffffffff1673ffffffffffffffffffffffffffffffffffffffff163373ffffffffffffffffffffffffffffffffffffffff161461125c576040517f08c379a00000000000000000000000000000000000000000000000000000000081526004018080602001828103825260208152602001807f4f776e61626c653a2063616c6c6572206973206e6f7420746865206f776e657281525060200191505060405180910390fd5b6000600181111561126957fe5b82600181111561127557fe5b14156112c15780600560006101000a81548173ffffffffffffffffffffffffffffffffffffffff021916908373ffffffffffffffffffffffffffffffffffffffff1602179055506113c9565b6001808111156112cd57fe5b8260018111156112d957fe5b14156113c857600073ffffffffffffffffffffffffffffffffffffffff16600760009054906101000a900473ffffffffffffffffffffffffffffffffffffffff1673ffffffffffffffffffffffffffffffffffffffff1614611386576040517f08c379a00000000000000000000000000000000000000000000000000000000081526004018080602001828103825260238152602001806124df6023913960400191505060405180910390fd5b80600760006101000a81548173ffffffffffffffffffffffffffffffffffffffff021916908373ffffffffffffffffffffffffffffffffffffffff1602179055505b5b8073ffffffffffffffffffffffffffffffffffffffff167f74a3f47ee8c75a3912be4eeb0120ef2a7e6d7dfb822ea75f3f3843a3d366ae78836040518082600181111561141257fe5b815260200191505060405180910390a25050565b60006114fe6006547f000000000000000000000000000000000000000000000000000000000000000073ffffffffffffffffffffffffffffffffffffffff166370a08231306040518263ffffffff1660e01b8152600401808273ffffffffffffffffffffffffffffffffffffffff16815260200191505060206040518083038186803b1580156114b557600080fd5b505afa1580156114c9573d6000803e3d6000fd5b505050506040513d60208110156114df57600080fd5b810190808051906020019092919050505061209890919063ffffffff16565b905090565b60008054906101000a900473ffffffffffffffffffffffffffffffffffffffff1681565b600960003373ffffffffffffffffffffffffffffffffffffffff1673ffffffffffffffffffffffffffffffffffffffff16815260200190815260200160002060030160009054906101000a900460ff1615600960003373ffffffffffffffffffffffffffffffffffffffff1673ffffffffffffffffffffffffffffffffffffffff16815260200190815260200160002060030160006101000a81548160ff0219169083151502179055503373ffffffffffffffffffffffffffffffffffffffff167f84980d6cdf0a9cada77d43f70d2d8419bd623f064919f2e227dbc39404866dc9600960003373ffffffffffffffffffffffffffffffffffffffff1673ffffffffffffffffffffffffffffffffffffffff16815260200190815260200160002060030160009054906101000a900460ff1660405180821515815260200191505060405180910390a2565b60028060000154908060010154908060020160009054906101000a900463ffffffff16908060020160049054906101000a900463ffffffff16905084565b80156116bf576116be6117af565b5b61170c3330847f000000000000000000000000000000000000000000000000000000000000000073ffffffffffffffffffffffffffffffffffffffff16611fd7909392919063ffffffff16565b61175733837f000000000000000000000000000000000000000000000000000000000000000073ffffffffffffffffffffffffffffffffffffffff166120b29092919063ffffffff16565b3373ffffffffffffffffffffffffffffffffffffffff167faf14da4c9c7eeb91ef462950405340d31988005c789d867d3a1394f082105e89836040518082815260200191505060405180910390a25050565b60065481565b4263ffffffff166002800160049054906101000a900463ffffffff1663ffffffff1611611b30577f000000000000000000000000000000000000000000000000000000000000000073ffffffffffffffffffffffffffffffffffffffff1663058ecdb46002600101546002600001546040518363ffffffff1660e01b81526004018083815260200182815260200192505050602060405180830381600087803b15801561185b57600080fd5b505af115801561186f573d6000803e3d6000fd5b505050506040513d602081101561188557600080fd5b8101908080519060200190929190505050506118d86002800160009054906101000a900463ffffffff166002800160049054906101000a900463ffffffff1663ffffffff1661215490919063ffffffff16565b6002800160046101000a81548163ffffffff021916908363ffffffff160217905550600260000160008154809291906001019190505550600073ffffffffffffffffffffffffffffffffffffffff16600560009054906101000a900473ffffffffffffffffffffffffffffffffffffffff1673ffffffffffffffffffffffffffffffffffffffff1614611a0c57600560009054906101000a900473ffffffffffffffffffffffffffffffffffffffff1673ffffffffffffffffffffffffffffffffffffffff1663e4fc6b6d6040518163ffffffff1660e01b8152600401602060405180830381600087803b1580156119cf57600080fd5b505af11580156119e3573d6000803e3d6000fd5b505050506040513d60208110156119f957600080fd5b8101908080519060200190929190505050505b6000611a16611426565b905060007f000000000000000000000000000000000000000000000000000000000000000073ffffffffffffffffffffffffffffffffffffffff16639358928b6040518163ffffffff1660e01b815260040160206040518083038186803b158015611a8057600080fd5b505afa158015611a94573d6000803e3d6000fd5b505050506040513d6020811015611aaa57600080fd5b81019080805190602001909291905050509050808211611ad4576000600260010181905550611af1565b611ae7818361217a90919063ffffffff16565b6002600101819055505b7f60633057fb2c2558942a126acc1dc7c639b6fdee660a0171f7500e2ac5918b2e6002600101546040518082815260200191505060405180910390a150505b565b600560009054906101000a900473ffffffffffffffffffffffffffffffffffffffff1681565b60008054906101000a900473ffffffffffffffffffffffffffffffffffffffff1673ffffffffffffffffffffffffffffffffffffffff163373ffffffffffffffffffffffffffffffffffffffff1614611c19576040517f08c379a00000000000000000000000000000000000000000000000000000000081526004018080602001828103825260208152602001807f4f776e61626c653a2063616c6c6572206973206e6f7420746865206f776e657281525060200191505060405180910390fd5b806008819055507f0538aaeb1d9d528cb5e132864d95d2d7350a7a3879a90d0ce93164557c22ed31816040518082815260200191505060405180910390a150565b60085481565b600160009054906101000a900473ffffffffffffffffffffffffffffffffffffffff1681565b600760009054906101000a900473ffffffffffffffffffffffffffffffffffffffff1681565b611cb46124b4565b600960003373ffffffffffffffffffffffffffffffffffffffff1673ffffffffffffffffffffffffffffffffffffffff1681526020019081526020016000206040518060800160405290816000820154815260200160018201548152602001600282015481526020016003820160009054906101000a900460ff1615151515815250509050600960003373ffffffffffffffffffffffffffffffffffffffff1673ffffffffffffffffffffffffffffffffffffffff168152602001908152602001600020600080820160009055600182016000905560028201600090556003820160006101000a81549060ff0219169055505060007f000000000000000000000000000000000000000000000000000000000000000073ffffffffffffffffffffffffffffffffffffffff16637965d56d83602001516040518263ffffffff1660e01b81526004018082815260200191505060206040518083038186803b158015611e1e57600080fd5b505afa158015611e32573d6000803e3d6000fd5b505050506040513d6020811015611e4857600080fd5b81019080805190602001909291905050509050600760009054906101000a900473ffffffffffffffffffffffffffffffffffffffff1673ffffffffffffffffffffffffffffffffffffffff1663c3a2a66530836040518363ffffffff1660e01b8152600401808373ffffffffffffffffffffffffffffffffffffffff16815260200182815260200192505050600060405180830381600087803b158015611eee57600080fd5b505af1158015611f02573d6000803e3d6000fd5b50505050611f553383600001517f000000000000000000000000000000000000000000000000000000000000000073ffffffffffffffffffffffffffffffffffffffff166120b29092919063ffffffff16565b3373ffffffffffffffffffffffffffffffffffffffff167fed3bd88323251a29d30eb9552dda9f85957286ace369047d9b59ecccd4939e12828460000151604051808381526020018281526020019250505060405180910390a25050565b7f000000000000000000000000000000000000000000000000000000000000000081565b612092846323b872dd60e01b858585604051602401808473ffffffffffffffffffffffffffffffffffffffff1681526020018373ffffffffffffffffffffffffffffffffffffffff1681526020018281526020019350505050604051602081830303815290604052907bffffffffffffffffffffffffffffffffffffffffffffffffffffffff19166020820180517bffffffffffffffffffffffffffffffffffffffffffffffffffffffff8381831617835250505050612194565b50505050565b60008282840191508110156120ac57600080fd5b92915050565b61214f8363a9059cbb60e01b8484604051602401808373ffffffffffffffffffffffffffffffffffffffff16815260200182815260200192505050604051602081830303815290604052907bffffffffffffffffffffffffffffffffffffffffffffffffffffffff19166020820180517bffffffffffffffffffffffffffffffffffffffffffffffffffffffff8381831617835250505050612194565b505050565b60008263ffffffff1682840191508163ffffffff16101561217457600080fd5b92915050565b600082828403915081111561218e57600080fd5b92915050565b60606121f6826040518060400160405280602081526020017f5361666545524332303a206c6f772d6c6576656c2063616c6c206661696c65648152508573ffffffffffffffffffffffffffffffffffffffff166122839092919063ffffffff16565b905060008151111561227e5780806020019051602081101561221757600080fd5b810190808051906020019092919050505061227d576040517f08c379a000000000000000000000000000000000000000000000000000000000815260040180806020018281038252602a815260200180612502602a913960400191505060405180910390fd5b5b505050565b6060612292848460008561229b565b90509392505050565b60606122a6856124a1565b612318576040517f08c379a000000000000000000000000000000000000000000000000000000000815260040180806020018281038252601d8152602001807f416464726573733a2063616c6c20746f206e6f6e2d636f6e747261637400000081525060200191505060405180910390fd5b600060608673ffffffffffffffffffffffffffffffffffffffff1685876040518082805190602001908083835b602083106123685780518252602082019150602081019050602083039250612345565b6001836020036101000a03801982511681845116808217855250505050505090500191505060006040518083038185875af1925050503d80600081146123ca576040519150601f19603f3d011682016040523d82523d6000602084013e6123cf565b606091505b509150915081156123e4578092505050612499565b6000815111156123f75780518082602001fd5b836040517f08c379a00000000000000000000000000000000000000000000000000000000081526004018080602001828103825283818151815260200191508051906020019080838360005b8381101561245e578082015181840152602081019050612443565b50505050905090810190601f16801561248b5780820380516001836020036101000a031916815260200191505b509250505060405180910390fd5b949350505050565b600080823b905060008111915050919050565b6040518060800160405280600081526020016000815260200160008152602001600015158152509056fe5761726d75702063616e6e6f7420626520736574206d6f7265207468616e206f6e63655361666545524332303a204552433230206f7065726174696f6e20646964206e6f742073756363656564a2646970667358221220d28df6be6a2fe72aa4bc625b0c280a51473ab7bfc40f481d4f204dd6dd3b6ba664736f6c63430007050033",
  "immutableReferences": {
    "1101": [
      {
        "length": 32,
        "start": 3575
      },
      {
        "length": 32,
        "start": 5168
      },
      {
        "length": 32,
        "start": 5907
      },
      {
        "length": 32,
        "start": 7953
      },
      {
        "length": 32,
        "start": 8117
      }
    ],
    "1103": [
      {
        "length": 32,
        "start": 2406
      },
      {
        "length": 32,
        "start": 2841
      },
      {
        "length": 32,
        "start": 3007
      },
      {
        "length": 32,
        "start": 3949
      },
      {
        "length": 32,
        "start": 4350
      },
      {
        "length": 32,
        "start": 5831
      },
      {
        "length": 32,
        "start": 6104
      },
      {
        "length": 32,
        "start": 6684
      },
      {
        "length": 32,
        "start": 7595
      }
    ]
  },
  "source": "// SPDX-License-Identifier: AGPL-3.0-or-later\r\npragma solidity 0.7.5;\r\n\r\nlibrary LowGasSafeMath {\r\n    /// @notice Returns x + y, reverts if sum overflows uint256\r\n    /// @param x The augend\r\n    /// @param y The addend\r\n    /// @return z The sum of x and y\r\n    function add(uint256 x, uint256 y) internal pure returns (uint256 z) {\r\n        require((z = x + y) >= x);\r\n    }\r\n\r\n    function add32(uint32 x, uint32 y) internal pure returns (uint32 z) {\r\n        require((z = x + y) >= x);\r\n    }\r\n\r\n    /// @notice Returns x - y, reverts if underflows\r\n    /// @param x The minuend\r\n    /// @param y The subtrahend\r\n    /// @return z The difference of x and y\r\n    function sub(uint256 x, uint256 y) internal pure returns (uint256 z) {\r\n        require((z = x - y) <= x);\r\n    }\r\n\r\n    function sub32(uint32 x, uint32 y) internal pure returns (uint32 z) {\r\n        require((z = x - y) <= x);\r\n    }\r\n\r\n    /// @notice Returns x * y, reverts if overflows\r\n    /// @param x The multiplicand\r\n    /// @param y The multiplier\r\n    /// @return z The product of x and y\r\n    function mul(uint256 x, uint256 y) internal pure returns (uint256 z) {\r\n        require(x == 0 || (z = x * y) / x == y);\r\n    }\r\n\r\n    /// @notice Returns x + y, reverts if overflows or underflows\r\n    /// @param x The augend\r\n    /// @param y The addend\r\n    /// @return z The sum of x and y\r\n    function add(int256 x, int256 y) internal pure returns (int256 z) {\r\n        require((z = x + y) >= x == (y >= 0));\r\n    }\r\n\r\n    /// @notice Returns x - y, reverts if overflows or underflows\r\n    /// @param x The minuend\r\n    /// @param y The subtrahend\r\n    /// @return z The difference of x and y\r\n    function sub(int256 x, int256 y) internal pure returns (int256 z) {\r\n        require((z = x - y) <= x == (y >= 0));\r\n    }\r\n}\r\n\r\ninterface IERC20 {\r\n    function decimals() external view returns (uint8);\r\n  /**\r\n   * @dev Returns the amount of tokens in existence.\r\n   */\r\n  function totalSupply() external view returns (uint256);\r\n\r\n  /**\r\n   * @dev Returns the amount of tokens owned by `account`.\r\n   */\r\n  function balanceOf(address account) external view returns (uint256);\r\n\r\n  /**\r\n   * @dev Moves `amount` tokens from the caller's account to `recipient`.\r\n   *\r\n   * Returns a boolean value indicating whether the operation succeeded.\r\n   *\r\n   * Emits a {Transfer} event.\r\n   */\r\n  function transfer(address recipient, uint256 amount) external returns (bool);\r\n\r\n  /**\r\n   * @dev Returns the remaining number of tokens that `spender` will be\r\n   * allowed to spend on behalf of `owner` through {transferFrom}. This is\r\n   * zero by default.\r\n   *\r\n   * This value changes when {approve} or {transferFrom} are called.\r\n   */\r\n  function allowance(address owner, address spender) external view returns (uint256);\r\n\r\n  /**\r\n   * @dev Sets `amount` as the allowance of `spender` over the caller's tokens.\r\n   *\r\n   * Returns a boolean value indicating whether the operation succeeded.\r\n   *\r\n   * IMPORTANT: Beware that changing an allowance with this method brings the risk\r\n   * that someone may use both the old and the new allowance by unfortunate\r\n   * transaction ordering. One possible solution to mitigate this race\r\n   * condition is to first reduce the spender's allowance to 0 and set the\r\n   * desired value afterwards:\r\n   * https://github.com/ethereum/EIPs/issues/20#issuecomment-263524729\r\n   *\r\n   * Emits an {Approval} event.\r\n   */\r\n  function approve(address spender, uint256 amount) external returns (bool);\r\n\r\n  /**\r\n   * @dev Moves `amount` tokens from `sender` to `recipient` using the\r\n   * allowance mechanism. `amount` is then deducted from the caller's\r\n   * allowance.\r\n   *\r\n   * Returns a boolean value indicating whether the operation succeeded.\r\n   *\r\n   * Emits a {Transfer} event.\r\n   */\r\n  function transferFrom(address sender, address recipient, uint256 amount) external returns (bool);\r\n\r\n  /**\r\n   * @dev Emitted when `value` tokens are moved from one account (`from`) to\r\n   * another (`to`).\r\n   *\r\n   * Note that `value` may be zero.\r\n   */\r\n  event Transfer(address indexed from, address indexed to, uint256 value);\r\n\r\n  /**\r\n   * @dev Emitted when the allowance of a `spender` for an `owner` is set by\r\n   * a call to {approve}. `value` is the new allowance.\r\n   */\r\n  event Approval(address indexed owner, address indexed spender, uint256 value);\r\n}\r\n\r\nlibrary Address {\r\n    /**\r\n     * @dev Returns true if `account` is a contract.\r\n     *\r\n     * [IMPORTANT]\r\n     * ====\r\n     * It is unsafe to assume that an address for which this function returns\r\n     * false is an externally-owned account (EOA) and not a contract.\r\n     *\r\n     * Among others, `isContract` will return false for the following\r\n     * types of addresses:\r\n     *\r\n     *  - an externally-owned account\r\n     *  - a contract in construction\r\n     *  - an address where a contract will be created\r\n     *  - an address where a contract lived, but was destroyed\r\n     * ====\r\n     */\r\n    function isContract(address account) internal view returns (bool) {\r\n        // This method relies in extcodesize, which returns 0 for contracts in\r\n        // construction, since the code is only stored at the end of the\r\n        // constructor execution.\r\n\r\n        uint256 size;\r\n        // solhint-disable-next-line no-inline-assembly\r\n        assembly { size := extcodesize(account) }\r\n        return size > 0;\r\n    }\r\n\r\n    /**\r\n     * @dev Replacement for Solidity's `transfer`: sends `amount` wei to\r\n     * `recipient`, forwarding all available gas and reverting on errors.\r\n     *\r\n     * https://eips.ethereum.org/EIPS/eip-1884[EIP1884] increases the gas cost\r\n     * of certain opcodes, possibly making contracts go over the 2300 gas limit\r\n     * imposed by `transfer`, making them unable to receive funds via\r\n     * `transfer`. {sendValue} removes this limitation.\r\n     *\r\n     * https://diligence.consensys.net/posts/2019/09/stop-using-soliditys-transfer-now/[Learn more].\r\n     *\r\n     * IMPORTANT: because control is transferred to `recipient`, care must be\r\n     * taken to not create reentrancy vulnerabilities. Consider using\r\n     * {ReentrancyGuard}\r\n     */\r\n    function sendValue(address payable recipient, uint256 amount) internal {\r\n        require(address(this).balance >= amount, \"Address: insufficient balance\");\r\n\r\n        // solhint-disable-next-line avoid-low-level-calls, avoid-call-value\r\n        (bool success, ) = recipient.call{ value: amount }(\"\");\r\n        require(success, \"Address: unable to send value, recipient may have reverted\");\r\n    }\r\n\r\n    /**\r\n     * @dev Performs a Solidity function call using a low level `call`. A\r\n     * plain`call` is an unsafe replacement for a function call: use this\r\n     * function instead.\r\n     *\r\n     * If `target` reverts with a revert reason, it is bubbled up by this\r\n     * function (like regular Solidity function calls).\r\n     *\r\n     *\r\n     * Requirements:\r\n     *\r\n     * - `target` must be a contract.\r\n     * - calling `target` with `data` must not revert.\r\n     *\r\n     * _Available since v3.1._\r\n     */\r\n    function functionCall(address target, bytes memory data) internal returns (bytes memory) {\r\n      return functionCall(target, data, \"Address: low-level call failed\");\r\n    }\r\n\r\n    /**\r\n     * @dev Same as {xref-Address-functionCall-address-bytes-}[`functionCall`], but with\r\n     * `errorMessage` as a fallback revert reason when `target` reverts.\r\n     *\r\n     * _Available since v3.1._\r\n     */\r\n    function functionCall(\r\n        address target,\r\n        bytes memory data,\r\n        string memory errorMessage\r\n    ) internal returns (bytes memory) {\r\n        return _functionCallWithValue(target, data, 0, errorMessage);\r\n    }\r\n\r\n    /**\r\n     * @dev Same as {xref-Address-functionCall-address-bytes-}[`functionCall`],\r\n     * but also transferring `value` wei to `target`.\r\n     *\r\n     * Requirements:\r\n     *\r\n     * - the calling contract must have an ETH balance of at least `value`.\r\n     * - the called Solidity function must be `payable`.\r\n     *\r\n     * _Available since v3.1._\r\n     */\r\n    function functionCallWithValue(address target, bytes memory data, uint256 value) internal returns (bytes memory) {\r\n        return functionCallWithValue(target, data, value, \"Address: low-level call with value failed\");\r\n    }\r\n\r\n    /**\r\n     * @dev Same as {xref-Address-functionCallWithValue-address-bytes-uint256-}[`functionCallWithValue`], but\r\n     * with `errorMessage` as a fallback revert reason when `target` reverts.\r\n     *\r\n     * _Available since v3.1._\r\n     */\r\n    function functionCallWithValue(\r\n        address target, \r\n        bytes memory data, \r\n        uint256 value, \r\n        string memory errorMessage\r\n    ) internal returns (bytes memory) {\r\n        require(address(this).balance >= value, \"Address: insufficient balance for call\");\r\n        require(isContract(target), \"Address: call to non-contract\");\r\n\r\n        // solhint-disable-next-line avoid-low-level-calls\r\n        (bool success, bytes memory returndata) = target.call{ value: value }(data);\r\n        return _verifyCallResult(success, returndata, errorMessage);\r\n    }\r\n\r\n    function _functionCallWithValue(\r\n        address target, \r\n        bytes memory data, \r\n        uint256 weiValue, \r\n        string memory errorMessage\r\n    ) private returns (bytes memory) {\r\n        require(isContract(target), \"Address: call to non-contract\");\r\n\r\n        // solhint-disable-next-line avoid-low-level-calls\r\n        (bool success, bytes memory returndata) = target.call{ value: weiValue }(data);\r\n        if (success) {\r\n            return returndata;\r\n        } else {\r\n            // Look for revert reason and bubble it up if present\r\n            if (returndata.length > 0) {\r\n                // The easiest way to bubble the revert reason is using memory via assembly\r\n\r\n                // solhint-disable-next-line no-inline-assembly\r\n                assembly {\r\n                    let returndata_size := mload(returndata)\r\n                    revert(add(32, returndata), returndata_size)\r\n                }\r\n            } else {\r\n                revert(errorMessage);\r\n            }\r\n        }\r\n    }\r\n\r\n  /**\r\n     * @dev Same as {xref-Address-functionCall-address-bytes-}[`functionCall`],\r\n     * but performing a static call.\r\n     *\r\n     * _Available since v3.3._\r\n     */\r\n    function functionStaticCall(address target, bytes memory data) internal view returns (bytes memory) {\r\n        return functionStaticCall(target, data, \"Address: low-level static call failed\");\r\n    }\r\n\r\n    /**\r\n     * @dev Same as {xref-Address-functionCall-address-bytes-string-}[`functionCall`],\r\n     * but performing a static call.\r\n     *\r\n     * _Available since v3.3._\r\n     */\r\n    function functionStaticCall(\r\n        address target, \r\n        bytes memory data, \r\n        string memory errorMessage\r\n    ) internal view returns (bytes memory) {\r\n        require(isContract(target), \"Address: static call to non-contract\");\r\n\r\n        // solhint-disable-next-line avoid-low-level-calls\r\n        (bool success, bytes memory returndata) = target.staticcall(data);\r\n        return _verifyCallResult(success, returndata, errorMessage);\r\n    }\r\n\r\n    /**\r\n     * @dev Same as {xref-Address-functionCall-address-bytes-}[`functionCall`],\r\n     * but performing a delegate call.\r\n     *\r\n     * _Available since v3.3._\r\n     */\r\n    function functionDelegateCall(address target, bytes memory data) internal returns (bytes memory) {\r\n        return functionDelegateCall(target, data, \"Address: low-level delegate call failed\");\r\n    }\r\n\r\n    /**\r\n     * @dev Same as {xref-Address-functionCall-address-bytes-string-}[`functionCall`],\r\n     * but performing a delegate call.\r\n     *\r\n     * _Available since v3.3._\r\n     */\r\n    function functionDelegateCall(\r\n        address target, \r\n        bytes memory data, \r\n        string memory errorMessage\r\n    ) internal returns (bytes memory) {\r\n        require(isContract(target), \"Address: delegate call to non-contract\");\r\n\r\n        // solhint-disable-next-line avoid-low-level-calls\r\n        (bool success, bytes memory returndata) = target.delegatecall(data);\r\n        return _verifyCallResult(success, returndata, errorMessage);\r\n    }\r\n\r\n    function _verifyCallResult(\r\n        bool success, \r\n        bytes memory returndata, \r\n        string memory errorMessage\r\n    ) private pure returns(bytes memory) {\r\n        if (success) {\r\n            return returndata;\r\n        } else {\r\n            // Look for revert reason and bubble it up if present\r\n            if (returndata.length > 0) {\r\n                // The easiest way to bubble the revert reason is using memory via assembly\r\n\r\n                // solhint-disable-next-line no-inline-assembly\r\n                assembly {\r\n                    let returndata_size := mload(returndata)\r\n                    revert(add(32, returndata), returndata_size)\r\n                }\r\n            } else {\r\n                revert(errorMessage);\r\n            }\r\n        }\r\n    }\r\n\r\n    function addressToString(address _address) internal pure returns(string memory) {\r\n        bytes32 _bytes = bytes32(uint256(_address));\r\n        bytes memory HEX = \"0123456789abcdef\";\r\n        bytes memory _addr = new bytes(42);\r\n\r\n        _addr[0] = '0';\r\n        _addr[1] = 'x';\r\n\r\n        for(uint256 i = 0; i < 20; i++) {\r\n            _addr[2+i*2] = HEX[uint8(_bytes[i + 12] >> 4)];\r\n            _addr[3+i*2] = HEX[uint8(_bytes[i + 12] & 0x0f)];\r\n        }\r\n\r\n        return string(_addr);\r\n\r\n    }\r\n}\r\n\r\nlibrary SafeERC20 {\r\n    using LowGasSafeMath for uint256;\r\n    using Address for address;\r\n\r\n    function safeTransfer(IERC20 token, address to, uint256 value) internal {\r\n        _callOptionalReturn(token, abi.encodeWithSelector(token.transfer.selector, to, value));\r\n    }\r\n\r\n    function safeTransferFrom(IERC20 token, address from, address to, uint256 value) internal {\r\n        _callOptionalReturn(token, abi.encodeWithSelector(token.transferFrom.selector, from, to, value));\r\n    }\r\n\r\n    /**\r\n     * @dev Deprecated. This function has issues similar to the ones found in\r\n     * {IERC20-approve}, and its usage is discouraged.\r\n     *\r\n     * Whenever possible, use {safeIncreaseAllowance} and\r\n     * {safeDecreaseAllowance} instead.\r\n     */\r\n    function safeApprove(IERC20 token, address spender, uint256 value) internal {\r\n        // safeApprove should only be called when setting an initial allowance,\r\n        // or when resetting it to zero. To increase and decrease it, use\r\n        // 'safeIncreaseAllowance' and 'safeDecreaseAllowance'\r\n        // solhint-disable-next-line max-line-length\r\n        require((value == 0) || (token.allowance(address(this), spender) == 0),\r\n            \"SafeERC20: approve from non-zero to non-zero allowance\"\r\n        );\r\n        _callOptionalReturn(token, abi.encodeWithSelector(token.approve.selector, spender, value));\r\n    }\r\n\r\n    function safeIncreaseAllowance(IERC20 token, address spender, uint256 value) internal {\r\n        uint256 newAllowance = token.allowance(address(this), spender).add(value);\r\n        _callOptionalReturn(token, abi.encodeWithSelector(token.approve.selector, spender, newAllowance));\r\n    }\r\n\r\n    function safeDecreaseAllowance(\r\n        IERC20 token, \r\n        address spender, \r\n        uint256 value\r\n    ) internal {\r\n        uint256 newAllowance = token.allowance(address(this), spender)\r\n            .sub(value);\r\n        _callOptionalReturn(token, abi.encodeWithSelector(token.approve.selector, spender, newAllowance));\r\n    }\r\n\r\n    /**\r\n     * @dev Imitates a Solidity high-level call (i.e. a regular function call to a contract), relaxing the requirement\r\n     * on the return value: the return value is optional (but if data is returned, it must not be false).\r\n     * @param token The token targeted by the call.\r\n     * @param data The call data (encoded using abi.encode or one of its variants).\r\n     */\r\n    function _callOptionalReturn(IERC20 token, bytes memory data) private {\r\n        // We need to perform a low level call here, to bypass Solidity's return data size checking mechanism, since\r\n        // we're implementing it ourselves. We use {Address.functionCall} to perform this call, which verifies that\r\n        // the target address contains contract code and also asserts for success in the low-level call.\r\n\r\n        bytes memory returndata = address(token).functionCall(data, \"SafeERC20: low-level call failed\");\r\n        if (returndata.length > 0) { // Return data is optional\r\n            // solhint-disable-next-line max-line-length\r\n            require(abi.decode(returndata, (bool)), \"SafeERC20: ERC20 operation did not succeed\");\r\n        }\r\n    }\r\n}\r\n\r\ncontract OwnableData {\r\n    address public owner;\r\n    address public pendingOwner;\r\n}\r\n\r\ncontract Ownable is OwnableData {\r\n    event OwnershipTransferred(address indexed previousOwner, address indexed newOwner);\r\n\r\n    /// @notice `owner` defaults to msg.sender on construction.\r\n    constructor() {\r\n        owner = msg.sender;\r\n        emit OwnershipTransferred(address(0), msg.sender);\r\n    }\r\n\r\n    /// @notice Transfers ownership to `newOwner`. Either directly or claimable by the new pending owner.\r\n    /// Can only be invoked by the current `owner`.\r\n    /// @param newOwner Address of the new owner.\r\n    /// @param direct True if `newOwner` should be set immediately. False if `newOwner` needs to use `claimOwnership`.\r\n    /// @param renounce Allows the `newOwner` to be `address(0)` if `direct` and `renounce` is True. Has no effect otherwise.\r\n    function transferOwnership(\r\n        address newOwner,\r\n        bool direct,\r\n        bool renounce\r\n    ) public onlyOwner {\r\n        if (direct) {\r\n            // Checks\r\n            require(newOwner != address(0) || renounce, \"Ownable: zero address\");\r\n\r\n            // Effects\r\n            emit OwnershipTransferred(owner, newOwner);\r\n            owner = newOwner;\r\n            pendingOwner = address(0);\r\n        } else {\r\n            // Effects\r\n            pendingOwner = newOwner;\r\n        }\r\n    }\r\n\r\n    /// @notice Needs to be called by `pendingOwner` to claim ownership.\r\n    function claimOwnership() public {\r\n        address _pendingOwner = pendingOwner;\r\n\r\n        // Checks\r\n        require(msg.sender == _pendingOwner, \"Ownable: caller != pending owner\");\r\n\r\n        // Effects\r\n        emit OwnershipTransferred(owner, _pendingOwner);\r\n        owner = _pendingOwner;\r\n        pendingOwner = address(0);\r\n    }\r\n\r\n    /// @notice Only allows the `owner` to execute the function.\r\n    modifier onlyOwner() {\r\n        require(msg.sender == owner, \"Ownable: caller is not the owner\");\r\n        _;\r\n    }\r\n}\r\n\r\ninterface IMemo is IERC20 {\r\n    function rebase( uint256 ohmProfit_, uint epoch_) external returns (uint256);\r\n\r\n    function circulatingSupply() external view returns (uint256);\r\n\r\n    function balanceOf(address who) external view override returns (uint256);\r\n\r\n    function gonsForBalance( uint amount ) external view returns ( uint );\r\n\r\n    function balanceForGons( uint gons ) external view returns ( uint );\r\n    \r\n    function index() external view returns ( uint );\r\n}\r\n\r\ninterface IWarmup {\r\n    function retrieve( address staker_, uint amount_ ) external;\r\n}\r\n\r\ninterface IDistributor {\r\n    function distribute() external returns ( bool );\r\n}\r\n\r\ncontract TimeStaking is Ownable {\r\n\r\n    using LowGasSafeMath for uint256;\r\n    using LowGasSafeMath for uint32;\r\n    using SafeERC20 for IERC20;\r\n    using SafeERC20 for IMemo;\r\n\r\n    IERC20 public immutable Time;\r\n    IMemo public immutable Memories;\r\n\r\n    struct Epoch {\r\n        uint number;\r\n        uint distribute;\r\n        uint32 length;\r\n        uint32 endTime;\r\n    }\r\n    Epoch public epoch;\r\n\r\n    IDistributor public distributor;\r\n    \r\n    uint public totalBonus;\r\n    \r\n    IWarmup public warmupContract;\r\n    uint public warmupPeriod;\r\n\r\n    event LogStake(address indexed recipient, uint256 amount);\r\n    event LogClaim(address indexed recipient, uint256 amount);\r\n    event LogForfeit(address indexed recipient, uint256 memoAmount, uint256 timeAmount);\r\n    event LogDepositLock(address indexed user, bool locked);\r\n    event LogUnstake(address indexed recipient, uint256 amount);\r\n    event LogRebase(uint256 distribute);\r\n    event LogSetContract(CONTRACTS contractType, address indexed _contract);\r\n    event LogWarmupPeriod(uint period);\r\n    \r\n    constructor ( \r\n        address _Time, \r\n        address _Memories, \r\n        uint32 _epochLength,\r\n        uint _firstEpochNumber,\r\n        uint32 _firstEpochTime\r\n    ) {\r\n        require( _Time != address(0) );\r\n        Time = IERC20(_Time);\r\n        require( _Memories != address(0) );\r\n        Memories = IMemo(_Memories);\r\n        \r\n        epoch = Epoch({\r\n            length: _epochLength,\r\n            number: _firstEpochNumber,\r\n            endTime: _firstEpochTime,\r\n            distribute: 0\r\n        });\r\n    }\r\n\r\n    struct Claim {\r\n        uint deposit;\r\n        uint gons;\r\n        uint expiry;\r\n        bool lock; // prevents malicious delays\r\n    }\r\n    mapping( address => Claim ) public warmupInfo;\r\n\r\n    /**\r\n        @notice stake Time to enter warmup\r\n        @param _amount uint\r\n        @return bool\r\n     */\r\n    function stake( uint _amount, address _recipient ) external returns ( bool ) {\r\n        rebase();\r\n        \r\n        Time.safeTransferFrom( msg.sender, address(this), _amount );\r\n\r\n        Claim memory info = warmupInfo[ _recipient ];\r\n        require( !info.lock, \"Deposits for account are locked\" );\r\n\r\n        warmupInfo[ _recipient ] = Claim ({\r\n            deposit: info.deposit.add( _amount ),\r\n            gons: info.gons.add( Memories.gonsForBalance( _amount ) ),\r\n            expiry: epoch.number.add( warmupPeriod ),\r\n            lock: false\r\n        });\r\n        \r\n        Memories.safeTransfer( address(warmupContract), _amount );\r\n        emit LogStake(_recipient, _amount);\r\n        return true;\r\n    }\r\n\r\n    /**\r\n        @notice retrieve MEMO from warmup\r\n        @param _recipient address\r\n     */\r\n    function claim ( address _recipient ) external {\r\n        Claim memory info = warmupInfo[ _recipient ];\r\n        if ( epoch.number >= info.expiry && info.expiry != 0 ) {\r\n            delete warmupInfo[ _recipient ];\r\n            uint256 amount = Memories.balanceForGons( info.gons );\r\n            warmupContract.retrieve( _recipient,  amount);\r\n            emit LogClaim(_recipient, amount);\r\n        }\r\n    }\r\n\r\n    /**\r\n        @notice forfeit MEMO in warmup and retrieve Time\r\n     */\r\n    function forfeit() external {\r\n        Claim memory info = warmupInfo[ msg.sender ];\r\n        delete warmupInfo[ msg.sender ];\r\n        uint memoBalance = Memories.balanceForGons( info.gons );\r\n        warmupContract.retrieve( address(this),  memoBalance);\r\n        Time.safeTransfer( msg.sender, info.deposit);\r\n        emit LogForfeit(msg.sender, memoBalance, info.deposit);\r\n    }\r\n\r\n    /**\r\n        @notice prevent new deposits to address (protection from malicious activity)\r\n     */\r\n    function toggleDepositLock() external {\r\n        warmupInfo[ msg.sender ].lock = !warmupInfo[ msg.sender ].lock;\r\n        emit LogDepositLock(msg.sender, warmupInfo[ msg.sender ].lock);\r\n    }\r\n\r\n    /**\r\n        @notice redeem MEMO for Time\r\n        @param _amount uint\r\n        @param _trigger bool\r\n     */\r\n    function unstake( uint _amount, bool _trigger ) external {\r\n        if ( _trigger ) {\r\n            rebase();\r\n        }\r\n        Memories.safeTransferFrom( msg.sender, address(this), _amount );\r\n        Time.safeTransfer( msg.sender, _amount );\r\n        emit LogUnstake(msg.sender, _amount);\r\n    }\r\n\r\n    /**\r\n        @notice returns the MEMO index, which tracks rebase growth\r\n        @return uint\r\n     */\r\n    function index() external view returns ( uint ) {\r\n        return Memories.index();\r\n    }\r\n\r\n    /**\r\n        @notice trigger rebase if epoch over\r\n     */\r\n    function rebase() public {\r\n        if( epoch.endTime <= uint32(block.timestamp) ) {\r\n\r\n            Memories.rebase( epoch.distribute, epoch.number );\r\n\r\n            epoch.endTime = epoch.endTime.add32( epoch.length );\r\n            epoch.number++;\r\n            \r\n            if ( address(distributor) != address(0) ) {\r\n                distributor.distribute();\r\n            }\r\n\r\n            uint balance = contractBalance();\r\n            uint staked = Memories.circulatingSupply();\r\n\r\n            if( balance <= staked ) {\r\n                epoch.distribute = 0;\r\n            } else {\r\n                epoch.distribute = balance.sub( staked );\r\n            }\r\n            emit LogRebase(epoch.distribute);\r\n        }\r\n    }\r\n\r\n    /**\r\n        @notice returns contract Time holdings, including bonuses provided\r\n        @return uint\r\n     */\r\n    function contractBalance() public view returns ( uint ) {\r\n        return Time.balanceOf( address(this) ).add( totalBonus );\r\n    }\r\n\r\n    enum CONTRACTS { DISTRIBUTOR, WARMUP }\r\n\r\n    /**\r\n        @notice sets the contract address for LP staking\r\n        @param _contract address\r\n     */\r\n    function setContract( CONTRACTS _contract, address _address ) external onlyOwner {\r\n        if( _contract == CONTRACTS.DISTRIBUTOR ) { // 0\r\n            distributor = IDistributor(_address);\r\n        } else if ( _contract == CONTRACTS.WARMUP ) { // 1\r\n            require( address(warmupContract) == address( 0 ), \"Warmup cannot be set more than once\" );\r\n            warmupContract = IWarmup(_address);\r\n        }\r\n        emit LogSetContract(_contract, _address);\r\n    }\r\n    \r\n    /**\r\n     * @notice set warmup period in epoch's numbers for new stakers\r\n     * @param _warmupPeriod uint\r\n     */\r\n    function setWarmup( uint _warmupPeriod ) external onlyOwner {\r\n        warmupPeriod = _warmupPeriod;\r\n        emit LogWarmupPeriod(_warmupPeriod);\r\n    }\r\n}",
  "sourcePath": "E:\\project\\Chris\\wonderland-money\\truffle_deploy\\contracts\\Staking.sol",
  "compiler": {
    "name": "solc",
    "version": "0.7.5+commit.eb77ed08.Emscripten.clang"
  },
  "schemaVersion": "3.4.4",
  "updatedAt": "2022-01-04T22:26:28.745Z",
  "networkType": "ethereum",
  "devdoc": {
    "kind": "dev",
    "methods": {
      "claim(address)": {
        "params": {
          "_recipient": "address"
        }
      },
      "contractBalance()": {
        "returns": {
          "_0": "uint"
        }
      },
      "index()": {
        "returns": {
          "_0": "uint"
        }
      },
      "setContract(uint8,address)": {
        "params": {
          "_contract": "address"
        }
      },
      "setWarmup(uint256)": {
        "params": {
          "_warmupPeriod": "uint"
        }
      },
      "stake(uint256,address)": {
        "params": {
          "_amount": "uint"
        },
        "returns": {
          "_0": "bool"
        }
      },
      "transferOwnership(address,bool,bool)": {
        "params": {
          "direct": "True if `newOwner` should be set immediately. False if `newOwner` needs to use `claimOwnership`.",
          "newOwner": "Address of the new owner.",
          "renounce": "Allows the `newOwner` to be `address(0)` if `direct` and `renounce` is True. Has no effect otherwise."
        }
      },
      "unstake(uint256,bool)": {
        "params": {
          "_amount": "uint",
          "_trigger": "bool"
        }
      }
    },
    "version": 1
  },
  "userdoc": {
    "kind": "user",
    "methods": {
      "claim(address)": {
        "notice": "retrieve MEMO from warmup"
      },
      "claimOwnership()": {
        "notice": "Needs to be called by `pendingOwner` to claim ownership."
      },
      "contractBalance()": {
        "notice": "returns contract Time holdings, including bonuses provided"
      },
      "forfeit()": {
        "notice": "forfeit MEMO in warmup and retrieve Time"
      },
      "index()": {
        "notice": "returns the MEMO index, which tracks rebase growth"
      },
      "rebase()": {
        "notice": "trigger rebase if epoch over"
      },
      "setContract(uint8,address)": {
        "notice": "sets the contract address for LP staking"
      },
      "setWarmup(uint256)": {
        "notice": "set warmup period in epoch's numbers for new stakers"
      },
      "stake(uint256,address)": {
        "notice": "stake Time to enter warmup"
      },
      "toggleDepositLock()": {
        "notice": "prevent new deposits to address (protection from malicious activity)"
      },
      "transferOwnership(address,bool,bool)": {
        "notice": "Transfers ownership to `newOwner`. Either directly or claimable by the new pending owner. Can only be invoked by the current `owner`."
      },
      "unstake(uint256,bool)": {
        "notice": "redeem MEMO for Time"
      }
    },
    "version": 1
  }
}