{
  "contractName": "TimeTreasury",
  "abi": [
    {
      "inputs": [
        {
          "internalType": "address",
          "name": "_Time",
          "type": "address"
        },
        {
          "internalType": "address",
          "name": "_MIM",
          "type": "address"
        },
        {
          "internalType": "uint32",
          "name": "_secondsNeededForQueue",
          "type": "uint32"
        },
        {
          "internalType": "uint256",
          "name": "_limitAmount",
          "type": "uint256"
        }
      ],
      "stateMutability": "nonpayable",
      "type": "constructor"
    },
    {
      "anonymous": false,
      "inputs": [
        {
          "indexed": true,
          "internalType": "enum TimeTreasury.MANAGING",
          "name": "managing",
          "type": "uint8"
        },
        {
          "indexed": false,
          "internalType": "address",
          "name": "activated",
          "type": "address"
        },
        {
          "indexed": false,
          "internalType": "bool",
          "name": "result",
          "type": "bool"
        }
      ],
      "name": "ChangeActivated",
      "type": "event"
    },
    {
      "anonymous": false,
      "inputs": [
        {
          "indexed": false,
          "internalType": "uint256",
          "name": "amount",
          "type": "uint256"
        }
      ],
      "name": "ChangeLimitAmount",
      "type": "event"
    },
    {
      "anonymous": false,
      "inputs": [
        {
          "indexed": true,
          "internalType": "enum TimeTreasury.MANAGING",
          "name": "managing",
          "type": "uint8"
        },
        {
          "indexed": false,
          "internalType": "address",
          "name": "queued",
          "type": "address"
        }
      ],
      "name": "ChangeQueued",
      "type": "event"
    },
    {
      "anonymous": false,
      "inputs": [
        {
          "indexed": true,
          "internalType": "address",
          "name": "debtor",
          "type": "address"
        },
        {
          "indexed": true,
          "internalType": "address",
          "name": "token",
          "type": "address"
        },
        {
          "indexed": false,
          "internalType": "uint256",
          "name": "amount",
          "type": "uint256"
        },
        {
          "indexed": false,
          "internalType": "uint256",
          "name": "value",
          "type": "uint256"
        }
      ],
      "name": "CreateDebt",
      "type": "event"
    },
    {
      "anonymous": false,
      "inputs": [
        {
          "indexed": true,
          "internalType": "address",
          "name": "token",
          "type": "address"
        },
        {
          "indexed": false,
          "internalType": "uint256",
          "name": "amount",
          "type": "uint256"
        },
        {
          "indexed": false,
          "internalType": "uint256",
          "name": "value",
          "type": "uint256"
        }
      ],
      "name": "Deposit",
      "type": "event"
    },
    {
      "anonymous": false,
      "inputs": [
        {
          "indexed": true,
          "internalType": "address",
          "name": "previousOwner",
          "type": "address"
        },
        {
          "indexed": true,
          "internalType": "address",
          "name": "newOwner",
          "type": "address"
        }
      ],
      "name": "OwnershipTransferred",
      "type": "event"
    },
    {
      "anonymous": false,
      "inputs": [
        {
          "indexed": true,
          "internalType": "address",
          "name": "debtor",
          "type": "address"
        },
        {
          "indexed": true,
          "internalType": "address",
          "name": "token",
          "type": "address"
        },
        {
          "indexed": false,
          "internalType": "uint256",
          "name": "amount",
          "type": "uint256"
        },
        {
          "indexed": false,
          "internalType": "uint256",
          "name": "value",
          "type": "uint256"
        }
      ],
      "name": "RepayDebt",
      "type": "event"
    },
    {
      "anonymous": false,
      "inputs": [
        {
          "indexed": true,
          "internalType": "uint256",
          "name": "totalReserves",
          "type": "uint256"
        }
      ],
      "name": "ReservesAudited",
      "type": "event"
    },
    {
      "anonymous": false,
      "inputs": [
        {
          "indexed": true,
          "internalType": "address",
          "name": "token",
          "type": "address"
        },
        {
          "indexed": false,
          "internalType": "uint256",
          "name": "amount",
          "type": "uint256"
        }
      ],
      "name": "ReservesManaged",
      "type": "event"
    },
    {
      "anonymous": false,
      "inputs": [
        {
          "indexed": true,
          "internalType": "uint256",
          "name": "totalReserves",
          "type": "uint256"
        }
      ],
      "name": "ReservesUpdated",
      "type": "event"
    },
    {
      "anonymous": false,
      "inputs": [
        {
          "indexed": true,
          "internalType": "address",
          "name": "caller",
          "type": "address"
        },
        {
          "indexed": true,
          "internalType": "address",
          "name": "recipient",
          "type": "address"
        },
        {
          "indexed": false,
          "internalType": "uint256",
          "name": "amount",
          "type": "uint256"
        }
      ],
      "name": "RewardsMinted",
      "type": "event"
    },
    {
      "anonymous": false,
      "inputs": [
        {
          "indexed": true,
          "internalType": "address",
          "name": "token",
          "type": "address"
        },
        {
          "indexed": false,
          "internalType": "uint256",
          "name": "amount",
          "type": "uint256"
        },
        {
          "indexed": false,
          "internalType": "uint256",
          "name": "value",
          "type": "uint256"
        }
      ],
      "name": "Withdrawal",
      "type": "event"
    },
    {
      "inputs": [
        {
          "internalType": "address",
          "name": "",
          "type": "address"
        }
      ],
      "name": "LiquidityDepositorQueue",
      "outputs": [
        {
          "internalType": "uint32",
          "name": "",
          "type": "uint32"
        }
      ],
      "stateMutability": "view",
      "type": "function",
      "constant": true
    },
    {
      "inputs": [
        {
          "internalType": "address",
          "name": "",
          "type": "address"
        }
      ],
      "name": "LiquidityManagerQueue",
      "outputs": [
        {
          "internalType": "uint32",
          "name": "",
          "type": "uint32"
        }
      ],
      "stateMutability": "view",
      "type": "function",
      "constant": true
    },
    {
      "inputs": [
        {
          "internalType": "address",
          "name": "",
          "type": "address"
        }
      ],
      "name": "LiquidityTokenQueue",
      "outputs": [
        {
          "internalType": "uint32",
          "name": "",
          "type": "uint32"
        }
      ],
      "stateMutability": "view",
      "type": "function",
      "constant": true
    },
    {
      "inputs": [],
      "name": "MEMOries",
      "outputs": [
        {
          "internalType": "contract IERC20",
          "name": "",
          "type": "address"
        }
      ],
      "stateMutability": "view",
      "type": "function",
      "constant": true
    },
    {
      "inputs": [
        {
          "internalType": "address",
          "name": "",
          "type": "address"
        }
      ],
      "name": "ReserveManagerQueue",
      "outputs": [
        {
          "internalType": "uint32",
          "name": "",
          "type": "uint32"
        }
      ],
      "stateMutability": "view",
      "type": "function",
      "constant": true
    },
    {
      "inputs": [],
      "name": "Time",
      "outputs": [
        {
          "internalType": "contract ITIMEERC20",
          "name": "",
          "type": "address"
        }
      ],
      "stateMutability": "view",
      "type": "function",
      "constant": true
    },
    {
      "inputs": [
        {
          "internalType": "address",
          "name": "",
          "type": "address"
        }
      ],
      "name": "bondCalculator",
      "outputs": [
        {
          "internalType": "address",
          "name": "",
          "type": "address"
        }
      ],
      "stateMutability": "view",
      "type": "function",
      "constant": true
    },
    {
      "inputs": [],
      "name": "claimOwnership",
      "outputs": [],
      "stateMutability": "nonpayable",
      "type": "function"
    },
    {
      "inputs": [
        {
          "internalType": "address",
          "name": "",
          "type": "address"
        }
      ],
      "name": "debtorBalance",
      "outputs": [
        {
          "internalType": "uint256",
          "name": "",
          "type": "uint256"
        }
      ],
      "stateMutability": "view",
      "type": "function",
      "constant": true
    },
    {
      "inputs": [
        {
          "internalType": "address",
          "name": "",
          "type": "address"
        }
      ],
      "name": "debtorQueue",
      "outputs": [
        {
          "internalType": "uint32",
          "name": "",
          "type": "uint32"
        }
      ],
      "stateMutability": "view",
      "type": "function",
      "constant": true
    },
    {
      "inputs": [
        {
          "internalType": "uint256",
          "name": "",
          "type": "uint256"
        }
      ],
      "name": "debtors",
      "outputs": [
        {
          "internalType": "address",
          "name": "",
          "type": "address"
        }
      ],
      "stateMutability": "view",
      "type": "function",
      "constant": true
    },
    {
      "inputs": [
        {
          "internalType": "address",
          "name": "",
          "type": "address"
        }
      ],
      "name": "hourlyLimitAmounts",
      "outputs": [
        {
          "internalType": "uint256",
          "name": "",
          "type": "uint256"
        }
      ],
      "stateMutability": "view",
      "type": "function",
      "constant": true
    },
    {
      "inputs": [
        {
          "internalType": "address",
          "name": "",
          "type": "address"
        }
      ],
      "name": "hourlyLimitQueue",
      "outputs": [
        {
          "internalType": "uint32",
          "name": "",
          "type": "uint32"
        }
      ],
      "stateMutability": "view",
      "type": "function",
      "constant": true
    },
    {
      "inputs": [
        {
          "internalType": "address",
          "name": "",
          "type": "address"
        }
      ],
      "name": "isDebtor",
      "outputs": [
        {
          "internalType": "bool",
          "name": "",
          "type": "bool"
        }
      ],
      "stateMutability": "view",
      "type": "function",
      "constant": true
    },
    {
      "inputs": [
        {
          "internalType": "address",
          "name": "",
          "type": "address"
        }
      ],
      "name": "isLiquidityDepositor",
      "outputs": [
        {
          "internalType": "bool",
          "name": "",
          "type": "bool"
        }
      ],
      "stateMutability": "view",
      "type": "function",
      "constant": true
    },
    {
      "inputs": [
        {
          "internalType": "address",
          "name": "",
          "type": "address"
        }
      ],
      "name": "isLiquidityManager",
      "outputs": [
        {
          "internalType": "bool",
          "name": "",
          "type": "bool"
        }
      ],
      "stateMutability": "view",
      "type": "function",
      "constant": true
    },
    {
      "inputs": [
        {
          "internalType": "address",
          "name": "",
          "type": "address"
        }
      ],
      "name": "isLiquidityToken",
      "outputs": [
        {
          "internalType": "bool",
          "name": "",
          "type": "bool"
        }
      ],
      "stateMutability": "view",
      "type": "function",
      "constant": true
    },
    {
      "inputs": [
        {
          "internalType": "address",
          "name": "",
          "type": "address"
        }
      ],
      "name": "isReserveDepositor",
      "outputs": [
        {
          "internalType": "bool",
          "name": "",
          "type": "bool"
        }
      ],
      "stateMutability": "view",
      "type": "function",
      "constant": true
    },
    {
      "inputs": [
        {
          "internalType": "address",
          "name": "",
          "type": "address"
        }
      ],
      "name": "isReserveManager",
      "outputs": [
        {
          "internalType": "bool",
          "name": "",
          "type": "bool"
        }
      ],
      "stateMutability": "view",
      "type": "function",
      "constant": true
    },
    {
      "inputs": [
        {
          "internalType": "address",
          "name": "",
          "type": "address"
        }
      ],
      "name": "isReserveSpender",
      "outputs": [
        {
          "internalType": "bool",
          "name": "",
          "type": "bool"
        }
      ],
      "stateMutability": "view",
      "type": "function",
      "constant": true
    },
    {
      "inputs": [
        {
          "internalType": "address",
          "name": "",
          "type": "address"
        }
      ],
      "name": "isReserveToken",
      "outputs": [
        {
          "internalType": "bool",
          "name": "",
          "type": "bool"
        }
      ],
      "stateMutability": "view",
      "type": "function",
      "constant": true
    },
    {
      "inputs": [
        {
          "internalType": "address",
          "name": "",
          "type": "address"
        }
      ],
      "name": "isRewardManager",
      "outputs": [
        {
          "internalType": "bool",
          "name": "",
          "type": "bool"
        }
      ],
      "stateMutability": "view",
      "type": "function",
      "constant": true
    },
    {
      "inputs": [],
      "name": "limitAmount",
      "outputs": [
        {
          "internalType": "uint256",
          "name": "",
          "type": "uint256"
        }
      ],
      "stateMutability": "view",
      "type": "function",
      "constant": true
    },
    {
      "inputs": [
        {
          "internalType": "uint256",
          "name": "",
          "type": "uint256"
        }
      ],
      "name": "liquidityDepositors",
      "outputs": [
        {
          "internalType": "address",
          "name": "",
          "type": "address"
        }
      ],
      "stateMutability": "view",
      "type": "function",
      "constant": true
    },
    {
      "inputs": [
        {
          "internalType": "uint256",
          "name": "",
          "type": "uint256"
        }
      ],
      "name": "liquidityManagers",
      "outputs": [
        {
          "internalType": "address",
          "name": "",
          "type": "address"
        }
      ],
      "stateMutability": "view",
      "type": "function",
      "constant": true
    },
    {
      "inputs": [
        {
          "internalType": "uint256",
          "name": "",
          "type": "uint256"
        }
      ],
      "name": "liquidityTokens",
      "outputs": [
        {
          "internalType": "address",
          "name": "",
          "type": "address"
        }
      ],
      "stateMutability": "view",
      "type": "function",
      "constant": true
    },
    {
      "inputs": [],
      "name": "owner",
      "outputs": [
        {
          "internalType": "address",
          "name": "",
          "type": "address"
        }
      ],
      "stateMutability": "view",
      "type": "function",
      "constant": true
    },
    {
      "inputs": [],
      "name": "pendingOwner",
      "outputs": [
        {
          "internalType": "address",
          "name": "",
          "type": "address"
        }
      ],
      "stateMutability": "view",
      "type": "function",
      "constant": true
    },
    {
      "inputs": [
        {
          "internalType": "address",
          "name": "",
          "type": "address"
        }
      ],
      "name": "reserveDepositorQueue",
      "outputs": [
        {
          "internalType": "uint32",
          "name": "",
          "type": "uint32"
        }
      ],
      "stateMutability": "view",
      "type": "function",
      "constant": true
    },
    {
      "inputs": [
        {
          "internalType": "uint256",
          "name": "",
          "type": "uint256"
        }
      ],
      "name": "reserveDepositors",
      "outputs": [
        {
          "internalType": "address",
          "name": "",
          "type": "address"
        }
      ],
      "stateMutability": "view",
      "type": "function",
      "constant": true
    },
    {
      "inputs": [
        {
          "internalType": "uint256",
          "name": "",
          "type": "uint256"
        }
      ],
      "name": "reserveManagers",
      "outputs": [
        {
          "internalType": "address",
          "name": "",
          "type": "address"
        }
      ],
      "stateMutability": "view",
      "type": "function",
      "constant": true
    },
    {
      "inputs": [
        {
          "internalType": "address",
          "name": "",
          "type": "address"
        }
      ],
      "name": "reserveSpenderQueue",
      "outputs": [
        {
          "internalType": "uint32",
          "name": "",
          "type": "uint32"
        }
      ],
      "stateMutability": "view",
      "type": "function",
      "constant": true
    },
    {
      "inputs": [
        {
          "internalType": "uint256",
          "name": "",
          "type": "uint256"
        }
      ],
      "name": "reserveSpenders",
      "outputs": [
        {
          "internalType": "address",
          "name": "",
          "type": "address"
        }
      ],
      "stateMutability": "view",
      "type": "function",
      "constant": true
    },
    {
      "inputs": [
        {
          "internalType": "address",
          "name": "",
          "type": "address"
        }
      ],
      "name": "reserveTokenQueue",
      "outputs": [
        {
          "internalType": "uint32",
          "name": "",
          "type": "uint32"
        }
      ],
      "stateMutability": "view",
      "type": "function",
      "constant": true
    },
    {
      "inputs": [
        {
          "internalType": "uint256",
          "name": "",
          "type": "uint256"
        }
      ],
      "name": "reserveTokens",
      "outputs": [
        {
          "internalType": "address",
          "name": "",
          "type": "address"
        }
      ],
      "stateMutability": "view",
      "type": "function",
      "constant": true
    },
    {
      "inputs": [
        {
          "internalType": "address",
          "name": "",
          "type": "address"
        }
      ],
      "name": "rewardManagerQueue",
      "outputs": [
        {
          "internalType": "uint32",
          "name": "",
          "type": "uint32"
        }
      ],
      "stateMutability": "view",
      "type": "function",
      "constant": true
    },
    {
      "inputs": [
        {
          "internalType": "uint256",
          "name": "",
          "type": "uint256"
        }
      ],
      "name": "rewardManagers",
      "outputs": [
        {
          "internalType": "address",
          "name": "",
          "type": "address"
        }
      ],
      "stateMutability": "view",
      "type": "function",
      "constant": true
    },
    {
      "inputs": [],
      "name": "sOHMQueue",
      "outputs": [
        {
          "internalType": "uint256",
          "name": "",
          "type": "uint256"
        }
      ],
      "stateMutability": "view",
      "type": "function",
      "constant": true
    },
    {
      "inputs": [],
      "name": "secondsNeededForQueue",
      "outputs": [
        {
          "internalType": "uint32",
          "name": "",
          "type": "uint32"
        }
      ],
      "stateMutability": "view",
      "type": "function",
      "constant": true
    },
    {
      "inputs": [],
      "name": "totalDebt",
      "outputs": [
        {
          "internalType": "uint256",
          "name": "",
          "type": "uint256"
        }
      ],
      "stateMutability": "view",
      "type": "function",
      "constant": true
    },
    {
      "inputs": [],
      "name": "totalReserves",
      "outputs": [
        {
          "internalType": "uint256",
          "name": "",
          "type": "uint256"
        }
      ],
      "stateMutability": "view",
      "type": "function",
      "constant": true
    },
    {
      "inputs": [
        {
          "internalType": "address",
          "name": "newOwner",
          "type": "address"
        },
        {
          "internalType": "bool",
          "name": "direct",
          "type": "bool"
        },
        {
          "internalType": "bool",
          "name": "renounce",
          "type": "bool"
        }
      ],
      "name": "transferOwnership",
      "outputs": [],
      "stateMutability": "nonpayable",
      "type": "function"
    },
    {
      "inputs": [
        {
          "internalType": "uint256",
          "name": "amount",
          "type": "uint256"
        }
      ],
      "name": "setLimitAmount",
      "outputs": [],
      "stateMutability": "nonpayable",
      "type": "function"
    },
    {
      "inputs": [
        {
          "internalType": "uint256",
          "name": "_amount",
          "type": "uint256"
        },
        {
          "internalType": "address",
          "name": "_token",
          "type": "address"
        },
        {
          "internalType": "uint256",
          "name": "_profit",
          "type": "uint256"
        }
      ],
      "name": "deposit",
      "outputs": [
        {
          "internalType": "uint256",
          "name": "send_",
          "type": "uint256"
        }
      ],
      "stateMutability": "nonpayable",
      "type": "function"
    },
    {
      "inputs": [
        {
          "internalType": "uint256",
          "name": "_amount",
          "type": "uint256"
        },
        {
          "internalType": "address",
          "name": "_token",
          "type": "address"
        }
      ],
      "name": "withdraw",
      "outputs": [],
      "stateMutability": "nonpayable",
      "type": "function"
    },
    {
      "inputs": [
        {
          "internalType": "uint256",
          "name": "_amount",
          "type": "uint256"
        },
        {
          "internalType": "address",
          "name": "_token",
          "type": "address"
        }
      ],
      "name": "incurDebt",
      "outputs": [],
      "stateMutability": "nonpayable",
      "type": "function"
    },
    {
      "inputs": [
        {
          "internalType": "uint256",
          "name": "_amount",
          "type": "uint256"
        },
        {
          "internalType": "address",
          "name": "_token",
          "type": "address"
        }
      ],
      "name": "repayDebtWithReserve",
      "outputs": [],
      "stateMutability": "nonpayable",
      "type": "function"
    },
    {
      "inputs": [
        {
          "internalType": "uint256",
          "name": "_amount",
          "type": "uint256"
        }
      ],
      "name": "repayDebtWithTime",
      "outputs": [],
      "stateMutability": "nonpayable",
      "type": "function"
    },
    {
      "inputs": [
        {
          "internalType": "address",
          "name": "_token",
          "type": "address"
        },
        {
          "internalType": "uint256",
          "name": "_amount",
          "type": "uint256"
        }
      ],
      "name": "manage",
      "outputs": [],
      "stateMutability": "nonpayable",
      "type": "function"
    },
    {
      "inputs": [
        {
          "internalType": "address",
          "name": "_recipient",
          "type": "address"
        },
        {
          "internalType": "uint256",
          "name": "_amount",
          "type": "uint256"
        }
      ],
      "name": "mintRewards",
      "outputs": [],
      "stateMutability": "nonpayable",
      "type": "function"
    },
    {
      "inputs": [],
      "name": "excessReserves",
      "outputs": [
        {
          "internalType": "uint256",
          "name": "",
          "type": "uint256"
        }
      ],
      "stateMutability": "view",
      "type": "function",
      "constant": true
    },
    {
      "inputs": [],
      "name": "auditReserves",
      "outputs": [],
      "stateMutability": "nonpayable",
      "type": "function"
    },
    {
      "inputs": [
        {
          "internalType": "address",
          "name": "_token",
          "type": "address"
        },
        {
          "internalType": "uint256",
          "name": "_amount",
          "type": "uint256"
        }
      ],
      "name": "valueOf",
      "outputs": [
        {
          "internalType": "uint256",
          "name": "value_",
          "type": "uint256"
        }
      ],
      "stateMutability": "view",
      "type": "function",
      "constant": true
    },
    {
      "inputs": [
        {
          "internalType": "enum TimeTreasury.MANAGING",
          "name": "_managing",
          "type": "uint8"
        },
        {
          "internalType": "address",
          "name": "_address",
          "type": "address"
        }
      ],
      "name": "queue",
      "outputs": [
        {
          "internalType": "bool",
          "name": "",
          "type": "bool"
        }
      ],
      "stateMutability": "nonpayable",
      "type": "function"
    },
    {
      "inputs": [
        {
          "internalType": "enum TimeTreasury.MANAGING",
          "name": "_managing",
          "type": "uint8"
        },
        {
          "internalType": "address",
          "name": "_address",
          "type": "address"
        },
        {
          "internalType": "address",
          "name": "_calculator",
          "type": "address"
        }
      ],
      "name": "toggle",
      "outputs": [
        {
          "internalType": "bool",
          "name": "",
          "type": "bool"
        }
      ],
      "stateMutability": "nonpayable",
      "type": "function"
    }
  ],
  "bytecode": "0x60c060405234801561001057600080fd5b5060405162003a3338038062003a338339818101604052608081101561003557600080fd5b5080516020820151604080840151606090940151600080546001600160a01b0319163390811782559251949593949192917f8be0079c531659141344cd1fd0a4f28419497f9722a3daafe3b4186f6b6457e0908290a36001600160a01b03841661009e57600080fd5b6001600160601b0319606085901b166080526001600160a01b039283166000818152600360205260408120805460ff1916600190811790915560028054918201815582527f405787fa12a823e0f2b7631cc41b3ba8828b3321ca811111fa75cd3aa3bb5ace0180546001600160a01b0319169092179091556001600160e01b031960e084901b1660a052602191909155919092169163ffffffff169061388690620001ad9039806119b452806121d4528061225152806122ce528061234a52806123dc528061245952806124d5528061255752806125d45280612651525080610b365280610f77528061135052806118a35280611abe5280611b725280611e52528061271c52506138866000f3fe608060405234801561001057600080fd5b506004361061035c5760003560e01c80638da5cb5b116101d3578063d796ffb811610104578063f4f3683e116100a2578063fbfd393b1161007c578063fbfd393b146109f5578063fc7b9c1814610a2c578063fd1ec01014610a34578063fff9ee8714610a515761035c565b8063f4f3683e146109a1578063f8e157ea146109c7578063fb939588146109cf5761035c565b8063e30c3978116100de578063e30c39781461091e578063e83afee314610926578063ebd83cd814610955578063ee4e19a11461097b5761035c565b8063d796ffb8146108a6578063d9797ff4146108d2578063df89b344146108f85761035c565b8063ab319c9a11610171578063bc157ac11161014b578063bc157ac11461080b578063c24ad43e1461083d578063cd85641a14610863578063d031370b146108895761035c565b8063ab319c9a146107a2578063b1bd38b0146107c8578063b5b1d560146107ee5761035c565b80638f840ddd116101ad5780638f840ddd14610728578063932cc8c314610730578063a1210a2d14610756578063a569e5711461077c5761035c565b80638da5cb5b146106dd5780638f59c727146106e55780638f6a7b571461070b5761035c565b8063437f7912116102ad57806370a0502a1161024b5780637a8960d8116102255780637a8960d8146106755780637b6e50831461067d578063869871bf1461069a57806387d67dff146106b75761035c565b806370a0502a14610611578063788c6c011461062e57806378abafaf1461066d5761035c565b80634e83423c116102875780634e83423c1461057c57806368c31dd5146105a25780636a20de92146105c85780636b5e40a7146105f45761035c565b8063437f79121461054f57806349880e521461056c5780634e71e0c8146105745761035c565b8063124154ca1161031a5780631eec5a9a116102f45780631eec5a9a146104f65780631f107a45146105225780632789de371461053f5780632b7ce500146105475761035c565b8063124154ca1461046a57806312422d23146104a45780631af4da70146104d05761035c565b8062f714ce146103615780630619aff11461038f578063078dfbe7146103c8578063094a8651146103fe5780630b0eee30146104365780630c3513a814610462575b600080fd5b61038d6004803603604081101561037757600080fd5b50803590602001356001600160a01b0316610a77565b005b6103ac600480360360208110156103a557600080fd5b5035610c49565b604080516001600160a01b039092168252519081900360200190f35b61038d600480360360608110156103de57600080fd5b506001600160a01b03813516906020810135151590604001351515610c73565b6104246004803603602081101561041457600080fd5b50356001600160a01b0316610da9565b60408051918252519081900360200190f35b61038d6004803603604081101561044c57600080fd5b506001600160a01b038135169060200135610dbb565b610424610f6a565b6104906004803603602081101561048057600080fd5b50356001600160a01b031661100e565b604080519115158252519081900360200190f35b61038d600480360360408110156104ba57600080fd5b50803590602001356001600160a01b0316611023565b6103ac600480360360208110156104e657600080fd5b50356001600160a01b0316611285565b6104246004803603604081101561050c57600080fd5b506001600160a01b0381351690602001356112a0565b61038d6004803603602081101561053857600080fd5b5035611494565b61042461151c565b61038d611522565b6103ac6004803603602081101561056557600080fd5b50356116e5565b6103ac6116f5565b61038d611704565b6104906004803603602081101561059257600080fd5b50356001600160a01b03166117c6565b610490600480360360208110156105b857600080fd5b50356001600160a01b03166117db565b61038d600480360360408110156105de57600080fd5b506001600160a01b0381351690602001356117f0565b6103ac6004803603602081101561060a57600080fd5b5035611974565b6103ac6004803603602081101561062757600080fd5b5035611984565b6106546004803603602081101561064457600080fd5b50356001600160a01b0316611994565b6040805163ffffffff9092168252519081900360200190f35b6104246119ac565b6106546119b2565b61038d6004803603602081101561069357600080fd5b50356119d6565b6103ac600480360360208110156106b057600080fd5b5035611bc3565b610490600480360360208110156106cd57600080fd5b50356001600160a01b0316611bd3565b6103ac611be8565b610654600480360360208110156106fb57600080fd5b50356001600160a01b0316611bf7565b6103ac6004803603602081101561072157600080fd5b5035611c0f565b610424611c1f565b6106546004803603602081101561074657600080fd5b50356001600160a01b0316611c25565b6104906004803603602081101561076c57600080fd5b50356001600160a01b0316611c3d565b6104906004803603602081101561079257600080fd5b50356001600160a01b0316611c52565b610654600480360360208110156107b857600080fd5b50356001600160a01b0316611c67565b610654600480360360208110156107de57600080fd5b50356001600160a01b0316611c7f565b6103ac6004803603602081101561080457600080fd5b5035611c97565b6104246004803603606081101561082157600080fd5b508035906001600160a01b036020820135169060400135611ca7565b6106546004803603602081101561085357600080fd5b50356001600160a01b0316611f26565b6106546004803603602081101561087957600080fd5b50356001600160a01b0316611f3e565b6103ac6004803603602081101561089f57600080fd5b5035611f56565b61038d600480360360408110156108bc57600080fd5b50803590602001356001600160a01b0316611f66565b610654600480360360208110156108e857600080fd5b50356001600160a01b03166120e9565b6104906004803603602081101561090e57600080fd5b50356001600160a01b0316612100565b6103ac612115565b6104906004803603604081101561093c57600080fd5b50803560ff1690602001356001600160a01b0316612124565b6104906004803603602081101561096b57600080fd5b50356001600160a01b03166126de565b6104906004803603602081101561099157600080fd5b50356001600160a01b03166126f3565b610424600480360360208110156109b757600080fd5b50356001600160a01b0316612708565b6103ac61271a565b610654600480360360208110156109e557600080fd5b50356001600160a01b031661273e565b61049060048036036060811015610a0b57600080fd5b5060ff813516906001600160a01b0360208201358116916040013516612756565b6104246131b3565b6103ac60048036036020811015610a4a57600080fd5b50356131b9565b61065460048036036020811015610a6757600080fd5b50356001600160a01b03166131c9565b6001600160a01b03811660009081526003602052604090205460ff16610ad3576040805162461bcd60e51b815260206004820152600c60248201526b139bdd081858d8d95c1d195960a21b604482015290519081900360640190fd5b3360009081526009602052604090205460ff16610b26576040805162461bcd60e51b815260206004820152600c60248201526b139bdd08185c1c1c9bdd995960a21b604482015290519081900360640190fd5b6000610b3282846112a0565b90507f00000000000000000000000000000000000000000000000000000000000000006001600160a01b03166379cc679033836040518363ffffffff1660e01b815260040180836001600160a01b0316815260200182815260200192505050600060405180830381600087803b158015610bab57600080fd5b505af1158015610bbf573d6000803e3d6000fd5b5050602454610bd192509050826131e1565b602481905560405160008051602061380783398151915290600090a2610c016001600160a01b03831633856131f1565b604080518481526020810183905281516001600160a01b038516927fdf273cb619d95419a9cd0ec88123a0538c85064229baa6363788f743fff90deb928290030190a2505050565b60128181548110610c5957600080fd5b6000918252602090912001546001600160a01b0316905081565b6000546001600160a01b03163314610cc0576040805162461bcd60e51b815260206004820181905260248201526000805160206137c6833981519152604482015290519081900360640190fd5b8115610d88576001600160a01b038316151580610cda5750805b610d23576040805162461bcd60e51b81526020600482015260156024820152744f776e61626c653a207a65726f206164647265737360581b604482015290519081900360640190fd5b600080546040516001600160a01b03808716939216917f8be0079c531659141344cd1fd0a4f28419497f9722a3daafe3b4186f6b6457e091a3600080546001600160a01b0385166001600160a01b031991821617909155600180549091169055610da4565b600180546001600160a01b0319166001600160a01b0385161790555b505050565b601b6020526000908152604090205481565b6000610dc783836112a0565b6001600160a01b0384166000908152600c602052604090205490915060ff1615610e57573360009081526016602052604090205460ff16610e3e576040805162461bcd60e51b815260206004820152600c60248201526b139bdd08185c1c1c9bdd995960a21b604482015290519081900360640190fd5b610e46610f6a565b811115610e5257600080fd5b610edf565b6001600160a01b03831660009081526003602052604090205460ff1615610e8c57610e80610f6a565b811115610e8c57600080fd5b3360009081526013602052604090205460ff16610edf576040805162461bcd60e51b815260206004820152600c60248201526b139bdd08185c1c1c9bdd995960a21b604482015290519081900360640190fd5b610ee93382613243565b602454610ef690826131e1565b602481905560405160008051602061380783398151915290600090a2610f266001600160a01b03841633846131f1565b6040805183815290516001600160a01b038516917f2bb2640731848fe9820ba48dbc978c1fc9bbd5f11b948bfab05b7dee3378fd80919081900360200190a2505050565b60006110096110006025547f00000000000000000000000000000000000000000000000000000000000000006001600160a01b03166318160ddd6040518163ffffffff1660e01b815260040160206040518083038186803b158015610fce57600080fd5b505afa158015610fe2573d6000803e3d6000fd5b505050506040513d6020811015610ff857600080fd5b5051906131e1565b602454906131e1565b905090565b60066020526000908152604090205460ff1681565b3360009081526019602052604090205460ff16611076576040805162461bcd60e51b815260206004820152600c60248201526b139bdd08185c1c1c9bdd995960a21b604482015290519081900360640190fd5b6001600160a01b03811660009081526003602052604090205460ff166110d2576040805162461bcd60e51b815260206004820152600c60248201526b139bdd081858d8d95c1d195960a21b604482015290519081900360640190fd5b60006110de82846112a0565b602254604080516370a0823160e01b815233600482015290519293506000926001600160a01b03909216916370a0823191602480820192602092909190829003018186803b15801561112f57600080fd5b505afa158015611143573d6000803e3d6000fd5b505050506040513d602081101561115957600080fd5b5051336000908152601b602052604081205491925061117883836131e1565b9050808411156111c4576040805162461bcd60e51b8152602060048201526012602482015271115e18d959591cc81919589d081b1a5b5a5d60721b604482015290519081900360640190fd5b6111ce3385613243565b6111d882856132f5565b336000908152601b60205260409020556025546111f590856132f5565b60255560245461120590856131e1565b602481905560405160008051602061380783398151915290600090a26112356001600160a01b03861633886131f1565b604080518781526020810186905281516001600160a01b0388169233927f7e1a939bed137a819b5d2979822c67f877689f7a863d5e4cb57cdca97b2977d6929081900390910190a3505050505050565b6011602052600090815260409020546001600160a01b031681565b6001600160a01b03821660009081526003602052604081205460ff16156113dd576113d6836001600160a01b031663313ce5676040518163ffffffff1660e01b815260040160206040518083038186803b1580156112fd57600080fd5b505afa158015611311573d6000803e3d6000fd5b505050506040513d602081101561132757600080fd5b50516040805163313ce56760e01b8152905160ff909216600a0a916113d0916001600160a01b037f0000000000000000000000000000000000000000000000000000000000000000169163313ce56791600480820192602092909190829003018186803b15801561139757600080fd5b505afa1580156113ab573d6000803e3d6000fd5b505050506040513d60208110156113c157600080fd5b5051859060ff16600a0a613305565b90613329565b905061148e565b6001600160a01b0383166000908152600c602052604090205460ff161561148e576001600160a01b03808416600081815260116020908152604091829020548251634249719f60e01b815260048101949094526024840187905291519190931692634249719f9260448082019391829003018186803b15801561145f57600080fd5b505afa158015611473573d6000803e3d6000fd5b505050506040513d602081101561148957600080fd5b505190505b92915050565b6000546001600160a01b031633146114e1576040805162461bcd60e51b815260206004820181905260248201526000805160206137c6833981519152604482015290519081900360640190fd5b60218190556040805182815290517f6b68f8105c24aac095a14cbf35ee50bd16d6e3decd7838a52e517d7928a322669181900360200190a150565b60235481565b6000546001600160a01b0316331461156f576040805162461bcd60e51b815260206004820181905260248201526000805160206137c6833981519152604482015290519081900360640190fd5b6000805b6002548110156116475761163d6116366002838154811061159057fe5b600091825260209091200154600280546001600160a01b0390921691859081106115b657fe5b60009182526020918290200154604080516370a0823160e01b815230600482015290516001600160a01b03909216926370a0823192602480840193829003018186803b15801561160557600080fd5b505afa158015611619573d6000803e3d6000fd5b505050506040513d602081101561162f57600080fd5b50516112a0565b83906132f5565b9150600101611573565b5060005b600b548110156116985761168e611636600b838154811061166857fe5b600091825260209091200154600b80546001600160a01b0390921691859081106115b657fe5b915060010161164b565b506024819055604051819060008051602061380783398151915290600090a260405181907fec691f09f6924b27932253f85caf99bacc30360cc0e50a1cc4d2acc24601446690600090a250565b60088181548110610c5957600080fd5b6022546001600160a01b031681565b6001546001600160a01b0316338114611764576040805162461bcd60e51b815260206004820181905260248201527f4f776e61626c653a2063616c6c657220213d2070656e64696e67206f776e6572604482015290519081900360640190fd5b600080546040516001600160a01b03808516939216917f8be0079c531659141344cd1fd0a4f28419497f9722a3daafe3b4186f6b6457e091a3600080546001600160a01b039092166001600160a01b0319928316179055600180549091169055565b601d6020526000908152604090205460ff1681565b60036020526000908152604090205460ff1681565b336000908152601d602052604090205460ff16611843576040805162461bcd60e51b815260206004820152600c60248201526b139bdd08185c1c1c9bdd995960a21b604482015290519081900360640190fd5b61184b610f6a565b811115611897576040805162461bcd60e51b8152602060048201526015602482015274496e73756666696369656e7420726573657276657360581b604482015290519081900360640190fd5b6118a13382613243565b7f00000000000000000000000000000000000000000000000000000000000000006001600160a01b03166340c10f1983836040518363ffffffff1660e01b815260040180836001600160a01b0316815260200182815260200192505050600060405180830381600087803b15801561191857600080fd5b505af115801561192c573d6000803e3d6000fd5b50506040805184815290516001600160a01b03861693503392507ffa8ccab40e7da8146c2304cd0950334fd30a6ba093abe86261aa13911fed849c9181900360200190a35050565b60058181548110610c5957600080fd5b60158181548110610c5957600080fd5b60046020526000908152604090205463ffffffff1681565b60215481565b7f000000000000000000000000000000000000000000000000000000000000000081565b3360009081526019602052604090205460ff16611a33576040805162461bcd60e51b81526020600482015260166024820152752737ba1030b8383937bb32b21030b9903232b13a37b960511b604482015290519081900360640190fd5b3360009081526009602052604090205460ff16611a97576040805162461bcd60e51b815260206004820152601760248201527f4e6f7420617070726f766564206173207370656e646572000000000000000000604482015290519081900360640190fd5b6040805163079cc67960e41b81523360048201526024810183905290516001600160a01b037f000000000000000000000000000000000000000000000000000000000000000016916379cc679091604480830192600092919082900301818387803b158015611b0557600080fd5b505af1158015611b19573d6000803e3d6000fd5b5050336000908152601b6020526040902054611b3892509050826131e1565b336000908152601b6020526040902055602554611b5590826131e1565b602555604080518281526020810183905281516001600160a01b037f0000000000000000000000000000000000000000000000000000000000000000169233927fc6d98eecfc9c78ab62c89a82950079b54874749f1f6f24090f7acc758bc2f309929081900390910190a350565b60188181548110610c5957600080fd5b60096020526000908152604090205460ff1681565b6000546001600160a01b031681565b600d6020526000908152604090205463ffffffff1681565b600e8181548110610c5957600080fd5b60245481565b60076020526000908152604090205463ffffffff1681565b600f6020526000908152604090205460ff1681565b600c6020526000908152604090205460ff1681565b60176020526000908152604090205463ffffffff1681565b60146020526000908152604090205463ffffffff1681565b601c8181548110610c5957600080fd5b6001600160a01b03821660009081526003602052604081205460ff1680611ce657506001600160a01b0383166000908152600c602052604090205460ff165b611d26576040805162461bcd60e51b815260206004820152600c60248201526b139bdd081858d8d95c1d195960a21b604482015290519081900360640190fd5b611d3b6001600160a01b038416333087613348565b6001600160a01b03831660009081526003602052604090205460ff1615611db4573360009081526006602052604090205460ff16611daf576040805162461bcd60e51b815260206004820152600c60248201526b139bdd08185c1c1c9bdd995960a21b604482015290519081900360640190fd5b611e07565b336000908152600f602052604090205460ff16611e07576040805162461bcd60e51b815260206004820152600c60248201526b139bdd08185c1c1c9bdd995960a21b604482015290519081900360640190fd5b6000611e1384866112a0565b9050611e1f81846131e1565b9150611e2b3383613243565b604080516340c10f1960e01b81523360048201526024810184905290516001600160a01b037f000000000000000000000000000000000000000000000000000000000000000016916340c10f1991604480830192600092919082900301818387803b158015611e9957600080fd5b505af1158015611ead573d6000803e3d6000fd5b5050602454611ebf92509050826132f5565b602481905560405160008051602061380783398151915290600090a2604080518681526020810183905281516001600160a01b038716927f90890809c654f11d6e72a28fa60149770a0d11ec6c92319d6ceb2bb0a4ea1a15928290030190a2509392505050565b600a6020526000908152604090205463ffffffff1681565b601a6020526000908152604090205463ffffffff1681565b60028181548110610c5957600080fd5b3360009081526019602052604090205460ff16611fb9576040805162461bcd60e51b815260206004820152600c60248201526b139bdd08185c1c1c9bdd995960a21b604482015290519081900360640190fd5b6001600160a01b03811660009081526003602052604090205460ff16612015576040805162461bcd60e51b815260206004820152600c60248201526b139bdd081858d8d95c1d195960a21b604482015290519081900360640190fd5b61202a6001600160a01b038216333085613348565b600061203682846112a0565b336000908152601b602052604090205490915061205390826131e1565b336000908152601b602052604090205560255461207090826131e1565b60255560245461208090826132f5565b602481905560405160008051602061380783398151915290600090a2604080518481526020810183905281516001600160a01b0385169233927fc6d98eecfc9c78ab62c89a82950079b54874749f1f6f24090f7acc758bc2f309929081900390910190a3505050565b602080526000908152604090205463ffffffff1681565b60166020526000908152604090205460ff1681565b6001546001600160a01b031681565b600080546001600160a01b03163314612172576040805162461bcd60e51b815260206004820181905260248201526000805160206137c6833981519152604482015290519081900360640190fd5b6001600160a01b0382166121b2576040805162461bcd60e51b8152602060048201526002602482015261494160f01b604482015290519081900360640190fd5b60008360098111156121c057fe5b141561222f576121fa63ffffffff428116907f0000000000000000000000000000000000000000000000000000000000000000906133a816565b6001600160a01b0383166000908152600760205260409020805463ffffffff191663ffffffff9290921691909117905561268d565b600183600981111561223d57fe5b14156122ac5761227763ffffffff428116907f0000000000000000000000000000000000000000000000000000000000000000906133a816565b6001600160a01b0383166000908152600a60205260409020805463ffffffff191663ffffffff9290921691909117905561268d565b60028360098111156122ba57fe5b1415612329576122f463ffffffff428116907f0000000000000000000000000000000000000000000000000000000000000000906133a816565b6001600160a01b0383166000908152600460205260409020805463ffffffff191663ffffffff9290921691909117905561268d565b600383600981111561233757fe5b14156123ba5761238561237563ffffffff7f00000000000000000000000000000000000000000000000000000000000000008116906002906133c116565b63ffffffff42811691906133a816565b6001600160a01b0383166000908152601460205260409020805463ffffffff191663ffffffff9290921691909117905561268d565b60048360098111156123c857fe5b14156124375761240263ffffffff428116907f0000000000000000000000000000000000000000000000000000000000000000906133a816565b6001600160a01b0383166000908152601060205260409020805463ffffffff191663ffffffff9290921691909117905561268d565b600583600981111561244557fe5b14156124b45761247f63ffffffff428116907f0000000000000000000000000000000000000000000000000000000000000000906133a816565b6001600160a01b0383166000908152600d60205260409020805463ffffffff191663ffffffff9290921691909117905561268d565b60068360098111156124c257fe5b14156125355761250061237563ffffffff7f00000000000000000000000000000000000000000000000000000000000000008116906002906133c116565b6001600160a01b0383166000908152601760205260409020805463ffffffff191663ffffffff9290921691909117905561268d565b600783600981111561254357fe5b14156125b25761257d63ffffffff428116907f0000000000000000000000000000000000000000000000000000000000000000906133a816565b6001600160a01b0383166000908152601a60205260409020805463ffffffff191663ffffffff9290921691909117905561268d565b60088360098111156125c057fe5b141561262f576125fa63ffffffff428116907f0000000000000000000000000000000000000000000000000000000000000000906133a816565b6001600160a01b0383166000908152601e60205260409020805463ffffffff191663ffffffff9290921691909117905561268d565b600983600981111561263d57fe5b14156126855761267763ffffffff428116907f0000000000000000000000000000000000000000000000000000000000000000906133a816565b63ffffffff1660235561268d565b50600061148e565b82600981111561269957fe5b604080516001600160a01b038516815290517f0e4f2c4b5bc209d509bc3d49348c787fefadc66a79351b470599ac0f5be52eaf9181900360200190a250600192915050565b60136020526000908152604090205460ff1681565b60196020526000908152604090205460ff1681565b601f6020526000908152604090205481565b7f000000000000000000000000000000000000000000000000000000000000000081565b601e6020526000908152604090205463ffffffff1681565b600080546001600160a01b031633146127a4576040805162461bcd60e51b815260206004820181905260248201526000805160206137c6833981519152604482015290519081900360640190fd5b6001600160a01b0383166127e4576040805162461bcd60e51b8152602060048201526002602482015261494160f01b604482015290519081900360640190fd5b6000808560098111156127f357fe5b14156128b9576128066007600686613403565b15612889576001600160a01b0384166000908152600760205260409020805463ffffffff191690556128396005856134fc565b61288957600580546001810182556000919091527f036b6384b5eca791c62761152d0c79bb0604c104a5fb6f4eb0703f3154bb3db00180546001600160a01b0319166001600160a01b0386161790555b506001600160a01b0383166000908152600660205260409020805460ff81161560ff199091168117909155613155565b60018560098111156128c757fe5b141561298d576128da600a600986613403565b1561295d576001600160a01b0384166000908152600a60205260409020805463ffffffff1916905561290d6008856134fc565b61295d57600880546001810182556000919091527ff3f7a9fe364faab93b216da50a3214154f22a0a2b415b23a84c8169e8b636ee30180546001600160a01b0319166001600160a01b0386161790555b506001600160a01b0383166000908152600960205260409020805460ff81161560ff199091168117909155613155565b600285600981111561299b57fe5b1415612aef576129ae6004600386613403565b15612a47576001600160a01b0384166000908152600460205260409020805463ffffffff191690556129e16002856134fc565b1580156129f657506129f4600b856134fc565b155b15612a4757600280546001810182556000919091527f405787fa12a823e0f2b7631cc41b3ba8828b3321ca811111fa75cd3aa3bb5ace0180546001600160a01b0319166001600160a01b0386161790555b506001600160a01b03831660009081526003602052604090205460ff1615801580612a8b57506001600160a01b0384166000908152600c602052604090205460ff16155b612ac65760405162461bcd60e51b81526004018080602001828103825260218152602001806137e66021913960400191505060405180910390fd5b6001600160a01b0384166000908152600360205260409020805460ff1916821515179055613155565b6003856009811115612afd57fe5b1415612c0057612b106014601386613403565b15612bd057601280546001810182557fbb8a6a4669ba250d26cd7a459eca9d215f8307e33aebe50379bc5a3617ec34440180546001600160a01b0319166001600160a01b0387169081179091556000908152601460205260409020805463ffffffff19169055612b8090856134fc565b612bd057601280546001810182556000919091527fbb8a6a4669ba250d26cd7a459eca9d215f8307e33aebe50379bc5a3617ec34440180546001600160a01b0319166001600160a01b0386161790555b506001600160a01b0383166000908152601360205260409020805460ff81161560ff199091168117909155613155565b6004856009811115612c0e57fe5b1415612d1157612c216010600f86613403565b15612ce157600e80546001810182557fbb7b4a454dc3493923482f07822329ed19e8244eff582cc204f8554c3620c3fd0180546001600160a01b0319166001600160a01b0387169081179091556000908152601060205260409020805463ffffffff19169055612c9190856134fc565b612ce157600e80546001810182556000919091527fbb7b4a454dc3493923482f07822329ed19e8244eff582cc204f8554c3620c3fd0180546001600160a01b0319166001600160a01b0386161790555b506001600160a01b0383166000908152600f60205260409020805460ff81161560ff199091168117909155613155565b6005856009811115612d1f57fe5b1415612e9357612d32600d600c86613403565b15612dcb576001600160a01b0384166000908152600d60205260409020805463ffffffff19169055612d65600b856134fc565b158015612d7a5750612d786002856134fc565b155b15612dcb57600b80546001810182556000919091527f0175b7a638427703f0dbe7bb9bbf987a2551717b34e79f33b5b1008d1fa01db90180546001600160a01b0319166001600160a01b0386161790555b506001600160a01b0383166000908152600c602052604090205460ff1615801580612e0f57506001600160a01b03841660009081526003602052604090205460ff16155b612e4a5760405162461bcd60e51b81526004018080602001828103825260218152602001806137e66021913960400191505060405180910390fd5b6001600160a01b038481166000908152600c60209081526040808320805460ff19168615151790556011909152902080546001600160a01b031916918516919091179055613155565b6006856009811115612ea157fe5b1415612f6757612eb46017601686613403565b15612f37576001600160a01b0384166000908152601760205260409020805463ffffffff19169055612ee76015856134fc565b612f3757601580546001810182556000919091527f55f448fdea98c4d29eb340757ef0a66cd03dbb9538908a6a81d96026b71ec4750180546001600160a01b0319166001600160a01b0386161790555b506001600160a01b0383166000908152601660205260409020805460ff81161560ff199091168117909155613155565b6007856009811115612f7557fe5b141561303b57612f88601a601986613403565b1561300b576001600160a01b0384166000908152601a60205260409020805463ffffffff19169055612fbb6018856134fc565b61300b57601880546001810182556000919091527fb13d2d76d1f4b7be834882e410b3e3a8afaf69f83600ae24db354391d2378d2e0180546001600160a01b0319166001600160a01b0386161790555b506001600160a01b0383166000908152601960205260409020805460ff81161560ff199091168117909155613155565b600885600981111561304957fe5b141561310f5761305c601e601d86613403565b156130df576001600160a01b0384166000908152601e60205260409020805463ffffffff1916905561308f601c856134fc565b6130df57601c80546001810182556000919091527f0e4562a10381dec21b205ed72637e6b1b523bdd0e4d4d50af5cd23dd4500a2110180546001600160a01b0319166001600160a01b0386161790555b506001600160a01b0383166000908152601d60205260409020805460ff81161560ff199091168117909155613155565b600985600981111561311d57fe5b141561314b57506000602355602280546001600160a01b0319166001600160a01b0385161790556001613155565b60009150506131ac565b84600981111561316157fe5b604080516001600160a01b0387168152831515602082015281517f0dcacb7e392f3d6a216ed2660e3dcfd40b7793d33591db2ba185a6b8e44fc477929181900390910190a260019150505b9392505050565b60255481565b600b8181548110610c5957600080fd5b60106020526000908152604090205463ffffffff1681565b8082038281111561148e57600080fd5b604080516001600160a01b038416602482015260448082018490528251808303909101815260649091019091526020810180516001600160e01b031663a9059cbb60e01b179052610da490849061354c565b6001600160a01b0382166000908152602080526040902054610e109061327490429063ffffffff908116906131e116565b106132b2576021546001600160a01b0383166000908152601f6020908152604080832093909355805220805463ffffffff19164263ffffffff161790555b6001600160a01b0382166000908152601f60205260409020546132d590826131e1565b6001600160a01b039092166000908152601f602052604090209190915550565b8082018281101561148e57600080fd5b60008215806133205750508181028183828161331d57fe5b04145b61148e57600080fd5b600080821161333757600080fd5b81838161334057fe5b049392505050565b604080516001600160a01b0380861660248301528416604482015260648082018490528251808303909101815260849091019091526020810180516001600160e01b03166323b872dd60e01b1790526133a290859061354c565b50505050565b80820163ffffffff808416908216101561148e57600080fd5b600063ffffffff8316158061332057508163ffffffff168363ffffffff1683850292508263ffffffff16816133f257fe5b0463ffffffff161461148e57600080fd5b6001600160a01b03811660009081526020839052604081205460ff166134f2576001600160a01b03821660009081526020859052604090205463ffffffff16613480576040805162461bcd60e51b815260206004820152600a6024820152694d75737420717565756560b01b604482015290519081900360640190fd5b6001600160a01b03821660009081526020859052604090205463ffffffff428116911611156134ea576040805162461bcd60e51b8152602060048201526011602482015270145d595d59481b9bdd08195e1c1a5c9959607a1b604482015290519081900360640190fd5b5060016131ac565b5060009392505050565b6000805b83548110156134f257826001600160a01b031684828154811061351f57fe5b6000918252602090912001546001600160a01b0316141561354457600191505061148e565b600101613500565b60606135a1826040518060400160405280602081526020017f5361666545524332303a206c6f772d6c6576656c2063616c6c206661696c6564815250856001600160a01b03166135fd9092919063ffffffff16565b805190915015610da4578080602001905160208110156135c057600080fd5b5051610da45760405162461bcd60e51b815260040180806020018281038252602a815260200180613827602a913960400191505060405180910390fd5b606061360c8484600085613614565b949350505050565b606061361f856137bf565b613670576040805162461bcd60e51b815260206004820152601d60248201527f416464726573733a2063616c6c20746f206e6f6e2d636f6e7472616374000000604482015290519081900360640190fd5b60006060866001600160a01b031685876040518082805190602001908083835b602083106136af5780518252601f199092019160209182019101613690565b6001836020036101000a03801982511681845116808217855250505050505090500191505060006040518083038185875af1925050503d8060008114613711576040519150601f19603f3d011682016040523d82523d6000602084013e613716565b606091505b5091509150811561372a57915061360c9050565b80511561373a5780518082602001fd5b8360405162461bcd60e51b81526004018080602001828103825283818151815260200191508051906020019080838360005b8381101561378457818101518382015260200161376c565b50505050905090810190601f1680156137b15780820380516001836020036101000a031916815260200191505b509250505060405180910390fd5b3b15159056fe4f776e61626c653a2063616c6c6572206973206e6f7420746865206f776e6572446f206e6f742061646420746f20626f7468207479706573206f6620746f6b656e93bb8edd35984706eee1b92541281f7f62d33c01c5b2ec0929a113603bd21d665361666545524332303a204552433230206f7065726174696f6e20646964206e6f742073756363656564a2646970667358221220608e19142daf2409c9ef69ff98154972e94f1d50caf50ff334c5f1734fa53ed864736f6c63430007050033",
  "immutableReferences": {
    "751": [
      {
        "length": 32,
        "start": 2870
      },
      {
        "length": 32,
        "start": 3959
      },
      {
        "length": 32,
        "start": 4944
      },
      {
        "length": 32,
        "start": 6307
      },
      {
        "length": 32,
        "start": 6846
      },
      {
        "length": 32,
        "start": 7026
      },
      {
        "length": 32,
        "start": 7762
      },
      {
        "length": 32,
        "start": 10012
      }
    ],
    "753": [
      {
        "length": 32,
        "start": 6580
      },
      {
        "length": 32,
        "start": 8660
      },
      {
        "length": 32,
        "start": 8785
      },
      {
        "length": 32,
        "start": 8910
      },
      {
        "length": 32,
        "start": 9034
      },
      {
        "length": 32,
        "start": 9180
      },
      {
        "length": 32,
        "start": 9305
      },
      {
        "length": 32,
        "start": 9429
      },
      {
        "length": 32,
        "start": 9559
      },
      {
        "length": 32,
        "start": 9684
      },
      {
        "length": 32,
        "start": 9809
      }
    ]
  },
  "source": "// SPDX-License-Identifier: AGPL-3.0-or-later\r\npragma solidity 0.7.5;\r\n\r\nlibrary LowGasSafeMath {\r\n    /// @notice Returns x + y, reverts if sum overflows uint256\r\n    /// @param x The augend\r\n    /// @param y The addend\r\n    /// @return z The sum of x and y\r\n    function add(uint256 x, uint256 y) internal pure returns (uint256 z) {\r\n        require((z = x + y) >= x);\r\n    }\r\n\r\n    function add32(uint32 x, uint32 y) internal pure returns (uint32 z) {\r\n        require((z = x + y) >= x);\r\n    }\r\n\r\n    /// @notice Returns x - y, reverts if underflows\r\n    /// @param x The minuend\r\n    /// @param y The subtrahend\r\n    /// @return z The difference of x and y\r\n    function sub(uint256 x, uint256 y) internal pure returns (uint256 z) {\r\n        require((z = x - y) <= x);\r\n    }\r\n\r\n    function sub32(uint32 x, uint32 y) internal pure returns (uint32 z) {\r\n        require((z = x - y) <= x);\r\n    }\r\n\r\n    /// @notice Returns x * y, reverts if overflows\r\n    /// @param x The multiplicand\r\n    /// @param y The multiplier\r\n    /// @return z The product of x and y\r\n    function mul(uint256 x, uint256 y) internal pure returns (uint256 z) {\r\n        require(x == 0 || (z = x * y) / x == y);\r\n    }\r\n\r\n    function mul32(uint32 x, uint32 y) internal pure returns (uint32 z) {\r\n        require(x == 0 || (z = x * y) / x == y);\r\n    }\r\n\r\n    /// @notice Returns x + y, reverts if overflows or underflows\r\n    /// @param x The augend\r\n    /// @param y The addend\r\n    /// @return z The sum of x and y\r\n    function add(int256 x, int256 y) internal pure returns (int256 z) {\r\n        require((z = x + y) >= x == (y >= 0));\r\n    }\r\n\r\n    /// @notice Returns x - y, reverts if overflows or underflows\r\n    /// @param x The minuend\r\n    /// @param y The subtrahend\r\n    /// @return z The difference of x and y\r\n    function sub(int256 x, int256 y) internal pure returns (int256 z) {\r\n        require((z = x - y) <= x == (y >= 0));\r\n    }\r\n\r\n    function div(uint256 x, uint256 y) internal pure returns(uint256 z){\r\n        require(y > 0);\r\n        z=x/y;\r\n    }\r\n}\r\n\r\nlibrary Address {\r\n\r\n  function isContract(address account) internal view returns (bool) {\r\n        // This method relies in extcodesize, which returns 0 for contracts in\r\n        // construction, since the code is only stored at the end of the\r\n        // constructor execution.\r\n\r\n        uint256 size;\r\n        // solhint-disable-next-line no-inline-assembly\r\n        assembly { size := extcodesize(account) }\r\n        return size > 0;\r\n    }\r\n\r\n    function functionCall(\r\n        address target, \r\n        bytes memory data, \r\n        string memory errorMessage\r\n    ) internal returns (bytes memory) {\r\n        return _functionCallWithValue(target, data, 0, errorMessage);\r\n    }\r\n\r\n    function _functionCallWithValue(\r\n        address target, \r\n        bytes memory data, \r\n        uint256 weiValue, \r\n        string memory errorMessage\r\n    ) private returns (bytes memory) {\r\n        require(isContract(target), \"Address: call to non-contract\");\r\n\r\n        // solhint-disable-next-line avoid-low-level-calls\r\n        (bool success, bytes memory returndata) = target.call{ value: weiValue }(data);\r\n        if (success) {\r\n            return returndata;\r\n        } else {\r\n            if (returndata.length > 0) {\r\n                // solhint-disable-next-line no-inline-assembly\r\n                assembly {\r\n                    let returndata_size := mload(returndata)\r\n                    revert(add(32, returndata), returndata_size)\r\n                }\r\n            } else {\r\n                revert(errorMessage);\r\n            }\r\n        }\r\n    }\r\n\r\n    function _verifyCallResult(\r\n        bool success, \r\n        bytes memory returndata, \r\n        string memory errorMessage\r\n    ) private pure returns(bytes memory) {\r\n        if (success) {\r\n            return returndata;\r\n        } else {\r\n            if (returndata.length > 0) {\r\n                // solhint-disable-next-line no-inline-assembly\r\n                assembly {\r\n                    let returndata_size := mload(returndata)\r\n                    revert(add(32, returndata), returndata_size)\r\n                }\r\n            } else {\r\n                revert(errorMessage);\r\n            }\r\n        }\r\n    }\r\n}\r\n\r\ncontract OwnableData {\r\n    address public owner;\r\n    address public pendingOwner;\r\n}\r\n\r\ncontract Ownable is OwnableData {\r\n    event OwnershipTransferred(address indexed previousOwner, address indexed newOwner);\r\n\r\n    /// @notice `owner` defaults to msg.sender on construction.\r\n    constructor() {\r\n        owner = msg.sender;\r\n        emit OwnershipTransferred(address(0), msg.sender);\r\n    }\r\n\r\n    /// @notice Transfers ownership to `newOwner`. Either directly or claimable by the new pending owner.\r\n    /// Can only be invoked by the current `owner`.\r\n    /// @param newOwner Address of the new owner.\r\n    /// @param direct True if `newOwner` should be set immediately. False if `newOwner` needs to use `claimOwnership`.\r\n    /// @param renounce Allows the `newOwner` to be `address(0)` if `direct` and `renounce` is True. Has no effect otherwise.\r\n    function transferOwnership(\r\n        address newOwner,\r\n        bool direct,\r\n        bool renounce\r\n    ) public onlyOwner {\r\n        if (direct) {\r\n            // Checks\r\n            require(newOwner != address(0) || renounce, \"Ownable: zero address\");\r\n\r\n            // Effects\r\n            emit OwnershipTransferred(owner, newOwner);\r\n            owner = newOwner;\r\n            pendingOwner = address(0);\r\n        } else {\r\n            // Effects\r\n            pendingOwner = newOwner;\r\n        }\r\n    }\r\n\r\n    /// @notice Needs to be called by `pendingOwner` to claim ownership.\r\n    function claimOwnership() public {\r\n        address _pendingOwner = pendingOwner;\r\n\r\n        // Checks\r\n        require(msg.sender == _pendingOwner, \"Ownable: caller != pending owner\");\r\n\r\n        // Effects\r\n        emit OwnershipTransferred(owner, _pendingOwner);\r\n        owner = _pendingOwner;\r\n        pendingOwner = address(0);\r\n    }\r\n\r\n    /// @notice Only allows the `owner` to execute the function.\r\n    modifier onlyOwner() {\r\n        require(msg.sender == owner, \"Ownable: caller is not the owner\");\r\n        _;\r\n    }\r\n}\r\n\r\ninterface IERC20 {\r\n    function decimals() external view returns (uint8);\r\n\r\n    function balanceOf(address account) external view returns (uint256);\r\n\r\n    function transfer(address recipient, uint256 amount) external returns (bool);\r\n\r\n    function approve(address spender, uint256 amount) external returns (bool);\r\n\r\n    function totalSupply() external view returns (uint256);\r\n\r\n    function transferFrom(address sender, address recipient, uint256 amount) external returns (bool);\r\n\r\n    event Transfer(address indexed from, address indexed to, uint256 value);\r\n\r\n    event Approval(address indexed owner, address indexed spender, uint256 value);\r\n}\r\n\r\nlibrary SafeERC20 {\r\n    using LowGasSafeMath for uint256;\r\n    using Address for address;\r\n\r\n    function safeTransfer(IERC20 token, address to, uint256 value) internal {\r\n        _callOptionalReturn(token, abi.encodeWithSelector(token.transfer.selector, to, value));\r\n    }\r\n\r\n    function safeTransferFrom(IERC20 token, address from, address to, uint256 value) internal {\r\n        _callOptionalReturn(token, abi.encodeWithSelector(token.transferFrom.selector, from, to, value));\r\n    }\r\n\r\n    function _callOptionalReturn(IERC20 token, bytes memory data) private {\r\n        bytes memory returndata = address(token).functionCall(data, \"SafeERC20: low-level call failed\");\r\n        if (returndata.length > 0) { // Return data is optional\r\n            // solhint-disable-next-line max-line-length\r\n            require(abi.decode(returndata, (bool)), \"SafeERC20: ERC20 operation did not succeed\");\r\n        }\r\n    }\r\n}\r\n\r\ninterface IERC20Mintable {\r\n  function mint( uint256 amount_ ) external;\r\n\r\n  function mint( address account_, uint256 ammount_ ) external;\r\n}\r\n\r\ninterface ITIMEERC20 is IERC20Mintable, IERC20 {\r\n    function burnFrom(address account_, uint256 amount_) external;\r\n}\r\n\r\ninterface IBondCalculator {\r\n  function valuation( address pair_, uint amount_ ) external view returns ( uint _value );\r\n}\r\n\r\ncontract TimeTreasury is Ownable {\r\n\r\n    using LowGasSafeMath for uint;\r\n    using LowGasSafeMath for uint32;\r\n    using SafeERC20 for IERC20;\r\n\r\n    event Deposit( address indexed token, uint amount, uint value );\r\n    event Withdrawal( address indexed token, uint amount, uint value );\r\n    event CreateDebt( address indexed debtor, address indexed token, uint amount, uint value );\r\n    event RepayDebt( address indexed debtor, address indexed token, uint amount, uint value );\r\n    event ReservesManaged( address indexed token, uint amount );\r\n    event ReservesUpdated( uint indexed totalReserves );\r\n    event ReservesAudited( uint indexed totalReserves );\r\n    event RewardsMinted( address indexed caller, address indexed recipient, uint amount );\r\n    event ChangeQueued( MANAGING indexed managing, address queued );\r\n    event ChangeActivated( MANAGING indexed managing, address activated, bool result );\r\n    event ChangeLimitAmount( uint256 amount );\r\n\r\n    enum MANAGING { \r\n        RESERVEDEPOSITOR, \r\n        RESERVESPENDER, \r\n        RESERVETOKEN, \r\n        RESERVEMANAGER, \r\n        LIQUIDITYDEPOSITOR, \r\n        LIQUIDITYTOKEN, \r\n        LIQUIDITYMANAGER, \r\n        DEBTOR, \r\n        REWARDMANAGER, \r\n        SOHM \r\n    }\r\n\r\n    ITIMEERC20 public immutable Time;\r\n    uint32 public immutable secondsNeededForQueue;\r\n\r\n    address[] public reserveTokens; // Push only, beware false-positives.\r\n    mapping( address => bool ) public isReserveToken;\r\n    mapping( address => uint32 ) public reserveTokenQueue; // Delays changes to mapping.\r\n\r\n    address[] public reserveDepositors; // Push only, beware false-positives. Only for viewing.\r\n    mapping( address => bool ) public isReserveDepositor;\r\n    mapping( address => uint32 ) public reserveDepositorQueue; // Delays changes to mapping.\r\n\r\n    address[] public reserveSpenders; // Push only, beware false-positives. Only for viewing.\r\n    mapping( address => bool ) public isReserveSpender;\r\n    mapping( address => uint32 ) public reserveSpenderQueue; // Delays changes to mapping.\r\n\r\n    address[] public liquidityTokens; // Push only, beware false-positives.\r\n    mapping( address => bool ) public isLiquidityToken;\r\n    mapping( address => uint32 ) public LiquidityTokenQueue; // Delays changes to mapping.\r\n\r\n    address[] public liquidityDepositors; // Push only, beware false-positives. Only for viewing.\r\n    mapping( address => bool ) public isLiquidityDepositor;\r\n    mapping( address => uint32 ) public LiquidityDepositorQueue; // Delays changes to mapping.\r\n\r\n    mapping( address => address ) public bondCalculator; // bond calculator for liquidity token\r\n\r\n    address[] public reserveManagers; // Push only, beware false-positives. Only for viewing.\r\n    mapping( address => bool ) public isReserveManager;\r\n    mapping( address => uint32 ) public ReserveManagerQueue; // Delays changes to mapping.\r\n\r\n    address[] public liquidityManagers; // Push only, beware false-positives. Only for viewing.\r\n    mapping( address => bool ) public isLiquidityManager;\r\n    mapping( address => uint32 ) public LiquidityManagerQueue; // Delays changes to mapping.\r\n\r\n    address[] public debtors; // Push only, beware false-positives. Only for viewing.\r\n    mapping( address => bool ) public isDebtor;\r\n    mapping( address => uint32 ) public debtorQueue; // Delays changes to mapping.\r\n    mapping( address => uint ) public debtorBalance;\r\n\r\n    address[] public rewardManagers; // Push only, beware false-positives. Only for viewing.\r\n    mapping( address => bool ) public isRewardManager;\r\n    mapping( address => uint32 ) public rewardManagerQueue; // Delays changes to mapping.\r\n\r\n    mapping( address => uint256 ) public hourlyLimitAmounts; // tracks amounts\r\n    mapping( address => uint32 ) public hourlyLimitQueue; // Delays changes to mapping.\r\n\r\n    uint256 public limitAmount;\r\n\r\n    IERC20 public MEMOries;\r\n    uint public sOHMQueue; // Delays change to sOHM address\r\n    \r\n    uint public totalReserves; // Risk-free value of all assets\r\n    uint public totalDebt;\r\n\r\n    constructor (\r\n        address _Time,\r\n        address _MIM,\r\n        uint32 _secondsNeededForQueue,\r\n        uint256 _limitAmount\r\n    ) {\r\n        require( _Time != address(0) );\r\n        Time = ITIMEERC20(_Time);\r\n\r\n        isReserveToken[ _MIM ] = true;\r\n        reserveTokens.push( _MIM );\r\n\r\n    //    isLiquidityToken[ _OHMDAI ] = true;\r\n    //    liquidityTokens.push( _OHMDAI );\r\n\r\n        secondsNeededForQueue = _secondsNeededForQueue;\r\n        limitAmount = _limitAmount;\r\n    }\r\n\r\n    function setLimitAmount(uint amount) external onlyOwner {\r\n        limitAmount = amount;\r\n        emit ChangeLimitAmount(limitAmount);\r\n    }\r\n\r\n    /**\r\n        @notice allow approved address to deposit an asset for Time\r\n        @param _amount uint\r\n        @param _token address\r\n        @param _profit uint\r\n        @return send_ uint\r\n     */\r\n    function deposit( uint _amount, address _token, uint _profit ) external returns ( uint send_ ) {\r\n        require( isReserveToken[ _token ] || isLiquidityToken[ _token ], \"Not accepted\" );\r\n        IERC20( _token ).safeTransferFrom( msg.sender, address(this), _amount );\r\n\r\n        if ( isReserveToken[ _token ] ) {\r\n            require( isReserveDepositor[ msg.sender ], \"Not approved\" );\r\n        } else {\r\n            require( isLiquidityDepositor[ msg.sender ], \"Not approved\" );\r\n        }\r\n\r\n        uint value = valueOf(_token, _amount);\r\n        // mint Time needed and store amount of rewards for distribution\r\n        send_ = value.sub( _profit );\r\n        limitRequirements(msg.sender, send_);\r\n        Time.mint( msg.sender, send_ );\r\n\r\n        totalReserves = totalReserves.add( value );\r\n        emit ReservesUpdated( totalReserves );\r\n\r\n        emit Deposit( _token, _amount, value );\r\n    }\r\n\r\n    /**\r\n        @notice allow approved address to burn Time for reserves\r\n        @param _amount uint\r\n        @param _token address\r\n     */\r\n    function withdraw( uint _amount, address _token ) external {\r\n        require( isReserveToken[ _token ], \"Not accepted\" ); // Only reserves can be used for redemptions\r\n        require( isReserveSpender[ msg.sender ], \"Not approved\" );\r\n\r\n        uint value = valueOf( _token, _amount );\r\n        Time.burnFrom( msg.sender, value );\r\n\r\n        totalReserves = totalReserves.sub( value );\r\n        emit ReservesUpdated( totalReserves );\r\n\r\n        IERC20( _token ).safeTransfer( msg.sender, _amount );\r\n\r\n        emit Withdrawal( _token, _amount, value );\r\n    }\r\n\r\n    /**\r\n        @notice allow approved address to borrow reserves\r\n        @param _amount uint\r\n        @param _token address\r\n     */\r\n    function incurDebt( uint _amount, address _token ) external {\r\n        require( isDebtor[ msg.sender ], \"Not approved\" );\r\n        require( isReserveToken[ _token ], \"Not accepted\" );\r\n\r\n        uint value = valueOf( _token, _amount );\r\n\r\n        uint maximumDebt = MEMOries.balanceOf( msg.sender ); // Can only borrow against sOHM held\r\n        uint balance = debtorBalance[ msg.sender ];\r\n        uint availableDebt = maximumDebt.sub( balance );\r\n        require( value <= availableDebt, \"Exceeds debt limit\" );\r\n        limitRequirements(msg.sender, value);\r\n        debtorBalance[ msg.sender ] = balance.add( value );\r\n        totalDebt = totalDebt.add( value );\r\n\r\n        totalReserves = totalReserves.sub( value );\r\n        emit ReservesUpdated( totalReserves );\r\n        \r\n        IERC20( _token ).safeTransfer( msg.sender, _amount );\r\n        \r\n        emit CreateDebt( msg.sender, _token, _amount, value );\r\n    }\r\n\r\n    /**\r\n        @notice allow approved address to repay borrowed reserves with reserves\r\n        @param _amount uint\r\n        @param _token address\r\n     */\r\n    function repayDebtWithReserve( uint _amount, address _token ) external {\r\n        require( isDebtor[ msg.sender ], \"Not approved\" );\r\n        require( isReserveToken[ _token ], \"Not accepted\" );\r\n\r\n        IERC20( _token ).safeTransferFrom( msg.sender, address(this), _amount );\r\n\r\n        uint value = valueOf( _token, _amount );\r\n        debtorBalance[ msg.sender ] = debtorBalance[ msg.sender ].sub( value );\r\n        totalDebt = totalDebt.sub( value );\r\n\r\n        totalReserves = totalReserves.add( value );\r\n        emit ReservesUpdated( totalReserves );\r\n\r\n        emit RepayDebt( msg.sender, _token, _amount, value );\r\n    }\r\n\r\n    /**\r\n        @notice allow approved address to repay borrowed reserves with Time\r\n        @param _amount uint\r\n     */\r\n    function repayDebtWithTime( uint _amount ) external {\r\n        require( isDebtor[ msg.sender ], \"Not approved as debtor\" );\r\n        require( isReserveSpender[ msg.sender ], \"Not approved as spender\" );\r\n\r\n        Time.burnFrom( msg.sender, _amount );\r\n\r\n        debtorBalance[ msg.sender ] = debtorBalance[ msg.sender ].sub( _amount );\r\n        totalDebt = totalDebt.sub( _amount );\r\n\r\n        emit RepayDebt( msg.sender, address(Time), _amount, _amount );\r\n    }\r\n\r\n    /**\r\n        @notice allow approved address to withdraw assets\r\n        @param _token address\r\n        @param _amount uint\r\n     */\r\n    function manage( address _token, uint _amount ) external {\r\n        uint value = valueOf(_token, _amount);\r\n        if( isLiquidityToken[ _token ] ) {\r\n            require( isLiquidityManager[ msg.sender ], \"Not approved\" );\r\n            require(value <= excessReserves());\r\n        } else {\r\n            if (isReserveToken[ _token ]) require(value <= excessReserves());\r\n            require( isReserveManager[ msg.sender ], \"Not approved\" );\r\n        }\r\n        \r\n        limitRequirements(msg.sender, value);\r\n        totalReserves = totalReserves.sub( value );\r\n        emit ReservesUpdated( totalReserves );\r\n\r\n        IERC20( _token ).safeTransfer( msg.sender, _amount );\r\n\r\n        emit ReservesManaged( _token, _amount );\r\n    }\r\n\r\n    /**\r\n        @notice send epoch reward to staking contract\r\n     */\r\n    function mintRewards( address _recipient, uint _amount ) external {\r\n        require( isRewardManager[ msg.sender ], \"Not approved\" );\r\n        require( _amount <= excessReserves(), \"Insufficient reserves\" );\r\n        limitRequirements(msg.sender, _amount);\r\n        Time.mint( _recipient, _amount );\r\n\r\n        emit RewardsMinted( msg.sender, _recipient, _amount );\r\n    } \r\n\r\n    /**\r\n        @notice returns excess reserves not backing tokens\r\n        @return uint\r\n     */\r\n    function excessReserves() public view returns ( uint ) {\r\n        return totalReserves.sub( Time.totalSupply().sub( totalDebt ) );\r\n    }\r\n\r\n    /**\r\n        @notice takes inventory of all tracked assets\r\n        @notice always consolidate to recognized reserves before audit\r\n     */\r\n    function auditReserves() external onlyOwner {\r\n        uint reserves;\r\n        for( uint i = 0; i < reserveTokens.length; i++ ) {\r\n            reserves = reserves.add ( \r\n                valueOf( reserveTokens[ i ], IERC20( reserveTokens[ i ] ).balanceOf( address(this) ) )\r\n            );\r\n        }\r\n        for( uint i = 0; i < liquidityTokens.length; i++ ) {\r\n            reserves = reserves.add (\r\n                valueOf( liquidityTokens[ i ], IERC20( liquidityTokens[ i ] ).balanceOf( address(this) ) )\r\n            );\r\n        }\r\n        totalReserves = reserves;\r\n        emit ReservesUpdated( reserves );\r\n        emit ReservesAudited( reserves );\r\n    }\r\n\r\n    /**\r\n        @notice returns Time valuation of asset\r\n        @param _token address\r\n        @param _amount uint\r\n        @return value_ uint\r\n     */\r\n    function valueOf( address _token, uint _amount ) public view returns ( uint value_ ) {\r\n        if ( isReserveToken[ _token ] ) {\r\n            // convert amount to match Time decimals\r\n            value_ = _amount.mul( 10 ** Time.decimals() ).div( 10 ** IERC20( _token ).decimals() );\r\n        } else if ( isLiquidityToken[ _token ] ) {\r\n            value_ = IBondCalculator( bondCalculator[ _token ] ).valuation( _token, _amount );\r\n        }\r\n    }\r\n\r\n    /**\r\n        @notice queue address to change boolean in mapping\r\n        @param _managing MANAGING\r\n        @param _address address\r\n        @return bool\r\n     */\r\n    function queue( MANAGING _managing, address _address ) external onlyOwner returns ( bool ) {\r\n        require( _address != address(0), \"IA\" );\r\n        if ( _managing == MANAGING.RESERVEDEPOSITOR ) { // 0\r\n            reserveDepositorQueue[ _address ] = uint32(block.timestamp).add32( secondsNeededForQueue );\r\n        } else if ( _managing == MANAGING.RESERVESPENDER ) { // 1\r\n            reserveSpenderQueue[ _address ] = uint32(block.timestamp).add32( secondsNeededForQueue );\r\n        } else if ( _managing == MANAGING.RESERVETOKEN ) { // 2\r\n            reserveTokenQueue[ _address ] = uint32(block.timestamp).add32( secondsNeededForQueue );\r\n        } else if ( _managing == MANAGING.RESERVEMANAGER ) { // 3\r\n            ReserveManagerQueue[ _address ] = uint32(block.timestamp).add32( secondsNeededForQueue.mul32( 2 ) );\r\n        } else if ( _managing == MANAGING.LIQUIDITYDEPOSITOR ) { // 4\r\n            LiquidityDepositorQueue[ _address ] = uint32(block.timestamp).add32( secondsNeededForQueue );\r\n        } else if ( _managing == MANAGING.LIQUIDITYTOKEN ) { // 5\r\n            LiquidityTokenQueue[ _address ] = uint32(block.timestamp).add32( secondsNeededForQueue );\r\n        } else if ( _managing == MANAGING.LIQUIDITYMANAGER ) { // 6\r\n            LiquidityManagerQueue[ _address ] = uint32(block.timestamp).add32( secondsNeededForQueue.mul32( 2 ) );\r\n        } else if ( _managing == MANAGING.DEBTOR ) { // 7\r\n            debtorQueue[ _address ] = uint32(block.timestamp).add32( secondsNeededForQueue );\r\n        } else if ( _managing == MANAGING.REWARDMANAGER ) { // 8\r\n            rewardManagerQueue[ _address ] = uint32(block.timestamp).add32( secondsNeededForQueue );\r\n        } else if ( _managing == MANAGING.SOHM ) { // 9\r\n            sOHMQueue = uint32(block.timestamp).add32( secondsNeededForQueue );\r\n        } else return false;\r\n\r\n        emit ChangeQueued( _managing, _address );\r\n        return true;\r\n    }\r\n\r\n    /**\r\n        @notice verify queue then set boolean in mapping\r\n        @param _managing MANAGING\r\n        @param _address address\r\n        @param _calculator address\r\n        @return bool\r\n     */\r\n    function toggle(\r\n        MANAGING _managing, \r\n        address _address, \r\n        address _calculator \r\n    ) external onlyOwner returns ( bool ) {\r\n        require( _address != address(0), \"IA\" );\r\n        bool result;\r\n        if ( _managing == MANAGING.RESERVEDEPOSITOR ) { // 0\r\n            if ( requirements( reserveDepositorQueue, isReserveDepositor, _address ) ) {\r\n                reserveDepositorQueue[ _address ] = 0;\r\n                if( !listContains( reserveDepositors, _address ) ) {\r\n                    reserveDepositors.push( _address );\r\n                }\r\n            }\r\n            result = !isReserveDepositor[ _address ];\r\n            isReserveDepositor[ _address ] = result;\r\n            \r\n        } else if ( _managing == MANAGING.RESERVESPENDER ) { // 1\r\n            if ( requirements( reserveSpenderQueue, isReserveSpender, _address ) ) {\r\n                reserveSpenderQueue[ _address ] = 0;\r\n                if( !listContains( reserveSpenders, _address ) ) {\r\n                    reserveSpenders.push( _address );\r\n                }\r\n            }\r\n            result = !isReserveSpender[ _address ];\r\n            isReserveSpender[ _address ] = result;\r\n\r\n        } else if ( _managing == MANAGING.RESERVETOKEN ) { // 2\r\n            if ( requirements( reserveTokenQueue, isReserveToken, _address ) ) {\r\n                reserveTokenQueue[ _address ] = 0;\r\n                if( !listContains( reserveTokens, _address ) && !listContains( liquidityTokens, _address ) ) {\r\n                    reserveTokens.push( _address );\r\n                }\r\n            }\r\n            result = !isReserveToken[ _address ];\r\n            require(!result || !isLiquidityToken[_address], \"Do not add to both types of token\");\r\n            isReserveToken[ _address ] = result;\r\n\r\n        } else if ( _managing == MANAGING.RESERVEMANAGER ) { // 3\r\n            if ( requirements( ReserveManagerQueue, isReserveManager, _address ) ) {\r\n                reserveManagers.push( _address );\r\n                ReserveManagerQueue[ _address ] = 0;\r\n                if( !listContains( reserveManagers, _address ) ) {\r\n                    reserveManagers.push( _address );\r\n                }\r\n            }\r\n            result = !isReserveManager[ _address ];\r\n            isReserveManager[ _address ] = result;\r\n\r\n        } else if ( _managing == MANAGING.LIQUIDITYDEPOSITOR ) { // 4\r\n            if ( requirements( LiquidityDepositorQueue, isLiquidityDepositor, _address ) ) {\r\n                liquidityDepositors.push( _address );\r\n                LiquidityDepositorQueue[ _address ] = 0;\r\n                if( !listContains( liquidityDepositors, _address ) ) {\r\n                    liquidityDepositors.push( _address );\r\n                }\r\n            }\r\n            result = !isLiquidityDepositor[ _address ];\r\n            isLiquidityDepositor[ _address ] = result;\r\n\r\n        } else if ( _managing == MANAGING.LIQUIDITYTOKEN ) { // 5\r\n            if ( requirements( LiquidityTokenQueue, isLiquidityToken, _address ) ) {\r\n                LiquidityTokenQueue[ _address ] = 0;\r\n                if( !listContains( liquidityTokens, _address ) && !listContains( reserveTokens, _address ) ) {\r\n                    liquidityTokens.push( _address );\r\n                }\r\n            }\r\n            result = !isLiquidityToken[ _address ];\r\n            require(!result || !isReserveToken[_address], \"Do not add to both types of token\");\r\n            isLiquidityToken[ _address ] = result;\r\n            bondCalculator[ _address ] = _calculator;\r\n\r\n        } else if ( _managing == MANAGING.LIQUIDITYMANAGER ) { // 6\r\n            if ( requirements( LiquidityManagerQueue, isLiquidityManager, _address ) ) {\r\n                LiquidityManagerQueue[ _address ] = 0;\r\n                if( !listContains( liquidityManagers, _address ) ) {\r\n                    liquidityManagers.push( _address );\r\n                }\r\n            }\r\n            result = !isLiquidityManager[ _address ];\r\n            isLiquidityManager[ _address ] = result;\r\n\r\n        } else if ( _managing == MANAGING.DEBTOR ) { // 7\r\n            if ( requirements( debtorQueue, isDebtor, _address ) ) {\r\n                debtorQueue[ _address ] = 0;\r\n                if( !listContains( debtors, _address ) ) {\r\n                    debtors.push( _address );\r\n                }\r\n            }\r\n            result = !isDebtor[ _address ];\r\n            isDebtor[ _address ] = result;\r\n\r\n        } else if ( _managing == MANAGING.REWARDMANAGER ) { // 8\r\n            if ( requirements( rewardManagerQueue, isRewardManager, _address ) ) {\r\n                rewardManagerQueue[ _address ] = 0;\r\n                if( !listContains( rewardManagers, _address ) ) {\r\n                    rewardManagers.push( _address );\r\n                }\r\n            }\r\n            result = !isRewardManager[ _address ];\r\n            isRewardManager[ _address ] = result;\r\n\r\n        } else if ( _managing == MANAGING.SOHM ) { // 9\r\n            sOHMQueue = 0;\r\n            MEMOries = IERC20(_address);\r\n            result = true;\r\n\r\n        } else return false;\r\n\r\n        emit ChangeActivated( _managing, _address, result );\r\n        return true;\r\n    }\r\n\r\n    /**\r\n        @notice checks requirements and returns altered structs\r\n        @param queue_ mapping( address => uint )\r\n        @param status_ mapping( address => bool )\r\n        @param _address address\r\n        @return bool \r\n     */\r\n    function requirements( \r\n        mapping( address => uint32 ) storage queue_, \r\n        mapping( address => bool ) storage status_, \r\n        address _address \r\n    ) internal view returns ( bool ) {\r\n        if ( !status_[ _address ] ) {\r\n            require( queue_[ _address ] != 0, \"Must queue\" );\r\n            require( queue_[ _address ] <= uint32(block.timestamp), \"Queue not expired\" );\r\n            return true;\r\n        } return false;\r\n    }\r\n\r\n    /**\r\n        @notice checks LimitRequirements\r\n        @param _address address\r\n        @param _address value\r\n     */\r\n    function limitRequirements( \r\n        address _address,\r\n        uint256 value\r\n    ) internal {\r\n        if (block.timestamp.sub(hourlyLimitQueue[_address]) >= 1 hours)\r\n        {\r\n            hourlyLimitAmounts[_address] = limitAmount;\r\n            hourlyLimitQueue[_address] = uint32(block.timestamp);\r\n        }\r\n        hourlyLimitAmounts[_address] = hourlyLimitAmounts[_address].sub(value);\r\n    }\r\n\r\n    /**\r\n        @notice checks array to ensure against duplicate\r\n        @param _list address[]\r\n        @param _token address\r\n        @return bool\r\n     */\r\n    function listContains( address[] storage _list, address _token ) internal view returns ( bool ) {\r\n        for( uint i = 0; i < _list.length; i++ ) {\r\n            if( _list[ i ] == _token ) {\r\n                return true;\r\n            }\r\n        }\r\n        return false;\r\n    }\r\n}",
  "sourcePath": "E:\\project\\Chris\\wonderland-money\\truffle_deploy\\contracts\\Treasury.sol",
  "compiler": {
    "name": "solc",
    "version": "0.7.5+commit.eb77ed08.Emscripten.clang"
  },
  "schemaVersion": "3.4.4",
  "updatedAt": "2022-01-05T20:47:23.712Z",
  "networkType": "ethereum",
  "devdoc": {
    "kind": "dev",
    "methods": {
      "deposit(uint256,address,uint256)": {
        "params": {
          "_amount": "uint",
          "_profit": "uint",
          "_token": "address"
        },
        "returns": {
          "send_": "uint"
        }
      },
      "excessReserves()": {
        "returns": {
          "_0": "uint"
        }
      },
      "incurDebt(uint256,address)": {
        "params": {
          "_amount": "uint",
          "_token": "address"
        }
      },
      "manage(address,uint256)": {
        "params": {
          "_amount": "uint",
          "_token": "address"
        }
      },
      "queue(uint8,address)": {
        "params": {
          "_address": "address",
          "_managing": "MANAGING"
        },
        "returns": {
          "_0": "bool"
        }
      },
      "repayDebtWithReserve(uint256,address)": {
        "params": {
          "_amount": "uint",
          "_token": "address"
        }
      },
      "repayDebtWithTime(uint256)": {
        "params": {
          "_amount": "uint"
        }
      },
      "toggle(uint8,address,address)": {
        "params": {
          "_address": "address",
          "_calculator": "address",
          "_managing": "MANAGING"
        },
        "returns": {
          "_0": "bool"
        }
      },
      "transferOwnership(address,bool,bool)": {
        "params": {
          "direct": "True if `newOwner` should be set immediately. False if `newOwner` needs to use `claimOwnership`.",
          "newOwner": "Address of the new owner.",
          "renounce": "Allows the `newOwner` to be `address(0)` if `direct` and `renounce` is True. Has no effect otherwise."
        }
      },
      "valueOf(address,uint256)": {
        "params": {
          "_amount": "uint",
          "_token": "address"
        },
        "returns": {
          "value_": "uint"
        }
      },
      "withdraw(uint256,address)": {
        "params": {
          "_amount": "uint",
          "_token": "address"
        }
      }
    },
    "version": 1
  },
  "userdoc": {
    "kind": "user",
    "methods": {
      "auditReserves()": {
        "notice": "takes inventory of all tracked assetsalways consolidate to recognized reserves before audit"
      },
      "claimOwnership()": {
        "notice": "Needs to be called by `pendingOwner` to claim ownership."
      },
      "deposit(uint256,address,uint256)": {
        "notice": "allow approved address to deposit an asset for Time"
      },
      "excessReserves()": {
        "notice": "returns excess reserves not backing tokens"
      },
      "incurDebt(uint256,address)": {
        "notice": "allow approved address to borrow reserves"
      },
      "manage(address,uint256)": {
        "notice": "allow approved address to withdraw assets"
      },
      "mintRewards(address,uint256)": {
        "notice": "send epoch reward to staking contract"
      },
      "queue(uint8,address)": {
        "notice": "queue address to change boolean in mapping"
      },
      "repayDebtWithReserve(uint256,address)": {
        "notice": "allow approved address to repay borrowed reserves with reserves"
      },
      "repayDebtWithTime(uint256)": {
        "notice": "allow approved address to repay borrowed reserves with Time"
      },
      "toggle(uint8,address,address)": {
        "notice": "verify queue then set boolean in mapping"
      },
      "transferOwnership(address,bool,bool)": {
        "notice": "Transfers ownership to `newOwner`. Either directly or claimable by the new pending owner. Can only be invoked by the current `owner`."
      },
      "valueOf(address,uint256)": {
        "notice": "returns Time valuation of asset"
      },
      "withdraw(uint256,address)": {
        "notice": "allow approved address to burn Time for reserves"
      }
    },
    "version": 1
  }
}