{
  "contractName": "Wonderland_ZapIn_V1",
  "abi": [
    {
      "inputs": [
        {
          "internalType": "address",
          "name": "_DAO",
          "type": "address"
        }
      ],
      "stateMutability": "nonpayable",
      "type": "constructor"
    },
    {
      "anonymous": false,
      "inputs": [
        {
          "indexed": true,
          "internalType": "address",
          "name": "bondDepository",
          "type": "address"
        },
        {
          "indexed": false,
          "internalType": "address",
          "name": "pair",
          "type": "address"
        }
      ],
      "name": "AddPairAddress",
      "type": "event"
    },
    {
      "anonymous": false,
      "inputs": [
        {
          "indexed": true,
          "internalType": "address",
          "name": "bondDepository",
          "type": "address"
        },
        {
          "indexed": false,
          "internalType": "address",
          "name": "reserve",
          "type": "address"
        }
      ],
      "name": "AddReserveAddress",
      "type": "event"
    },
    {
      "anonymous": false,
      "inputs": [
        {
          "indexed": true,
          "internalType": "address",
          "name": "target",
          "type": "address"
        },
        {
          "indexed": false,
          "internalType": "bool",
          "name": "isApproved",
          "type": "bool"
        }
      ],
      "name": "ApprovedTargets",
      "type": "event"
    },
    {
      "anonymous": false,
      "inputs": [
        {
          "indexed": true,
          "internalType": "address",
          "name": "previousOwner",
          "type": "address"
        },
        {
          "indexed": true,
          "internalType": "address",
          "name": "newOwner",
          "type": "address"
        }
      ],
      "name": "OwnershipTransferred",
      "type": "event"
    },
    {
      "anonymous": false,
      "inputs": [
        {
          "indexed": true,
          "internalType": "address",
          "name": "bondDepository",
          "type": "address"
        }
      ],
      "name": "RemovePairAddress",
      "type": "event"
    },
    {
      "anonymous": false,
      "inputs": [
        {
          "indexed": true,
          "internalType": "address",
          "name": "bondDepository",
          "type": "address"
        }
      ],
      "name": "RemoveReserveAddress",
      "type": "event"
    },
    {
      "anonymous": false,
      "inputs": [
        {
          "indexed": false,
          "internalType": "address",
          "name": "sender",
          "type": "address"
        },
        {
          "indexed": false,
          "internalType": "address",
          "name": "pool",
          "type": "address"
        },
        {
          "indexed": false,
          "internalType": "uint256",
          "name": "tokensRec",
          "type": "uint256"
        }
      ],
      "name": "zapIn",
      "type": "event"
    },
    {
      "inputs": [
        {
          "internalType": "contract ITimeBondDepository",
          "name": "",
          "type": "address"
        }
      ],
      "name": "allowedPairs",
      "outputs": [
        {
          "internalType": "address",
          "name": "",
          "type": "address"
        }
      ],
      "stateMutability": "view",
      "type": "function",
      "constant": true
    },
    {
      "inputs": [
        {
          "internalType": "contract ITimeBondDepository",
          "name": "",
          "type": "address"
        }
      ],
      "name": "allowedReserves",
      "outputs": [
        {
          "internalType": "address",
          "name": "",
          "type": "address"
        }
      ],
      "stateMutability": "view",
      "type": "function",
      "constant": true
    },
    {
      "inputs": [
        {
          "internalType": "address",
          "name": "",
          "type": "address"
        }
      ],
      "name": "approvedTargets",
      "outputs": [
        {
          "internalType": "bool",
          "name": "",
          "type": "bool"
        }
      ],
      "stateMutability": "view",
      "type": "function",
      "constant": true
    },
    {
      "inputs": [],
      "name": "owner",
      "outputs": [
        {
          "internalType": "address",
          "name": "",
          "type": "address"
        }
      ],
      "stateMutability": "view",
      "type": "function",
      "constant": true
    },
    {
      "inputs": [],
      "name": "renounceOwnership",
      "outputs": [],
      "stateMutability": "nonpayable",
      "type": "function"
    },
    {
      "inputs": [
        {
          "internalType": "address[]",
          "name": "targets",
          "type": "address[]"
        },
        {
          "internalType": "bool[]",
          "name": "isApproved",
          "type": "bool[]"
        }
      ],
      "name": "setApprovedTargets",
      "outputs": [],
      "stateMutability": "nonpayable",
      "type": "function"
    },
    {
      "inputs": [],
      "name": "stopped",
      "outputs": [
        {
          "internalType": "bool",
          "name": "",
          "type": "bool"
        }
      ],
      "stateMutability": "view",
      "type": "function",
      "constant": true
    },
    {
      "inputs": [],
      "name": "toggleContractActive",
      "outputs": [],
      "stateMutability": "nonpayable",
      "type": "function"
    },
    {
      "inputs": [
        {
          "internalType": "address",
          "name": "newOwner",
          "type": "address"
        }
      ],
      "name": "transferOwnership",
      "outputs": [],
      "stateMutability": "nonpayable",
      "type": "function"
    },
    {
      "stateMutability": "payable",
      "type": "receive",
      "payable": true
    },
    {
      "inputs": [
        {
          "internalType": "address",
          "name": "bondDepository",
          "type": "address"
        },
        {
          "internalType": "address",
          "name": "pair",
          "type": "address"
        }
      ],
      "name": "addPairAddress",
      "outputs": [],
      "stateMutability": "nonpayable",
      "type": "function"
    },
    {
      "inputs": [
        {
          "internalType": "address",
          "name": "bondDepository",
          "type": "address"
        }
      ],
      "name": "removePairAddress",
      "outputs": [],
      "stateMutability": "nonpayable",
      "type": "function"
    },
    {
      "inputs": [
        {
          "internalType": "address",
          "name": "bondDepository",
          "type": "address"
        },
        {
          "internalType": "address",
          "name": "reserve",
          "type": "address"
        }
      ],
      "name": "addReserveAddress",
      "outputs": [],
      "stateMutability": "nonpayable",
      "type": "function"
    },
    {
      "inputs": [
        {
          "internalType": "address",
          "name": "bondDepository",
          "type": "address"
        }
      ],
      "name": "removeReserveAddress",
      "outputs": [],
      "stateMutability": "nonpayable",
      "type": "function"
    },
    {
      "inputs": [
        {
          "internalType": "address",
          "name": "_FromTokenContractAddress",
          "type": "address"
        },
        {
          "internalType": "contract ITimeBondDepository",
          "name": "_bondDepository",
          "type": "address"
        },
        {
          "internalType": "uint256",
          "name": "_amount",
          "type": "uint256"
        },
        {
          "internalType": "uint256",
          "name": "_minPoolTokens",
          "type": "uint256"
        },
        {
          "internalType": "address",
          "name": "_swapTarget",
          "type": "address"
        },
        {
          "internalType": "bytes",
          "name": "swapData",
          "type": "bytes"
        },
        {
          "internalType": "uint256",
          "name": "_bondMaxPrice",
          "type": "uint256"
        },
        {
          "internalType": "address",
          "name": "_to",
          "type": "address"
        }
      ],
      "name": "ZapInLp",
      "outputs": [
        {
          "internalType": "uint256",
          "name": "",
          "type": "uint256"
        }
      ],
      "stateMutability": "payable",
      "type": "function",
      "payable": true
    },
    {
      "inputs": [
        {
          "internalType": "address",
          "name": "_FromTokenContractAddress",
          "type": "address"
        },
        {
          "internalType": "contract ITimeBondDepository",
          "name": "_bondDepository",
          "type": "address"
        },
        {
          "internalType": "uint256",
          "name": "_amount",
          "type": "uint256"
        },
        {
          "internalType": "uint256",
          "name": "_minReturnTokens",
          "type": "uint256"
        },
        {
          "internalType": "address",
          "name": "_swapTarget",
          "type": "address"
        },
        {
          "internalType": "bytes",
          "name": "swapData",
          "type": "bytes"
        },
        {
          "internalType": "uint256",
          "name": "_bondMaxPrice",
          "type": "uint256"
        },
        {
          "internalType": "address",
          "name": "_to",
          "type": "address"
        }
      ],
      "name": "ZapIn",
      "outputs": [
        {
          "internalType": "uint256",
          "name": "",
          "type": "uint256"
        }
      ],
      "stateMutability": "payable",
      "type": "function",
      "payable": true
    },
    {
      "inputs": [
        {
          "internalType": "address",
          "name": "_token",
          "type": "address"
        }
      ],
      "name": "recoverLostToken",
      "outputs": [
        {
          "internalType": "bool",
          "name": "",
          "type": "bool"
        }
      ],
      "stateMutability": "nonpayable",
      "type": "function"
    },
    {
      "inputs": [],
      "name": "refundETH",
      "outputs": [],
      "stateMutability": "nonpayable",
      "type": "function"
    }
  ],
  "bytecode": "0x60a06040526000805460ff60a01b191690553480156200001e57600080fd5b506040516200368c3803806200368c8339810160408190526200004191620001e4565b600080546001600160a01b031916339081178255604051909182917f8be0079c531659141344cd1fd0a4f28419497f9722a3daafe3b4186f6b6457e0908290a3506001600160601b031960609190911b166080527fd0b25aab830bf9cebd8bf4c5afd2c3552c8044579e8b6194f03d050478de1539805460ff191660011790557fec4bb3bd39bc1bff57eb08e2199f83359f54f9d90f6ea1a01032968e1b7a241380546001600160a01b031990811673f64e1c5b6e17031f5504481ac8145f4c3eab4917179091557fcdffd1e2fcd7a909bfd5eff2b51f408bcdcc4848d6af162e0575858a887e486b8054821673113f413371fc4cc4c9d6416cf1de9dfd7bf747df17905560036020527f9be3f0ad01856a8c5f6f35587f7eef802cce9c2ef92344019d94a9cb427076fd8054821673130966628846bfd36ff31a822705796e8cb8c18d17905573e02b1aa2c4be73093be79d763fdffc0e3cf673186000527fd56e248199d25604d206f7f585444fc283e4b9d5e5dc08b644c673eec7e624b4805490911673b31f66aa3c1e785363f0875a1b74e27b85fd66c717905562000214565b600060208284031215620001f6578081fd5b81516001600160a01b03811681146200020d578182fd5b9392505050565b60805160601c6134526200023a6000396000818161043c0152610cf901526134526000f3fe6080604052600436106101125760003560e01c80639779d1a6116100a5578063ba3c763611610074578063d30d2b0f11610059578063d30d2b0f14610376578063f2fde38b14610397578063f9f7aea7146103b75761016e565b8063ba3c76361461030a578063d30af7ff146103405761016e565b80639779d1a61461027a578063a2c33f88146102aa578063b3bb025f146102ca578063b4abccba146102ea5761016e565b806375f12b21116100e157806375f12b21146101d25780638da5cb5b146102085780638ff4a0f11461023a5780639735a6341461025a5761016e565b806312210e8a146101735780631385d24c146101885780632bc702841461019d578063715018a6146101bd5761016e565b3661016e573332141561016c5760405162461bcd60e51b815260206004820152601860248201527f446f206e6f742073656e6420455448206469726563746c79000000000000000060448201526064015b60405180910390fd5b005b600080fd5b34801561017f57600080fd5b5061016c6103ca565b34801561019457600080fd5b5061016c61050b565b3480156101a957600080fd5b5061016c6101b8366004612f4b565b6105a1565b3480156101c957600080fd5b5061016c6106db565b3480156101de57600080fd5b506000546101f390600160a01b900460ff1681565b60405190151581526020015b60405180910390f35b34801561021457600080fd5b506000546001600160a01b03165b6040516001600160a01b0390911681526020016101ff565b34801561024657600080fd5b5061016c610255366004612f13565b61077f565b34801561026657600080fd5b5061016c610275366004613056565b610864565b34801561028657600080fd5b506101f3610295366004612f13565b60016020526000908152604090205460ff1681565b3480156102b657600080fd5b5061016c6102c5366004612f4b565b610a6e565b3480156102d657600080fd5b5061016c6102e5366004612f13565b610ba0565b3480156102f657600080fd5b506101f3610305366004612f13565b610c85565b34801561031657600080fd5b50610222610325366004612f13565b6003602052600090815260409020546001600160a01b031681565b34801561034c57600080fd5b5061022261035b366004612f13565b6002602052600090815260409020546001600160a01b031681565b610389610384366004612f83565b610d97565b6040519081526020016101ff565b3480156103a357600080fd5b5061016c6103b2366004612f13565b611229565b6103896103c5366004612f83565b61135a565b6000546001600160a01b031633146104245760405162461bcd60e51b815260206004820181905260248201527f4f776e61626c653a2063616c6c6572206973206e6f7420746865206f776e65726044820152606401610163565b471561050957604080516000808252602082019092527f00000000000000000000000000000000000000000000000000000000000000006001600160a01b03169047906040516104749190613259565b60006040518083038185875af1925050503d80600081146104b1576040519150601f19603f3d011682016040523d82523d6000602084013e6104b6565b606091505b50509050806105075760405162461bcd60e51b815260206004820152600360248201527f53544500000000000000000000000000000000000000000000000000000000006044820152606401610163565b505b565b6000546001600160a01b031633146105655760405162461bcd60e51b815260206004820181905260248201527f4f776e61626c653a2063616c6c6572206973206e6f7420746865206f776e65726044820152606401610163565b600080547fffffffffffffffffffffff00ffffffffffffffffffffffffffffffffffffffff8116600160a01b9182900460ff1615909102179055565b6000546001600160a01b031633146105fb5760405162461bcd60e51b815260206004820181905260248201527f4f776e61626c653a2063616c6c6572206973206e6f7420746865206f776e65726044820152606401610163565b6001600160a01b0382166106375760405162461bcd60e51b8152602060048201526003602482015262424e4160e81b6044820152606401610163565b6001600160a01b0381166106735760405162461bcd60e51b8152602060048201526003602482015262424e4160e81b6044820152606401610163565b6001600160a01b0382811660008181526003602090815260409182902080546001600160a01b0319169486169485179055905192835290917f014fbcdb8004a90fb0a4ee861d6532d83889c48c75d7e6cbc8de071d74cdcf0591015b60405180910390a25050565b6000546001600160a01b031633146107355760405162461bcd60e51b815260206004820181905260248201527f4f776e61626c653a2063616c6c6572206973206e6f7420746865206f776e65726044820152606401610163565b600080546040516001600160a01b03909116907f8be0079c531659141344cd1fd0a4f28419497f9722a3daafe3b4186f6b6457e0908390a3600080546001600160a01b0319169055565b6000546001600160a01b031633146107d95760405162461bcd60e51b815260206004820181905260248201527f4f776e61626c653a2063616c6c6572206973206e6f7420746865206f776e65726044820152606401610163565b6001600160a01b0381166108155760405162461bcd60e51b8152602060048201526003602482015262424e4160e81b6044820152606401610163565b6001600160a01b03811660008181526003602052604080822080546001600160a01b0319169055517fe66c44133a8036b1875df40b8b5c70c866d843df8e6a2c935e9385e3143ce86f9190a250565b6000546001600160a01b031633146108be5760405162461bcd60e51b815260206004820181905260248201527f4f776e61626c653a2063616c6c6572206973206e6f7420746865206f776e65726044820152606401610163565b82811461090d5760405162461bcd60e51b815260206004820152601460248201527f496e76616c696420496e707574206c656e6774680000000000000000000000006044820152606401610163565b60005b83811015610a675782828281811061093857634e487b7160e01b600052603260045260246000fd5b905060200201602081019061094d919061317e565b6001600087878581811061097157634e487b7160e01b600052603260045260246000fd5b90506020020160208101906109869190612f13565b6001600160a01b031681526020810191909152604001600020805460ff19169115159190911790558484828181106109ce57634e487b7160e01b600052603260045260246000fd5b90506020020160208101906109e39190612f13565b6001600160a01b03167f0531bd109c973784b4334bcf74a34b6587a7b9a435a6426b47fbc9509530e4b6848484818110610a2d57634e487b7160e01b600052603260045260246000fd5b9050602002016020810190610a42919061317e565b604051901515815260200160405180910390a280610a5f816133b2565b915050610910565b5050505050565b6000546001600160a01b03163314610ac85760405162461bcd60e51b815260206004820181905260248201527f4f776e61626c653a2063616c6c6572206973206e6f7420746865206f776e65726044820152606401610163565b6001600160a01b038216610b045760405162461bcd60e51b8152602060048201526003602482015262424e4160e81b6044820152606401610163565b6001600160a01b038116610b405760405162461bcd60e51b8152602060048201526003602482015262424e4160e81b6044820152606401610163565b6001600160a01b0382811660008181526002602090815260409182902080546001600160a01b0319169486169485179055905192835290917ffedd04b696db668820550d5c7b73dd4671e9192f09e77f2f67e04c0386c3f0d691016106cf565b6000546001600160a01b03163314610bfa5760405162461bcd60e51b815260206004820181905260248201527f4f776e61626c653a2063616c6c6572206973206e6f7420746865206f776e65726044820152606401610163565b6001600160a01b038116610c365760405162461bcd60e51b8152602060048201526003602482015262424e4160e81b6044820152606401610163565b6001600160a01b03811660008181526002602052604080822080546001600160a01b0319169055517f9a60cf762a48ea2f21c3fcb3ba49561b3cb45a77f7344f533e2a57a8639f99989190a250565b600080546001600160a01b03163314610ce05760405162461bcd60e51b815260206004820181905260248201527f4f776e61626c653a2063616c6c6572206973206e6f7420746865206f776e65726044820152606401610163565b6040516370a0823160e01b8152306004820152610d8e907f0000000000000000000000000000000000000000000000000000000000000000906001600160a01b038516906370a082319060240160206040518083038186803b158015610d4557600080fd5b505afa158015610d59573d6000803e3d6000fd5b505050506040513d601f19601f82011682018060405250810190610d7d9190613204565b6001600160a01b03851691906117db565b5060015b919050565b60008054600160a01b900460ff1615610ddb5760405162461bcd60e51b815260206004820152600660248201526514185d5cd95960d21b6044820152606401610163565b336001600160a01b03831614610e185760405162461bcd60e51b81526020600482015260026024820152614e4160f01b6044820152606401610163565b6001600160a01b0389811660009081526003602052604090205416610e655760405162461bcd60e51b8152602060048201526003602482015262424e4160e81b6044820152606401610163565b610e8960405180606001604052806000815260200160008152602001600081525090565b610e938b8a611889565b60408201526001600160a01b038b1615610f23576040516370a0823160e01b81523060048201526001600160a01b038c16906370a082319060240160206040518083038186803b158015610ee657600080fd5b505afa158015610efa573d6000803e3d6000fd5b505050506040513d601f19601f82011682018060405250810190610f1e9190613204565b610f25565b475b81526001600160a01b03808b1660009081526003602052604080822054908401519192610f5a928f92909116908b8b8b6119ac565b90506001600160a01b038c1615610fe7576040516370a0823160e01b81523060048201526001600160a01b038d16906370a082319060240160206040518083038186803b158015610faa57600080fd5b505afa158015610fbe573d6000803e3d6000fd5b505050506040513d601f19601f82011682018060405250810190610fe29190613204565b611069565b6040516370a0823160e01b815230600482015273d00ae08403b9bbb9124bb305c09058e32c39a48c906370a082319060240160206040518083038186803b15801561103157600080fd5b505afa158015611045573d6000803e3d6000fd5b505050506040513d601f19601f820116820180604052508101906110699190613204565b6020830181905260408301518351611081919061336f565b146110ce5760405162461bcd60e51b815260206004820152601360248201527f4e6f7420616c6c20746f6b656e732075736564000000000000000000000000006044820152606401610163565b8881101561110e5760405162461bcd60e51b815260206004820152600d60248201526c4869676820536c69707061676560981b6044820152606401610163565b6001600160a01b03808c1660009081526003602052604090205461113491168c83611ce0565b604051638dbdbe6d60e01b815260048101829052602481018690526001600160a01b0385811660448301528c1690638dbdbe6d90606401602060405180830381600087803b15801561118557600080fd5b505af1158015611199573d6000803e3d6000fd5b505050506040513d601f19601f820116820180604052508101906111bd9190613204565b506001600160a01b038b811660009081526003602090815260409182902054825133815293169083015281018290527f7f31d76771556dce5ab39ba5b60664743da2629a75c474e9445734b7ad34087d906060015b60405180910390a19b9a5050505050505050505050565b6000546001600160a01b031633146112835760405162461bcd60e51b815260206004820181905260248201527f4f776e61626c653a2063616c6c6572206973206e6f7420746865206f776e65726044820152606401610163565b6001600160a01b0381166112ff5760405162461bcd60e51b815260206004820152602660248201527f4f776e61626c653a206e6577206f776e657220697320746865207a65726f206160448201527f64647265737300000000000000000000000000000000000000000000000000006064820152608401610163565b600080546040516001600160a01b03808516939216917f8be0079c531659141344cd1fd0a4f28419497f9722a3daafe3b4186f6b6457e091a3600080546001600160a01b0319166001600160a01b0392909216919091179055565b60008054600160a01b900460ff161561139e5760405162461bcd60e51b815260206004820152600660248201526514185d5cd95960d21b6044820152606401610163565b336001600160a01b038316146113db5760405162461bcd60e51b81526020600482015260026024820152614e4160f01b6044820152606401610163565b6001600160a01b03898116600090815260026020526040902054166114285760405162461bcd60e51b8152602060048201526003602482015262424e4160e81b6044820152606401610163565b61144c60405180606001604052806000815260200160008152602001600081525090565b6114568b8a611889565b60408201526001600160a01b038b16156114e6576040516370a0823160e01b81523060048201526001600160a01b038c16906370a082319060240160206040518083038186803b1580156114a957600080fd5b505afa1580156114bd573d6000803e3d6000fd5b505050506040513d601f19601f820116820180604052508101906114e19190613204565b6114e8565b475b81526001600160a01b03808b166000908152600260205260408082205490840151919261151f928f92909116908b8b8b6001611d09565b90506001600160a01b038c16156115ac576040516370a0823160e01b81523060048201526001600160a01b038d16906370a082319060240160206040518083038186803b15801561156f57600080fd5b505afa158015611583573d6000803e3d6000fd5b505050506040513d601f19601f820116820180604052508101906115a79190613204565b61162e565b6040516370a0823160e01b815230600482015273d00ae08403b9bbb9124bb305c09058e32c39a48c906370a082319060240160206040518083038186803b1580156115f657600080fd5b505afa15801561160a573d6000803e3d6000fd5b505050506040513d601f19601f8201168201806040525081019061162e9190613204565b6020830181905260408301518351611646919061336f565b146116935760405162461bcd60e51b815260206004820152601360248201527f4e6f7420616c6c20746f6b656e732075736564000000000000000000000000006044820152606401610163565b888110156116d35760405162461bcd60e51b815260206004820152600d60248201526c4869676820536c69707061676560981b6044820152606401610163565b6001600160a01b03808c166000908152600260205260409020546116f991168c83611ce0565b604051638dbdbe6d60e01b815260048101829052602481018690526001600160a01b0385811660448301528c1690638dbdbe6d90606401602060405180830381600087803b15801561174a57600080fd5b505af115801561175e573d6000803e3d6000fd5b505050506040513d601f19601f820116820180604052508101906117829190613204565b506001600160a01b038b811660009081526002602090815260409182902054825133815293169083015281018290527f7f31d76771556dce5ab39ba5b60664743da2629a75c474e9445734b7ad34087d90606001611212565b6040516001600160a01b0383166024820152604481018290526118849084907fa9059cbb00000000000000000000000000000000000000000000000000000000906064015b60408051601f198184030181529190526020810180517bffffffffffffffffffffffffffffffffffffffffffffffffffffffff167fffffffff0000000000000000000000000000000000000000000000000000000090931692909217909152611da8565b505050565b60006001600160a01b0383166118f057600034116118e95760405162461bcd60e51b815260206004820152600b60248201527f4e6f206574682073656e740000000000000000000000000000000000000000006044820152606401610163565b50346119a6565b600082116119405760405162461bcd60e51b815260206004820152601460248201527f496e76616c696420746f6b656e20616d6f756e740000000000000000000000006044820152606401610163565b341561198e5760405162461bcd60e51b815260206004820152601360248201527f4574682073656e74207769746820746f6b656e000000000000000000000000006044820152606401610163565b6119a36001600160a01b038416333085611e8d565b50805b92915050565b60006001600160a01b03841673d00ae08403b9bbb9124bb305c09058e32c39a48c1415611a435773d00ae08403b9bbb9124bb305c09058e32c39a48c6001600160a01b031663d0e30db0866040518263ffffffff1660e01b81526004016000604051808303818588803b158015611a2257600080fd5b505af1158015611a36573d6000803e3d6000fd5b5050505050849050611cd6565b60006001600160a01b038816611a5a575084611a65565b611a65888688611ce0565b6040516370a0823160e01b815230600482015287906000906001600160a01b038316906370a082319060240160206040518083038186803b158015611aa957600080fd5b505afa158015611abd573d6000803e3d6000fd5b505050506040513d601f19601f82011682018060405250810190611ae19190613204565b6001600160a01b03881660009081526001602052604090205490915060ff16611b4c5760405162461bcd60e51b815260206004820152601560248201527f546172676574206e6f7420417574686f72697a656400000000000000000000006044820152606401610163565b6000876001600160a01b0316848888604051611b69929190613249565b60006040518083038185875af1925050503d8060008114611ba6576040519150601f19603f3d011682016040523d82523d6000602084013e611bab565b606091505b5050905080611bfc5760405162461bcd60e51b815260206004820152601760248201527f4572726f72205377617070696e6720546f6b656e7320310000000000000000006044820152606401610163565b6040516370a0823160e01b815230600482015282906001600160a01b038516906370a082319060240160206040518083038186803b158015611c3d57600080fd5b505afa158015611c51573d6000803e3d6000fd5b505050506040513d601f19601f82011682018060405250810190611c759190613204565b611c7f919061336f565b945060008511611cd15760405162461bcd60e51b815260206004820152601760248201527f4572726f72205377617070696e6720546f6b656e7320320000000000000000006044820152606401610163565b505050505b9695505050505050565b611cf56001600160a01b038416836000611ee4565b6118846001600160a01b0384168383611ee4565b6000806000806000611d1a8b612041565b91509150816001600160a01b03168c6001600160a01b031614158015611d525750806001600160a01b03168c6001600160a01b031614155b15611d6f57611d658c8c8c8c8c8c612135565b9094509250611d76565b8b92508993505b600080611d85858585896125be565b91509150611d96848484848c61279b565b9e9d5050505050505050505050505050565b6000611dfd826040518060400160405280602081526020017f5361666545524332303a206c6f772d6c6576656c2063616c6c206661696c6564815250856001600160a01b03166129379092919063ffffffff16565b8051909150156118845780806020019051810190611e1b919061319a565b6118845760405162461bcd60e51b815260206004820152602a60248201527f5361666545524332303a204552433230206f7065726174696f6e20646964206e60448201527f6f742073756363656564000000000000000000000000000000000000000000006064820152608401610163565b6040516001600160a01b0380851660248301528316604482015260648101829052611ede9085907f23b872dd0000000000000000000000000000000000000000000000000000000090608401611820565b50505050565b801580611f8657506040517fdd62ed3e0000000000000000000000000000000000000000000000000000000081523060048201526001600160a01b03838116602483015284169063dd62ed3e9060440160206040518083038186803b158015611f4c57600080fd5b505afa158015611f60573d6000803e3d6000fd5b505050506040513d601f19601f82011682018060405250810190611f849190613204565b155b611ff85760405162461bcd60e51b815260206004820152603660248201527f5361666545524332303a20617070726f76652066726f6d206e6f6e2d7a65726f60448201527f20746f206e6f6e2d7a65726f20616c6c6f77616e6365000000000000000000006064820152608401610163565b6040516001600160a01b0383166024820152604481018290526118849084907f095ea7b30000000000000000000000000000000000000000000000000000000090606401611820565b6000806000839050806001600160a01b0316630dfe16816040518163ffffffff1660e01b815260040160206040518083038186803b15801561208257600080fd5b505afa158015612096573d6000803e3d6000fd5b505050506040513d601f19601f820116820180604052508101906120ba9190612f2f565b9250806001600160a01b031663d21220a76040518163ffffffff1660e01b815260040160206040518083038186803b1580156120f557600080fd5b505afa158015612109573d6000803e3d6000fd5b505050506040513d601f19601f8201168201806040525081019061212d9190612f2f565b915050915091565b6000806001600160a01b03851673d00ae08403b9bbb9124bb305c09058e32c39a48c14156121e45773d00ae08403b9bbb9124bb305c09058e32c39a48c6001600160a01b031663d0e30db0876040518263ffffffff1660e01b81526004016000604051808303818588803b1580156121ac57600080fd5b505af11580156121c0573d6000803e3d6000fd5b50505050508573d00ae08403b9bbb9124bb305c09058e32c39a48c915091506125b3565b60006001600160a01b0389166121fb575085612206565b612206898789611ce0565b6000806122128a612041565b6040516370a0823160e01b81523060048201529193509150829082906000906001600160a01b038416906370a082319060240160206040518083038186803b15801561225d57600080fd5b505afa158015612271573d6000803e3d6000fd5b505050506040513d601f19601f820116820180604052508101906122959190613204565b6040516370a0823160e01b81523060048201529091506000906001600160a01b038416906370a082319060240160206040518083038186803b1580156122da57600080fd5b505afa1580156122ee573d6000803e3d6000fd5b505050506040513d601f19601f820116820180604052508101906123129190613204565b6001600160a01b038d1660009081526001602052604090205490915060ff1661237d5760405162461bcd60e51b815260206004820152601560248201527f546172676574206e6f7420417574686f72697a656400000000000000000000006044820152606401610163565b60008c6001600160a01b0316888d8d60405161239a929190613249565b60006040518083038185875af1925050503d80600081146123d7576040519150601f19603f3d011682016040523d82523d6000602084013e6123dc565b606091505b505090508061242d5760405162461bcd60e51b815260206004820152601760248201527f4572726f72205377617070696e6720546f6b656e7320310000000000000000006044820152606401610163565b6040516370a0823160e01b815230600482015260009084906001600160a01b038816906370a082319060240160206040518083038186803b15801561247157600080fd5b505afa158015612485573d6000803e3d6000fd5b505050506040513d601f19601f820116820180604052508101906124a99190613204565b6124b3919061336f565b6040516370a0823160e01b815230600482015290915060009084906001600160a01b038816906370a082319060240160206040518083038186803b1580156124fa57600080fd5b505afa15801561250e573d6000803e3d6000fd5b505050506040513d601f19601f820116820180604052508101906125329190613204565b61253c919061336f565b90508082111561255157819b50889a50612558565b809b50879a505b60008c116125a85760405162461bcd60e51b815260206004820152601f60248201527f5377617070656420746f20496e76616c696420496e7465726d656469617465006044820152606401610163565b505050505050505050505b965096945050505050565b60405163e6a4390560e01b81526001600160a01b0380851660048301528316602482015260009081908190737eeccb3028870540eec3d88c2259506f2d34fee09063e6a439059060440160206040518083038186803b15801561262057600080fd5b505afa158015612634573d6000803e3d6000fd5b505050506040513d601f19601f820116820180604052508101906126589190612f2f565b9050600080826001600160a01b0316630902f1ac6040518163ffffffff1660e01b815260040160606040518083038186803b15801561269657600080fd5b505afa1580156126aa573d6000803e3d6000fd5b505050506040513d601f19601f820116820180604052508101906126ce91906131b6565b506dffffffffffffffffffffffffffff1691506dffffffffffffffffffffffffffff169150876001600160a01b0316896001600160a01b031614156127505760006127198388612950565b9050600081116127315761272e600288613330565b90505b61273c8a89836129ab565b9450612748818861336f565b95505061278f565b600061275c8288612950565b90506000811161277457612771600288613330565b90505b61277f8a8a836129ab565b955061278b818861336f565b9450505b50505094509492505050565b60006127bc86735db0735cf88f85e78ed742215090c465979b500686611ce0565b6127db85735db0735cf88f85e78ed742215090c465979b500685611ce0565b6040517fe8e337000000000000000000000000000000000000000000000000000000000081526001600160a01b03808816600483015286166024820152604481018590526064810184905260016084820181905260a48201523060c4820152600f60fc1b60e482015260009081908190735db0735cf88f85e78ed742215090c465979b50069063e8e337009061010401606060405180830381600087803b15801561288557600080fd5b505af1158015612899573d6000803e3d6000fd5b505050506040513d601f19601f820116820180604052508101906128bd919061321c565b925092509250841561292b5760006128d5848961336f565b11156128fa576128fa336128e9858a61336f565b6001600160a01b038c1691906117db565b6000612906838861336f565b111561292b5761292b3361291a848961336f565b6001600160a01b038b1691906117db565b98975050505050505050565b60606129468484600085612cba565b90505b9392505050565b60006107ca612961846107cd613350565b61299761297186623cda29613350565b61297e86623cda20613350565b6129889190613318565b6129929087613350565b612df9565b6129a1919061336f565b6129499190613330565b6000826001600160a01b0316846001600160a01b031614156129ce575080612949565b6129ed84735db0735cf88f85e78ed742215090c465979b500684611ce0565b60405163e6a4390560e01b81526001600160a01b03808616600483015284166024820152600090737eeccb3028870540eec3d88c2259506f2d34fee09063e6a439059060440160206040518083038186803b158015612a4b57600080fd5b505afa158015612a5f573d6000803e3d6000fd5b505050506040513d601f19601f82011682018060405250810190612a839190612f2f565b90506001600160a01b038116612adb5760405162461bcd60e51b815260206004820152601160248201527f4e6f205377617020417661696c61626c650000000000000000000000000000006044820152606401610163565b6040805160028082526060820183526000926020830190803683370190505090508581600081518110612b1e57634e487b7160e01b600052603260045260246000fd5b60200260200101906001600160a01b031690816001600160a01b0316815250508481600181518110612b6057634e487b7160e01b600052603260045260246000fd5b6001600160a01b03909216602092830291909101909101526040517f38ed1739000000000000000000000000000000000000000000000000000000008152735db0735cf88f85e78ed742215090c465979b5006906338ed173990612bd590879060019086903090600f60fc1b906004016132a8565b600060405180830381600087803b158015612bef57600080fd5b505af1158015612c03573d6000803e3d6000fd5b505050506040513d6000823e601f3d908101601f19168201604052612c2b91908101906130bf565b60018251612c39919061336f565b81518110612c5757634e487b7160e01b600052603260045260246000fd5b6020026020010151925060008311612cb15760405162461bcd60e51b815260206004820152601760248201527f4572726f72205377617070696e6720546f6b656e7320320000000000000000006044820152606401610163565b50509392505050565b606082471015612d325760405162461bcd60e51b815260206004820152602660248201527f416464726573733a20696e73756666696369656e742062616c616e636520666f60448201527f722063616c6c00000000000000000000000000000000000000000000000000006064820152608401610163565b843b612d805760405162461bcd60e51b815260206004820152601d60248201527f416464726573733a2063616c6c20746f206e6f6e2d636f6e74726163740000006044820152606401610163565b600080866001600160a01b03168587604051612d9c9190613259565b60006040518083038185875af1925050503d8060008114612dd9576040519150601f19603f3d011682016040523d82523d6000602084013e612dde565b606091505b5091509150612dee828286612e68565b979650505050505050565b60006003821115612e5a5750806000612e13600283613330565b612e1e906001613318565b90505b81811015612e5457905080600281612e398186613330565b612e439190613318565b612e4d9190613330565b9050612e21565b50610d92565b8115610d9257506001919050565b60608315612e77575081612949565b825115612e875782518084602001fd5b8160405162461bcd60e51b81526004016101639190613275565b8035610d92816133f9565b60008083601f840112612ebd578081fd5b50813567ffffffffffffffff811115612ed4578182fd5b6020830191508360208083028501011115612eee57600080fd5b9250929050565b80516dffffffffffffffffffffffffffff81168114610d9257600080fd5b600060208284031215612f24578081fd5b8135612949816133f9565b600060208284031215612f40578081fd5b8151612949816133f9565b60008060408385031215612f5d578081fd5b8235612f68816133f9565b91506020830135612f78816133f9565b809150509250929050565b60008060008060008060008060006101008a8c031215612fa1578485fd5b8935612fac816133f9565b985060208a0135612fbc816133f9565b975060408a0135965060608a0135955060808a0135612fda816133f9565b945060a08a013567ffffffffffffffff80821115612ff6578586fd5b818c0191508c601f830112613009578586fd5b813581811115613017578687fd5b8d6020828501011115613028578687fd5b60208301965080955050505060c08a0135915061304760e08b01612ea1565b90509295985092959850929598565b6000806000806040858703121561306b578384fd5b843567ffffffffffffffff80821115613082578586fd5b61308e88838901612eac565b909650945060208701359150808211156130a6578384fd5b506130b387828801612eac565b95989497509550505050565b600060208083850312156130d1578182fd5b825167ffffffffffffffff808211156130e8578384fd5b818501915085601f8301126130fb578384fd5b81518181111561310d5761310d6133e3565b838102604051601f19603f83011681018181108582111715613131576131316133e3565b604052828152858101935084860182860187018a101561314f578788fd5b8795505b83861015613171578051855260019590950194938601938601613153565b5098975050505050505050565b60006020828403121561318f578081fd5b81356129498161340e565b6000602082840312156131ab578081fd5b81516129498161340e565b6000806000606084860312156131ca578283fd5b6131d384612ef5565b92506131e160208501612ef5565b9150604084015163ffffffff811681146131f9578182fd5b809150509250925092565b600060208284031215613215578081fd5b5051919050565b600080600060608486031215613230578081fd5b8351925060208401519150604084015190509250925092565b6000828483379101908152919050565b6000825161326b818460208701613386565b9190910192915050565b6000602082528251806020840152613294816040850160208701613386565b601f01601f19169190910160400192915050565b600060a082018783526020878185015260a0604085015281875180845260c0860191508289019350845b818110156132f75784516001600160a01b0316835293830193918301916001016132d2565b50506001600160a01b03969096166060850152505050608001529392505050565b6000821982111561332b5761332b6133cd565b500190565b60008261334b57634e487b7160e01b81526012600452602481fd5b500490565b600081600019048311821515161561336a5761336a6133cd565b500290565b600082821015613381576133816133cd565b500390565b60005b838110156133a1578181015183820152602001613389565b83811115611ede5750506000910152565b60006000198214156133c6576133c66133cd565b5060010190565b634e487b7160e01b600052601160045260246000fd5b634e487b7160e01b600052604160045260246000fd5b6001600160a01b038116811461050757600080fd5b801515811461050757600080fdfea26469706673582212205ab6ae0bb46fa64eeb77df28b99fbee557b4fa7eea935fe9af38b72b28c3212664736f6c63430008020033",
  "immutableReferences": {
    "1173": [
      {
        "length": 32,
        "start": 1084
      },
      {
        "length": 32,
        "start": 3321
      }
    ]
  },
  "source": "// \r\n// \r\n// \r\n// \r\n// \r\n// \r\n// Copyright (C) 2021 zapper\r\n\r\n// This program is free software: you can redistribute it and/or modify\r\n// it under the terms of the GNU Affero General Public License as published by\r\n// the Free Software Foundation, either version 2 of the License, or\r\n// (at your option) any later version.\r\n//\r\n// This program is distributed in the hope that it will be useful,\r\n// but WITHOUT ANY WARRANTY; without even the implied warranty of\r\n// MERCHANTABILITY or FITNESS FOR A PARTICULAR PURPOSE.  See the\r\n// GNU Affero General Public License for more details.\r\n//\r\n\r\n///@author Zapper\r\n///@notice This contract adds liquidity to TraderJoe pools on Avalanche using AVAX or any ERC20 Tokens.\r\n// SPDX-License-Identifier: GPL-2.0 AND MIT\r\n\r\n// File contracts/oz/0.8.0/utils/Context.sol\r\n\r\npragma solidity ^0.8.0;\r\n\r\n/*\r\n * @dev Provides information about the current execution context, including the\r\n * sender of the transaction and its data. While these are generally available\r\n * via msg.sender and msg.data, they should not be accessed in such a direct\r\n * manner, since when dealing with meta-transactions the account sending and\r\n * paying for execution may not be the actual sender (as far as an application\r\n * is concerned).\r\n *\r\n * This contract is only required for intermediate, library-like contracts.\r\n */\r\nabstract contract Context {\r\n    function _msgSender() internal view virtual returns (address) {\r\n        return msg.sender;\r\n    }\r\n\r\n    function _msgData() internal view virtual returns (bytes calldata) {\r\n        this; // silence state mutability warning without generating bytecode - see https://github.com/ethereum/solidity/issues/2691\r\n        return msg.data;\r\n    }\r\n}\r\n\r\n// File contracts/oz/0.8.0/access/Ownable.sol\r\n\r\npragma solidity ^0.8.0;\r\n\r\n/**\r\n * @dev Contract module which provides a basic access control mechanism, where\r\n * there is an account (an owner) that can be granted exclusive access to\r\n * specific functions.\r\n *\r\n * By default, the owner account will be the one that deploys the contract. This\r\n * can later be changed with {transferOwnership}.\r\n *\r\n * This module is used through inheritance. It will make available the modifier\r\n * `onlyOwner`, which can be applied to your functions to restrict their use to\r\n * the owner.\r\n */\r\nabstract contract Ownable is Context {\r\n    address private _owner;\r\n\r\n    event OwnershipTransferred(\r\n        address indexed previousOwner,\r\n        address indexed newOwner\r\n    );\r\n\r\n    /**\r\n     * @dev Initializes the contract setting the deployer as the initial owner.\r\n     */\r\n    constructor() {\r\n        address msgSender = _msgSender();\r\n        _owner = msgSender;\r\n        emit OwnershipTransferred(address(0), msgSender);\r\n    }\r\n\r\n    /**\r\n     * @dev Returns the address of the current owner.\r\n     */\r\n    function owner() public view virtual returns (address) {\r\n        return _owner;\r\n    }\r\n\r\n    /**\r\n     * @dev Throws if called by any account other than the owner.\r\n     */\r\n    modifier onlyOwner() {\r\n        require(owner() == _msgSender(), \"Ownable: caller is not the owner\");\r\n        _;\r\n    }\r\n\r\n    /**\r\n     * @dev Leaves the contract without owner. It will not be possible to call\r\n     * `onlyOwner` functions anymore. Can only be called by the current owner.\r\n     *\r\n     * NOTE: Renouncing ownership will leave the contract without an owner,\r\n     * thereby removing any functionality that is only available to the owner.\r\n     */\r\n    function renounceOwnership() public virtual onlyOwner {\r\n        emit OwnershipTransferred(_owner, address(0));\r\n        _owner = address(0);\r\n    }\r\n\r\n    /**\r\n     * @dev Transfers ownership of the contract to a new account (`newOwner`).\r\n     * Can only be called by the current owner.\r\n     */\r\n    function transferOwnership(address newOwner) public virtual onlyOwner {\r\n        require(\r\n            newOwner != address(0),\r\n            \"Ownable: new owner is the zero address\"\r\n        );\r\n        emit OwnershipTransferred(_owner, newOwner);\r\n        _owner = newOwner;\r\n    }\r\n}\r\n\r\n// File contracts/oz/0.8.0/token/ERC20/IERC20.sol\r\n\r\npragma solidity ^0.8.0;\r\n\r\n/**\r\n * @dev Interface of the ERC20 standard as defined in the EIP.\r\n */\r\ninterface IERC20 {\r\n    /**\r\n     * @dev Returns the amount of tokens in existence.\r\n     */\r\n    function totalSupply() external view returns (uint256);\r\n\r\n    /**\r\n     * @dev Returns the amount of tokens owned by `account`.\r\n     */\r\n    function balanceOf(address account) external view returns (uint256);\r\n\r\n    /**\r\n     * @dev Moves `amount` tokens from the caller's account to `recipient`.\r\n     *\r\n     * Returns a boolean value indicating whether the operation succeeded.\r\n     *\r\n     * Emits a {Transfer} event.\r\n     */\r\n    function transfer(address recipient, uint256 amount)\r\n        external\r\n        returns (bool);\r\n\r\n    /**\r\n     * @dev Returns the remaining number of tokens that `spender` will be\r\n     * allowed to spend on behalf of `owner` through {transferFrom}. This is\r\n     * zero by default.\r\n     *\r\n     * This value changes when {approve} or {transferFrom} are called.\r\n     */\r\n    function allowance(address owner, address spender)\r\n        external\r\n        view\r\n        returns (uint256);\r\n\r\n    /**\r\n     * @dev Sets `amount` as the allowance of `spender` over the caller's tokens.\r\n     *\r\n     * Returns a boolean value indicating whether the operation succeeded.\r\n     *\r\n     * IMPORTANT: Beware that changing an allowance with this method brings the risk\r\n     * that someone may use both the old and the new allowance by unfortunate\r\n     * transaction ordering. One possible solution to mitigate this race\r\n     * condition is to first reduce the spender's allowance to 0 and set the\r\n     * desired value afterwards:\r\n     * https://github.com/ethereum/EIPs/issues/20#issuecomment-263524729\r\n     *\r\n     * Emits an {Approval} event.\r\n     */\r\n    function approve(address spender, uint256 amount) external returns (bool);\r\n\r\n    /**\r\n     * @dev Moves `amount` tokens from `sender` to `recipient` using the\r\n     * allowance mechanism. `amount` is then deducted from the caller's\r\n     * allowance.\r\n     *\r\n     * Returns a boolean value indicating whether the operation succeeded.\r\n     *\r\n     * Emits a {Transfer} event.\r\n     */\r\n    function transferFrom(\r\n        address sender,\r\n        address recipient,\r\n        uint256 amount\r\n    ) external returns (bool);\r\n\r\n    /**\r\n     * @dev Emitted when `value` tokens are moved from one account (`from`) to\r\n     * another (`to`).\r\n     *\r\n     * Note that `value` may be zero.\r\n     */\r\n    event Transfer(address indexed from, address indexed to, uint256 value);\r\n\r\n    /**\r\n     * @dev Emitted when the allowance of a `spender` for an `owner` is set by\r\n     * a call to {approve}. `value` is the new allowance.\r\n     */\r\n    event Approval(\r\n        address indexed owner,\r\n        address indexed spender,\r\n        uint256 value\r\n    );\r\n}\r\n\r\n// File contracts/oz/0.8.0/utils/Address.sol\r\n\r\npragma solidity ^0.8.0;\r\n\r\n/**\r\n * @dev Collection of functions related to the address type\r\n */\r\nlibrary Address {\r\n    /**\r\n     * @dev Returns true if `account` is a contract.\r\n     *\r\n     * [IMPORTANT]\r\n     * ====\r\n     * It is unsafe to assume that an address for which this function returns\r\n     * false is an externally-owned account (EOA) and not a contract.\r\n     *\r\n     * Among others, `isContract` will return false for the following\r\n     * types of addresses:\r\n     *\r\n     *  - an externally-owned account\r\n     *  - a contract in construction\r\n     *  - an address where a contract will be created\r\n     *  - an address where a contract lived, but was destroyed\r\n     * ====\r\n     */\r\n    function isContract(address account) internal view returns (bool) {\r\n        // This method relies on extcodesize, which returns 0 for contracts in\r\n        // construction, since the code is only stored at the end of the\r\n        // constructor execution.\r\n\r\n        uint256 size;\r\n        // solhint-disable-next-line no-inline-assembly\r\n        assembly {\r\n            size := extcodesize(account)\r\n        }\r\n        return size > 0;\r\n    }\r\n\r\n    /**\r\n     * @dev Replacement for Solidity's `transfer`: sends `amount` wei to\r\n     * `recipient`, forwarding all available gas and reverting on errors.\r\n     *\r\n     * https://eips.ethereum.org/EIPS/eip-1884[EIP1884] increases the gas cost\r\n     * of certain opcodes, possibly making contracts go over the 2300 gas limit\r\n     * imposed by `transfer`, making them unable to receive funds via\r\n     * `transfer`. {sendValue} removes this limitation.\r\n     *\r\n     * https://diligence.consensys.net/posts/2019/09/stop-using-soliditys-transfer-now/[Learn more].\r\n     *\r\n     * IMPORTANT: because control is transferred to `recipient`, care must be\r\n     * taken to not create reentrancy vulnerabilities. Consider using\r\n     * {ReentrancyGuard} or the\r\n     * https://solidity.readthedocs.io/en/v0.5.11/security-considerations.html#use-the-checks-effects-interactions-pattern[checks-effects-interactions pattern].\r\n     */\r\n    function sendValue(address payable recipient, uint256 amount) internal {\r\n        require(\r\n            address(this).balance >= amount,\r\n            \"Address: insufficient balance\"\r\n        );\r\n\r\n        // solhint-disable-next-line avoid-low-level-calls, avoid-call-value\r\n        (bool success, ) = recipient.call{ value: amount }(\"\");\r\n        require(\r\n            success,\r\n            \"Address: unable to send value, recipient may have reverted\"\r\n        );\r\n    }\r\n\r\n    /**\r\n     * @dev Performs a Solidity function call using a low level `call`. A\r\n     * plain`call` is an unsafe replacement for a function call: use this\r\n     * function instead.\r\n     *\r\n     * If `target` reverts with a revert reason, it is bubbled up by this\r\n     * function (like regular Solidity function calls).\r\n     *\r\n     * Returns the raw returned data. To convert to the expected return value,\r\n     * use https://solidity.readthedocs.io/en/latest/units-and-global-variables.html?highlight=abi.decode#abi-encoding-and-decoding-functions[`abi.decode`].\r\n     *\r\n     * Requirements:\r\n     *\r\n     * - `target` must be a contract.\r\n     * - calling `target` with `data` must not revert.\r\n     *\r\n     * _Available since v3.1._\r\n     */\r\n    function functionCall(address target, bytes memory data)\r\n        internal\r\n        returns (bytes memory)\r\n    {\r\n        return functionCall(target, data, \"Address: low-level call failed\");\r\n    }\r\n\r\n    /**\r\n     * @dev Same as {xref-Address-functionCall-address-bytes-}[`functionCall`], but with\r\n     * `errorMessage` as a fallback revert reason when `target` reverts.\r\n     *\r\n     * _Available since v3.1._\r\n     */\r\n    function functionCall(\r\n        address target,\r\n        bytes memory data,\r\n        string memory errorMessage\r\n    ) internal returns (bytes memory) {\r\n        return functionCallWithValue(target, data, 0, errorMessage);\r\n    }\r\n\r\n    /**\r\n     * @dev Same as {xref-Address-functionCall-address-bytes-}[`functionCall`],\r\n     * but also transferring `value` wei to `target`.\r\n     *\r\n     * Requirements:\r\n     *\r\n     * - the calling contract must have an ETH balance of at least `value`.\r\n     * - the called Solidity function must be `payable`.\r\n     *\r\n     * _Available since v3.1._\r\n     */\r\n    function functionCallWithValue(\r\n        address target,\r\n        bytes memory data,\r\n        uint256 value\r\n    ) internal returns (bytes memory) {\r\n        return\r\n            functionCallWithValue(\r\n                target,\r\n                data,\r\n                value,\r\n                \"Address: low-level call with value failed\"\r\n            );\r\n    }\r\n\r\n    /**\r\n     * @dev Same as {xref-Address-functionCallWithValue-address-bytes-uint256-}[`functionCallWithValue`], but\r\n     * with `errorMessage` as a fallback revert reason when `target` reverts.\r\n     *\r\n     * _Available since v3.1._\r\n     */\r\n    function functionCallWithValue(\r\n        address target,\r\n        bytes memory data,\r\n        uint256 value,\r\n        string memory errorMessage\r\n    ) internal returns (bytes memory) {\r\n        require(\r\n            address(this).balance >= value,\r\n            \"Address: insufficient balance for call\"\r\n        );\r\n        require(isContract(target), \"Address: call to non-contract\");\r\n\r\n        // solhint-disable-next-line avoid-low-level-calls\r\n        (bool success, bytes memory returndata) =\r\n            target.call{ value: value }(data);\r\n        return _verifyCallResult(success, returndata, errorMessage);\r\n    }\r\n\r\n    /**\r\n     * @dev Same as {xref-Address-functionCall-address-bytes-}[`functionCall`],\r\n     * but performing a static call.\r\n     *\r\n     * _Available since v3.3._\r\n     */\r\n    function functionStaticCall(address target, bytes memory data)\r\n        internal\r\n        view\r\n        returns (bytes memory)\r\n    {\r\n        return\r\n            functionStaticCall(\r\n                target,\r\n                data,\r\n                \"Address: low-level static call failed\"\r\n            );\r\n    }\r\n\r\n    /**\r\n     * @dev Same as {xref-Address-functionCall-address-bytes-string-}[`functionCall`],\r\n     * but performing a static call.\r\n     *\r\n     * _Available since v3.3._\r\n     */\r\n    function functionStaticCall(\r\n        address target,\r\n        bytes memory data,\r\n        string memory errorMessage\r\n    ) internal view returns (bytes memory) {\r\n        require(isContract(target), \"Address: static call to non-contract\");\r\n\r\n        // solhint-disable-next-line avoid-low-level-calls\r\n        (bool success, bytes memory returndata) = target.staticcall(data);\r\n        return _verifyCallResult(success, returndata, errorMessage);\r\n    }\r\n\r\n    /**\r\n     * @dev Same as {xref-Address-functionCall-address-bytes-}[`functionCall`],\r\n     * but performing a delegate call.\r\n     *\r\n     * _Available since v3.4._\r\n     */\r\n    function functionDelegateCall(address target, bytes memory data)\r\n        internal\r\n        returns (bytes memory)\r\n    {\r\n        return\r\n            functionDelegateCall(\r\n                target,\r\n                data,\r\n                \"Address: low-level delegate call failed\"\r\n            );\r\n    }\r\n\r\n    /**\r\n     * @dev Same as {xref-Address-functionCall-address-bytes-string-}[`functionCall`],\r\n     * but performing a delegate call.\r\n     *\r\n     * _Available since v3.4._\r\n     */\r\n    function functionDelegateCall(\r\n        address target,\r\n        bytes memory data,\r\n        string memory errorMessage\r\n    ) internal returns (bytes memory) {\r\n        require(isContract(target), \"Address: delegate call to non-contract\");\r\n\r\n        // solhint-disable-next-line avoid-low-level-calls\r\n        (bool success, bytes memory returndata) = target.delegatecall(data);\r\n        return _verifyCallResult(success, returndata, errorMessage);\r\n    }\r\n\r\n    function _verifyCallResult(\r\n        bool success,\r\n        bytes memory returndata,\r\n        string memory errorMessage\r\n    ) private pure returns (bytes memory) {\r\n        if (success) {\r\n            return returndata;\r\n        } else {\r\n            // Look for revert reason and bubble it up if present\r\n            if (returndata.length > 0) {\r\n                // The easiest way to bubble the revert reason is using memory via assembly\r\n\r\n                // solhint-disable-next-line no-inline-assembly\r\n                assembly {\r\n                    let returndata_size := mload(returndata)\r\n                    revert(add(32, returndata), returndata_size)\r\n                }\r\n            } else {\r\n                revert(errorMessage);\r\n            }\r\n        }\r\n    }\r\n}\r\n\r\n// File contracts/oz/0.8.0/token/ERC20/utils/SafeERC20.sol\r\n\r\npragma solidity ^0.8.0;\r\n\r\n/**\r\n * @title SafeERC20\r\n * @dev Wrappers around ERC20 operations that throw on failure (when the token\r\n * contract returns false). Tokens that return no value (and instead revert or\r\n * throw on failure) are also supported, non-reverting calls are assumed to be\r\n * successful.\r\n * To use this library you can add a `using SafeERC20 for IERC20;` statement to your contract,\r\n * which allows you to call the safe operations as `token.safeTransfer(...)`, etc.\r\n */\r\nlibrary SafeERC20 {\r\n    using Address for address;\r\n\r\n    function safeTransfer(\r\n        IERC20 token,\r\n        address to,\r\n        uint256 value\r\n    ) internal {\r\n        _callOptionalReturn(\r\n            token,\r\n            abi.encodeWithSelector(token.transfer.selector, to, value)\r\n        );\r\n    }\r\n\r\n    function safeTransferFrom(\r\n        IERC20 token,\r\n        address from,\r\n        address to,\r\n        uint256 value\r\n    ) internal {\r\n        _callOptionalReturn(\r\n            token,\r\n            abi.encodeWithSelector(token.transferFrom.selector, from, to, value)\r\n        );\r\n    }\r\n\r\n    /**\r\n     * @dev Deprecated. This function has issues similar to the ones found in\r\n     * {IERC20-approve}, and its usage is discouraged.\r\n     *\r\n     * Whenever possible, use {safeIncreaseAllowance} and\r\n     * {safeDecreaseAllowance} instead.\r\n     */\r\n    function safeApprove(\r\n        IERC20 token,\r\n        address spender,\r\n        uint256 value\r\n    ) internal {\r\n        // safeApprove should only be called when setting an initial allowance,\r\n        // or when resetting it to zero. To increase and decrease it, use\r\n        // 'safeIncreaseAllowance' and 'safeDecreaseAllowance'\r\n        // solhint-disable-next-line max-line-length\r\n        require(\r\n            (value == 0) || (token.allowance(address(this), spender) == 0),\r\n            \"SafeERC20: approve from non-zero to non-zero allowance\"\r\n        );\r\n        _callOptionalReturn(\r\n            token,\r\n            abi.encodeWithSelector(token.approve.selector, spender, value)\r\n        );\r\n    }\r\n\r\n    function safeIncreaseAllowance(\r\n        IERC20 token,\r\n        address spender,\r\n        uint256 value\r\n    ) internal {\r\n        uint256 newAllowance = token.allowance(address(this), spender) + value;\r\n        _callOptionalReturn(\r\n            token,\r\n            abi.encodeWithSelector(\r\n                token.approve.selector,\r\n                spender,\r\n                newAllowance\r\n            )\r\n        );\r\n    }\r\n\r\n    function safeDecreaseAllowance(\r\n        IERC20 token,\r\n        address spender,\r\n        uint256 value\r\n    ) internal {\r\n        unchecked {\r\n            uint256 oldAllowance = token.allowance(address(this), spender);\r\n            require(\r\n                oldAllowance >= value,\r\n                \"SafeERC20: decreased allowance below zero\"\r\n            );\r\n            uint256 newAllowance = oldAllowance - value;\r\n            _callOptionalReturn(\r\n                token,\r\n                abi.encodeWithSelector(\r\n                    token.approve.selector,\r\n                    spender,\r\n                    newAllowance\r\n                )\r\n            );\r\n        }\r\n    }\r\n\r\n    /**\r\n     * @dev Imitates a Solidity high-level call (i.e. a regular function call to a contract), relaxing the requirement\r\n     * on the return value: the return value is optional (but if data is returned, it must not be false).\r\n     * @param token The token targeted by the call.\r\n     * @param data The call data (encoded using abi.encode or one of its variants).\r\n     */\r\n    function _callOptionalReturn(IERC20 token, bytes memory data) private {\r\n        // We need to perform a low level call here, to bypass Solidity's return data size checking mechanism, since\r\n        // we're implementing it ourselves. We use {Address.functionCall} to perform this call, which verifies that\r\n        // the target address contains contract code and also asserts for success in the low-level call.\r\n\r\n        bytes memory returndata =\r\n            address(token).functionCall(\r\n                data,\r\n                \"SafeERC20: low-level call failed\"\r\n            );\r\n        if (returndata.length > 0) {\r\n            // Return data is optional\r\n            // solhint-disable-next-line max-line-length\r\n            require(\r\n                abi.decode(returndata, (bool)),\r\n                \"SafeERC20: ERC20 operation did not succeed\"\r\n            );\r\n        }\r\n    }\r\n}\r\n\r\n// File contracts/oz/0.8.0/token/ERC20/extensions/IERC20Metadata.sol\r\n\r\npragma solidity ^0.8.0;\r\n\r\n/**\r\n * @dev Interface for the optional metadata functions from the ERC20 standard.\r\n *\r\n * _Available since v4.1._\r\n */\r\ninterface IERC20Metadata is IERC20 {\r\n    /**\r\n     * @dev Returns the name of the token.\r\n     */\r\n    function name() external view returns (string memory);\r\n\r\n    /**\r\n     * @dev Returns the symbol of the token.\r\n     */\r\n    function symbol() external view returns (string memory);\r\n\r\n    /**\r\n     * @dev Returns the decimals places of the token.\r\n     */\r\n    function decimals() external view returns (uint8);\r\n}\r\n\r\n// File contracts/_base/ZapBaseV2_1.sol\r\n\r\n// \r\n// \r\n// \r\n// \r\n// \r\n// \r\n// Copyright (C) 2021 zapper\r\n\r\n// This program is free software: you can redistribute it and/or modify\r\n// it under the terms of the GNU Affero General Public License as published by\r\n// the Free Software Foundation, either version 2 of the License, or\r\n// (at your option) any later version.\r\n//\r\n// This program is distributed in the hope that it will be useful,\r\n// but WITHOUT ANY WARRANTY; without even the implied warranty of\r\n// MERCHANTABILITY or FITNESS FOR A PARTICULAR PURPOSE.  See the\r\n// GNU Affero General Public License for more details.\r\n//\r\n\r\n/// @author Zapper\r\n/// @notice This abstract contract, which is inherited by Zaps,\r\n/// provides utility functions for moving tokens, checking allowances\r\n/// and balances, and accounting\r\n/// for fees.\r\n\r\npragma solidity ^0.8.0;\r\n\r\nabstract contract ZapBaseV2_1 is Ownable {\r\n    using SafeERC20 for IERC20;\r\n    bool public stopped = false;\r\n\r\n    event ApprovedTargets(address indexed target, bool isApproved);\r\n\r\n    // swapTarget => approval status\r\n    mapping(address => bool) public approvedTargets;\r\n\r\n    // circuit breaker modifiers\r\n    modifier stopInEmergency {\r\n        if (stopped) {\r\n            revert(\"Paused\");\r\n        } else {\r\n            _;\r\n        }\r\n    }\r\n\r\n    function _approveToken(address token, address spender) internal {\r\n        IERC20 _token = IERC20(token);\r\n        if (_token.allowance(address(this), spender) > 0) return;\r\n        else {\r\n            _token.safeApprove(spender, type(uint256).max);\r\n        }\r\n    }\r\n\r\n    function _approveToken(\r\n        address token,\r\n        address spender,\r\n        uint256 amount\r\n    ) internal {\r\n        IERC20(token).safeApprove(spender, 0);\r\n        IERC20(token).safeApprove(spender, amount);\r\n    }\r\n\r\n    // - to Pause the contract\r\n    function toggleContractActive() public onlyOwner {\r\n        stopped = !stopped;\r\n    }\r\n\r\n    function setApprovedTargets(\r\n        address[] calldata targets,\r\n        bool[] calldata isApproved\r\n    ) external onlyOwner {\r\n        require(targets.length == isApproved.length, \"Invalid Input length\");\r\n\r\n        for (uint256 i = 0; i < targets.length; i++) {\r\n            approvedTargets[targets[i]] = isApproved[i];\r\n            emit ApprovedTargets(targets[i], isApproved[i]);\r\n        }\r\n    }\r\n\r\n    receive() external payable {\r\n        require(msg.sender != tx.origin, \"Do not send ETH directly\");\r\n    }\r\n}\r\n\r\n// File contracts/_base/ZapInBaseV3_1.sol\r\n\r\n// \r\n// \r\n// \r\n// \r\n// \r\n// \r\n// Copyright (C) 2021 zapper\r\n\r\n// This program is free software: you can redistribute it and/or modify\r\n// it under the terms of the GNU Affero General Public License as published by\r\n// the Free Software Foundation, either version 2 of the License, or\r\n// (at your option) any later version.\r\n//\r\n// This program is distributed in the hope that it will be useful,\r\n// but WITHOUT ANY WARRANTY; without even the implied warranty of\r\n// MERCHANTABILITY or FITNESS FOR A PARTICULAR PURPOSE.  See the\r\n// GNU Affero General Public License for more details.\r\n//\r\n\r\n/// @author Zapper\r\n/// @notice This abstract contract provides utility functions for moving tokens.\r\n\r\npragma solidity ^0.8.0;\r\n\r\nabstract contract ZapInBaseV3_1 is ZapBaseV2_1 {\r\n    using SafeERC20 for IERC20;\r\n\r\n    /**\r\n    @dev Transfer tokens (including ETH) from msg.sender to this contract\r\n    @param token The ERC20 token to transfer to this contract (0 address if ETH)\r\n    @return Quantity of tokens transferred to this contract\r\n     */\r\n    function _pullTokens(\r\n        address token,\r\n        uint256 amount\r\n    ) internal returns (uint256) {\r\n        if (token == address(0)) {\r\n            require(msg.value > 0, \"No eth sent\");\r\n            return msg.value;\r\n        }\r\n\r\n        require(amount > 0, \"Invalid token amount\");\r\n        require(msg.value == 0, \"Eth sent with token\");\r\n\r\n        //transfer token\r\n\r\n        IERC20(token).safeTransferFrom(msg.sender, address(this), amount);\r\n\r\n        return amount;\r\n    }\r\n}\r\n\r\n// File contracts/Avalanche/TraderJoe/TraderJoe_ZapIn_V1.sol\r\n\r\npragma solidity ^0.8.0;\r\n\r\n// import \"@uniswap/lib/contracts/libraries/Babylonian.sol\";\r\nlibrary Babylonian {\r\n    function sqrt(uint256 y) internal pure returns (uint256 z) {\r\n        if (y > 3) {\r\n            z = y;\r\n            uint256 x = y / 2 + 1;\r\n            while (x < z) {\r\n                z = x;\r\n                x = (y / x + x) / 2;\r\n            }\r\n        } else if (y != 0) {\r\n            z = 1;\r\n        }\r\n        // else z = 0\r\n    }\r\n}\r\n\r\ninterface IWETH {\r\n    function deposit() external payable;\r\n}\r\n\r\ninterface IUniswapV2Factory {\r\n    function getPair(address tokenA, address tokenB)\r\n        external\r\n        view\r\n        returns (address);\r\n}\r\n\r\ninterface IUniswapV2Router02 {\r\n    function addLiquidity(\r\n        address tokenA,\r\n        address tokenB,\r\n        uint256 amountADesired,\r\n        uint256 amountBDesired,\r\n        uint256 amountAMin,\r\n        uint256 amountBMin,\r\n        address to,\r\n        uint256 deadline\r\n    )\r\n        external\r\n        returns (\r\n            uint256 amountA,\r\n            uint256 amountB,\r\n            uint256 liquidity\r\n        );\r\n\r\n    function swapExactTokensForTokens(\r\n        uint256 amountIn,\r\n        uint256 amountOutMin,\r\n        address[] calldata path,\r\n        address to,\r\n        uint256 deadline\r\n    ) external returns (uint256[] memory amounts);\r\n}\r\n\r\ninterface IUniswapV2Pair {\r\n    function token0() external pure returns (address);\r\n\r\n    function token1() external pure returns (address);\r\n\r\n    function getReserves()\r\n        external\r\n        view\r\n        returns (\r\n            uint112 _reserve0,\r\n            uint112 _reserve1,\r\n            uint32 _blockTimestampLast\r\n        );\r\n}\r\n\r\ninterface ITimeBondDepository {\r\n    function deposit( uint _amount, uint _maxPrice, address _depositor) external returns ( uint );\r\n}\r\n\r\ncontract Wonderland_ZapIn_V1 is ZapInBaseV3_1 {\r\n    using SafeERC20 for IERC20;\r\n\r\n    mapping (ITimeBondDepository => address) public allowedPairs;\r\n    mapping (ITimeBondDepository => address) public allowedReserves;\r\n\r\n    IUniswapV2Factory private constant joeFactory =\r\n        IUniswapV2Factory(0x7eeccb3028870540EEc3D88C2259506f2d34fEE0);\r\n\r\n    IUniswapV2Router02 private constant joeRouter =\r\n        IUniswapV2Router02(0x5db0735cf88F85E78ed742215090c465979B5006);\r\n\r\n    address private constant wavaxTokenAddress =\r\n        address(0xd00ae08403B9bbb9124bB305C09058E32C39A48c);\r\n\r\n    uint256 private constant deadline =\r\n        0xf000000000000000000000000000000000000000000000000000000000000000;\r\n\r\n    address immutable DAO;\r\n    \r\n    struct Cache {\r\n        uint256 initialBalance;\r\n        uint256 balanceAfter;\r\n        uint256 toInvest;\r\n    }\r\n\r\n    event AddPairAddress(address indexed bondDepository, address pair);\r\n    event RemovePairAddress(address indexed bondDepository);\r\n    event AddReserveAddress(address indexed bondDepository, address reserve);\r\n    event RemoveReserveAddress(address indexed bondDepository);\r\n\r\n    constructor(address _DAO)\r\n    {\r\n        DAO = _DAO;\r\n        // 0x exchange\r\n        approvedTargets[0xDef1C0ded9bec7F1a1670819833240f027b25EfF] = true;\r\n\r\n        //allowedPairs\r\n        allowedPairs[ITimeBondDepository(0xc26850686ce755FFb8690EA156E5A6cf03DcBDE1)] = 0xf64e1c5B6E17031f5504481Ac8145F4c3eab4917;\r\n        allowedPairs[ITimeBondDepository(0xA184AE1A71EcAD20E822cB965b99c287590c4FFe)] = 0x113f413371fC4CC4C9d6416cf1DE9dFd7BF747Df;\r\n\r\n        //allowedReserves\r\n        allowedReserves[ITimeBondDepository(0x694738E0A438d90487b4a549b201142c1a97B556)] = 0x130966628846BFd36ff31a822705796e8cb8C18D;\r\n        allowedReserves[ITimeBondDepository(0xE02B1AA2c4BE73093BE79d763fdFFC0E3cf67318)] = 0xB31f66AA3C1e785363F0875A1B74E27b85FD66c7;\r\n    }\r\n\r\n    event zapIn(\r\n        address sender,\r\n        address pool,\r\n        uint256 tokensRec\r\n    );\r\n\r\n    function addPairAddress(address bondDepository, address pair) external onlyOwner {\r\n        require(bondDepository != address(0), \"BNA\");\r\n        require(pair != address(0), \"BNA\");\r\n        allowedPairs[ITimeBondDepository(bondDepository)] = pair;\r\n        emit AddPairAddress(bondDepository, pair);\r\n    }\r\n\r\n    function removePairAddress(address bondDepository) external onlyOwner {\r\n        require(bondDepository != address(0), \"BNA\");\r\n       \r\n        allowedPairs[ITimeBondDepository(bondDepository)] = address(0);\r\n        emit RemovePairAddress(bondDepository);\r\n    }\r\n\r\n    function addReserveAddress(address bondDepository, address reserve) external onlyOwner {\r\n        require(bondDepository != address(0), \"BNA\");\r\n        require(reserve != address(0), \"BNA\");\r\n        allowedReserves[ITimeBondDepository(bondDepository)] = reserve;\r\n        emit AddReserveAddress(bondDepository, reserve);\r\n    }\r\n\r\n    function removeReserveAddress(address bondDepository) external onlyOwner {\r\n        require(bondDepository != address(0), \"BNA\");\r\n       \r\n        allowedReserves[ITimeBondDepository(bondDepository)] = address(0);\r\n        emit RemoveReserveAddress(bondDepository);\r\n    }\r\n\r\n    /**\r\n    @notice Add liquidity to TraderJoe pools with ETH/ERC20 Tokens and buys Time Bond\r\n    @param _FromTokenContractAddress The ERC20 token used (address(0x00) if ether)\r\n    @param _amount The amount of fromToken to invest\r\n    @param _minPoolTokens Minimum quantity of pool tokens to receive. Reverts otherwise\r\n    @param _swapTarget Excecution target for the first swap\r\n    @param swapData DEX quote data\r\n    @param _bondMaxPrice max price that bond can be bought\r\n    @return Amount of LP bought\r\n     */\r\n    function ZapInLp(\r\n        address _FromTokenContractAddress,\r\n        ITimeBondDepository _bondDepository,\r\n        uint256 _amount,\r\n        uint256 _minPoolTokens,\r\n        address _swapTarget,\r\n        bytes calldata swapData,\r\n        uint _bondMaxPrice,\r\n        address _to\r\n    ) external payable stopInEmergency returns (uint256) {\r\n        require(msg.sender == _to, \"NA\");\r\n        require (allowedPairs[_bondDepository] != address(0), \"BNA\");\r\n        Cache memory cache;\r\n        cache.toInvest =\r\n            _pullTokens(_FromTokenContractAddress, _amount);\r\n        \r\n        cache.initialBalance = _FromTokenContractAddress == address(0) \r\n            ? address(this).balance\r\n            : IERC20(_FromTokenContractAddress).balanceOf(address(this));\r\n\r\n        uint256 LPBought =\r\n            _performZapInLp(\r\n                _FromTokenContractAddress,\r\n                allowedPairs[_bondDepository],\r\n                cache.toInvest,\r\n                _swapTarget,\r\n                swapData,\r\n                true\r\n            );\r\n        cache.balanceAfter = _FromTokenContractAddress == address(0) \r\n            ? IERC20(wavaxTokenAddress).balanceOf(address(this))\r\n            : IERC20(_FromTokenContractAddress).balanceOf(address(this));\r\n        require((cache.initialBalance - cache.toInvest) == cache.balanceAfter, \"Not all tokens used\");\r\n        require(LPBought >= _minPoolTokens, \"High Slippage\");\r\n\r\n        \r\n\r\n        _approveToken(allowedPairs[_bondDepository], address(_bondDepository), LPBought);\r\n        _bondDepository.deposit(LPBought, _bondMaxPrice, _to);\r\n\r\n        emit zapIn(msg.sender, allowedPairs[_bondDepository], LPBought);\r\n        \r\n        return LPBought;\r\n    }\r\n\r\n    function ZapIn(\r\n        address _FromTokenContractAddress,\r\n        ITimeBondDepository _bondDepository,\r\n        uint256 _amount,\r\n        uint256 _minReturnTokens,\r\n        address _swapTarget,\r\n        bytes calldata swapData,\r\n        uint _bondMaxPrice,\r\n        address _to\r\n    ) external payable stopInEmergency returns (uint256) {\r\n        require(msg.sender == _to, \"NA\");\r\n        require (allowedReserves[_bondDepository] != address(0), \"BNA\");\r\n        Cache memory cache;\r\n        cache.toInvest =\r\n            _pullTokens(_FromTokenContractAddress, _amount);\r\n\r\n        cache.initialBalance = _FromTokenContractAddress == address(0) \r\n            ? address(this).balance\r\n            : IERC20(_FromTokenContractAddress).balanceOf(address(this));\r\n        uint256 TokenBought =\r\n            _fillQuote(\r\n                _FromTokenContractAddress,\r\n                allowedReserves[_bondDepository],\r\n                cache.toInvest,\r\n                _swapTarget,\r\n                swapData\r\n            );\r\n\r\n        cache.balanceAfter = _FromTokenContractAddress == address(0) \r\n            ? IERC20(wavaxTokenAddress).balanceOf(address(this))\r\n            : IERC20(_FromTokenContractAddress).balanceOf(address(this));\r\n        require((cache.initialBalance - cache.toInvest) == cache.balanceAfter, \"Not all tokens used\");\r\n        require(TokenBought >= _minReturnTokens, \"High Slippage\");\r\n\r\n        \r\n\r\n        _approveToken(allowedReserves[_bondDepository], address(_bondDepository), TokenBought);\r\n        _bondDepository.deposit(TokenBought, _bondMaxPrice, _to);\r\n        emit zapIn(msg.sender, allowedReserves[_bondDepository], TokenBought);\r\n        \r\n        return TokenBought;\r\n    }\r\n\r\n    function _getPairTokens(address _pairAddress)\r\n        internal\r\n        pure\r\n        returns (address token0, address token1)\r\n    {\r\n        IUniswapV2Pair uniPair = IUniswapV2Pair(_pairAddress);\r\n        token0 = uniPair.token0();\r\n        token1 = uniPair.token1();\r\n    }\r\n\r\n    function _performZapInLp(\r\n        address _FromTokenContractAddress,\r\n        address _pairAddress,\r\n        uint256 _amount,\r\n        address _swapTarget,\r\n        bytes calldata swapData,\r\n        bool transferResidual\r\n    ) internal returns (uint256) {\r\n        uint256 intermediateAmt;\r\n        address intermediateToken;\r\n        (address _ToUniswapToken0, address _ToUniswapToken1) =\r\n            _getPairTokens(_pairAddress);\r\n\r\n        if (\r\n            _FromTokenContractAddress != _ToUniswapToken0 &&\r\n            _FromTokenContractAddress != _ToUniswapToken1\r\n        ) {\r\n            // swap to intermediate\r\n            (intermediateAmt, intermediateToken) = _fillQuoteLp(\r\n                _FromTokenContractAddress,\r\n                _pairAddress,\r\n                _amount,\r\n                _swapTarget,\r\n                swapData\r\n            );\r\n        } else {\r\n            intermediateToken = _FromTokenContractAddress;\r\n            intermediateAmt = _amount;\r\n        }\r\n\r\n        // divide intermediate into appropriate amount to add liquidity\r\n        (uint256 token0Bought, uint256 token1Bought) =\r\n            _swapIntermediate(\r\n                intermediateToken,\r\n                _ToUniswapToken0,\r\n                _ToUniswapToken1,\r\n                intermediateAmt\r\n            );\r\n\r\n        return\r\n            _uniDeposit(\r\n                _ToUniswapToken0,\r\n                _ToUniswapToken1,\r\n                token0Bought,\r\n                token1Bought,\r\n                transferResidual\r\n            );\r\n    }\r\n\r\n    function _uniDeposit(\r\n        address _ToUnipoolToken0,\r\n        address _ToUnipoolToken1,\r\n        uint256 token0Bought,\r\n        uint256 token1Bought,\r\n        bool transferResidual\r\n    ) internal returns (uint256) {\r\n        _approveToken(_ToUnipoolToken0, address(joeRouter), token0Bought);\r\n        _approveToken(_ToUnipoolToken1, address(joeRouter), token1Bought);\r\n\r\n        (uint256 amountA, uint256 amountB, uint256 LP) =\r\n            joeRouter.addLiquidity(\r\n                _ToUnipoolToken0,\r\n                _ToUnipoolToken1,\r\n                token0Bought,\r\n                token1Bought,\r\n                1,\r\n                1,\r\n                address(this),\r\n                deadline\r\n            );\r\n\r\n        if (transferResidual) {\r\n            //Returning Residue in token0, if any.\r\n            if (token0Bought - amountA > 0) {\r\n                IERC20(_ToUnipoolToken0).safeTransfer(\r\n                    msg.sender,\r\n                    token0Bought - amountA\r\n                );\r\n            }\r\n\r\n            //Returning Residue in token1, if any\r\n            if (token1Bought - amountB > 0) {\r\n                IERC20(_ToUnipoolToken1).safeTransfer(\r\n                    msg.sender,\r\n                    token1Bought - amountB\r\n                );\r\n            }\r\n        }\r\n\r\n        return LP;\r\n    }\r\n\r\n    function _fillQuote(\r\n        address _fromTokenAddress,\r\n        address _toTokenAddress,\r\n        uint256 _amount,\r\n        address _swapTarget,\r\n        bytes calldata swapData\r\n    ) internal returns (uint256 amountBought) {\r\n        if (_swapTarget == wavaxTokenAddress) {\r\n            IWETH(wavaxTokenAddress).deposit{ value: _amount }();\r\n            return _amount;\r\n        }\r\n\r\n        uint256 valueToSend;\r\n        if (_fromTokenAddress == address(0)) {\r\n            valueToSend = _amount;\r\n        } else {\r\n            _approveToken(_fromTokenAddress, _swapTarget, _amount);\r\n        }\r\n\r\n        \r\n        IERC20 token = IERC20(_toTokenAddress);\r\n        uint256 initialBalance = token.balanceOf(address(this));\r\n\r\n        require(approvedTargets[_swapTarget], \"Target not Authorized\");\r\n        (bool success, ) = _swapTarget.call{ value: valueToSend }(swapData);\r\n        require(success, \"Error Swapping Tokens 1\");\r\n\r\n        amountBought =\r\n            token.balanceOf(address(this)) - initialBalance;\r\n\r\n        require(amountBought > 0, \"Error Swapping Tokens 2\");\r\n    }\r\n\r\n    function _fillQuoteLp(\r\n        address _fromTokenAddress,\r\n        address _pairAddress,\r\n        uint256 _amount,\r\n        address _swapTarget,\r\n        bytes calldata swapData\r\n    ) internal returns (uint256 amountBought, address intermediateToken) {\r\n        if (_swapTarget == wavaxTokenAddress) {\r\n            IWETH(wavaxTokenAddress).deposit{ value: _amount }();\r\n            return (_amount, wavaxTokenAddress);\r\n        }\r\n\r\n        uint256 valueToSend;\r\n        if (_fromTokenAddress == address(0)) {\r\n            valueToSend = _amount;\r\n        } else {\r\n            _approveToken(_fromTokenAddress, _swapTarget, _amount);\r\n        }\r\n\r\n        (address _token0, address _token1) = _getPairTokens(_pairAddress);\r\n        IERC20 token0 = IERC20(_token0);\r\n        IERC20 token1 = IERC20(_token1);\r\n        uint256 initialBalance0 = token0.balanceOf(address(this));\r\n        uint256 initialBalance1 = token1.balanceOf(address(this));\r\n\r\n        require(approvedTargets[_swapTarget], \"Target not Authorized\");\r\n        (bool success, ) = _swapTarget.call{ value: valueToSend }(swapData);\r\n        require(success, \"Error Swapping Tokens 1\");\r\n\r\n        uint256 finalBalance0 =\r\n            token0.balanceOf(address(this)) - initialBalance0;\r\n        uint256 finalBalance1 =\r\n            token1.balanceOf(address(this)) - initialBalance1;\r\n\r\n        if (finalBalance0 > finalBalance1) {\r\n            amountBought = finalBalance0;\r\n            intermediateToken = _token0;\r\n        } else {\r\n            amountBought = finalBalance1;\r\n            intermediateToken = _token1;\r\n        }\r\n\r\n        require(amountBought > 0, \"Swapped to Invalid Intermediate\");\r\n    }\r\n\r\n    function _swapIntermediate(\r\n        address _toContractAddress,\r\n        address _ToUnipoolToken0,\r\n        address _ToUnipoolToken1,\r\n        uint256 _amount\r\n    ) internal returns (uint256 token0Bought, uint256 token1Bought) {\r\n        IUniswapV2Pair pair =\r\n            IUniswapV2Pair(\r\n                joeFactory.getPair(_ToUnipoolToken0, _ToUnipoolToken1)\r\n            );\r\n        (uint256 res0, uint256 res1, ) = pair.getReserves();\r\n        if (_toContractAddress == _ToUnipoolToken0) {\r\n            uint256 amountToSwap = calculateSwapInAmount(res0, _amount);\r\n            //if no reserve or a new pair is created\r\n            if (amountToSwap <= 0) amountToSwap = _amount / 2;\r\n            token1Bought = _token2Token(\r\n                _toContractAddress,\r\n                _ToUnipoolToken1,\r\n                amountToSwap\r\n            );\r\n            token0Bought = _amount - amountToSwap;\r\n        } else {\r\n            uint256 amountToSwap = calculateSwapInAmount(res1, _amount);\r\n            //if no reserve or a new pair is created\r\n            if (amountToSwap <= 0) amountToSwap = _amount / 2;\r\n            token0Bought = _token2Token(\r\n                _toContractAddress,\r\n                _ToUnipoolToken0,\r\n                amountToSwap\r\n            );\r\n            token1Bought = _amount - amountToSwap;\r\n        }\r\n    }\r\n\r\n    function calculateSwapInAmount(uint256 reserveIn, uint256 userIn)\r\n        internal\r\n        pure\r\n        returns (uint256)\r\n    {\r\n        return\r\n            (Babylonian.sqrt(\r\n                reserveIn * ((userIn * 3988000) + (reserveIn * 3988009))\r\n            ) - (reserveIn * 1997)) / 1994;\r\n    }\r\n\r\n    /**\r\n    @notice This function is used to swap ERC20 <> ERC20\r\n    @param _FromTokenContractAddress The token address to swap from.\r\n    @param _ToTokenContractAddress The token address to swap to. \r\n    @param tokens2Trade The amount of tokens to swap\r\n    @return tokenBought The quantity of tokens bought\r\n    */\r\n    function _token2Token(\r\n        address _FromTokenContractAddress,\r\n        address _ToTokenContractAddress,\r\n        uint256 tokens2Trade\r\n    ) internal returns (uint256 tokenBought) {\r\n        if (_FromTokenContractAddress == _ToTokenContractAddress) {\r\n            return tokens2Trade;\r\n        }\r\n\r\n        _approveToken(\r\n            _FromTokenContractAddress,\r\n            address(joeRouter),\r\n            tokens2Trade\r\n        );\r\n\r\n        address pair =\r\n            joeFactory.getPair(\r\n                _FromTokenContractAddress,\r\n                _ToTokenContractAddress\r\n            );\r\n        require(pair != address(0), \"No Swap Available\");\r\n        address[] memory path = new address[](2);\r\n        path[0] = _FromTokenContractAddress;\r\n        path[1] = _ToTokenContractAddress;\r\n\r\n        tokenBought = joeRouter.swapExactTokensForTokens(\r\n            tokens2Trade,\r\n            1,\r\n            path,\r\n            address(this),\r\n            deadline\r\n        )[path.length - 1];\r\n\r\n        require(tokenBought > 0, \"Error Swapping Tokens 2\");\r\n    }\r\n\r\n    /**\r\n     *  @notice allow owner to send lost tokens to the DAO\r\n     *  @return bool\r\n     */\r\n    function recoverLostToken( address _token ) external onlyOwner returns ( bool ) {\r\n        IERC20(_token).safeTransfer(DAO, IERC20( _token ).balanceOf( address(this)));\r\n        return true;\r\n    }\r\n\r\n    function refundETH() external onlyOwner {\r\n        if (address(this).balance > 0)\r\n        {\r\n            (bool success, ) = DAO.call{value: address(this).balance}(new bytes(0));\r\n            require(success, 'STE');\r\n        }\r\n\r\n        \r\n    }\r\n}",
  "sourcePath": "E:\\project\\Chris\\wonderland-money\\truffle_deploy\\contracts\\WonderZapInT.sol",
  "compiler": {
    "name": "solc",
    "version": "0.8.2+commit.661d1103.Emscripten.clang"
  },
  "schemaVersion": "3.4.4",
  "updatedAt": "2022-01-06T13:49:06.025Z",
  "networkType": "ethereum",
  "devdoc": {
    "kind": "dev",
    "methods": {
      "ZapInLp(address,address,uint256,uint256,address,bytes,uint256,address)": {
        "params": {
          "_FromTokenContractAddress": "The ERC20 token used (address(0x00) if ether)",
          "_amount": "The amount of fromToken to invest",
          "_bondMaxPrice": "max price that bond can be bought",
          "_minPoolTokens": "Minimum quantity of pool tokens to receive. Reverts otherwise",
          "_swapTarget": "Excecution target for the first swap",
          "swapData": "DEX quote data"
        },
        "returns": {
          "_0": "Amount of LP bought"
        }
      },
      "owner()": {
        "details": "Returns the address of the current owner."
      },
      "recoverLostToken(address)": {
        "returns": {
          "_0": "bool"
        }
      },
      "renounceOwnership()": {
        "details": "Leaves the contract without owner. It will not be possible to call `onlyOwner` functions anymore. Can only be called by the current owner. NOTE: Renouncing ownership will leave the contract without an owner, thereby removing any functionality that is only available to the owner."
      },
      "transferOwnership(address)": {
        "details": "Transfers ownership of the contract to a new account (`newOwner`). Can only be called by the current owner."
      }
    },
    "version": 1
  },
  "userdoc": {
    "kind": "user",
    "methods": {
      "ZapInLp(address,address,uint256,uint256,address,bytes,uint256,address)": {
        "notice": "Add liquidity to TraderJoe pools with ETH/ERC20 Tokens and buys Time Bond"
      },
      "recoverLostToken(address)": {
        "notice": "allow owner to send lost tokens to the DAO"
      }
    },
    "version": 1
  }
}