{
  "contractName": "MEMOries",
  "abi": [
    {
      "inputs": [],
      "stateMutability": "nonpayable",
      "type": "constructor"
    },
    {
      "anonymous": false,
      "inputs": [
        {
          "indexed": true,
          "internalType": "address",
          "name": "owner",
          "type": "address"
        },
        {
          "indexed": true,
          "internalType": "address",
          "name": "spender",
          "type": "address"
        },
        {
          "indexed": false,
          "internalType": "uint256",
          "name": "value",
          "type": "uint256"
        }
      ],
      "name": "Approval",
      "type": "event"
    },
    {
      "anonymous": false,
      "inputs": [
        {
          "indexed": true,
          "internalType": "uint256",
          "name": "epoch",
          "type": "uint256"
        },
        {
          "indexed": false,
          "internalType": "uint256",
          "name": "rebase",
          "type": "uint256"
        },
        {
          "indexed": false,
          "internalType": "uint256",
          "name": "index",
          "type": "uint256"
        }
      ],
      "name": "LogRebase",
      "type": "event"
    },
    {
      "anonymous": false,
      "inputs": [
        {
          "indexed": true,
          "internalType": "uint256",
          "name": "index",
          "type": "uint256"
        }
      ],
      "name": "LogSetIndex",
      "type": "event"
    },
    {
      "anonymous": false,
      "inputs": [
        {
          "indexed": false,
          "internalType": "address",
          "name": "stakingContract",
          "type": "address"
        }
      ],
      "name": "LogStakingContractUpdated",
      "type": "event"
    },
    {
      "anonymous": false,
      "inputs": [
        {
          "indexed": true,
          "internalType": "uint256",
          "name": "epoch",
          "type": "uint256"
        },
        {
          "indexed": false,
          "internalType": "uint256",
          "name": "timestamp",
          "type": "uint256"
        },
        {
          "indexed": false,
          "internalType": "uint256",
          "name": "totalSupply",
          "type": "uint256"
        }
      ],
      "name": "LogSupply",
      "type": "event"
    },
    {
      "anonymous": false,
      "inputs": [
        {
          "indexed": true,
          "internalType": "address",
          "name": "previousOwner",
          "type": "address"
        },
        {
          "indexed": true,
          "internalType": "address",
          "name": "newOwner",
          "type": "address"
        }
      ],
      "name": "OwnershipTransferred",
      "type": "event"
    },
    {
      "anonymous": false,
      "inputs": [
        {
          "indexed": true,
          "internalType": "address",
          "name": "from",
          "type": "address"
        },
        {
          "indexed": true,
          "internalType": "address",
          "name": "to",
          "type": "address"
        },
        {
          "indexed": false,
          "internalType": "uint256",
          "name": "value",
          "type": "uint256"
        }
      ],
      "name": "Transfer",
      "type": "event"
    },
    {
      "inputs": [],
      "name": "DOMAIN_SEPARATOR",
      "outputs": [
        {
          "internalType": "bytes32",
          "name": "",
          "type": "bytes32"
        }
      ],
      "stateMutability": "view",
      "type": "function"
    },
    {
      "inputs": [],
      "name": "INDEX",
      "outputs": [
        {
          "internalType": "uint256",
          "name": "",
          "type": "uint256"
        }
      ],
      "stateMutability": "view",
      "type": "function"
    },
    {
      "inputs": [],
      "name": "PERMIT_TYPEHASH",
      "outputs": [
        {
          "internalType": "bytes32",
          "name": "",
          "type": "bytes32"
        }
      ],
      "stateMutability": "view",
      "type": "function"
    },
    {
      "inputs": [],
      "name": "claimOwnership",
      "outputs": [],
      "stateMutability": "nonpayable",
      "type": "function"
    },
    {
      "inputs": [],
      "name": "decimals",
      "outputs": [
        {
          "internalType": "uint8",
          "name": "",
          "type": "uint8"
        }
      ],
      "stateMutability": "view",
      "type": "function"
    },
    {
      "inputs": [],
      "name": "initializer",
      "outputs": [
        {
          "internalType": "address",
          "name": "",
          "type": "address"
        }
      ],
      "stateMutability": "view",
      "type": "function"
    },
    {
      "inputs": [],
      "name": "name",
      "outputs": [
        {
          "internalType": "string",
          "name": "",
          "type": "string"
        }
      ],
      "stateMutability": "view",
      "type": "function"
    },
    {
      "inputs": [
        {
          "internalType": "address",
          "name": "owner",
          "type": "address"
        }
      ],
      "name": "nonces",
      "outputs": [
        {
          "internalType": "uint256",
          "name": "",
          "type": "uint256"
        }
      ],
      "stateMutability": "view",
      "type": "function"
    },
    {
      "inputs": [],
      "name": "owner",
      "outputs": [
        {
          "internalType": "address",
          "name": "",
          "type": "address"
        }
      ],
      "stateMutability": "view",
      "type": "function"
    },
    {
      "inputs": [],
      "name": "pendingOwner",
      "outputs": [
        {
          "internalType": "address",
          "name": "",
          "type": "address"
        }
      ],
      "stateMutability": "view",
      "type": "function"
    },
    {
      "inputs": [
        {
          "internalType": "address",
          "name": "owner",
          "type": "address"
        },
        {
          "internalType": "address",
          "name": "spender",
          "type": "address"
        },
        {
          "internalType": "uint256",
          "name": "amount",
          "type": "uint256"
        },
        {
          "internalType": "uint256",
          "name": "deadline",
          "type": "uint256"
        },
        {
          "internalType": "uint8",
          "name": "v",
          "type": "uint8"
        },
        {
          "internalType": "bytes32",
          "name": "r",
          "type": "bytes32"
        },
        {
          "internalType": "bytes32",
          "name": "s",
          "type": "bytes32"
        }
      ],
      "name": "permit",
      "outputs": [],
      "stateMutability": "nonpayable",
      "type": "function"
    },
    {
      "inputs": [
        {
          "internalType": "uint256",
          "name": "",
          "type": "uint256"
        }
      ],
      "name": "rebases",
      "outputs": [
        {
          "internalType": "uint256",
          "name": "epoch",
          "type": "uint256"
        },
        {
          "internalType": "uint256",
          "name": "rebase",
          "type": "uint256"
        },
        {
          "internalType": "uint256",
          "name": "totalStakedBefore",
          "type": "uint256"
        },
        {
          "internalType": "uint256",
          "name": "totalStakedAfter",
          "type": "uint256"
        },
        {
          "internalType": "uint256",
          "name": "amountRebased",
          "type": "uint256"
        },
        {
          "internalType": "uint256",
          "name": "index",
          "type": "uint256"
        },
        {
          "internalType": "uint32",
          "name": "timeOccured",
          "type": "uint32"
        }
      ],
      "stateMutability": "view",
      "type": "function"
    },
    {
      "inputs": [],
      "name": "stakingContract",
      "outputs": [
        {
          "internalType": "address",
          "name": "",
          "type": "address"
        }
      ],
      "stateMutability": "view",
      "type": "function"
    },
    {
      "inputs": [],
      "name": "symbol",
      "outputs": [
        {
          "internalType": "string",
          "name": "",
          "type": "string"
        }
      ],
      "stateMutability": "view",
      "type": "function"
    },
    {
      "inputs": [],
      "name": "totalSupply",
      "outputs": [
        {
          "internalType": "uint256",
          "name": "",
          "type": "uint256"
        }
      ],
      "stateMutability": "view",
      "type": "function"
    },
    {
      "inputs": [
        {
          "internalType": "address",
          "name": "newOwner",
          "type": "address"
        },
        {
          "internalType": "bool",
          "name": "direct",
          "type": "bool"
        },
        {
          "internalType": "bool",
          "name": "renounce",
          "type": "bool"
        }
      ],
      "name": "transferOwnership",
      "outputs": [],
      "stateMutability": "nonpayable",
      "type": "function"
    },
    {
      "inputs": [
        {
          "internalType": "address",
          "name": "stakingContract_",
          "type": "address"
        }
      ],
      "name": "initialize",
      "outputs": [
        {
          "internalType": "bool",
          "name": "",
          "type": "bool"
        }
      ],
      "stateMutability": "nonpayable",
      "type": "function"
    },
    {
      "inputs": [
        {
          "internalType": "uint256",
          "name": "_INDEX",
          "type": "uint256"
        }
      ],
      "name": "setIndex",
      "outputs": [],
      "stateMutability": "nonpayable",
      "type": "function"
    },
    {
      "inputs": [
        {
          "internalType": "uint256",
          "name": "profit_",
          "type": "uint256"
        },
        {
          "internalType": "uint256",
          "name": "epoch_",
          "type": "uint256"
        }
      ],
      "name": "rebase",
      "outputs": [
        {
          "internalType": "uint256",
          "name": "",
          "type": "uint256"
        }
      ],
      "stateMutability": "nonpayable",
      "type": "function"
    },
    {
      "inputs": [
        {
          "internalType": "address",
          "name": "who",
          "type": "address"
        }
      ],
      "name": "balanceOf",
      "outputs": [
        {
          "internalType": "uint256",
          "name": "",
          "type": "uint256"
        }
      ],
      "stateMutability": "view",
      "type": "function"
    },
    {
      "inputs": [
        {
          "internalType": "uint256",
          "name": "amount",
          "type": "uint256"
        }
      ],
      "name": "gonsForBalance",
      "outputs": [
        {
          "internalType": "uint256",
          "name": "",
          "type": "uint256"
        }
      ],
      "stateMutability": "view",
      "type": "function"
    },
    {
      "inputs": [
        {
          "internalType": "uint256",
          "name": "gons",
          "type": "uint256"
        }
      ],
      "name": "balanceForGons",
      "outputs": [
        {
          "internalType": "uint256",
          "name": "",
          "type": "uint256"
        }
      ],
      "stateMutability": "view",
      "type": "function"
    },
    {
      "inputs": [],
      "name": "circulatingSupply",
      "outputs": [
        {
          "internalType": "uint256",
          "name": "",
          "type": "uint256"
        }
      ],
      "stateMutability": "view",
      "type": "function"
    },
    {
      "inputs": [],
      "name": "index",
      "outputs": [
        {
          "internalType": "uint256",
          "name": "",
          "type": "uint256"
        }
      ],
      "stateMutability": "view",
      "type": "function"
    },
    {
      "inputs": [
        {
          "internalType": "address",
          "name": "to",
          "type": "address"
        },
        {
          "internalType": "uint256",
          "name": "value",
          "type": "uint256"
        }
      ],
      "name": "transfer",
      "outputs": [
        {
          "internalType": "bool",
          "name": "",
          "type": "bool"
        }
      ],
      "stateMutability": "nonpayable",
      "type": "function"
    },
    {
      "inputs": [
        {
          "internalType": "address",
          "name": "owner_",
          "type": "address"
        },
        {
          "internalType": "address",
          "name": "spender",
          "type": "address"
        }
      ],
      "name": "allowance",
      "outputs": [
        {
          "internalType": "uint256",
          "name": "",
          "type": "uint256"
        }
      ],
      "stateMutability": "view",
      "type": "function"
    },
    {
      "inputs": [
        {
          "internalType": "address",
          "name": "from",
          "type": "address"
        },
        {
          "internalType": "address",
          "name": "to",
          "type": "address"
        },
        {
          "internalType": "uint256",
          "name": "value",
          "type": "uint256"
        }
      ],
      "name": "transferFrom",
      "outputs": [
        {
          "internalType": "bool",
          "name": "",
          "type": "bool"
        }
      ],
      "stateMutability": "nonpayable",
      "type": "function"
    },
    {
      "inputs": [
        {
          "internalType": "address",
          "name": "spender",
          "type": "address"
        },
        {
          "internalType": "uint256",
          "name": "value",
          "type": "uint256"
        }
      ],
      "name": "approve",
      "outputs": [
        {
          "internalType": "bool",
          "name": "",
          "type": "bool"
        }
      ],
      "stateMutability": "nonpayable",
      "type": "function"
    },
    {
      "inputs": [
        {
          "internalType": "address",
          "name": "spender",
          "type": "address"
        },
        {
          "internalType": "uint256",
          "name": "addedValue",
          "type": "uint256"
        }
      ],
      "name": "increaseAllowance",
      "outputs": [
        {
          "internalType": "bool",
          "name": "",
          "type": "bool"
        }
      ],
      "stateMutability": "nonpayable",
      "type": "function"
    },
    {
      "inputs": [
        {
          "internalType": "address",
          "name": "spender",
          "type": "address"
        },
        {
          "internalType": "uint256",
          "name": "subtractedValue",
          "type": "uint256"
        }
      ],
      "name": "decreaseAllowance",
      "outputs": [
        {
          "internalType": "bool",
          "name": "",
          "type": "bool"
        }
      ],
      "stateMutability": "nonpayable",
      "type": "function"
    }
  ],
  "bytecode": "0x60a06040523480156200001157600080fd5b506040518060400160405280600881526020017f4d454d4f726965730000000000000000000000000000000000000000000000008152506040518060400160405280600481526020017f4d454d4f0000000000000000000000000000000000000000000000000000000081525060098260039080519060200190620000989291906200039e565b508160049080519060200190620000b19291906200039e565b5080600560006101000a81548160ff021916908360ff16021790555050505060004690507f8b73c3c69bb8fe3d512ecc4cf759cc79239f7b179b0ffacaa9a75d522b39400f62000106620002d660201b60201c565b805190602001206040518060400160405280600181526020017f3100000000000000000000000000000000000000000000000000000000000000815250805190602001208330604051602001808681526020018581526020018481526020018381526020018273ffffffffffffffffffffffffffffffffffffffff1681526020019550505050505060405160208183030381529060405280519060200120608081815250505033600760006101000a81548173ffffffffffffffffffffffffffffffffffffffff021916908373ffffffffffffffffffffffffffffffffffffffff1602179055503373ffffffffffffffffffffffffffffffffffffffff16600073ffffffffffffffffffffffffffffffffffffffff167f8be0079c531659141344cd1fd0a4f28419497f9722a3daafe3b4186f6b6457e060405160405180910390a333600a60006101000a81548173ffffffffffffffffffffffffffffffffffffffff021916908373ffffffffffffffffffffffffffffffffffffffff1602179055506611c37937e08000600281905550620002ca6002546611c37937e0800060001981620002b157fe5b06600019036200037c60201b620028cd1790919060201c565b600d8190555062000454565b606060038054600181600116156101000203166002900480601f016020809104026020016040519081016040528092919081815260200182805460018160011615610100020316600290048015620003725780601f10620003465761010080835404028352916020019162000372565b820191906000526020600020905b8154815290600101906020018083116200035457829003601f168201915b5050505050905090565b60008082116200038b57600080fd5b8183816200039557fe5b04905092915050565b828054600181600116156101000203166002900490600052602060002090601f016020900481019282620003d6576000855562000422565b82601f10620003f157805160ff191683800117855562000422565b8280016001018555821562000422579182015b828111156200042157825182559160200191906001019062000404565b5b50905062000431919062000435565b5090565b5b808211156200045057600081600090555060010162000436565b5090565b608051612c30620004746000398061154852806125fd5250612c306000f3fe608060405234801561001057600080fd5b50600436106101da5760003560e01c806370a08231116101045780639ce110d7116100a2578063d505accf11610071578063d505accf14610916578063dd62ed3e146109af578063e30c397814610a27578063ee99205c14610a5b576101da565b80639ce110d7146107c0578063a457c2d7146107f4578063a9059cbb14610858578063c4d66de8146108bc576101da565b80637ecebe00116100de5780637ecebe00146106935780638da5cb5b146106eb5780639358928b1461071f57806395d89b411461073d576101da565b806370a082311461058757806373c69eb7146105df5780637965d56d14610651576101da565b80632986c0e51161017c5780633644e5151161014b5780633644e515146104cd57806339509351146104eb57806340a5737f1461054f5780634e71e0c81461057d576101da565b80632986c0e5146104525780632df75cb11461047057806330adf81f1461048e578063313ce567146104ac576101da565b8063095ea7b3116101b8578063095ea7b31461030a57806318160ddd1461036e5780631bd396741461038c57806323b872dd146103ce576101da565b8063058ecdb4146101df57806306fdde031461022b578063078dfbe7146102ae575b600080fd5b610215600480360360408110156101f557600080fd5b810190808035906020019092919080359060200190929190505050610a8f565b6040518082815260200191505060405180910390f35b610233610cdb565b6040518080602001828103825283818151815260200191508051906020019080838360005b83811015610273578082015181840152602081019050610258565b50505050905090810190601f1680156102a05780820380516001836020036101000a031916815260200191505b509250505060405180910390f35b610308600480360360608110156102c457600080fd5b81019080803573ffffffffffffffffffffffffffffffffffffffff169060200190929190803515159060200190929190803515159060200190929190505050610d7d565b005b6103566004803603604081101561032057600080fd5b81019080803573ffffffffffffffffffffffffffffffffffffffff1690602001909291908035906020019092919050505061103c565b60405180821515815260200191505060405180910390f35b61037661112e565b6040518082815260200191505060405180910390f35b6103b8600480360360208110156103a257600080fd5b8101908080359060200190929190505050611138565b6040518082815260200191505060405180910390f35b61043a600480360360608110156103e457600080fd5b81019080803573ffffffffffffffffffffffffffffffffffffffff169060200190929190803573ffffffffffffffffffffffffffffffffffffffff16906020019092919080359060200190929190505050611156565b60405180821515815260200191505060405180910390f35b61045a6114f0565b6040518082815260200191505060405180910390f35b610478611502565b6040518082815260200191505060405180910390f35b610496611508565b6040518082815260200191505060405180910390f35b6104b461152f565b604051808260ff16815260200191505060405180910390f35b6104d5611546565b6040518082815260200191505060405180910390f35b6105376004803603604081101561050157600080fd5b81019080803573ffffffffffffffffffffffffffffffffffffffff1690602001909291908035906020019092919050505061156a565b60405180821515815260200191505060405180910390f35b61057b6004803603602081101561056557600080fd5b8101908080359060200190929190505050611766565b005b6105856118e2565b005b6105c96004803603602081101561059d57600080fd5b81019080803573ffffffffffffffffffffffffffffffffffffffff169060200190929190505050611aac565b6040518082815260200191505060405180910390f35b61060b600480360360208110156105f557600080fd5b8101908080359060200190929190505050611b09565b604051808881526020018781526020018681526020018581526020018481526020018381526020018263ffffffff16815260200197505050505050505060405180910390f35b61067d6004803603602081101561066757600080fd5b8101908080359060200190929190505050611b6b565b6040518082815260200191505060405180910390f35b6106d5600480360360208110156106a957600080fd5b81019080803573ffffffffffffffffffffffffffffffffffffffff169060200190929190505050611b89565b6040518082815260200191505060405180910390f35b6106f3611bd9565b604051808273ffffffffffffffffffffffffffffffffffffffff16815260200191505060405180910390f35b610727611bff565b6040518082815260200191505060405180910390f35b610745611c45565b6040518080602001828103825283818151815260200191508051906020019080838360005b8381101561078557808201518184015260208101905061076a565b50505050905090810190601f1680156107b25780820380516001836020036101000a031916815260200191505b509250505060405180910390f35b6107c8611ce7565b604051808273ffffffffffffffffffffffffffffffffffffffff16815260200191505060405180910390f35b6108406004803603604081101561080a57600080fd5b81019080803573ffffffffffffffffffffffffffffffffffffffff16906020019092919080359060200190929190505050611d0d565b60405180821515815260200191505060405180910390f35b6108a46004803603604081101561086e57600080fd5b81019080803573ffffffffffffffffffffffffffffffffffffffff16906020019092919080359060200190929190505050611f9d565b60405180821515815260200191505060405180910390f35b6108fe600480360360208110156108d257600080fd5b81019080803573ffffffffffffffffffffffffffffffffffffffff169060200190929190505050612151565b60405180821515815260200191505060405180910390f35b6109ad600480360360e081101561092c57600080fd5b81019080803573ffffffffffffffffffffffffffffffffffffffff169060200190929190803573ffffffffffffffffffffffffffffffffffffffff1690602001909291908035906020019092919080359060200190929190803560ff1690602001909291908035906020019092919080359060200190929190505050612498565b005b610a11600480360360408110156109c557600080fd5b81019080803573ffffffffffffffffffffffffffffffffffffffff169060200190929190803573ffffffffffffffffffffffffffffffffffffffff1690602001909291905050506127fa565b6040518082815260200191505060405180910390f35b610a2f612881565b604051808273ffffffffffffffffffffffffffffffffffffffff16815260200191505060405180910390f35b610a636128a7565b604051808273ffffffffffffffffffffffffffffffffffffffff16815260200191505060405180910390f35b6000600960009054906101000a900473ffffffffffffffffffffffffffffffffffffffff1673ffffffffffffffffffffffffffffffffffffffff163373ffffffffffffffffffffffffffffffffffffffff1614610b54576040517f08c379a00000000000000000000000000000000000000000000000000000000081526004018080602001828103825260038152602001807f4f5343000000000000000000000000000000000000000000000000000000000081525060200191505060405180910390fd5b600080610b5f611bff565b90506000851415610c0057837f917acfbe39be6509ccf7fecb66a7e42ce2be1083c2d7dd3b9b7491dabddb8da442600254604051808381526020018281526020019250505060405180910390a2837f6012dbce857565c4a40974aa5de8373a761fc429077ef0c8c8611d1e20d63fb26000610bd86114f0565b604051808381526020018281526020019250505060405180910390a260025492505050610cd5565b6000811115610c3757610c3081610c22600254886128ed90919063ffffffff16565b6128cd90919063ffffffff16565b9150610c3b565b8491505b610c508260025461291990919063ffffffff16565b6002819055506000196fffffffffffffffffffffffffffffffff166002541115610c90576000196fffffffffffffffffffffffffffffffff166002819055505b610cbb6002546611c37937e0800060001981610ca857fe5b06600019036128cd90919063ffffffff16565b600d81905550610ccc818686612933565b50600254925050505b92915050565b606060038054600181600116156101000203166002900480601f016020809104026020016040519081016040528092919081815260200182805460018160011615610100020316600290048015610d735780601f10610d4857610100808354040283529160200191610d73565b820191906000526020600020905b815481529060010190602001808311610d5657829003601f168201915b5050505050905090565b600760009054906101000a900473ffffffffffffffffffffffffffffffffffffffff1673ffffffffffffffffffffffffffffffffffffffff163373ffffffffffffffffffffffffffffffffffffffff1614610e40576040517f08c379a00000000000000000000000000000000000000000000000000000000081526004018080602001828103825260208152602001807f4f776e61626c653a2063616c6c6572206973206e6f7420746865206f776e657281525060200191505060405180910390fd5b8115610ff557600073ffffffffffffffffffffffffffffffffffffffff168373ffffffffffffffffffffffffffffffffffffffff16141580610e7f5750805b610ef1576040517f08c379a00000000000000000000000000000000000000000000000000000000081526004018080602001828103825260158152602001807f4f776e61626c653a207a65726f2061646472657373000000000000000000000081525060200191505060405180910390fd5b8273ffffffffffffffffffffffffffffffffffffffff16600760009054906101000a900473ffffffffffffffffffffffffffffffffffffffff1673ffffffffffffffffffffffffffffffffffffffff167f8be0079c531659141344cd1fd0a4f28419497f9722a3daafe3b4186f6b6457e060405160405180910390a382600760006101000a81548173ffffffffffffffffffffffffffffffffffffffff021916908373ffffffffffffffffffffffffffffffffffffffff1602179055506000600860006101000a81548173ffffffffffffffffffffffffffffffffffffffff021916908373ffffffffffffffffffffffffffffffffffffffff160217905550611037565b82600860006101000a81548173ffffffffffffffffffffffffffffffffffffffff021916908373ffffffffffffffffffffffffffffffffffffffff1602179055505b505050565b600081600f60003373ffffffffffffffffffffffffffffffffffffffff1673ffffffffffffffffffffffffffffffffffffffff16815260200190815260200160002060008573ffffffffffffffffffffffffffffffffffffffff1673ffffffffffffffffffffffffffffffffffffffff168152602001908152602001600020819055508273ffffffffffffffffffffffffffffffffffffffff163373ffffffffffffffffffffffffffffffffffffffff167f8c5be1e5ebec7d5bd14f71427d1e84f3dd0314c0f7b2291e5b200ac8c7c3b925846040518082815260200191505060405180910390a36001905092915050565b6000600254905090565b600061114f600d54836128ed90919063ffffffff16565b9050919050565b60006111e782600f60008773ffffffffffffffffffffffffffffffffffffffff1673ffffffffffffffffffffffffffffffffffffffff16815260200190815260200160002060003373ffffffffffffffffffffffffffffffffffffffff1673ffffffffffffffffffffffffffffffffffffffff16815260200190815260200160002054612ad190919063ffffffff16565b600f60008673ffffffffffffffffffffffffffffffffffffffff1673ffffffffffffffffffffffffffffffffffffffff16815260200190815260200160002060003373ffffffffffffffffffffffffffffffffffffffff1673ffffffffffffffffffffffffffffffffffffffff168152602001908152602001600020819055503373ffffffffffffffffffffffffffffffffffffffff168473ffffffffffffffffffffffffffffffffffffffff167f8c5be1e5ebec7d5bd14f71427d1e84f3dd0314c0f7b2291e5b200ac8c7c3b925600f60008873ffffffffffffffffffffffffffffffffffffffff1673ffffffffffffffffffffffffffffffffffffffff16815260200190815260200160002060003373ffffffffffffffffffffffffffffffffffffffff1673ffffffffffffffffffffffffffffffffffffffff168152602001908152602001600020546040518082815260200191505060405180910390a3600061135383611138565b90506113a781600e60008873ffffffffffffffffffffffffffffffffffffffff1673ffffffffffffffffffffffffffffffffffffffff16815260200190815260200160002054612ad190919063ffffffff16565b600e60008773ffffffffffffffffffffffffffffffffffffffff1673ffffffffffffffffffffffffffffffffffffffff1681526020019081526020016000208190555061143c81600e60008773ffffffffffffffffffffffffffffffffffffffff1673ffffffffffffffffffffffffffffffffffffffff1681526020019081526020016000205461291990919063ffffffff16565b600e60008673ffffffffffffffffffffffffffffffffffffffff1673ffffffffffffffffffffffffffffffffffffffff168152602001908152602001600020819055508373ffffffffffffffffffffffffffffffffffffffff168573ffffffffffffffffffffffffffffffffffffffff167fddf252ad1be2c89b69c2b068fc378daa952ba7f163c4a11628f55a4df523b3ef856040518082815260200191505060405180910390a360019150509392505050565b60006114fd600c54611b6b565b905090565b600c5481565b7f6e71edae12b1b97f4d1f60370fef10105fa2faae0126114a169c64845d6126c960001b81565b6000600560009054906101000a900460ff16905090565b7f000000000000000000000000000000000000000000000000000000000000000081565b60006115fb82600f60003373ffffffffffffffffffffffffffffffffffffffff1673ffffffffffffffffffffffffffffffffffffffff16815260200190815260200160002060008673ffffffffffffffffffffffffffffffffffffffff1673ffffffffffffffffffffffffffffffffffffffff1681526020019081526020016000205461291990919063ffffffff16565b600f60003373ffffffffffffffffffffffffffffffffffffffff1673ffffffffffffffffffffffffffffffffffffffff16815260200190815260200160002060008573ffffffffffffffffffffffffffffffffffffffff1673ffffffffffffffffffffffffffffffffffffffff168152602001908152602001600020819055508273ffffffffffffffffffffffffffffffffffffffff163373ffffffffffffffffffffffffffffffffffffffff167f8c5be1e5ebec7d5bd14f71427d1e84f3dd0314c0f7b2291e5b200ac8c7c3b925600f60003373ffffffffffffffffffffffffffffffffffffffff1673ffffffffffffffffffffffffffffffffffffffff16815260200190815260200160002060008773ffffffffffffffffffffffffffffffffffffffff1673ffffffffffffffffffffffffffffffffffffffff168152602001908152602001600020546040518082815260200191505060405180910390a36001905092915050565b600760009054906101000a900473ffffffffffffffffffffffffffffffffffffffff1673ffffffffffffffffffffffffffffffffffffffff163373ffffffffffffffffffffffffffffffffffffffff1614611829576040517f08c379a00000000000000000000000000000000000000000000000000000000081526004018080602001828103825260208152602001807f4f776e61626c653a2063616c6c6572206973206e6f7420746865206f776e657281525060200191505060405180910390fd5b6000600c54146118a1576040517f08c379a00000000000000000000000000000000000000000000000000000000081526004018080602001828103825260038152602001807f494e5a000000000000000000000000000000000000000000000000000000000081525060200191505060405180910390fd5b6118aa81611138565b600c81905550600c547f4dd23f23e8fad98bd3817ee69155b701f911c04ba790df40c43aaed54ada487460405160405180910390a250565b6000600860009054906101000a900473ffffffffffffffffffffffffffffffffffffffff1690508073ffffffffffffffffffffffffffffffffffffffff163373ffffffffffffffffffffffffffffffffffffffff16146119aa576040517f08c379a00000000000000000000000000000000000000000000000000000000081526004018080602001828103825260208152602001807f4f776e61626c653a2063616c6c657220213d2070656e64696e67206f776e657281525060200191505060405180910390fd5b8073ffffffffffffffffffffffffffffffffffffffff16600760009054906101000a900473ffffffffffffffffffffffffffffffffffffffff1673ffffffffffffffffffffffffffffffffffffffff167f8be0079c531659141344cd1fd0a4f28419497f9722a3daafe3b4186f6b6457e060405160405180910390a380600760006101000a81548173ffffffffffffffffffffffffffffffffffffffff021916908373ffffffffffffffffffffffffffffffffffffffff1602179055506000600860006101000a81548173ffffffffffffffffffffffffffffffffffffffff021916908373ffffffffffffffffffffffffffffffffffffffff16021790555050565b6000611b02600d54600e60008573ffffffffffffffffffffffffffffffffffffffff1673ffffffffffffffffffffffffffffffffffffffff168152602001908152602001600020546128cd90919063ffffffff16565b9050919050565b600b8181548110611b1957600080fd5b90600052602060002090600702016000915090508060000154908060010154908060020154908060030154908060040154908060050154908060060160009054906101000a900463ffffffff16905087565b6000611b82600d54836128cd90919063ffffffff16565b9050919050565b6000611bd2600660008473ffffffffffffffffffffffffffffffffffffffff1673ffffffffffffffffffffffffffffffffffffffff168152602001908152602001600020612aeb565b9050919050565b600760009054906101000a900473ffffffffffffffffffffffffffffffffffffffff1681565b6000611c40611c2f600960009054906101000a900473ffffffffffffffffffffffffffffffffffffffff16611aac565b600254612ad190919063ffffffff16565b905090565b606060048054600181600116156101000203166002900480601f016020809104026020016040519081016040528092919081815260200182805460018160011615610100020316600290048015611cdd5780601f10611cb257610100808354040283529160200191611cdd565b820191906000526020600020905b815481529060010190602001808311611cc057829003601f168201915b5050505050905090565b600a60009054906101000a900473ffffffffffffffffffffffffffffffffffffffff1681565b600080600f60003373ffffffffffffffffffffffffffffffffffffffff1673ffffffffffffffffffffffffffffffffffffffff16815260200190815260200160002060008573ffffffffffffffffffffffffffffffffffffffff1673ffffffffffffffffffffffffffffffffffffffff168152602001908152602001600020549050808310611e1d576000600f60003373ffffffffffffffffffffffffffffffffffffffff1673ffffffffffffffffffffffffffffffffffffffff16815260200190815260200160002060008673ffffffffffffffffffffffffffffffffffffffff1673ffffffffffffffffffffffffffffffffffffffff16815260200190815260200160002081905550611eb1565b611e308382612ad190919063ffffffff16565b600f60003373ffffffffffffffffffffffffffffffffffffffff1673ffffffffffffffffffffffffffffffffffffffff16815260200190815260200160002060008673ffffffffffffffffffffffffffffffffffffffff1673ffffffffffffffffffffffffffffffffffffffff168152602001908152602001600020819055505b8373ffffffffffffffffffffffffffffffffffffffff163373ffffffffffffffffffffffffffffffffffffffff167f8c5be1e5ebec7d5bd14f71427d1e84f3dd0314c0f7b2291e5b200ac8c7c3b925600f60003373ffffffffffffffffffffffffffffffffffffffff1673ffffffffffffffffffffffffffffffffffffffff16815260200190815260200160002060008873ffffffffffffffffffffffffffffffffffffffff1673ffffffffffffffffffffffffffffffffffffffff168152602001908152602001600020546040518082815260200191505060405180910390a3600191505092915050565b600080611fb5600d54846128ed90919063ffffffff16565b905061200981600e60003373ffffffffffffffffffffffffffffffffffffffff1673ffffffffffffffffffffffffffffffffffffffff16815260200190815260200160002054612ad190919063ffffffff16565b600e60003373ffffffffffffffffffffffffffffffffffffffff1673ffffffffffffffffffffffffffffffffffffffff1681526020019081526020016000208190555061209e81600e60008773ffffffffffffffffffffffffffffffffffffffff1673ffffffffffffffffffffffffffffffffffffffff1681526020019081526020016000205461291990919063ffffffff16565b600e60008673ffffffffffffffffffffffffffffffffffffffff1673ffffffffffffffffffffffffffffffffffffffff168152602001908152602001600020819055508373ffffffffffffffffffffffffffffffffffffffff163373ffffffffffffffffffffffffffffffffffffffff167fddf252ad1be2c89b69c2b068fc378daa952ba7f163c4a11628f55a4df523b3ef856040518082815260200191505060405180910390a3600191505092915050565b6000600a60009054906101000a900473ffffffffffffffffffffffffffffffffffffffff1673ffffffffffffffffffffffffffffffffffffffff163373ffffffffffffffffffffffffffffffffffffffff1614612216576040517f08c379a00000000000000000000000000000000000000000000000000000000081526004018080602001828103825260028152602001807f4e4100000000000000000000000000000000000000000000000000000000000081525060200191505060405180910390fd5b600073ffffffffffffffffffffffffffffffffffffffff168273ffffffffffffffffffffffffffffffffffffffff1614156122b9576040517f08c379a00000000000000000000000000000000000000000000000000000000081526004018080602001828103825260028152602001807f494100000000000000000000000000000000000000000000000000000000000081525060200191505060405180910390fd5b81600960006101000a81548173ffffffffffffffffffffffffffffffffffffffff021916908373ffffffffffffffffffffffffffffffffffffffff1602179055506611c37937e080006000198161230c57fe5b0660001903600e6000600960009054906101000a900473ffffffffffffffffffffffffffffffffffffffff1673ffffffffffffffffffffffffffffffffffffffff1673ffffffffffffffffffffffffffffffffffffffff16815260200190815260200160002081905550600960009054906101000a900473ffffffffffffffffffffffffffffffffffffffff1673ffffffffffffffffffffffffffffffffffffffff16600073ffffffffffffffffffffffffffffffffffffffff167fddf252ad1be2c89b69c2b068fc378daa952ba7f163c4a11628f55a4df523b3ef6002546040518082815260200191505060405180910390a37f817c653428858ed536dc085c5d8273734c517b55de44b55f5c5877a75e3373a182604051808273ffffffffffffffffffffffffffffffffffffffff16815260200191505060405180910390a16000600a60006101000a81548173ffffffffffffffffffffffffffffffffffffffff021916908373ffffffffffffffffffffffffffffffffffffffff16021790555060019050919050565b8342111561250e576040517f08c379a00000000000000000000000000000000000000000000000000000000081526004018080602001828103825260188152602001807f5065726d69743a206578706972656420646561646c696e65000000000000000081525060200191505060405180910390fd5b60007f6e71edae12b1b97f4d1f60370fef10105fa2faae0126114a169c64845d6126c960001b88888861257e600660008e73ffffffffffffffffffffffffffffffffffffffff1673ffffffffffffffffffffffffffffffffffffffff168152602001908152602001600020612aeb565b89604051602001808781526020018673ffffffffffffffffffffffffffffffffffffffff1681526020018573ffffffffffffffffffffffffffffffffffffffff168152602001848152602001838152602001828152602001965050505050505060405160208183030381529060405280519060200120905060006119017f000000000000000000000000000000000000000000000000000000000000000083604051602001808461ffff1660f01b81526002018381526020018281526020019350505050604051602081830303815290604052805190602001209050600060018287878760405160008152602001604052604051808581526020018460ff1681526020018381526020018281526020019450505050506020604051602081039080840390855afa1580156126b6573d6000803e3d6000fd5b505050602060405103519050600073ffffffffffffffffffffffffffffffffffffffff168173ffffffffffffffffffffffffffffffffffffffff161415801561272a57508973ffffffffffffffffffffffffffffffffffffffff168173ffffffffffffffffffffffffffffffffffffffff16145b61279c576040517f08c379a000000000000000000000000000000000000000000000000000000000815260040180806020018281038252601e8152602001807f45524332305065726d69743a20496e76616c6964207369676e6174757265000081525060200191505060405180910390fd5b6127e3600660008c73ffffffffffffffffffffffffffffffffffffffff1673ffffffffffffffffffffffffffffffffffffffff168152602001908152602001600020612af9565b6127ee8a8a8a612b0f565b50505050505050505050565b6000600f60008473ffffffffffffffffffffffffffffffffffffffff1673ffffffffffffffffffffffffffffffffffffffff16815260200190815260200160002060008373ffffffffffffffffffffffffffffffffffffffff1673ffffffffffffffffffffffffffffffffffffffff16815260200190815260200160002054905092915050565b600860009054906101000a900473ffffffffffffffffffffffffffffffffffffffff1681565b600960009054906101000a900473ffffffffffffffffffffffffffffffffffffffff1681565b60008082116128db57600080fd5b8183816128e457fe5b04905092915050565b60008083148061290a575081838385029250828161290757fe5b04145b61291357600080fd5b92915050565b600082828401915081101561292d57600080fd5b92915050565b60008061296385612955670de0b6b3a7640000876128ed90919063ffffffff16565b6128cd90919063ffffffff16565b9050600b6040518060e0016040528085815260200183815260200187815260200161298c611bff565b815260200186815260200161299f6114f0565b81526020014263ffffffff168152509080600181540180825580915050600190039060005260206000209060070201600090919091909150600082015181600001556020820151816001015560408201518160020155606082015181600301556080820151816004015560a0820151816005015560c08201518160060160006101000a81548163ffffffff021916908363ffffffff1602179055505050827f917acfbe39be6509ccf7fecb66a7e42ce2be1083c2d7dd3b9b7491dabddb8da442600254604051808381526020018281526020019250505060405180910390a2827f6012dbce857565c4a40974aa5de8373a761fc429077ef0c8c8611d1e20d63fb282612aa96114f0565b604051808381526020018281526020019250505060405180910390a260019150509392505050565b6000828284039150811115612ae557600080fd5b92915050565b600081600001549050919050565b6001816000016000828254019250508190555050565b80600f60008573ffffffffffffffffffffffffffffffffffffffff1673ffffffffffffffffffffffffffffffffffffffff16815260200190815260200160002060008473ffffffffffffffffffffffffffffffffffffffff1673ffffffffffffffffffffffffffffffffffffffff168152602001908152602001600020819055508173ffffffffffffffffffffffffffffffffffffffff168373ffffffffffffffffffffffffffffffffffffffff167f8c5be1e5ebec7d5bd14f71427d1e84f3dd0314c0f7b2291e5b200ac8c7c3b925836040518082815260200191505060405180910390a350505056fea26469706673582212204a0d6b10827832677891270e938a79cfe6a9aea7da79661dfcbe56512f3671cd64736f6c63430007050033",
  "immutableReferences": {
    "1286": [
      {
        "length": 32,
        "start": 5448
      },
      {
        "length": 32,
        "start": 9725
      }
    ]
  },
  "source": "// SPDX-License-Identifier: AGPL-3.0-or-later\r\npragma solidity 0.7.5;\r\n\r\nlibrary LowGasSafeMath {\r\n    /// @notice Returns x + y, reverts if sum overflows uint256\r\n    /// @param x The augend\r\n    /// @param y The addend\r\n    /// @return z The sum of x and y\r\n    function add(uint256 x, uint256 y) internal pure returns (uint256 z) {\r\n        require((z = x + y) >= x);\r\n    }\r\n\r\n    function add32(uint32 x, uint32 y) internal pure returns (uint32 z) {\r\n        require((z = x + y) >= x);\r\n    }\r\n\r\n    /// @notice Returns x - y, reverts if underflows\r\n    /// @param x The minuend\r\n    /// @param y The subtrahend\r\n    /// @return z The difference of x and y\r\n    function sub(uint256 x, uint256 y) internal pure returns (uint256 z) {\r\n        require((z = x - y) <= x);\r\n    }\r\n\r\n    function sub32(uint32 x, uint32 y) internal pure returns (uint32 z) {\r\n        require((z = x - y) <= x);\r\n    }\r\n\r\n    /// @notice Returns x * y, reverts if overflows\r\n    /// @param x The multiplicand\r\n    /// @param y The multiplier\r\n    /// @return z The product of x and y\r\n    function mul(uint256 x, uint256 y) internal pure returns (uint256 z) {\r\n        require(x == 0 || (z = x * y) / x == y);\r\n    }\r\n\r\n    /// @notice Returns x + y, reverts if overflows or underflows\r\n    /// @param x The augend\r\n    /// @param y The addend\r\n    /// @return z The sum of x and y\r\n    function add(int256 x, int256 y) internal pure returns (int256 z) {\r\n        require((z = x + y) >= x == (y >= 0));\r\n    }\r\n\r\n    /// @notice Returns x - y, reverts if overflows or underflows\r\n    /// @param x The minuend\r\n    /// @param y The subtrahend\r\n    /// @return z The difference of x and y\r\n    function sub(int256 x, int256 y) internal pure returns (int256 z) {\r\n        require((z = x - y) <= x == (y >= 0));\r\n    }\r\n\r\n    function div(uint256 x, uint256 y) internal pure returns(uint256 z){\r\n        require(y > 0);\r\n        z=x/y;\r\n    }\r\n}\r\n\r\nlibrary Address {\r\n    /**\r\n     * @dev Returns true if `account` is a contract.\r\n     *\r\n     * [IMPORTANT]\r\n     * ====\r\n     * It is unsafe to assume that an address for which this function returns\r\n     * false is an externally-owned account (EOA) and not a contract.\r\n     *\r\n     * Among others, `isContract` will return false for the following\r\n     * types of addresses:\r\n     *\r\n     *  - an externally-owned account\r\n     *  - a contract in construction\r\n     *  - an address where a contract will be created\r\n     *  - an address where a contract lived, but was destroyed\r\n     * ====\r\n     */\r\n    function isContract(address account) internal view returns (bool) {\r\n        // This method relies in extcodesize, which returns 0 for contracts in\r\n        // construction, since the code is only stored at the end of the\r\n        // constructor execution.\r\n\r\n        uint256 size;\r\n        // solhint-disable-next-line no-inline-assembly\r\n        assembly { size := extcodesize(account) }\r\n        return size > 0;\r\n    }\r\n\r\n    /**\r\n     * @dev Replacement for Solidity's `transfer`: sends `amount` wei to\r\n     * `recipient`, forwarding all available gas and reverting on errors.\r\n     *\r\n     * https://eips.ethereum.org/EIPS/eip-1884[EIP1884] increases the gas cost\r\n     * of certain opcodes, possibly making contracts go over the 2300 gas limit\r\n     * imposed by `transfer`, making them unable to receive funds via\r\n     * `transfer`. {sendValue} removes this limitation.\r\n     *\r\n     * https://diligence.consensys.net/posts/2019/09/stop-using-soliditys-transfer-now/[Learn more].\r\n     *\r\n     * IMPORTANT: because control is transferred to `recipient`, care must be\r\n     * taken to not create reentrancy vulnerabilities. Consider using\r\n     * {ReentrancyGuard}\r\n     */\r\n    function sendValue(address payable recipient, uint256 amount) internal {\r\n        require(address(this).balance >= amount, \"Address: insufficient balance\");\r\n\r\n        // solhint-disable-next-line avoid-low-level-calls, avoid-call-value\r\n        (bool success, ) = recipient.call{ value: amount }(\"\");\r\n        require(success, \"Address: unable to send value, recipient may have reverted\");\r\n    }\r\n\r\n    /**\r\n     * @dev Performs a Solidity function call using a low level `call`. A\r\n     * plain`call` is an unsafe replacement for a function call: use this\r\n     * function instead.\r\n     *\r\n     * If `target` reverts with a revert reason, it is bubbled up by this\r\n     * function (like regular Solidity function calls).\r\n     *\r\n     * Requirements:\r\n     *\r\n     * - `target` must be a contract.\r\n     * - calling `target` with `data` must not revert.\r\n     *\r\n     * _Available since v3.1._\r\n     */\r\n    function functionCall(address target, bytes memory data) internal returns (bytes memory) {\r\n      return functionCall(target, data, \"Address: low-level call failed\");\r\n    }\r\n\r\n    /**\r\n     * @dev Same as {xref-Address-functionCall-address-bytes-}[`functionCall`], but with\r\n     * `errorMessage` as a fallback revert reason when `target` reverts.\r\n     *\r\n     * _Available since v3.1._\r\n     */\r\n    function functionCall(\r\n        address target, \r\n        bytes memory data, \r\n        string memory errorMessage\r\n    ) internal returns (bytes memory) {\r\n        return _functionCallWithValue(target, data, 0, errorMessage);\r\n    }\r\n\r\n    /**\r\n     * @dev Same as {xref-Address-functionCall-address-bytes-}[`functionCall`],\r\n     * but also transferring `value` wei to `target`.\r\n     *\r\n     * Requirements:\r\n     *\r\n     * - the calling contract must have an ETH balance of at least `value`.\r\n     * - the called Solidity function must be `payable`.\r\n     *\r\n     * _Available since v3.1._\r\n     */\r\n    function functionCallWithValue(address target, bytes memory data, uint256 value) internal returns (bytes memory) {\r\n        return functionCallWithValue(target, data, value, \"Address: low-level call with value failed\");\r\n    }\r\n\r\n    /**\r\n     * @dev Same as {xref-Address-functionCallWithValue-address-bytes-uint256-}[`functionCallWithValue`], but\r\n     * with `errorMessage` as a fallback revert reason when `target` reverts.\r\n     *\r\n     * _Available since v3.1._\r\n     */\r\n    function functionCallWithValue(\r\n        address target, \r\n        bytes memory data, \r\n        uint256 value, \r\n        string memory errorMessage\r\n    ) internal returns (bytes memory) {\r\n        require(address(this).balance >= value, \"Address: insufficient balance for call\");\r\n        require(isContract(target), \"Address: call to non-contract\");\r\n\r\n        // solhint-disable-next-line avoid-low-level-calls\r\n        (bool success, bytes memory returndata) = target.call{ value: value }(data);\r\n        return _verifyCallResult(success, returndata, errorMessage);\r\n    }\r\n\r\n    function _functionCallWithValue(\r\n        address target, \r\n        bytes memory data, \r\n        uint256 weiValue, \r\n        string memory errorMessage\r\n    ) private returns (bytes memory) {\r\n        require(isContract(target), \"Address: call to non-contract\");\r\n\r\n        // solhint-disable-next-line avoid-low-level-calls\r\n        (bool success, bytes memory returndata) = target.call{ value: weiValue }(data);\r\n        if (success) {\r\n            return returndata;\r\n        } else {\r\n            // Look for revert reason and bubble it up if present\r\n            if (returndata.length > 0) {\r\n                // The easiest way to bubble the revert reason is using memory via assembly\r\n\r\n                // solhint-disable-next-line no-inline-assembly\r\n                assembly {\r\n                    let returndata_size := mload(returndata)\r\n                    revert(add(32, returndata), returndata_size)\r\n                }\r\n            } else {\r\n                revert(errorMessage);\r\n            }\r\n        }\r\n    }\r\n\r\n  /**\r\n     * @dev Same as {xref-Address-functionCall-address-bytes-}[`functionCall`],\r\n     * but performing a static call.\r\n     *\r\n     * _Available since v3.3._\r\n     */\r\n    function functionStaticCall(address target, bytes memory data) internal view returns (bytes memory) {\r\n        return functionStaticCall(target, data, \"Address: low-level static call failed\");\r\n    }\r\n\r\n    /**\r\n     * @dev Same as {xref-Address-functionCall-address-bytes-string-}[`functionCall`],\r\n     * but performing a static call.\r\n     *\r\n     * _Available since v3.3._\r\n     */\r\n    function functionStaticCall(\r\n        address target, \r\n        bytes memory data, \r\n        string memory errorMessage\r\n    ) internal view returns (bytes memory) {\r\n        require(isContract(target), \"Address: static call to non-contract\");\r\n\r\n        // solhint-disable-next-line avoid-low-level-calls\r\n        (bool success, bytes memory returndata) = target.staticcall(data);\r\n        return _verifyCallResult(success, returndata, errorMessage);\r\n    }\r\n\r\n    /**\r\n     * @dev Same as {xref-Address-functionCall-address-bytes-}[`functionCall`],\r\n     * but performing a delegate call.\r\n     *\r\n     * _Available since v3.3._\r\n     */\r\n    function functionDelegateCall(address target, bytes memory data) internal returns (bytes memory) {\r\n        return functionDelegateCall(target, data, \"Address: low-level delegate call failed\");\r\n    }\r\n\r\n    /**\r\n     * @dev Same as {xref-Address-functionCall-address-bytes-string-}[`functionCall`],\r\n     * but performing a delegate call.\r\n     *\r\n     * _Available since v3.3._\r\n     */\r\n    function functionDelegateCall(\r\n        address target, \r\n        bytes memory data, \r\n        string memory errorMessage\r\n    ) internal returns (bytes memory) {\r\n        require(isContract(target), \"Address: delegate call to non-contract\");\r\n\r\n        // solhint-disable-next-line avoid-low-level-calls\r\n        (bool success, bytes memory returndata) = target.delegatecall(data);\r\n        return _verifyCallResult(success, returndata, errorMessage);\r\n    }\r\n\r\n    function _verifyCallResult(\r\n        bool success, \r\n        bytes memory returndata, \r\n        string memory errorMessage\r\n    ) private pure returns(bytes memory) {\r\n        if (success) {\r\n            return returndata;\r\n        } else {\r\n            // Look for revert reason and bubble it up if present\r\n            if (returndata.length > 0) {\r\n                // The easiest way to bubble the revert reason is using memory via assembly\r\n\r\n                // solhint-disable-next-line no-inline-assembly\r\n                assembly {\r\n                    let returndata_size := mload(returndata)\r\n                    revert(add(32, returndata), returndata_size)\r\n                }\r\n            } else {\r\n                revert(errorMessage);\r\n            }\r\n        }\r\n    }\r\n\r\n    function addressToString(address _address) internal pure returns(string memory) {\r\n        bytes32 _bytes = bytes32(uint256(_address));\r\n        bytes memory HEX = \"0123456789abcdef\";\r\n        bytes memory _addr = new bytes(42);\r\n\r\n        _addr[0] = '0';\r\n        _addr[1] = 'x';\r\n\r\n        for(uint256 i = 0; i < 20; i++) {\r\n            _addr[2+i*2] = HEX[uint8(_bytes[i + 12] >> 4)];\r\n            _addr[3+i*2] = HEX[uint8(_bytes[i + 12] & 0x0f)];\r\n        }\r\n\r\n        return string(_addr);\r\n\r\n    }\r\n}\r\n\r\ninterface IERC20 {\r\n  /**\r\n   * @dev Returns the amount of tokens in existence.\r\n   */\r\n  function totalSupply() external view returns (uint256);\r\n\r\n  /**\r\n   * @dev Returns the amount of tokens owned by `account`.\r\n   */\r\n  function balanceOf(address account) external view returns (uint256);\r\n\r\n  /**\r\n   * @dev Moves `amount` tokens from the caller's account to `recipient`.\r\n   *\r\n   * Returns a boolean value indicating whether the operation succeeded.\r\n   *\r\n   * Emits a {Transfer} event.\r\n   */\r\n  function transfer(address recipient, uint256 amount) external returns (bool);\r\n\r\n  /**\r\n   * @dev Returns the remaining number of tokens that `spender` will be\r\n   * allowed to spend on behalf of `owner` through {transferFrom}. This is\r\n   * zero by default.\r\n   *\r\n   * This value changes when {approve} or {transferFrom} are called.\r\n   */\r\n  function allowance(address owner, address spender) external view returns (uint256);\r\n\r\n  /**\r\n   * @dev Sets `amount` as the allowance of `spender` over the caller's tokens.\r\n   *\r\n   * Returns a boolean value indicating whether the operation succeeded.\r\n   *\r\n   * IMPORTANT: Beware that changing an allowance with this method brings the risk\r\n   * that someone may use both the old and the new allowance by unfortunate\r\n   * transaction ordering. One possible solution to mitigate this race\r\n   * condition is to first reduce the spender's allowance to 0 and set the\r\n   * desired value afterwards:\r\n   * https://github.com/ethereum/EIPs/issues/20#issuecomment-263524729\r\n   *\r\n   * Emits an {Approval} event.\r\n   */\r\n  function approve(address spender, uint256 amount) external returns (bool);\r\n\r\n  /**\r\n   * @dev Moves `amount` tokens from `sender` to `recipient` using the\r\n   * allowance mechanism. `amount` is then deducted from the caller's\r\n   * allowance.\r\n   *\r\n   * Returns a boolean value indicating whether the operation succeeded.\r\n   *\r\n   * Emits a {Transfer} event.\r\n   */\r\n  function transferFrom(address sender, address recipient, uint256 amount) external returns (bool);\r\n\r\n  /**\r\n   * @dev Emitted when `value` tokens are moved from one account (`from`) to\r\n   * another (`to`).\r\n   *\r\n   * Note that `value` may be zero.\r\n   */\r\n  event Transfer(address indexed from, address indexed to, uint256 value);\r\n\r\n  /**\r\n   * @dev Emitted when the allowance of a `spender` for an `owner` is set by\r\n   * a call to {approve}. `value` is the new allowance.\r\n   */\r\n  event Approval(address indexed owner, address indexed spender, uint256 value);\r\n}\r\n\r\nabstract contract ERC20\r\n  is \r\n    IERC20\r\n  {\r\n\r\n  using LowGasSafeMath for uint256;\r\n\r\n  // TODO comment actual hash value.\r\n  bytes32 constant private ERC20TOKEN_ERC1820_INTERFACE_ID = keccak256( \"ERC20Token\" );\r\n    \r\n  mapping (address => uint256) internal _balances;\r\n\r\n  mapping (address => mapping (address => uint256)) internal _allowances;\r\n\r\n  uint256 internal _totalSupply;\r\n\r\n  string internal _name;\r\n    \r\n  string internal _symbol;\r\n    \r\n  uint8 internal _decimals;\r\n\r\n  /**\r\n   * @dev Sets the values for {name} and {symbol}, initializes {decimals} with\r\n   * a default value of 18.\r\n   *\r\n   * To select a different value for {decimals}, use {_setupDecimals}.\r\n   *\r\n   * All three of these values are immutable: they can only be set once during\r\n   * construction.\r\n   */\r\n  constructor (string memory name_, string memory symbol_, uint8 decimals_) {\r\n    _name = name_;\r\n    _symbol = symbol_;\r\n    _decimals = decimals_;\r\n  }\r\n\r\n  /**\r\n   * @dev Returns the name of the token.\r\n   */\r\n  function name() public view returns (string memory) {\r\n    return _name;\r\n  }\r\n\r\n  /**\r\n   * @dev Returns the symbol of the token, usually a shorter version of the\r\n   * name.\r\n   */\r\n  function symbol() public view returns (string memory) {\r\n    return _symbol;\r\n  }\r\n\r\n  /**\r\n   * @dev Returns the number of decimals used to get its user representation.\r\n   * For example, if `decimals` equals `2`, a balance of `505` tokens should\r\n   * be displayed to a user as `5,05` (`505 / 10 ** 2`).\r\n   *\r\n   * Tokens usually opt for a value of 18, imitating the relationship between\r\n   * Ether and Wei. This is the value {ERC20} uses, unless {_setupDecimals} is\r\n   * called.\r\n   *\r\n   * NOTE: This information is only used for _display_ purposes: it in\r\n   * no way affects any of the arithmetic of the contract, including\r\n   * {IERC20-balanceOf} and {IERC20-transfer}.\r\n   */\r\n  function decimals() public view returns (uint8) {\r\n    return _decimals;\r\n  }\r\n\r\n  /**\r\n   * @dev See {IERC20-totalSupply}.\r\n   */\r\n  function totalSupply() public view override returns (uint256) {\r\n    return _totalSupply;\r\n  }\r\n\r\n  /**\r\n   * @dev See {IERC20-balanceOf}.\r\n   */\r\n  function balanceOf(address account) public view virtual override returns (uint256) {\r\n    return _balances[account];\r\n  }\r\n\r\n  /**\r\n   * @dev See {IERC20-transfer}.\r\n   *\r\n   * Requirements:\r\n   *\r\n   * - `recipient` cannot be the zero address.\r\n   * - the caller must have a balance of at least `amount`.\r\n   */\r\n  function transfer(address recipient, uint256 amount) public virtual override returns (bool) {\r\n    _transfer(msg.sender, recipient, amount);\r\n    return true;\r\n  }\r\n\r\n    /**\r\n     * @dev See {IERC20-allowance}.\r\n     */\r\n    function allowance(address owner, address spender) public view virtual override returns (uint256) {\r\n        return _allowances[owner][spender];\r\n    }\r\n\r\n    /**\r\n     * @dev See {IERC20-approve}.\r\n     *\r\n     * Requirements:\r\n     *\r\n     * - `spender` cannot be the zero address.\r\n     */\r\n    function approve(address spender, uint256 amount) public virtual override returns (bool) {\r\n        _approve(msg.sender, spender, amount);\r\n        return true;\r\n    }\r\n\r\n    /**\r\n     * @dev See {IERC20-transferFrom}.\r\n     *\r\n     * Emits an {Approval} event indicating the updated allowance. This is not\r\n     * required by the EIP. See the note at the beginning of {ERC20}.\r\n     *\r\n     * Requirements:\r\n     *\r\n     * - `sender` and `recipient` cannot be the zero address.\r\n     * - `sender` must have a balance of at least `amount`.\r\n     * - the caller must have allowance for ``sender``'s tokens of at least\r\n     * `amount`.\r\n     */\r\n    function transferFrom(address sender, address recipient, uint256 amount) public virtual override returns (bool) {\r\n        _transfer(sender, recipient, amount);\r\n        _approve(sender, msg.sender, _allowances[sender][msg.sender]\r\n            .sub(amount));\r\n        return true;\r\n    }\r\n\r\n    /**\r\n     * @dev Atomically increases the allowance granted to `spender` by the caller.\r\n     *\r\n     * This is an alternative to {approve} that can be used as a mitigation for\r\n     * problems described in {IERC20-approve}.\r\n     *\r\n     * Emits an {Approval} event indicating the updated allowance.\r\n     *\r\n     * Requirements:\r\n     *\r\n     * - `spender` cannot be the zero address.\r\n     */\r\n    function increaseAllowance(address spender, uint256 addedValue) public virtual returns (bool) {\r\n        _approve(msg.sender, spender, _allowances[msg.sender][spender].add(addedValue));\r\n        return true;\r\n    }\r\n\r\n    /**\r\n     * @dev Atomically decreases the allowance granted to `spender` by the caller.\r\n     *\r\n     * This is an alternative to {approve} that can be used as a mitigation for\r\n     * problems described in {IERC20-approve}.\r\n     *\r\n     * Emits an {Approval} event indicating the updated allowance.\r\n     *\r\n     * Requirements:\r\n     *\r\n     * - `spender` cannot be the zero address.\r\n     * - `spender` must have allowance for the caller of at least\r\n     * `subtractedValue`.\r\n     */\r\n    function decreaseAllowance(address spender, uint256 subtractedValue) public virtual returns (bool) {\r\n        _approve(msg.sender, spender, _allowances[msg.sender][spender]\r\n            .sub(subtractedValue));\r\n        return true;\r\n    }\r\n\r\n  /**\r\n   * @dev Moves tokens `amount` from `sender` to `recipient`.\r\n   *\r\n   * This is internal function is equivalent to {transfer}, and can be used to\r\n   * e.g. implement automatic token fees, slashing mechanisms, etc.\r\n   *\r\n   * Emits a {Transfer} event.\r\n   *\r\n   * Requirements:\r\n   *\r\n   * - `sender` cannot be the zero address.\r\n   * - `recipient` cannot be the zero address.\r\n   * - `sender` must have a balance of at least `amount`.\r\n   */\r\n  function _transfer(address sender, address recipient, uint256 amount) internal virtual {\r\n    require(sender != address(0), \"ERC20: transfer from the zero address\");\r\n    require(recipient != address(0), \"ERC20: transfer to the zero address\");\r\n\r\n    _beforeTokenTransfer(sender, recipient, amount);\r\n\r\n    _balances[sender] = _balances[sender].sub(amount);\r\n    _balances[recipient] = _balances[recipient].add(amount);\r\n    emit Transfer(sender, recipient, amount);\r\n  }\r\n\r\n    /** @dev Creates `amount` tokens and assigns them to `account`, increasing\r\n     * the total supply.\r\n     *\r\n     * Emits a {Transfer} event with `from` set to the zero address.\r\n     *\r\n     * Requirements:\r\n     *\r\n     * - `to` cannot be the zero address.\r\n     */\r\n    function _mint(address account_, uint256 ammount_) internal virtual {\r\n        require(account_ != address(0), \"ERC20: mint to the zero address\");\r\n        _beforeTokenTransfer(address( this ), account_, ammount_);\r\n        _totalSupply = _totalSupply.add(ammount_);\r\n        _balances[account_] = _balances[account_].add(ammount_);\r\n        emit Transfer(address( 0 ), account_, ammount_);\r\n    }\r\n\r\n    /**\r\n     * @dev Destroys `amount` tokens from `account`, reducing the\r\n     * total supply.\r\n     *\r\n     * Emits a {Transfer} event with `to` set to the zero address.\r\n     *\r\n     * Requirements:\r\n     *\r\n     * - `account` cannot be the zero address.\r\n     * - `account` must have at least `amount` tokens.\r\n     */\r\n    function _burn(address account, uint256 amount) internal virtual {\r\n        require(account != address(0), \"ERC20: burn from the zero address\");\r\n\r\n        _beforeTokenTransfer(account, address(0), amount);\r\n\r\n        _balances[account] = _balances[account].sub(amount);\r\n        _totalSupply = _totalSupply.sub(amount);\r\n        emit Transfer(account, address(0), amount);\r\n    }\r\n\r\n    /**\r\n     * @dev Sets `amount` as the allowance of `spender` over the `owner` s tokens.\r\n     *\r\n     * This internal function is equivalent to `approve`, and can be used to\r\n     * e.g. set automatic allowances for certain subsystems, etc.\r\n     *\r\n     * Emits an {Approval} event.\r\n     *\r\n     * Requirements:\r\n     *\r\n     * - `owner` cannot be the zero address.\r\n     * - `spender` cannot be the zero address.\r\n     */\r\n    function _approve(address owner, address spender, uint256 amount) internal virtual {\r\n        require(owner != address(0), \"ERC20: approve from the zero address\");\r\n        require(spender != address(0), \"ERC20: approve to the zero address\");\r\n\r\n        _allowances[owner][spender] = amount;\r\n        emit Approval(owner, spender, amount);\r\n    }\r\n\r\n    /**\r\n     * @dev Sets {decimals} to a value other than the default one of 18.\r\n     *\r\n     * WARNING: This function should only be called from the constructor. Most\r\n     * applications that interact with token contracts will not expect\r\n     * {decimals} to ever change, and may work incorrectly if it does.\r\n     */\r\n\r\n  /**\r\n   * @dev Hook that is called before any transfer of tokens. This includes\r\n   * minting and burning.\r\n   *\r\n   * Calling conditions:\r\n   *\r\n   * - when `from` and `to` are both non-zero, `amount` of ``from``'s tokens\r\n   * will be to transferred to `to`.\r\n   * - when `from` is zero, `amount` tokens will be minted for `to`.\r\n   * - when `to` is zero, `amount` of ``from``'s tokens will be burned.\r\n   * - `from` and `to` are never both zero.\r\n   *\r\n   * To learn more about hooks, head to xref:ROOT:extending-contracts.adoc#using-hooks[Using Hooks].\r\n   */\r\n  function _beforeTokenTransfer( address from_, address to_, uint256 amount_ ) internal virtual { }\r\n}\r\n\r\nlibrary Counters {\r\n    using LowGasSafeMath for uint256;\r\n\r\n    struct Counter {\r\n        // This variable should never be directly accessed by users of the library: interactions must be restricted to\r\n        // the library's function. As of Solidity v0.5.2, this cannot be enforced, though there is a proposal to add\r\n        // this feature: see https://github.com/ethereum/solidity/issues/4637\r\n        uint256 _value; // default: 0\r\n    }\r\n\r\n    function current(Counter storage counter) internal view returns (uint256) {\r\n        return counter._value;\r\n    }\r\n\r\n    function increment(Counter storage counter) internal {\r\n        // The {SafeMath} overflow check can be skipped here, see the comment at the top\r\n        counter._value += 1;\r\n    }\r\n\r\n    function decrement(Counter storage counter) internal {\r\n        counter._value = counter._value.sub(1);\r\n    }\r\n}\r\n\r\ninterface IERC2612Permit {\r\n    /**\r\n     * @dev Sets `amount` as the allowance of `spender` over `owner`'s tokens,\r\n     * given `owner`'s signed approval.\r\n     *\r\n     * IMPORTANT: The same issues {IERC20-approve} has related to transaction\r\n     * ordering also apply here.\r\n     *\r\n     * Emits an {Approval} event.\r\n     *\r\n     * Requirements:\r\n     *\r\n     * - `owner` cannot be the zero address.\r\n     * - `spender` cannot be the zero address.\r\n     * - `deadline` must be a timestamp in the future.\r\n     * - `v`, `r` and `s` must be a valid `secp256k1` signature from `owner`\r\n     * over the EIP712-formatted function arguments.\r\n     * - the signature must use ``owner``'s current nonce (see {nonces}).\r\n     *\r\n     * For more information on the signature format, see the\r\n     * https://eips.ethereum.org/EIPS/eip-2612#specification[relevant EIP\r\n     * section].\r\n     */\r\n    function permit(\r\n        address owner,\r\n        address spender,\r\n        uint256 amount,\r\n        uint256 deadline,\r\n        uint8 v,\r\n        bytes32 r,\r\n        bytes32 s\r\n    ) external;\r\n\r\n    /**\r\n     * @dev Returns the current ERC2612 nonce for `owner`. This value must be\r\n     * included whenever a signature is generated for {permit}.\r\n     *\r\n     * Every successful call to {permit} increases ``owner``'s nonce by one. This\r\n     * prevents a signature from being used multiple times.\r\n     */\r\n    function nonces(address owner) external view returns (uint256);\r\n}\r\n\r\nabstract contract ERC20Permit is ERC20, IERC2612Permit {\r\n    using Counters for Counters.Counter;\r\n\r\n    mapping(address => Counters.Counter) private _nonces;\r\n\r\n    // keccak256(\"Permit(address owner,address spender,uint256 value,uint256 nonce,uint256 deadline)\");\r\n    bytes32 public constant PERMIT_TYPEHASH = 0x6e71edae12b1b97f4d1f60370fef10105fa2faae0126114a169c64845d6126c9;\r\n\r\n    bytes32 public immutable DOMAIN_SEPARATOR;\r\n\r\n    constructor() {\r\n\r\n        uint256 chainID;\r\n        assembly {\r\n            chainID := chainid()\r\n        }\r\n\r\n        DOMAIN_SEPARATOR = keccak256(abi.encode(\r\n            keccak256(\"EIP712Domain(string name,string version,uint256 chainId,address verifyingContract)\"),\r\n            keccak256(bytes(name())),\r\n            keccak256(bytes(\"1\")), // Version\r\n            chainID,\r\n            address(this)\r\n        ));\r\n    }\r\n\r\n    /**\r\n     * @dev See {IERC2612Permit-permit}.\r\n     *\r\n     */\r\n    function permit(\r\n        address owner,\r\n        address spender,\r\n        uint256 amount,\r\n        uint256 deadline,\r\n        uint8 v,\r\n        bytes32 r,\r\n        bytes32 s\r\n    ) public virtual override {\r\n        require(block.timestamp <= deadline, \"Permit: expired deadline\");\r\n\r\n        bytes32 hashStruct =\r\n            keccak256(abi.encode(PERMIT_TYPEHASH, owner, spender, amount, _nonces[owner].current(), deadline));\r\n\r\n        bytes32 _hash = keccak256(abi.encodePacked(uint16(0x1901), DOMAIN_SEPARATOR, hashStruct));\r\n\r\n        address signer = ecrecover(_hash, v, r, s);\r\n        require(signer != address(0) && signer == owner, \"ERC20Permit: Invalid signature\");\r\n\r\n        _nonces[owner].increment();\r\n        _approve(owner, spender, amount);\r\n    }\r\n\r\n    /**\r\n     * @dev See {IERC2612Permit-nonces}.\r\n     */\r\n    function nonces(address owner) public view override returns (uint256) {\r\n        return _nonces[owner].current();\r\n    }\r\n}\r\n\r\ncontract OwnableData {\r\n    address public owner;\r\n    address public pendingOwner;\r\n}\r\n\r\ncontract Ownable is OwnableData {\r\n    event OwnershipTransferred(address indexed previousOwner, address indexed newOwner);\r\n\r\n    /// @notice `owner` defaults to msg.sender on construction.\r\n    constructor() {\r\n        owner = msg.sender;\r\n        emit OwnershipTransferred(address(0), msg.sender);\r\n    }\r\n\r\n    /// @notice Transfers ownership to `newOwner`. Either directly or claimable by the new pending owner.\r\n    /// Can only be invoked by the current `owner`.\r\n    /// @param newOwner Address of the new owner.\r\n    /// @param direct True if `newOwner` should be set immediately. False if `newOwner` needs to use `claimOwnership`.\r\n    /// @param renounce Allows the `newOwner` to be `address(0)` if `direct` and `renounce` is True. Has no effect otherwise.\r\n    function transferOwnership(\r\n        address newOwner,\r\n        bool direct,\r\n        bool renounce\r\n    ) public onlyOwner {\r\n        if (direct) {\r\n            // Checks\r\n            require(newOwner != address(0) || renounce, \"Ownable: zero address\");\r\n\r\n            // Effects\r\n            emit OwnershipTransferred(owner, newOwner);\r\n            owner = newOwner;\r\n            pendingOwner = address(0);\r\n        } else {\r\n            // Effects\r\n            pendingOwner = newOwner;\r\n        }\r\n    }\r\n\r\n    /// @notice Needs to be called by `pendingOwner` to claim ownership.\r\n    function claimOwnership() public {\r\n        address _pendingOwner = pendingOwner;\r\n\r\n        // Checks\r\n        require(msg.sender == _pendingOwner, \"Ownable: caller != pending owner\");\r\n\r\n        // Effects\r\n        emit OwnershipTransferred(owner, _pendingOwner);\r\n        owner = _pendingOwner;\r\n        pendingOwner = address(0);\r\n    }\r\n\r\n    /// @notice Only allows the `owner` to execute the function.\r\n    modifier onlyOwner() {\r\n        require(msg.sender == owner, \"Ownable: caller is not the owner\");\r\n        _;\r\n    }\r\n}\r\n\r\ncontract MEMOries is ERC20Permit, Ownable {\r\n\r\n    using LowGasSafeMath for uint256;\r\n\r\n    modifier onlyStakingContract() {\r\n        require( msg.sender == stakingContract, \"OSC\" );\r\n        _;\r\n    }\r\n\r\n    address public stakingContract;\r\n    address public initializer;\r\n\r\n    event LogSupply(uint256 indexed epoch, uint256 timestamp, uint256 totalSupply );\r\n    event LogRebase( uint256 indexed epoch, uint256 rebase, uint256 index );\r\n    event LogStakingContractUpdated( address stakingContract );\r\n    event LogSetIndex(uint256 indexed index );\r\n\r\n    struct Rebase {\r\n        uint epoch;\r\n        uint rebase; // 18 decimals\r\n        uint totalStakedBefore;\r\n        uint totalStakedAfter;\r\n        uint amountRebased;\r\n        uint index;\r\n        uint32 timeOccured;\r\n    }\r\n    Rebase[] public rebases;\r\n\r\n    uint public INDEX;\r\n\r\n    uint256 private constant MAX_UINT256 = ~uint256(0);\r\n    uint256 private constant INITIAL_FRAGMENTS_SUPPLY = 5000000 * 10**9;\r\n\r\n    // TOTAL_GONS is a multiple of INITIAL_FRAGMENTS_SUPPLY so that _gonsPerFragment is an integer.\r\n    // Use the highest value that fits in a uint256 for max granularity.\r\n    uint256 private constant TOTAL_GONS = MAX_UINT256 - (MAX_UINT256 % INITIAL_FRAGMENTS_SUPPLY);\r\n\r\n    // MAX_SUPPLY = maximum integer < (sqrt(4*TOTAL_GONS + 1) - 1) / 2\r\n    uint256 private constant MAX_SUPPLY = ~uint128(0);  // (2^128) - 1\r\n\r\n    uint256 private _gonsPerFragment;\r\n    mapping(address => uint256) private _gonBalances;\r\n\r\n    mapping ( address => mapping ( address => uint256 ) ) private _allowedValue;\r\n\r\n    constructor() ERC20(\"MEMOries\", \"MEMO\", 9) ERC20Permit() {\r\n        initializer = msg.sender;\r\n        _totalSupply = INITIAL_FRAGMENTS_SUPPLY;\r\n        _gonsPerFragment = TOTAL_GONS.div(_totalSupply);\r\n    }\r\n\r\n    function initialize( address stakingContract_ ) external returns ( bool ) {\r\n        require( msg.sender == initializer, \"NA\" );\r\n        require( stakingContract_ != address(0), \"IA\" );\r\n        stakingContract = stakingContract_;\r\n        _gonBalances[ stakingContract ] = TOTAL_GONS;\r\n\r\n        emit Transfer( address(0x0), stakingContract, _totalSupply );\r\n        emit LogStakingContractUpdated( stakingContract_ );\r\n        \r\n        initializer = address(0);\r\n        return true;\r\n    }\r\n\r\n    function setIndex( uint _INDEX ) external onlyOwner() {\r\n        require( INDEX == 0, \"INZ\");\r\n        INDEX = gonsForBalance( _INDEX );\r\n        emit LogSetIndex(INDEX);\r\n    }\r\n\r\n    /**\r\n        @notice increases MEMOries supply to increase staking balances relative to profit_\r\n        @param profit_ uint256\r\n        @return uint256\r\n     */\r\n    function rebase( uint256 profit_, uint epoch_ ) public onlyStakingContract() returns ( uint256 ) {\r\n        uint256 rebaseAmount;\r\n        uint256 circulatingSupply_ = circulatingSupply();\r\n\r\n        if ( profit_ == 0 ) {\r\n            emit LogSupply( epoch_, block.timestamp, _totalSupply );\r\n            emit LogRebase( epoch_, 0, index() );\r\n            return _totalSupply;\r\n        } else if ( circulatingSupply_ > 0 ){\r\n            rebaseAmount = profit_.mul( _totalSupply ).div( circulatingSupply_ );\r\n        } else {\r\n            rebaseAmount = profit_;\r\n        }\r\n\r\n        _totalSupply = _totalSupply.add( rebaseAmount );\r\n\r\n        if ( _totalSupply > MAX_SUPPLY ) {\r\n            _totalSupply = MAX_SUPPLY;\r\n        }\r\n\r\n        _gonsPerFragment = TOTAL_GONS.div( _totalSupply );\r\n\r\n        _storeRebase( circulatingSupply_, profit_, epoch_ );\r\n\r\n        return _totalSupply;\r\n    }\r\n\r\n    /**\r\n        @notice emits event with data about rebase\r\n        @param previousCirculating_ uint\r\n        @param profit_ uint\r\n        @param epoch_ uint\r\n        @return bool\r\n     */\r\n    function _storeRebase( uint previousCirculating_, uint profit_, uint epoch_ ) internal returns ( bool ) {\r\n        uint rebasePercent = profit_.mul( 1e18 ).div( previousCirculating_ );\r\n\r\n        rebases.push( Rebase ( {\r\n            epoch: epoch_,\r\n            rebase: rebasePercent, // 18 decimals\r\n            totalStakedBefore: previousCirculating_,\r\n            totalStakedAfter: circulatingSupply(),\r\n            amountRebased: profit_,\r\n            index: index(),\r\n            timeOccured: uint32(block.timestamp)\r\n        }));\r\n        \r\n        emit LogSupply( epoch_, block.timestamp, _totalSupply );\r\n        emit LogRebase( epoch_, rebasePercent, index() );\r\n\r\n        return true;\r\n    }\r\n\r\n    function balanceOf( address who ) public view override returns ( uint256 ) {\r\n        return _gonBalances[ who ].div( _gonsPerFragment );\r\n    }\r\n\r\n    function gonsForBalance( uint amount ) public view returns ( uint ) {\r\n        return amount.mul( _gonsPerFragment );\r\n    }\r\n\r\n    function balanceForGons( uint gons ) public view returns ( uint ) {\r\n        return gons.div( _gonsPerFragment );\r\n    }\r\n\r\n    // Staking contract holds excess MEMOries\r\n    function circulatingSupply() public view returns ( uint ) {\r\n        return _totalSupply.sub( balanceOf( stakingContract ) );\r\n    }\r\n\r\n    function index() public view returns ( uint ) {\r\n        return balanceForGons( INDEX );\r\n    }\r\n\r\n    function transfer( address to, uint256 value ) public override returns (bool) {\r\n        uint256 gonValue = value.mul( _gonsPerFragment );\r\n        _gonBalances[ msg.sender ] = _gonBalances[ msg.sender ].sub( gonValue );\r\n        _gonBalances[ to ] = _gonBalances[ to ].add( gonValue );\r\n        emit Transfer( msg.sender, to, value );\r\n        return true;\r\n    }\r\n\r\n    function allowance( address owner_, address spender ) public view override returns ( uint256 ) {\r\n        return _allowedValue[ owner_ ][ spender ];\r\n    }\r\n\r\n    function transferFrom( address from, address to, uint256 value ) public override returns ( bool ) {\r\n       _allowedValue[ from ][ msg.sender ] = _allowedValue[ from ][ msg.sender ].sub( value );\r\n       emit Approval( from, msg.sender,  _allowedValue[ from ][ msg.sender ] );\r\n\r\n        uint256 gonValue = gonsForBalance( value );\r\n        _gonBalances[ from ] = _gonBalances[from].sub( gonValue );\r\n        _gonBalances[ to ] = _gonBalances[to].add( gonValue );\r\n        emit Transfer( from, to, value );\r\n\r\n        return true;\r\n    }\r\n\r\n    function approve( address spender, uint256 value ) public override returns (bool) {\r\n         _allowedValue[ msg.sender ][ spender ] = value;\r\n         emit Approval( msg.sender, spender, value );\r\n         return true;\r\n    }\r\n\r\n    // What gets called in a permit\r\n    function _approve( address owner, address spender, uint256 value ) internal override virtual {\r\n        _allowedValue[owner][spender] = value;\r\n        emit Approval( owner, spender, value );\r\n    }\r\n\r\n    function increaseAllowance( address spender, uint256 addedValue ) public override returns (bool) {\r\n        _allowedValue[ msg.sender ][ spender ] = _allowedValue[ msg.sender ][ spender ].add( addedValue );\r\n        emit Approval( msg.sender, spender, _allowedValue[ msg.sender ][ spender ] );\r\n        return true;\r\n    }\r\n\r\n    function decreaseAllowance( address spender, uint256 subtractedValue ) public override returns (bool) {\r\n        uint256 oldValue = _allowedValue[ msg.sender ][ spender ];\r\n        if (subtractedValue >= oldValue) {\r\n            _allowedValue[ msg.sender ][ spender ] = 0;\r\n        } else {\r\n            _allowedValue[ msg.sender ][ spender ] = oldValue.sub( subtractedValue );\r\n        }\r\n        emit Approval( msg.sender, spender, _allowedValue[ msg.sender ][ spender ] );\r\n        return true;\r\n    }\r\n}",
  "sourcePath": "E:\\project\\Chris\\wonderland-money\\truffle_deploy\\contracts\\MemoriesERC20.sol",
  "compiler": {
    "name": "solc",
    "version": "0.7.5+commit.eb77ed08.Emscripten.clang"
  },
  "schemaVersion": "3.4.4",
  "updatedAt": "2022-01-04T22:04:20.499Z",
  "devdoc": {
    "kind": "dev",
    "methods": {
      "decimals()": {
        "details": "Returns the number of decimals used to get its user representation. For example, if `decimals` equals `2`, a balance of `505` tokens should be displayed to a user as `5,05` (`505 / 10 ** 2`). Tokens usually opt for a value of 18, imitating the relationship between Ether and Wei. This is the value {ERC20} uses, unless {_setupDecimals} is called. NOTE: This information is only used for _display_ purposes: it in no way affects any of the arithmetic of the contract, including {IERC20-balanceOf} and {IERC20-transfer}."
      },
      "decreaseAllowance(address,uint256)": {
        "details": "Atomically decreases the allowance granted to `spender` by the caller. This is an alternative to {approve} that can be used as a mitigation for problems described in {IERC20-approve}. Emits an {Approval} event indicating the updated allowance. Requirements: - `spender` cannot be the zero address. - `spender` must have allowance for the caller of at least `subtractedValue`."
      },
      "increaseAllowance(address,uint256)": {
        "details": "Atomically increases the allowance granted to `spender` by the caller. This is an alternative to {approve} that can be used as a mitigation for problems described in {IERC20-approve}. Emits an {Approval} event indicating the updated allowance. Requirements: - `spender` cannot be the zero address."
      },
      "name()": {
        "details": "Returns the name of the token."
      },
      "nonces(address)": {
        "details": "See {IERC2612Permit-nonces}."
      },
      "permit(address,address,uint256,uint256,uint8,bytes32,bytes32)": {
        "details": "See {IERC2612Permit-permit}."
      },
      "rebase(uint256,uint256)": {
        "params": {
          "profit_": "uint256"
        },
        "returns": {
          "_0": "uint256"
        }
      },
      "symbol()": {
        "details": "Returns the symbol of the token, usually a shorter version of the name."
      },
      "totalSupply()": {
        "details": "See {IERC20-totalSupply}."
      },
      "transferOwnership(address,bool,bool)": {
        "params": {
          "direct": "True if `newOwner` should be set immediately. False if `newOwner` needs to use `claimOwnership`.",
          "newOwner": "Address of the new owner.",
          "renounce": "Allows the `newOwner` to be `address(0)` if `direct` and `renounce` is True. Has no effect otherwise."
        }
      }
    },
    "version": 1
  },
  "userdoc": {
    "kind": "user",
    "methods": {
      "claimOwnership()": {
        "notice": "Needs to be called by `pendingOwner` to claim ownership."
      },
      "rebase(uint256,uint256)": {
        "notice": "increases MEMOries supply to increase staking balances relative to profit_"
      },
      "transferOwnership(address,bool,bool)": {
        "notice": "Transfers ownership to `newOwner`. Either directly or claimable by the new pending owner. Can only be invoked by the current `owner`."
      }
    },
    "version": 1
  }
}