{
  "contractName": "MagicInternetMoney",
  "abi": [
    {
      "anonymous": false,
      "inputs": [
        {
          "indexed": true,
          "internalType": "address",
          "name": "_owner",
          "type": "address"
        },
        {
          "indexed": true,
          "internalType": "address",
          "name": "_spender",
          "type": "address"
        },
        {
          "indexed": false,
          "internalType": "uint256",
          "name": "_value",
          "type": "uint256"
        }
      ],
      "name": "Approval",
      "type": "event"
    },
    {
      "anonymous": false,
      "inputs": [
        {
          "indexed": true,
          "internalType": "address",
          "name": "previousOwner",
          "type": "address"
        },
        {
          "indexed": true,
          "internalType": "address",
          "name": "newOwner",
          "type": "address"
        }
      ],
      "name": "OwnershipTransferred",
      "type": "event"
    },
    {
      "anonymous": false,
      "inputs": [
        {
          "indexed": true,
          "internalType": "address",
          "name": "_from",
          "type": "address"
        },
        {
          "indexed": true,
          "internalType": "address",
          "name": "_to",
          "type": "address"
        },
        {
          "indexed": false,
          "internalType": "uint256",
          "name": "_value",
          "type": "uint256"
        }
      ],
      "name": "Transfer",
      "type": "event"
    },
    {
      "inputs": [],
      "name": "DOMAIN_SEPARATOR",
      "outputs": [
        {
          "internalType": "bytes32",
          "name": "",
          "type": "bytes32"
        }
      ],
      "stateMutability": "view",
      "type": "function",
      "constant": true
    },
    {
      "inputs": [
        {
          "internalType": "address",
          "name": "",
          "type": "address"
        },
        {
          "internalType": "address",
          "name": "",
          "type": "address"
        }
      ],
      "name": "allowance",
      "outputs": [
        {
          "internalType": "uint256",
          "name": "",
          "type": "uint256"
        }
      ],
      "stateMutability": "view",
      "type": "function",
      "constant": true
    },
    {
      "inputs": [
        {
          "internalType": "address",
          "name": "spender",
          "type": "address"
        },
        {
          "internalType": "uint256",
          "name": "amount",
          "type": "uint256"
        }
      ],
      "name": "approve",
      "outputs": [
        {
          "internalType": "bool",
          "name": "",
          "type": "bool"
        }
      ],
      "stateMutability": "nonpayable",
      "type": "function"
    },
    {
      "inputs": [
        {
          "internalType": "address",
          "name": "",
          "type": "address"
        }
      ],
      "name": "balanceOf",
      "outputs": [
        {
          "internalType": "uint256",
          "name": "",
          "type": "uint256"
        }
      ],
      "stateMutability": "view",
      "type": "function",
      "constant": true
    },
    {
      "inputs": [],
      "name": "claimOwnership",
      "outputs": [],
      "stateMutability": "nonpayable",
      "type": "function"
    },
    {
      "inputs": [],
      "name": "decimals",
      "outputs": [
        {
          "internalType": "uint8",
          "name": "",
          "type": "uint8"
        }
      ],
      "stateMutability": "view",
      "type": "function",
      "constant": true
    },
    {
      "inputs": [],
      "name": "lastMint",
      "outputs": [
        {
          "internalType": "uint128",
          "name": "time",
          "type": "uint128"
        },
        {
          "internalType": "uint128",
          "name": "amount",
          "type": "uint128"
        }
      ],
      "stateMutability": "view",
      "type": "function",
      "constant": true
    },
    {
      "inputs": [],
      "name": "name",
      "outputs": [
        {
          "internalType": "string",
          "name": "",
          "type": "string"
        }
      ],
      "stateMutability": "view",
      "type": "function",
      "constant": true
    },
    {
      "inputs": [
        {
          "internalType": "address",
          "name": "",
          "type": "address"
        }
      ],
      "name": "nonces",
      "outputs": [
        {
          "internalType": "uint256",
          "name": "",
          "type": "uint256"
        }
      ],
      "stateMutability": "view",
      "type": "function",
      "constant": true
    },
    {
      "inputs": [],
      "name": "owner",
      "outputs": [
        {
          "internalType": "address",
          "name": "",
          "type": "address"
        }
      ],
      "stateMutability": "view",
      "type": "function",
      "constant": true
    },
    {
      "inputs": [],
      "name": "pendingOwner",
      "outputs": [
        {
          "internalType": "address",
          "name": "",
          "type": "address"
        }
      ],
      "stateMutability": "view",
      "type": "function",
      "constant": true
    },
    {
      "inputs": [
        {
          "internalType": "address",
          "name": "owner_",
          "type": "address"
        },
        {
          "internalType": "address",
          "name": "spender",
          "type": "address"
        },
        {
          "internalType": "uint256",
          "name": "value",
          "type": "uint256"
        },
        {
          "internalType": "uint256",
          "name": "deadline",
          "type": "uint256"
        },
        {
          "internalType": "uint8",
          "name": "v",
          "type": "uint8"
        },
        {
          "internalType": "bytes32",
          "name": "r",
          "type": "bytes32"
        },
        {
          "internalType": "bytes32",
          "name": "s",
          "type": "bytes32"
        }
      ],
      "name": "permit",
      "outputs": [],
      "stateMutability": "nonpayable",
      "type": "function"
    },
    {
      "inputs": [],
      "name": "symbol",
      "outputs": [
        {
          "internalType": "string",
          "name": "",
          "type": "string"
        }
      ],
      "stateMutability": "view",
      "type": "function",
      "constant": true
    },
    {
      "inputs": [],
      "name": "totalSupply",
      "outputs": [
        {
          "internalType": "uint256",
          "name": "",
          "type": "uint256"
        }
      ],
      "stateMutability": "view",
      "type": "function",
      "constant": true
    },
    {
      "inputs": [
        {
          "internalType": "address",
          "name": "to",
          "type": "address"
        },
        {
          "internalType": "uint256",
          "name": "amount",
          "type": "uint256"
        }
      ],
      "name": "transfer",
      "outputs": [
        {
          "internalType": "bool",
          "name": "",
          "type": "bool"
        }
      ],
      "stateMutability": "nonpayable",
      "type": "function"
    },
    {
      "inputs": [
        {
          "internalType": "address",
          "name": "from",
          "type": "address"
        },
        {
          "internalType": "address",
          "name": "to",
          "type": "address"
        },
        {
          "internalType": "uint256",
          "name": "amount",
          "type": "uint256"
        }
      ],
      "name": "transferFrom",
      "outputs": [
        {
          "internalType": "bool",
          "name": "",
          "type": "bool"
        }
      ],
      "stateMutability": "nonpayable",
      "type": "function"
    },
    {
      "inputs": [
        {
          "internalType": "address",
          "name": "newOwner",
          "type": "address"
        },
        {
          "internalType": "bool",
          "name": "direct",
          "type": "bool"
        },
        {
          "internalType": "bool",
          "name": "renounce",
          "type": "bool"
        }
      ],
      "name": "transferOwnership",
      "outputs": [],
      "stateMutability": "nonpayable",
      "type": "function"
    },
    {
      "inputs": [
        {
          "internalType": "address",
          "name": "to",
          "type": "address"
        },
        {
          "internalType": "uint256",
          "name": "amount",
          "type": "uint256"
        }
      ],
      "name": "mint",
      "outputs": [],
      "stateMutability": "nonpayable",
      "type": "function"
    },
    {
      "inputs": [
        {
          "internalType": "address",
          "name": "clone",
          "type": "address"
        },
        {
          "internalType": "uint256",
          "name": "amount",
          "type": "uint256"
        },
        {
          "internalType": "contract IBentoBoxV1",
          "name": "bentoBox",
          "type": "address"
        }
      ],
      "name": "mintToBentoBox",
      "outputs": [],
      "stateMutability": "nonpayable",
      "type": "function"
    },
    {
      "inputs": [
        {
          "internalType": "uint256",
          "name": "amount",
          "type": "uint256"
        }
      ],
      "name": "burn",
      "outputs": [],
      "stateMutability": "nonpayable",
      "type": "function"
    }
  ],
  "bytecode": "0x60c06040523480156200001157600080fd5b5060004690506200002e8160a081815250620000d860201b60201c565b608081815250505033600360006101000a81548173ffffffffffffffffffffffffffffffffffffffff021916908373ffffffffffffffffffffffffffffffffffffffff1602179055503373ffffffffffffffffffffffffffffffffffffffff16600073ffffffffffffffffffffffffffffffffffffffff167f8be0079c531659141344cd1fd0a4f28419497f9722a3daafe3b4186f6b6457e060405160405180910390a3620001e6565b60007f47e79534a245952e8b16893a336b85a3d9ea9fa8c573f3d803afb92a794692188230604051602001620001119392919062000161565b604051602081830303815290604052805190602001209050919050565b62000139816200019e565b82525050565b6200014a81620001b2565b82525050565b6200015b81620001dc565b82525050565b60006060820190506200017860008301866200013f565b62000187602083018562000150565b6200019660408301846200012e565b949350505050565b6000620001ab82620001bc565b9050919050565b6000819050919050565b600073ffffffffffffffffffffffffffffffffffffffff82169050919050565b6000819050919050565b60805160a0516128c26200020a600039806118e252508061191752506128c26000f3fe608060405234801561001057600080fd5b506004361061012c5760003560e01c8063586fc5b5116100ad57806395d89b411161007157806395d89b4114610320578063a9059cbb1461033e578063d505accf1461036e578063dd62ed3e1461038a578063e30c3978146103ba5761012c565b8063586fc5b51461026757806369e402651461028657806370a08231146102a25780637ecebe00146102d25780638da5cb5b146103025761012c565b8063313ce567116100f4578063313ce567146101e95780633644e5151461020757806340c10f191461022557806342966c68146102415780634e71e0c81461025d5761012c565b806306fdde0314610131578063078dfbe71461014f578063095ea7b31461016b57806318160ddd1461019b57806323b872dd146101b9575b600080fd5b6101396103d8565b6040516101469190612489565b60405180910390f35b61016960048036038101906101649190611d17565b610411565b005b61018560048036038101906101809190611d66565b61066a565b6040516101929190612323565b60405180910390f35b6101a361075c565b6040516101b09190612694565b60405180910390f35b6101d360048036038101906101ce9190611c2a565b610762565b6040516101e09190612323565b60405180910390f35b6101f1610b08565b6040516101fe91906126af565b60405180910390f35b61020f610b0d565b60405161021c919061233e565b60405180910390f35b61023f600480360381019061023a9190611d66565b610b1c565b005b61025b60048036038101906102569190611df1565b610e33565b005b610265610f79565b005b61026f611110565b60405161027d92919061266b565b60405180910390f35b6102a0600480360381019061029b9190611da2565b61115a565b005b6102bc60048036038101906102b79190611bc5565b61128e565b6040516102c99190612694565b60405180910390f35b6102ec60048036038101906102e79190611bc5565b6112a6565b6040516102f99190612694565b60405180910390f35b61030a6112be565b6040516103179190612308565b60405180910390f35b6103286112e4565b6040516103359190612489565b60405180910390f35b61035860048036038101906103539190611d66565b61131d565b6040516103659190612323565b60405180910390f35b61038860048036038101906103839190611c79565b61158a565b005b6103a4600480360381019061039f9190611bee565b61188f565b6040516103b19190612694565b60405180910390f35b6103c26118b4565b6040516103cf9190612308565b60405180910390f35b6040518060400160405280601481526020017f4d6167696320496e7465726e6574204d6f6e657900000000000000000000000081525081565b600360009054906101000a900473ffffffffffffffffffffffffffffffffffffffff1673ffffffffffffffffffffffffffffffffffffffff163373ffffffffffffffffffffffffffffffffffffffff16146104a1576040517f08c379a00000000000000000000000000000000000000000000000000000000081526004016104989061258b565b60405180910390fd5b811561062357600073ffffffffffffffffffffffffffffffffffffffff168373ffffffffffffffffffffffffffffffffffffffff161415806104e05750805b61051f576040517f08c379a0000000000000000000000000000000000000000000000000000000008152600401610516906124cb565b60405180910390fd5b8273ffffffffffffffffffffffffffffffffffffffff16600360009054906101000a900473ffffffffffffffffffffffffffffffffffffffff1673ffffffffffffffffffffffffffffffffffffffff167f8be0079c531659141344cd1fd0a4f28419497f9722a3daafe3b4186f6b6457e060405160405180910390a382600360006101000a81548173ffffffffffffffffffffffffffffffffffffffff021916908373ffffffffffffffffffffffffffffffffffffffff1602179055506000600460006101000a81548173ffffffffffffffffffffffffffffffffffffffff021916908373ffffffffffffffffffffffffffffffffffffffff160217905550610665565b82600460006101000a81548173ffffffffffffffffffffffffffffffffffffffff021916908373ffffffffffffffffffffffffffffffffffffffff1602179055505b505050565b600081600160003373ffffffffffffffffffffffffffffffffffffffff1673ffffffffffffffffffffffffffffffffffffffff16815260200190815260200160002060008573ffffffffffffffffffffffffffffffffffffffff1673ffffffffffffffffffffffffffffffffffffffff168152602001908152602001600020819055508273ffffffffffffffffffffffffffffffffffffffff163373ffffffffffffffffffffffffffffffffffffffff167f8c5be1e5ebec7d5bd14f71427d1e84f3dd0314c0f7b2291e5b200ac8c7c3b9258460405161074a9190612694565b60405180910390a36001905092915050565b60055481565b6000808214610a985760008060008673ffffffffffffffffffffffffffffffffffffffff1673ffffffffffffffffffffffffffffffffffffffff168152602001908152602001600020549050828110156107f1576040517f08c379a00000000000000000000000000000000000000000000000000000000081526004016107e89061260b565b60405180910390fd5b8373ffffffffffffffffffffffffffffffffffffffff168573ffffffffffffffffffffffffffffffffffffffff1614610a96576000600160008773ffffffffffffffffffffffffffffffffffffffff1673ffffffffffffffffffffffffffffffffffffffff16815260200190815260200160002060003373ffffffffffffffffffffffffffffffffffffffff1673ffffffffffffffffffffffffffffffffffffffff1681526020019081526020016000205490507fffffffffffffffffffffffffffffffffffffffffffffffffffffffffffffffff8114610993578381101561090f576040517f08c379a00000000000000000000000000000000000000000000000000000000081526004016109069061252b565b60405180910390fd5b838103600160008873ffffffffffffffffffffffffffffffffffffffff1673ffffffffffffffffffffffffffffffffffffffff16815260200190815260200160002060003373ffffffffffffffffffffffffffffffffffffffff1673ffffffffffffffffffffffffffffffffffffffff168152602001908152602001600020819055505b600073ffffffffffffffffffffffffffffffffffffffff168573ffffffffffffffffffffffffffffffffffffffff161415610a03576040517f08c379a00000000000000000000000000000000000000000000000000000000081526004016109fa906124ab565b60405180910390fd5b8382036000808873ffffffffffffffffffffffffffffffffffffffff1673ffffffffffffffffffffffffffffffffffffffff16815260200190815260200160002081905550836000808773ffffffffffffffffffffffffffffffffffffffff1673ffffffffffffffffffffffffffffffffffffffff16815260200190815260200160002060008282540192505081905550505b505b8273ffffffffffffffffffffffffffffffffffffffff168473ffffffffffffffffffffffffffffffffffffffff167fddf252ad1be2c89b69c2b068fc378daa952ba7f163c4a11628f55a4df523b3ef84604051610af59190612694565b60405180910390a3600190509392505050565b601281565b6000610b176118da565b905090565b600360009054906101000a900473ffffffffffffffffffffffffffffffffffffffff1673ffffffffffffffffffffffffffffffffffffffff163373ffffffffffffffffffffffffffffffffffffffff1614610bac576040517f08c379a0000000000000000000000000000000000000000000000000000000008152600401610ba39061258b565b60405180910390fd5b600073ffffffffffffffffffffffffffffffffffffffff168273ffffffffffffffffffffffffffffffffffffffff161415610c1c576040517f08c379a0000000000000000000000000000000000000000000000000000000008152600401610c13906125cb565b60405180910390fd5b6000610cab82620151804203600660000160009054906101000a90046fffffffffffffffffffffffffffffffff166fffffffffffffffffffffffffffffffff1610610c8857600660000160109054906101000a90046fffffffffffffffffffffffffffffffff16610c8b565b60005b6fffffffffffffffffffffffffffffffff1661193d90919063ffffffff16565b905060006005541480610ce0575080620186a0610cd5613a9860055461198d90919063ffffffff16565b81610cdc57fe5b0410155b610ce957600080fd5b610cf2426119ef565b600660000160006101000a8154816fffffffffffffffffffffffffffffffff02191690836fffffffffffffffffffffffffffffffff160217905550610d36816119ef565b600660000160106101000a8154816fffffffffffffffffffffffffffffffff02191690836fffffffffffffffffffffffffffffffff1602179055508160055401600581905550816000808573ffffffffffffffffffffffffffffffffffffffff1673ffffffffffffffffffffffffffffffffffffffff168152602001908152602001600020600082825401925050819055508273ffffffffffffffffffffffffffffffffffffffff16600073ffffffffffffffffffffffffffffffffffffffff167fddf252ad1be2c89b69c2b068fc378daa952ba7f163c4a11628f55a4df523b3ef84604051610e269190612694565b60405180910390a3505050565b6000803373ffffffffffffffffffffffffffffffffffffffff1673ffffffffffffffffffffffffffffffffffffffff16815260200190815260200160002054811115610eb4576040517f08c379a0000000000000000000000000000000000000000000000000000000008152600401610eab9061254b565b60405180910390fd5b806000803373ffffffffffffffffffffffffffffffffffffffff1673ffffffffffffffffffffffffffffffffffffffff1681526020019081526020016000206000828254039250508190555080600560008282540392505081905550600073ffffffffffffffffffffffffffffffffffffffff163373ffffffffffffffffffffffffffffffffffffffff167fddf252ad1be2c89b69c2b068fc378daa952ba7f163c4a11628f55a4df523b3ef83604051610f6e9190612694565b60405180910390a350565b6000600460009054906101000a900473ffffffffffffffffffffffffffffffffffffffff1690508073ffffffffffffffffffffffffffffffffffffffff163373ffffffffffffffffffffffffffffffffffffffff161461100e576040517f08c379a0000000000000000000000000000000000000000000000000000000008152600401611005906125ab565b60405180910390fd5b8073ffffffffffffffffffffffffffffffffffffffff16600360009054906101000a900473ffffffffffffffffffffffffffffffffffffffff1673ffffffffffffffffffffffffffffffffffffffff167f8be0079c531659141344cd1fd0a4f28419497f9722a3daafe3b4186f6b6457e060405160405180910390a380600360006101000a81548173ffffffffffffffffffffffffffffffffffffffff021916908373ffffffffffffffffffffffffffffffffffffffff1602179055506000600460006101000a81548173ffffffffffffffffffffffffffffffffffffffff021916908373ffffffffffffffffffffffffffffffffffffffff16021790555050565b60068060000160009054906101000a90046fffffffffffffffffffffffffffffffff16908060000160109054906101000a90046fffffffffffffffffffffffffffffffff16905082565b600360009054906101000a900473ffffffffffffffffffffffffffffffffffffffff1673ffffffffffffffffffffffffffffffffffffffff163373ffffffffffffffffffffffffffffffffffffffff16146111ea576040517f08c379a00000000000000000000000000000000000000000000000000000000081526004016111e19061258b565b60405180910390fd5b6111f48183610b1c565b8073ffffffffffffffffffffffffffffffffffffffff166302b9446c3083868660006040518663ffffffff1660e01b8152600401611236959493929190612436565b6040805180830381600087803b15801561124f57600080fd5b505af1158015611263573d6000803e3d6000fd5b505050506040513d601f19601f820116820180604052508101906112879190611e1a565b5050505050565b60006020528060005260406000206000915090505481565b60026020528060005260406000206000915090505481565b600360009054906101000a900473ffffffffffffffffffffffffffffffffffffffff1681565b6040518060400160405280600381526020017f4d494d000000000000000000000000000000000000000000000000000000000081525081565b6000808214158061135957508273ffffffffffffffffffffffffffffffffffffffff163373ffffffffffffffffffffffffffffffffffffffff16145b1561151b5760008060003373ffffffffffffffffffffffffffffffffffffffff1673ffffffffffffffffffffffffffffffffffffffff168152602001908152602001600020549050828110156113e4576040517f08c379a00000000000000000000000000000000000000000000000000000000081526004016113db9061260b565b60405180910390fd5b8373ffffffffffffffffffffffffffffffffffffffff163373ffffffffffffffffffffffffffffffffffffffff161461151957600073ffffffffffffffffffffffffffffffffffffffff168473ffffffffffffffffffffffffffffffffffffffff161415611487576040517f08c379a000000000000000000000000000000000000000000000000000000000815260040161147e906124ab565b60405180910390fd5b8281036000803373ffffffffffffffffffffffffffffffffffffffff1673ffffffffffffffffffffffffffffffffffffffff16815260200190815260200160002081905550826000808673ffffffffffffffffffffffffffffffffffffffff1673ffffffffffffffffffffffffffffffffffffffff168152602001908152602001600020600082825401925050819055505b505b8273ffffffffffffffffffffffffffffffffffffffff163373ffffffffffffffffffffffffffffffffffffffff167fddf252ad1be2c89b69c2b068fc378daa952ba7f163c4a11628f55a4df523b3ef846040516115789190612694565b60405180910390a36001905092915050565b600073ffffffffffffffffffffffffffffffffffffffff168773ffffffffffffffffffffffffffffffffffffffff1614156115fa576040517f08c379a00000000000000000000000000000000000000000000000000000000081526004016115f1906125eb565b60405180910390fd5b83421061163c576040517f08c379a00000000000000000000000000000000000000000000000000000000081526004016116339061256b565b60405180910390fd5b8673ffffffffffffffffffffffffffffffffffffffff1660016116fe7f6e71edae12b1b97f4d1f60370fef10105fa2faae0126114a169c64845d6126c960001b8a8a8a600260008f73ffffffffffffffffffffffffffffffffffffffff1673ffffffffffffffffffffffffffffffffffffffff1681526020019081526020016000206000815480929190600101919050558b6040516020016116e396959493929190612359565b60405160208183030381529060405280519060200120611a6e565b8585856040516000815260200160405260405161171e94939291906123f1565b6020604051602081039080840390855afa158015611740573d6000803e3d6000fd5b5050506020604051035173ffffffffffffffffffffffffffffffffffffffff16146117a0576040517f08c379a00000000000000000000000000000000000000000000000000000000081526004016117979061264b565b60405180910390fd5b84600160008973ffffffffffffffffffffffffffffffffffffffff1673ffffffffffffffffffffffffffffffffffffffff16815260200190815260200160002060008873ffffffffffffffffffffffffffffffffffffffff1673ffffffffffffffffffffffffffffffffffffffff168152602001908152602001600020819055508573ffffffffffffffffffffffffffffffffffffffff168773ffffffffffffffffffffffffffffffffffffffff167f8c5be1e5ebec7d5bd14f71427d1e84f3dd0314c0f7b2291e5b200ac8c7c3b9258760405161187e9190612694565b60405180910390a350505050505050565b6001602052816000526040600020602052806000526040600020600091509150505481565b600460009054906101000a900473ffffffffffffffffffffffffffffffffffffffff1681565b6000804690507f000000000000000000000000000000000000000000000000000000000000000081146119155761191081611ade565b611937565b7f00000000000000000000000000000000000000000000000000000000000000005b91505090565b6000818284019150811015611987576040517f08c379a000000000000000000000000000000000000000000000000000000000815260040161197e9061250b565b60405180910390fd5b92915050565b6000808214806119aa57508282838502925082816119a757fe5b04145b6119e9576040517f08c379a00000000000000000000000000000000000000000000000000000000081526004016119e09061262b565b60405180910390fd5b92915050565b60007fffffffffffffffffffffffffffffffffffffffffffffffffffffffffffffffff6fffffffffffffffffffffffffffffffff16821115611a66576040517f08c379a0000000000000000000000000000000000000000000000000000000008152600401611a5d906124eb565b60405180910390fd5b819050919050565b60006040518060400160405280600281526020017f1901000000000000000000000000000000000000000000000000000000000000815250611aae6118da565b83604051602001611ac1939291906122cf565b604051602081830303815290604052805190602001209050919050565b60007f47e79534a245952e8b16893a336b85a3d9ea9fa8c573f3d803afb92a794692188230604051602001611b15939291906123ba565b604051602081830303815290604052805190602001209050919050565b600081359050611b4181612802565b92915050565b600081359050611b5681612819565b92915050565b600081359050611b6b81612830565b92915050565b600081359050611b8081612847565b92915050565b600081359050611b958161285e565b92915050565b600081519050611baa8161285e565b92915050565b600081359050611bbf81612875565b92915050565b600060208284031215611bd757600080fd5b6000611be584828501611b32565b91505092915050565b60008060408385031215611c0157600080fd5b6000611c0f85828601611b32565b9250506020611c2085828601611b32565b9150509250929050565b600080600060608486031215611c3f57600080fd5b6000611c4d86828701611b32565b9350506020611c5e86828701611b32565b9250506040611c6f86828701611b86565b9150509250925092565b600080600080600080600060e0888a031215611c9457600080fd5b6000611ca28a828b01611b32565b9750506020611cb38a828b01611b32565b9650506040611cc48a828b01611b86565b9550506060611cd58a828b01611b86565b9450506080611ce68a828b01611bb0565b93505060a0611cf78a828b01611b5c565b92505060c0611d088a828b01611b5c565b91505092959891949750929550565b600080600060608486031215611d2c57600080fd5b6000611d3a86828701611b32565b9350506020611d4b86828701611b47565b9250506040611d5c86828701611b47565b9150509250925092565b60008060408385031215611d7957600080fd5b6000611d8785828601611b32565b9250506020611d9885828601611b86565b9150509250929050565b600080600060608486031215611db757600080fd5b6000611dc586828701611b32565b9350506020611dd686828701611b86565b9250506040611de786828701611b71565b9150509250925092565b600060208284031215611e0357600080fd5b6000611e1184828501611b86565b91505092915050565b60008060408385031215611e2d57600080fd5b6000611e3b85828601611b9b565b9250506020611e4c85828601611b9b565b9150509250929050565b611e5f816126f1565b82525050565b611e6e81612703565b82525050565b611e7d8161270f565b82525050565b611e94611e8f8261270f565b6127e7565b82525050565b611ea38161277e565b82525050565b611eb2816127a2565b82525050565b6000611ec3826126ca565b611ecd81856126d5565b9350611edd8185602086016127b4565b611ee6816127f1565b840191505092915050565b6000611efc826126ca565b611f0681856126e6565b9350611f168185602086016127b4565b80840191505092915050565b6000611f2f6016836126d5565b91507f45524332303a206e6f207a65726f2061646472657373000000000000000000006000830152602082019050919050565b6000611f6f6015836126d5565b91507f4f776e61626c653a207a65726f206164647265737300000000000000000000006000830152602082019050919050565b6000611faf601c836126d5565b91507f426f72696e674d6174683a2075696e74313238204f766572666c6f77000000006000830152602082019050919050565b6000611fef6018836126d5565b91507f426f72696e674d6174683a20416464204f766572666c6f7700000000000000006000830152602082019050919050565b600061202f6018836126d5565b91507f45524332303a20616c6c6f77616e636520746f6f206c6f7700000000000000006000830152602082019050919050565b600061206f600f836126d5565b91507f4d494d3a206e6f7420656e6f75676800000000000000000000000000000000006000830152602082019050919050565b60006120af600e836126d5565b91507f45524332303a20457870697265640000000000000000000000000000000000006000830152602082019050919050565b60006120ef6020836126d5565b91507f4f776e61626c653a2063616c6c6572206973206e6f7420746865206f776e65726000830152602082019050919050565b600061212f6020836126d5565b91507f4f776e61626c653a2063616c6c657220213d2070656e64696e67206f776e65726000830152602082019050919050565b600061216f601c836126d5565b91507f4d494d3a206e6f206d696e7420746f207a65726f2061646472657373000000006000830152602082019050919050565b60006121af6018836126d5565b91507f45524332303a204f776e65722063616e6e6f74206265203000000000000000006000830152602082019050919050565b60006121ef6016836126d5565b91507f45524332303a2062616c616e636520746f6f206c6f77000000000000000000006000830152602082019050919050565b600061222f6018836126d5565b91507f426f72696e674d6174683a204d756c204f766572666c6f7700000000000000006000830152602082019050919050565b600061226f6018836126d5565b91507f45524332303a20496e76616c6964205369676e617475726500000000000000006000830152602082019050919050565b6122ab8161272b565b82525050565b6122ba81612767565b82525050565b6122c981612771565b82525050565b60006122db8286611ef1565b91506122e78285611e83565b6020820191506122f78284611e83565b602082019150819050949350505050565b600060208201905061231d6000830184611e56565b92915050565b60006020820190506123386000830184611e65565b92915050565b60006020820190506123536000830184611e74565b92915050565b600060c08201905061236e6000830189611e74565b61237b6020830188611e56565b6123886040830187611e56565b61239560608301866122b1565b6123a260808301856122b1565b6123af60a08301846122b1565b979650505050505050565b60006060820190506123cf6000830186611e74565b6123dc60208301856122b1565b6123e96040830184611e56565b949350505050565b60006080820190506124066000830187611e74565b61241360208301866122c0565b6124206040830185611e74565b61242d6060830184611e74565b95945050505050565b600060a08201905061244b6000830188611e9a565b6124586020830187611e56565b6124656040830186611e56565b61247260608301856122b1565b61247f6080830184611ea9565b9695505050505050565b600060208201905081810360008301526124a38184611eb8565b905092915050565b600060208201905081810360008301526124c481611f22565b9050919050565b600060208201905081810360008301526124e481611f62565b9050919050565b6000602082019050818103600083015261250481611fa2565b9050919050565b6000602082019050818103600083015261252481611fe2565b9050919050565b6000602082019050818103600083015261254481612022565b9050919050565b6000602082019050818103600083015261256481612062565b9050919050565b60006020820190508181036000830152612584816120a2565b9050919050565b600060208201905081810360008301526125a4816120e2565b9050919050565b600060208201905081810360008301526125c481612122565b9050919050565b600060208201905081810360008301526125e481612162565b9050919050565b60006020820190508181036000830152612604816121a2565b9050919050565b60006020820190508181036000830152612624816121e2565b9050919050565b6000602082019050818103600083015261264481612222565b9050919050565b6000602082019050818103600083015261266481612262565b9050919050565b600060408201905061268060008301856122a2565b61268d60208301846122a2565b9392505050565b60006020820190506126a960008301846122b1565b92915050565b60006020820190506126c460008301846122c0565b92915050565b600081519050919050565b600082825260208201905092915050565b600081905092915050565b60006126fc82612747565b9050919050565b60008115159050919050565b6000819050919050565b6000612724826126f1565b9050919050565b60006fffffffffffffffffffffffffffffffff82169050919050565b600073ffffffffffffffffffffffffffffffffffffffff82169050919050565b6000819050919050565b600060ff82169050919050565b600061278982612790565b9050919050565b600061279b82612747565b9050919050565b60006127ad82612767565b9050919050565b60005b838110156127d25780820151818401526020810190506127b7565b838111156127e1576000848401525b50505050565b6000819050919050565b6000601f19601f8301169050919050565b61280b816126f1565b811461281657600080fd5b50565b61282281612703565b811461282d57600080fd5b50565b6128398161270f565b811461284457600080fd5b50565b61285081612719565b811461285b57600080fd5b50565b61286781612767565b811461287257600080fd5b50565b61287e81612771565b811461288957600080fd5b5056fea2646970667358221220a68d679b38d84d97bdd8de4118d92960561b93f10219b89487339592b950aea164736f6c634300060c0033",
  "immutableReferences": {
    "1099": [
      {
        "length": 32,
        "start": 6423
      }
    ],
    "1101": [
      {
        "length": 32,
        "start": 6370
      }
    ]
  },
  "source": "// SPDX-License-Identifier: MIXED\r\n// File contracts/MagicInternetMoney.sol\r\n// License-Identifier: MIT\r\n\r\n// Magic Internet Money\r\n\r\n//       \r\n//   \r\n// \r\n// \r\n//     \r\n//           \r\n\r\n// BoringCrypto, 0xMerlin\r\n\r\npragma solidity 0.6.12;\r\npragma experimental ABIEncoderV2;\r\n\r\n\r\ninterface IBentoBoxV1 {\r\n    event LogDeploy(address indexed masterContract, bytes data, address indexed cloneAddress);\r\n    event LogDeposit(address indexed token, address indexed from, address indexed to, uint256 amount, uint256 share);\r\n    event LogFlashLoan(address indexed borrower, address indexed token, uint256 amount, uint256 feeAmount, address indexed receiver);\r\n    event LogRegisterProtocol(address indexed protocol);\r\n    event LogSetMasterContractApproval(address indexed masterContract, address indexed user, bool approved);\r\n    event LogStrategyDivest(address indexed token, uint256 amount);\r\n    event LogStrategyInvest(address indexed token, uint256 amount);\r\n    event LogStrategyLoss(address indexed token, uint256 amount);\r\n    event LogStrategyProfit(address indexed token, uint256 amount);\r\n    event LogStrategyQueued(address indexed token, address indexed strategy);\r\n    event LogStrategySet(address indexed token, address indexed strategy);\r\n    event LogStrategyTargetPercentage(address indexed token, uint256 targetPercentage);\r\n    event LogTransfer(address indexed token, address indexed from, address indexed to, uint256 share);\r\n    event LogWhiteListMasterContract(address indexed masterContract, bool approved);\r\n    event LogWithdraw(address indexed token, address indexed from, address indexed to, uint256 amount, uint256 share);\r\n    event OwnershipTransferred(address indexed previousOwner, address indexed newOwner);\r\n    function balanceOf(IERC20, address) external view returns (uint256);\r\n    function batch(bytes[] calldata calls, bool revertOnFail) external payable returns (bool[] memory successes, bytes[] memory results);\r\n    function batchFlashLoan(IBatchFlashBorrower borrower, address[] calldata receivers, IERC20[] calldata tokens, uint256[] calldata amounts, bytes calldata data) external;\r\n    function claimOwnership() external;\r\n    function deploy(address masterContract, bytes calldata data, bool useCreate2) external payable;\r\n    function deposit(IERC20 token_, address from, address to, uint256 amount, uint256 share) external payable returns (uint256 amountOut, uint256 shareOut);\r\n    function flashLoan(IFlashBorrower borrower, address receiver, IERC20 token, uint256 amount, bytes calldata data) external;\r\n    function harvest(IERC20 token, bool balance, uint256 maxChangeAmount) external;\r\n    function masterContractApproved(address, address) external view returns (bool);\r\n    function masterContractOf(address) external view returns (address);\r\n    function nonces(address) external view returns (uint256);\r\n    function owner() external view returns (address);\r\n    function pendingOwner() external view returns (address);\r\n    function pendingStrategy(IERC20) external view returns (IStrategy);\r\n    function permitToken(IERC20 token, address from, address to, uint256 amount, uint256 deadline, uint8 v, bytes32 r, bytes32 s) external;\r\n    function registerProtocol() external;\r\n    function setMasterContractApproval(address user, address masterContract, bool approved, uint8 v, bytes32 r, bytes32 s) external;\r\n    function setStrategy(IERC20 token, IStrategy newStrategy) external;\r\n    function setStrategyTargetPercentage(IERC20 token, uint64 targetPercentage_) external;\r\n    function strategy(IERC20) external view returns (IStrategy);\r\n    function strategyData(IERC20) external view returns (uint64 strategyStartDate, uint64 targetPercentage, uint128 balance);\r\n    function toAmount(IERC20 token, uint256 share, bool roundUp) external view returns (uint256 amount);\r\n    function toShare(IERC20 token, uint256 amount, bool roundUp) external view returns (uint256 share);\r\n    function totals(IERC20) external view returns (Rebase memory totals_);\r\n    function transfer(IERC20 token, address from, address to, uint256 share) external;\r\n    function transferMultiple(IERC20 token, address from, address[] calldata tos, uint256[] calldata shares) external;\r\n    function transferOwnership(address newOwner, bool direct, bool renounce) external;\r\n    function whitelistMasterContract(address masterContract, bool approved) external;\r\n    function whitelistedMasterContracts(address) external view returns (bool);\r\n    function withdraw(IERC20 token_, address from, address to, uint256 amount, uint256 share) external returns (uint256 amountOut, uint256 shareOut);\r\n}\r\n\r\ninterface IBatchFlashBorrower {\r\n    function onBatchFlashLoan(\r\n        address sender,\r\n        IERC20[] calldata tokens,\r\n        uint256[] calldata amounts,\r\n        uint256[] calldata fees,\r\n        bytes calldata data\r\n    ) external;\r\n}\r\n\r\ninterface IStrategy {\r\n    // Send the assets to the Strategy and call skim to invest them\r\n    function skim(uint256 amount) external;\r\n\r\n    // Harvest any profits made converted to the asset and pass them to the caller\r\n    function harvest(uint256 balance, address sender) external returns (int256 amountAdded);\r\n\r\n    // Withdraw assets. The returned amount can differ from the requested amount due to rounding.\r\n    // The actualAmount should be very close to the amount. The difference should NOT be used to report a loss. That's what harvest is for.\r\n    function withdraw(uint256 amount) external returns (uint256 actualAmount);\r\n\r\n    // Withdraw all assets in the safest way possible. This shouldn't fail.\r\n    function exit(uint256 balance) external returns (int256 amountAdded);\r\n}\r\n\r\ninterface IFlashBorrower {\r\n    function onFlashLoan(\r\n        address sender,\r\n        IERC20 token,\r\n        uint256 amount,\r\n        uint256 fee,\r\n        bytes calldata data\r\n    ) external;\r\n}\r\n\r\nlibrary BoringMath {\r\n    function add(uint256 a, uint256 b) internal pure returns (uint256 c) {\r\n        require((c = a + b) >= b, \"BoringMath: Add Overflow\");\r\n    }\r\n\r\n    function sub(uint256 a, uint256 b) internal pure returns (uint256 c) {\r\n        require((c = a - b) <= a, \"BoringMath: Underflow\");\r\n    }\r\n\r\n    function mul(uint256 a, uint256 b) internal pure returns (uint256 c) {\r\n        require(b == 0 || (c = a * b) / b == a, \"BoringMath: Mul Overflow\");\r\n    }\r\n\r\n    function to128(uint256 a) internal pure returns (uint128 c) {\r\n        require(a <= uint128(-1), \"BoringMath: uint128 Overflow\");\r\n        c = uint128(a);\r\n    }\r\n\r\n    function to64(uint256 a) internal pure returns (uint64 c) {\r\n        require(a <= uint64(-1), \"BoringMath: uint64 Overflow\");\r\n        c = uint64(a);\r\n    }\r\n\r\n    function to32(uint256 a) internal pure returns (uint32 c) {\r\n        require(a <= uint32(-1), \"BoringMath: uint32 Overflow\");\r\n        c = uint32(a);\r\n    }\r\n}\r\n\r\nlibrary BoringMath128 {\r\n    function add(uint128 a, uint128 b) internal pure returns (uint128 c) {\r\n        require((c = a + b) >= b, \"BoringMath: Add Overflow\");\r\n    }\r\n\r\n    function sub(uint128 a, uint128 b) internal pure returns (uint128 c) {\r\n        require((c = a - b) <= a, \"BoringMath: Underflow\");\r\n    }\r\n}\r\n\r\nstruct Rebase {\r\n    uint128 elastic;\r\n    uint128 base;\r\n}\r\n\r\n/// @notice A rebasing library using overflow-/underflow-safe math.\r\nlibrary RebaseLibrary {\r\n    using BoringMath for uint256;\r\n    using BoringMath128 for uint128;\r\n\r\n    /// @notice Calculates the base value in relationship to `elastic` and `total`.\r\n    function toBase(\r\n        Rebase memory total,\r\n        uint256 elastic,\r\n        bool roundUp\r\n    ) internal pure returns (uint256 base) {\r\n        if (total.elastic == 0) {\r\n            base = elastic;\r\n        } else {\r\n            base = elastic.mul(total.base) / total.elastic;\r\n            if (roundUp && base.mul(total.elastic) / total.base < elastic) {\r\n                base = base.add(1);\r\n            }\r\n        }\r\n    }\r\n\r\n    /// @notice Calculates the elastic value in relationship to `base` and `total`.\r\n    function toElastic(\r\n        Rebase memory total,\r\n        uint256 base,\r\n        bool roundUp\r\n    ) internal pure returns (uint256 elastic) {\r\n        if (total.base == 0) {\r\n            elastic = base;\r\n        } else {\r\n            elastic = base.mul(total.elastic) / total.base;\r\n            if (roundUp && elastic.mul(total.base) / total.elastic < base) {\r\n                elastic = elastic.add(1);\r\n            }\r\n        }\r\n    }\r\n\r\n    /// @notice Add `elastic` to `total` and doubles `total.base`.\r\n    /// @return (Rebase) The new total.\r\n    /// @return base in relationship to `elastic`.\r\n    function add(\r\n        Rebase memory total,\r\n        uint256 elastic,\r\n        bool roundUp\r\n    ) internal pure returns (Rebase memory, uint256 base) {\r\n        base = toBase(total, elastic, roundUp);\r\n        total.elastic = total.elastic.add(elastic.to128());\r\n        total.base = total.base.add(base.to128());\r\n        return (total, base);\r\n    }\r\n\r\n    /// @notice Sub `base` from `total` and update `total.elastic`.\r\n    /// @return (Rebase) The new total.\r\n    /// @return elastic in relationship to `base`.\r\n    function sub(\r\n        Rebase memory total,\r\n        uint256 base,\r\n        bool roundUp\r\n    ) internal pure returns (Rebase memory, uint256 elastic) {\r\n        elastic = toElastic(total, base, roundUp);\r\n        total.elastic = total.elastic.sub(elastic.to128());\r\n        total.base = total.base.sub(base.to128());\r\n        return (total, elastic);\r\n    }\r\n\r\n    /// @notice Add `elastic` and `base` to `total`.\r\n    function add(\r\n        Rebase memory total,\r\n        uint256 elastic,\r\n        uint256 base\r\n    ) internal pure returns (Rebase memory) {\r\n        total.elastic = total.elastic.add(elastic.to128());\r\n        total.base = total.base.add(base.to128());\r\n        return total;\r\n    }\r\n\r\n    /// @notice Subtract `elastic` and `base` to `total`.\r\n    function sub(\r\n        Rebase memory total,\r\n        uint256 elastic,\r\n        uint256 base\r\n    ) internal pure returns (Rebase memory) {\r\n        total.elastic = total.elastic.sub(elastic.to128());\r\n        total.base = total.base.sub(base.to128());\r\n        return total;\r\n    }\r\n\r\n    /// @notice Add `elastic` to `total` and update storage.\r\n    /// @return newElastic Returns updated `elastic`.\r\n    function addElastic(Rebase storage total, uint256 elastic) internal returns (uint256 newElastic) {\r\n        newElastic = total.elastic = total.elastic.add(elastic.to128());\r\n    }\r\n\r\n    /// @notice Subtract `elastic` from `total` and update storage.\r\n    /// @return newElastic Returns updated `elastic`.\r\n    function subElastic(Rebase storage total, uint256 elastic) internal returns (uint256 newElastic) {\r\n        newElastic = total.elastic = total.elastic.sub(elastic.to128());\r\n    }\r\n}\r\n\r\n\r\ninterface IERC20 {\r\n    function totalSupply() external view returns (uint256);\r\n\r\n    function balanceOf(address account) external view returns (uint256);\r\n\r\n    function allowance(address owner, address spender) external view returns (uint256);\r\n\r\n    function approve(address spender, uint256 amount) external returns (bool);\r\n\r\n    event Transfer(address indexed from, address indexed to, uint256 value);\r\n    event Approval(address indexed owner, address indexed spender, uint256 value);\r\n\r\n    /// @notice EIP 2612\r\n    function permit(\r\n        address owner,\r\n        address spender,\r\n        uint256 value,\r\n        uint256 deadline,\r\n        uint8 v,\r\n        bytes32 r,\r\n        bytes32 s\r\n    ) external;\r\n}\r\n\r\ncontract Domain {\r\n    bytes32 private constant DOMAIN_SEPARATOR_SIGNATURE_HASH = keccak256(\"EIP712Domain(uint256 chainId,address verifyingContract)\");\r\n    // See https://eips.ethereum.org/EIPS/eip-191\r\n    string private constant EIP191_PREFIX_FOR_EIP712_STRUCTURED_DATA = \"\\x19\\x01\";\r\n\r\n    // solhint-disable var-name-mixedcase\r\n    bytes32 private immutable _DOMAIN_SEPARATOR;\r\n    uint256 private immutable DOMAIN_SEPARATOR_CHAIN_ID;    \r\n\r\n    /// @dev Calculate the DOMAIN_SEPARATOR\r\n    function _calculateDomainSeparator(uint256 chainId) private view returns (bytes32) {\r\n        return keccak256(\r\n            abi.encode(\r\n                DOMAIN_SEPARATOR_SIGNATURE_HASH,\r\n                chainId,\r\n                address(this)\r\n            )\r\n        );\r\n    }\r\n\r\n    constructor() public {\r\n        uint256 chainId; assembly {chainId := chainid()}\r\n        _DOMAIN_SEPARATOR = _calculateDomainSeparator(DOMAIN_SEPARATOR_CHAIN_ID = chainId);\r\n    }\r\n\r\n    /// @dev Return the DOMAIN_SEPARATOR\r\n    // It's named internal to allow making it public from the contract that uses it by creating a simple view function\r\n    // with the desired public name, such as DOMAIN_SEPARATOR or domainSeparator.\r\n    // solhint-disable-next-line func-name-mixedcase\r\n    function _domainSeparator() internal view returns (bytes32) {\r\n        uint256 chainId; assembly {chainId := chainid()}\r\n        return chainId == DOMAIN_SEPARATOR_CHAIN_ID ? _DOMAIN_SEPARATOR : _calculateDomainSeparator(chainId);\r\n    }\r\n\r\n    function _getDigest(bytes32 dataHash) internal view returns (bytes32 digest) {\r\n        digest =\r\n            keccak256(\r\n                abi.encodePacked(\r\n                    EIP191_PREFIX_FOR_EIP712_STRUCTURED_DATA,\r\n                    _domainSeparator(),\r\n                    dataHash\r\n                )\r\n            );\r\n    }\r\n}\r\n\r\nabstract contract ERC20 is IERC20, Domain {\r\n    /// @notice owner > balance mapping.\r\n    mapping(address => uint256) public override balanceOf;\r\n    /// @notice owner > spender > allowance mapping.\r\n    mapping(address => mapping(address => uint256)) public override allowance;\r\n    /// @notice owner > nonce mapping. Used in `permit`.\r\n    mapping(address => uint256) public nonces;\r\n\r\n    event Transfer(address indexed _from, address indexed _to, uint256 _value);\r\n    event Approval(address indexed _owner, address indexed _spender, uint256 _value);\r\n\r\n    /// @notice Transfers `amount` tokens from `msg.sender` to `to`.\r\n    /// @param to The address to move the tokens.\r\n    /// @param amount of the tokens to move.\r\n    /// @return (bool) Returns True if succeeded.\r\n    function transfer(address to, uint256 amount) public returns (bool) {\r\n        // If `amount` is 0, or `msg.sender` is `to` nothing happens\r\n        if (amount != 0 || msg.sender == to) {\r\n            uint256 srcBalance = balanceOf[msg.sender];\r\n            require(srcBalance >= amount, \"ERC20: balance too low\");\r\n            if (msg.sender != to) {\r\n                require(to != address(0), \"ERC20: no zero address\"); // Moved down so low balance calls safe some gas\r\n\r\n                balanceOf[msg.sender] = srcBalance - amount; // Underflow is checked\r\n                balanceOf[to] += amount;\r\n            }\r\n        }\r\n        emit Transfer(msg.sender, to, amount);\r\n        return true;\r\n    }\r\n\r\n    /// @notice Transfers `amount` tokens from `from` to `to`. Caller needs approval for `from`.\r\n    /// @param from Address to draw tokens from.\r\n    /// @param to The address to move the tokens.\r\n    /// @param amount The token amount to move.\r\n    /// @return (bool) Returns True if succeeded.\r\n    function transferFrom(\r\n        address from,\r\n        address to,\r\n        uint256 amount\r\n    ) public returns (bool) {\r\n        // If `amount` is 0, or `from` is `to` nothing happens\r\n        if (amount != 0) {\r\n            uint256 srcBalance = balanceOf[from];\r\n            require(srcBalance >= amount, \"ERC20: balance too low\");\r\n\r\n            if (from != to) {\r\n                uint256 spenderAllowance = allowance[from][msg.sender];\r\n                // If allowance is infinite, don't decrease it to save on gas (breaks with EIP-20).\r\n                if (spenderAllowance != type(uint256).max) {\r\n                    require(spenderAllowance >= amount, \"ERC20: allowance too low\");\r\n                    allowance[from][msg.sender] = spenderAllowance - amount; // Underflow is checked\r\n                }\r\n                require(to != address(0), \"ERC20: no zero address\"); // Moved down so other failed calls safe some gas\r\n\r\n                balanceOf[from] = srcBalance - amount; // Underflow is checked\r\n                balanceOf[to] += amount;\r\n            }\r\n        }\r\n        emit Transfer(from, to, amount);\r\n        return true;\r\n    }\r\n\r\n    /// @notice Approves `amount` from sender to be spend by `spender`.\r\n    /// @param spender Address of the party that can draw from msg.sender's account.\r\n    /// @param amount The maximum collective amount that `spender` can draw.\r\n    /// @return (bool) Returns True if approved.\r\n    function approve(address spender, uint256 amount) public override returns (bool) {\r\n        allowance[msg.sender][spender] = amount;\r\n        emit Approval(msg.sender, spender, amount);\r\n        return true;\r\n    }\r\n\r\n    // solhint-disable-next-line func-name-mixedcase\r\n    function DOMAIN_SEPARATOR() external view returns (bytes32) {\r\n        return _domainSeparator();\r\n    }\r\n\r\n    // keccak256(\"Permit(address owner,address spender,uint256 value,uint256 nonce,uint256 deadline)\");\r\n    bytes32 private constant PERMIT_SIGNATURE_HASH = 0x6e71edae12b1b97f4d1f60370fef10105fa2faae0126114a169c64845d6126c9;\r\n\r\n    /// @notice Approves `value` from `owner_` to be spend by `spender`.\r\n    /// @param owner_ Address of the owner.\r\n    /// @param spender The address of the spender that gets approved to draw from `owner_`.\r\n    /// @param value The maximum collective amount that `spender` can draw.\r\n    /// @param deadline This permit must be redeemed before this deadline (UTC timestamp in seconds).\r\n    function permit(\r\n        address owner_,\r\n        address spender,\r\n        uint256 value,\r\n        uint256 deadline,\r\n        uint8 v,\r\n        bytes32 r,\r\n        bytes32 s\r\n    ) external override {\r\n        require(owner_ != address(0), \"ERC20: Owner cannot be 0\");\r\n        require(block.timestamp < deadline, \"ERC20: Expired\");\r\n        require(\r\n            ecrecover(_getDigest(keccak256(abi.encode(PERMIT_SIGNATURE_HASH, owner_, spender, value, nonces[owner_]++, deadline))), v, r, s) ==\r\n                owner_,\r\n            \"ERC20: Invalid Signature\"\r\n        );\r\n        allowance[owner_][spender] = value;\r\n        emit Approval(owner_, spender, value);\r\n    }\r\n}\r\n\r\ncontract BoringOwnableData {\r\n    address public owner;\r\n    address public pendingOwner;\r\n}\r\n\r\ncontract BoringOwnable is BoringOwnableData {\r\n    event OwnershipTransferred(address indexed previousOwner, address indexed newOwner);\r\n\r\n    /// @notice `owner` defaults to msg.sender on construction.\r\n    constructor() public {\r\n        owner = msg.sender;\r\n        emit OwnershipTransferred(address(0), msg.sender);\r\n    }\r\n\r\n    /// @notice Transfers ownership to `newOwner`. Either directly or claimable by the new pending owner.\r\n    /// Can only be invoked by the current `owner`.\r\n    /// @param newOwner Address of the new owner.\r\n    /// @param direct True if `newOwner` should be set immediately. False if `newOwner` needs to use `claimOwnership`.\r\n    /// @param renounce Allows the `newOwner` to be `address(0)` if `direct` and `renounce` is True. Has no effect otherwise.\r\n    function transferOwnership(\r\n        address newOwner,\r\n        bool direct,\r\n        bool renounce\r\n    ) public onlyOwner {\r\n        if (direct) {\r\n            // Checks\r\n            require(newOwner != address(0) || renounce, \"Ownable: zero address\");\r\n\r\n            // Effects\r\n            emit OwnershipTransferred(owner, newOwner);\r\n            owner = newOwner;\r\n            pendingOwner = address(0);\r\n        } else {\r\n            // Effects\r\n            pendingOwner = newOwner;\r\n        }\r\n    }\r\n\r\n    /// @notice Needs to be called by `pendingOwner` to claim ownership.\r\n    function claimOwnership() public {\r\n        address _pendingOwner = pendingOwner;\r\n\r\n        // Checks\r\n        require(msg.sender == _pendingOwner, \"Ownable: caller != pending owner\");\r\n\r\n        // Effects\r\n        emit OwnershipTransferred(owner, _pendingOwner);\r\n        owner = _pendingOwner;\r\n        pendingOwner = address(0);\r\n    }\r\n\r\n    /// @notice Only allows the `owner` to execute the function.\r\n    modifier onlyOwner() {\r\n        require(msg.sender == owner, \"Ownable: caller is not the owner\");\r\n        _;\r\n    }\r\n}\r\n\r\n/// @title Cauldron\r\n/// @dev This contract allows contract calls to any contract (except BentoBox)\r\n/// from arbitrary callers thus, don't trust calls from this contract in any circumstances.\r\ncontract MagicInternetMoney is ERC20, BoringOwnable {\r\n    using BoringMath for uint256;\r\n    // ERC20 'variables'\r\n    string public constant symbol = \"MIM\";\r\n    string public constant name = \"Magic Internet Money\";\r\n    uint8 public constant decimals = 18;\r\n    uint256 public override totalSupply;\r\n\r\n    struct Minting {\r\n        uint128 time;\r\n        uint128 amount;\r\n    }\r\n\r\n    Minting public lastMint;\r\n    uint256 private constant MINTING_PERIOD = 24 hours;\r\n    uint256 private constant MINTING_INCREASE = 15000;\r\n    uint256 private constant MINTING_PRECISION = 1e5;\r\n\r\n    function mint(address to, uint256 amount) public onlyOwner {\r\n        require(to != address(0), \"MIM: no mint to zero address\");\r\n\r\n        // Limits the amount minted per period to a convergence function, with the period duration restarting on every mint\r\n        uint256 totalMintedAmount = uint256(lastMint.time < block.timestamp - MINTING_PERIOD ? 0 : lastMint.amount).add(amount);\r\n        require(totalSupply == 0 || totalSupply.mul(MINTING_INCREASE) / MINTING_PRECISION >= totalMintedAmount);\r\n\r\n        lastMint.time = block.timestamp.to128();\r\n        lastMint.amount = totalMintedAmount.to128();\r\n\r\n        totalSupply = totalSupply + amount;\r\n        balanceOf[to] += amount;\r\n        emit Transfer(address(0), to, amount);\r\n    }\r\n\r\n    function mintToBentoBox(address clone, uint256 amount, IBentoBoxV1 bentoBox) public onlyOwner {\r\n        mint(address(bentoBox), amount);\r\n        bentoBox.deposit(IERC20(address(this)), address(bentoBox), clone, amount, 0);\r\n    }\r\n\r\n    function burn(uint256 amount) public {\r\n        require(amount <= balanceOf[msg.sender], \"MIM: not enough\");\r\n\r\n        balanceOf[msg.sender] -= amount;\r\n        totalSupply -= amount;\r\n        emit Transfer(msg.sender, address(0), amount);\r\n    }\r\n}",
  "sourcePath": "E:\\project\\Chris\\wonderland-money\\truffle_deploy\\contracts\\MagicInternetMoney.sol",
  "compiler": {
    "name": "solc",
    "version": "0.6.12+commit.27d51765.Emscripten.clang"
  },
  "schemaVersion": "3.4.4",
  "updatedAt": "2022-01-04T23:45:03.845Z",
  "networkType": "ethereum",
  "devdoc": {
    "details": "This contract allows contract calls to any contract (except BentoBox) from arbitrary callers thus, don't trust calls from this contract in any circumstances.",
    "kind": "dev",
    "methods": {
      "approve(address,uint256)": {
        "params": {
          "amount": "The maximum collective amount that `spender` can draw.",
          "spender": "Address of the party that can draw from msg.sender's account."
        },
        "returns": {
          "_0": "(bool) Returns True if approved."
        }
      },
      "permit(address,address,uint256,uint256,uint8,bytes32,bytes32)": {
        "params": {
          "deadline": "This permit must be redeemed before this deadline (UTC timestamp in seconds).",
          "owner_": "Address of the owner.",
          "spender": "The address of the spender that gets approved to draw from `owner_`.",
          "value": "The maximum collective amount that `spender` can draw."
        }
      },
      "transfer(address,uint256)": {
        "params": {
          "amount": "of the tokens to move.",
          "to": "The address to move the tokens."
        },
        "returns": {
          "_0": "(bool) Returns True if succeeded."
        }
      },
      "transferFrom(address,address,uint256)": {
        "params": {
          "amount": "The token amount to move.",
          "from": "Address to draw tokens from.",
          "to": "The address to move the tokens."
        },
        "returns": {
          "_0": "(bool) Returns True if succeeded."
        }
      },
      "transferOwnership(address,bool,bool)": {
        "params": {
          "direct": "True if `newOwner` should be set immediately. False if `newOwner` needs to use `claimOwnership`.",
          "newOwner": "Address of the new owner.",
          "renounce": "Allows the `newOwner` to be `address(0)` if `direct` and `renounce` is True. Has no effect otherwise."
        }
      }
    },
    "title": "Cauldron",
    "version": 1
  },
  "userdoc": {
    "kind": "user",
    "methods": {
      "allowance(address,address)": {
        "notice": "owner > spender > allowance mapping."
      },
      "approve(address,uint256)": {
        "notice": "Approves `amount` from sender to be spend by `spender`."
      },
      "balanceOf(address)": {
        "notice": "owner > balance mapping."
      },
      "claimOwnership()": {
        "notice": "Needs to be called by `pendingOwner` to claim ownership."
      },
      "nonces(address)": {
        "notice": "owner > nonce mapping. Used in `permit`."
      },
      "permit(address,address,uint256,uint256,uint8,bytes32,bytes32)": {
        "notice": "Approves `value` from `owner_` to be spend by `spender`."
      },
      "transfer(address,uint256)": {
        "notice": "Transfers `amount` tokens from `msg.sender` to `to`."
      },
      "transferFrom(address,address,uint256)": {
        "notice": "Transfers `amount` tokens from `from` to `to`. Caller needs approval for `from`."
      },
      "transferOwnership(address,bool,bool)": {
        "notice": "Transfers ownership to `newOwner`. Either directly or claimable by the new pending owner. Can only be invoked by the current `owner`."
      }
    },
    "version": 1
  }
}